:020000040800F2
:1000000000600020AD190108FD190108FD19010863
:1000100000000000000000000000000000000000E0
:10002000000000000000000000000000FD190108B1
:100030000000000000000000FD190108BDAB000831
:10004000FD190108FD190108FD190108FD19010834
:10005000FD190108CDAB0008DDAB0008EDAB0008D1
:10006000EDC30008FD190108FD190108FD1901087B
:10007000FD1901080DA2000825A200082DA2000804
:1000800045A2000800000000000000005DA200087A
:100090000000000075A200088DA20008F1DB000836
:1000A00059DC0008FD190108FD1901089DC0000870
:1000B000BDC00008000000000000000000000000BB
:1000C000030001221040134205D1042B02D9186805
:1000D000000980B270470020FCE7C30711D4042850
:1000E0000FD90F2302681340032B0AD119400133A3
:1000F0005B1AC0215B07C9050B4002490A40134344
:1001000003607047FFFFFF9F03000122022013429C
:1001100005D11000042B02D918680F23184070472E
:1001200010B50400FFF7CCFF002809D0421E830061
:1001300004349000225C002A02D001309842F9D1A8
:1001400010BD0378002B03D05AB2002A01DB013026
:1001500070473F229343C03B59424B41C01803783C
:100160009343802BF4D10130F9E710B500240378D4
:10017000002B01D1200010BDFFF7E3FF0134F6E7AB
:10018000020000787F2809DDDF2808DCF8238001E1
:10019000DB00184053783F22134018437047EF2884
:1001A0000BDCFC21537809019B010007000C0B407C
:1001B000034390783F221040EFE7F72812DCFC2140
:1001C000537889021B030B40E02180044903084057
:1001D00003433F20D17801409078FC220B438001FB
:1001E0001201E8E701204042D8E710B57F2902DC80
:1001F0000170013010BD80231B0199420CDA4023AD
:100200008A115B42134303703F2280230A405B4202
:10021000134343700230EDE780235B02994210DA0A
:1002200020230A135B4213433F24802203708B1167
:10023000234052420C4013432243437082700330E8
:10024000D8E788235B029942D4DAF0230370603B3D
:100250004370113B8A11FF3B1A4382703F221140C9
:100260000B43C3700430C5E7064B1B6818680009D0
:1002700080B20238C343DB17184043000120184303
:100280007047C046FC020020024A536801335360A5
:100290007047C046FC020020024A13690133136113
:1002A0007047C046FC020020024AD3690133D36183
:1002B0007047C046FC020020024A936A01339362F1
:1002C0007047C046FC020020002802DD0B68DA07F8
:1002D00004D41122074B1A70002070475B10013BB9
:1002E000032BF9D80C214B43034AD2180023536047
:1002F000F2E7C04630030020FC0200200A4B002831
:1003000003DD01200A68024204D1112200203433A7
:100310001A7070470C215210013A4A439B185B68CF
:100320005B001843F5E7C046FC02002010B50368E7
:10033000984710BD012A02D1016000207047022AAF
:1003400005D0032AF9D0002AF7D10260F5E70B683F
:100350000360F2E770B50E000400FFF7B1FE050080
:100360003000FFF7ADFE0023854206D1231DAD000E
:1003700004365D19AB4202D30123180070BD197811
:1003800032780C001443F7D0013301369142F1D09A
:100390000023F2E7020010B5102812DC0A4B0B4CC8
:1003A0001B680B494000234208D11B02085E1B0A50
:1003B000012B05D0042A03D1064801E02231085E52
:1003C00010BD01204042FBE70470FF1FF0FFFF005B
:1003D000F834010811020000002070470020704727
:1003E0000420704700207047002804DC1C22054BC5
:1003F0001A70002070470B68DB07FAD40D22014BFE
:10040000F6E7C046300300200123002803DC1C224D
:10041000024B1A70002318007047C04630030020BA
:10042000C3070BD4064B9A6B824207D8DB6B83421F
:1004300004D3031F1B68002B00D018007047C04670
:10044000FC020020F7B501272E4C2F4AA16BE06B70
:100450002E4E082513682B4225D113681B099BB229
:1004600002339B00D218B242F3D30025284E3068E5
:10047000FFF7D6FF013501C6802DF8D1254D28683C
:10048000FFF7CEFF2860206C002802D0FFF7C8FFDE
:100490002064636C002501931F4B1E000093019B99
:1004A0009D4218DBF7BD1B099BB29B00D3189A42F3
:1004B000D3D01D68AC463D420BD1A94209D2A84217
:1004C00007D304256D42AC4465462D68002D00D04D
:1004D0001D60043BEBE73378002B02D10135F03689
:1004E000DDE73C246C433369E4185F1E009BA400E5
:1004F000E418043C002FF1DBA069FFF791FF013FF6
:10050000A061F6E7FC020020D42700200044002070
:10051000D00F002000000020D01100200123F0B5F2
:100520009C4685B0184248D1254B9A6B0092904268
:1005300043D3DB6B019398423FD8031F1B68002B0A
:100540003BD1020003681B099BB2002B1ED099000F
:10055000029102995618614634680C422AD1009DD6
:100560002100A54226D8019DA54223D3251F2F682F
:100570000395002F1ED127683D0717D5151F37603B
:100580002B60236822601B099BB20DE06146131F9C
:100590001960904211D011680B1F1B689C000C1948
:1005A0002568013B156022600A00CEE76146039C86
:1005B0002160CEE71100013BF6E705B0F0BDC04673
:1005C000FC0200203622024B00201A707047C04601
:1005D0003003002000207047002070470020704743
:1005E00000207047002070470020704701207047AE
:1005F00001207047012070470020014B986470472C
:10060000FC0200200120034BD8641B6D834018437B
:100610007047C046FC020020002802DD0B68DB07A3
:1006200002D40D22014B1A700020704730030020C5
:10063000002802DD0B68042B02D90C22014B1A7032
:10064000002070473003002010B5837904003C2B54
:1006500018D81F4A99008858421C00D018000DF085
:1006600057FCE3793C2B20D8194A99008858421C42
:1006700000D018000DF04CFC01235B42E380002306
:10068000236010BD3F2219009143C0290AD1CE2B0F
:1006900008D810491A40920089184A6C0C489200F8
:1006A0001058D9E701204042D9E73F221900914371
:1006B000C0290AD1CE2B08D806491A4092008918C1
:1006C0004A6C034892001058D1E701204042D1E71C
:1006D00054410108F834010810B5002802DD0B6808
:1006E000DA0704D41122074B1A70002010BD5B10EA
:1006F000013B032BF9D80C2253430348C018FFF7E2
:10070000A3FFF2E7300300200003002070B50400CF
:1007100080790DF09FFE431E9841C5B2E0790DF03F
:1007200099FE431E9841227AC0B2002A1AD022793B
:10073000D1B2AA4208D001212268854200D10239F3
:1007400052182260257170BD62798242FBD0226806
:10075000814204D10121521822606071F3E7012126
:100760004942F8E701212268854200D10239521836
:100770002260E8E710B50248FFF7C8FF10BDC04689
:100780000003002010B50248FFF7C0FF10BDC046AF
:100790000C03002010B50248FFF7B8FF10BDC0469B
:1007A0001803002010B50248FFF7B0FF10BDC04687
:1007B00024030020F0B5634B89B0022803DC1C221F
:1007C00034331A7090E001220E68164205D04D684D
:1007D000154202D08C68144202D111223433F0E762
:1007E0007610731E029300230193032805D0CB6873
:1007F000043B5A425341DBB20193731E032B00D9D1
:100800009DE06D10EBB203930C23721E53434E48D0
:100810006410C018FFF718FFEBB2E7B23C2B66D8A4
:100820004A4BEAB29200D3580093013301D0EBB2A5
:1008300000933C2F00D96FE0444BE2B29200D358B2
:100840001D00013300D0E5B2009B013300D176E0FA
:10085000019B002B02D06B1C00D170E0B31E3C4EFC
:10086000022B02D83B4A9B009E5804AC0C2200216C
:10087000200011F091FA002307939E4204D0364BDA
:1008800004960793354B069304AC0222210000988E
:100890000DF04AFA200010F0BDF9019B002B15D095
:1008A0000C220021200011F077FA0023E3609E4221
:1008B00004D0294B0496E360284BA3602800022251
:1008C00021000DF031FA200010F0A4F90C22029959
:1008D0001C4B4A439B18002203995A601A725A72A1
:1008E000019A9972DF721A73002009B0F0BD3F239C
:1008F000EAB29A43C02A0CD1EAB2CE2A09D8E8B2A9
:10090000174A03409B00D218536C10499B005B5858
:100910008AE701235B428BE73F233A009A43C02AD0
:100920000AD1CE2F08D80E4A3B409B00D218536CF8
:1009300006499B005B5883E701256D4284E7352219
:10094000084B3EE7FC020020000300205441010850
:1009500075070008783501082D03000835030008E5
:10096000F834010830030020F0B5B7B0019010F062
:1009700093F9012847D9019B1B785B2B43D1019B3D
:1009800001381F181B5C5D2B3DD1019B3A215D1C7A
:10099000280012F052FB041E35D0461B002E32DD1B
:1009A00029000025320004A812F055FB04AB611C9D
:1009B0009D557F1AAF4226DD3A001DA812F04BFB71
:1009C00064222E0004AB9B18DD552A4F386804A919
:1009D00010F058F9041E05D17B68BD680293029B94
:1009E000A34204DC01360C37102EEFD10BE028684F
:1009F0001DA9039510F046F90835002824D1039B62
:100A0000586800282CD1019810F046F900221A49A4
:100A10000B79032B0ED10B681C005B6808349B001C
:100A2000013BE3189C4202D21D78002D0ED01B1A08
:100A30009C420DD901320831FF2AE9D11B22012045
:100A40000E4B40421A700BE00134C8E7013BE9E766
:100A50001C780133002CEDD1A04203DC0848104380
:100A600037B0F0BD019D1E5D2D5DAE42E2D1013477
:100A7000F2E7C046301B0020F01B002030030020AE
:100A800000FFFFFFF8B5334C606800284DDBC3B2B0
:100A9000314D3C2B4DD8314BC2B29200D3585A1C29
:100AA00039D0A268934236D16A6D002A33D001262C
:100AB00002271369D968B143D960D968B943D960AD
:100AC000D968FF19B943D960D9680437B943D960E7
:100AD000D9680837B943D9601F6A21490F4206D146
:100AE0001F6A20490F4202D11968B14319601600EC
:100AF00001214D3631701E688E431E60130057323F
:100B00004E33197059709970D97019715971997162
:100B1000D9711972117058352B5C002B05D000214A
:100B20000DF0FEFB00226368EA5401235B42636020
:100B3000F8BD3F261A00B243C02AECD1CE2BEAD82A
:100B4000094A33409B00D218536C04499B005B5800
:100B5000A5E7C04600000020FC0200205441010827
:100B60001111000044040000F834010810B50348D6
:100B700010F045FF43000120184310BD4854010800
:100B8000F0B50D0085B016000090002710F032F887
:100B9000EC0F64196410009AFB00D018BC4218DCFA
:100BA000EB0712D50023013DAD000422711902A804
:100BB000039311F04CF9029A039BE143C9170C40CF
:100BC0000099E40008190EF087FC10F009F805B050
:100BD000F0BDF1184A78F35C12021A438B780137A2
:100BE0001B041343CA7812061A430B7901929C46E0
:100BF00062464B791B0213438A7912041A43CB795C
:100C00001B061343019A0EF067FCC4E770B54E68EB
:100C10000A00B51C29000400FFF7B2FF01231D40A4
:100C2000AD190235AD00601970BDFA239B00434336
:100C3000044A5361044B1A78002A01D1FF321A701A
:100C40007047C0467C0300203003002003000122CF
:100C50000220134205D11000042B02D918680F237B
:100C60001840704770B5054E0400335C0D008B4290
:100C700002D00DF055FB355570BDC0465403002021
:100C8000F0B5514F89B0012805DC1C2234373A7089
:100C9000002009B0F0BD01230C681C4202D04D6851
:100CA0001D4202D111223437F1E76410621E039213
:100CB00000220192022807D08A6811001940019190
:100CC0001A4201D053100193631E032B77D86D1085
:100CD000EBB202930C23621E5343381DC018FFF77A
:100CE000B3FCEBB23C2B38D8384BEAB29200D35865
:100CF000013364D0EDB200212800023CFFF7B2FFBF
:100D0000334E022C03D8334BA4001B19DE68019B21
:100D100004AC012B33D10C220021200011F03CF84F
:100D20000023E3609E4204D02B4B0496E3602B4BE0
:100D3000A3600322210028000CF0F6FF20000FF032
:100D400069FF0C23039A02995343FB1800229972FE
:100D5000FF215A60D9721A739AE73F23EAB29A4385
:100D6000C02A2CD1EAB2CE2A29D8E8B21C4A0340C4
:100D70009B00D218536C15499B005B58B8E7019B48
:100D80000C2200212000022B0CD111F005F80023C9
:100D9000E3609E4204D0104B0496E3600F4BA360C7
:100DA0000222C7E710F0F8FF0023E3609E4204D060
:100DB000094B0496E360094BA3600422BAE73B00A9
:100DC000352234331A7063E7FC02002054410108D5
:100DD00089020008783501082D0300083503000852
:100DE000F83401080B4B70B51B681B021B0A012B62
:100DF0000ED10024084B094DE05800212C35FFF797
:100E000031FF605901210434FFF72CFF142CF1D17C
:100E100070BDC0460470FF1F903501087835010889
:100E20000B4B70B51B681B021B0A012B0ED1002453
:100E3000084B094DE05800211835FFF713FF6059A2
:100E400000210434FFF70EFF142CF1D170BDC04611
:100E50000470FF1FA43501087835010810B500287B
:100E60000CDD0A680849131F581E83418B61042A50
:100E700006D0FFF7D5FF0022044B1A65002010BDF5
:100E8000FFF7B0FFFAE7C0467C030020FC02002019
:100E90001D280DD80A4B0B491A680B4B0A420CD17E
:100EA0001202120A012A06D14033185CFF2801D130
:100EB0000120404270475E33F7E77C33F5E7C046D8
:100EC0000470FF1FF0FFFF0078350108F7B5012619
:100ED0000368334203D042680192324203D10D22AB
:100EE000174B1A70F7BD5D10772BFBD82800FFF762
:100EF00051FA041EF6DB2800FFF7CAFF114F3B5CD6
:100F0000012B06D031000DF00BFA2800FFF7C0FFCF
:100F10003E5420000AF05DF8019B59108023DB004D
:100F2000994208DB084920000FF002FA0122074B22
:100F30005B191A77D6E7CB43DB171940F3E7C046B6
:100F40003003002054030020FF0300007C03002036
:100F500010B50800FFF7BAFF002010BD70B50D00F6
:100F60003B2815D8102814D8134B1B181B7F002BB7
:100F70000FD0FFF70FFA6B425D4104000AF029F829
:100F80000E4B694219400E4B2000C9180FF0D0F9E2
:100F900070BDFFF77DFF0400431CF9D0094E335CA0
:100FA000012B04D001210DF0BBF901233355290099
:100FB00020000DF013FAEBE77C03002001FCFFFF9B
:100FC000FF03000054030020036810B5DA0703D4C0
:100FD0000D22054B1A7010BD4168581004394A4261
:100FE0005141FFF7BBFFF6E73003002010B50800C2
:100FF000FFF7EAFF002010BDF0B518C90122180064
:1010000087B01040134225D020001040144221D058
:101010005D103B2B00D91525474E484F735D012BC2
:1010200005D0012128000DF07BF90123735528001C
:10103000FFF72EFF0500431C0BD064102200404B2D
:10104000103A9A4208D9FFF71DFD002128000DF043
:10105000C5F9042007B0F0BD3A4E7368984201D03C
:10106000FFF710FD75602D2C02DCFFF70BFDF0E79C
:10107000EBB23C2B3ED8344BAD00ED587B6D002BD2
:1010800008D1B42011F0BCF8304901900FF087F876
:10109000019B7B656B1CDCD0B3685A1C01D09D4260
:1010A000D7D180235B029C42D3D2012328005B422C
:1010B0000121F360B56009F0B8FD7D6D6100280085
:1010C0000DF076FC002328000393214B02AC029321
:1010D000204B2100E360204B6430A360EB6E002BBB
:1010E0001BD00FF09FFD20000FF094FD786D08F0ED
:1010F0009FFFAEE73F201A008243C02A0AD1CE2BC1
:1011000008D8164A03409B00D218536C0E499B0026
:101110005D58B3E701256D42B0E70FF083FDA3688A
:10112000002BE0D002222B6952421A61D9680332A7
:101130000A43DA60D7E7C04654030020FC020020CF
:10114000908601000000002054410108002000406A
:10115000557A00082D03000835030008F83401080B
:101160000A6870B51300012448682340224212D057
:101170000300234020420ED0002350103B2A0AD8FF
:10118000FFF786FE00230500421C04D0054E335CA9
:10119000A34202D10423180070BD21000DF0C0F855
:1011A0007455F7E75403002070B501250A682B0039
:1011B000A84200DD4B682A4211D02B420FD0012AF1
:1011C0000DDD5810FFF764FE04003B2807D8054EDC
:1011D000335C012B03D001210DF0A2F8355500201E
:1011E00070BDC04654030020002070470023012238
:1011F00010B50A48990001334250802BFAD1084CAF
:10120000084B00211A602000074A10F0C5FD074B6B
:10121000074A6360074B1A6010BDC046D00F00201C
:10122000D027002000000020301C0000A07000002B
:10123000D4270020FC02002003000B48DA0704D466
:10124000042B03D8094800D1094870470F211A68B8
:10125000181D0A40042AF8D00648092AF5D0064885
:10126000032AF2D00548F0E74C540108565401080F
:10127000785401085C540108635401086F54010854
:10128000012310B504001C40184202D04410200075
:1012900010BD042810D90F2203681340042B07D176
:1012A000FFF7CAFF21000A2210F04EFD0400EEE70E
:1012B000032B01D10430F5E70D22014B1A70E6E74C
:1012C00030030020012310B504001C40184202D056
:1012D0004410200010BD042810D90F2203681340C9
:1012E000042B07D1FFF7A8FF21000A2210F02CFDE4
:1012F0000400EEE7032B01D10430F5E70D22014B8A
:101300001A70E6E730030020F7B50C00042804DC6F
:101310001C22144B00201A70FEBD0868FFF7D2FF94
:1013200001906068FFF7CEFF0600A068FFF7CAFFD4
:101330000500E068FFF7C6FF07002069FFF7C2FF5E
:10134000AE4202D11F22074BE4E7019BC01B9B1B4F
:101350005843A91B0FF046FDC31901205B00184339
:10136000DAE7C0463003002070B50868FFF7AAFF2F
:101370001C490FF01DFE0C1E01DA1A4BCC181A4B3B
:1013800001269C4204DD194B9C4220DC184B1C1B9F
:10139000642120000FF026FD6421050020000FF0DD
:1013A00007FE0A0013496B005B5E002A0AD0013574
:1013B0006D00685E642150438A1A5A4380180FF00A
:1013C00011FD0300012073435B00184370BD0A4BFD
:1013D0009C4204DC094BE41801267642D8E7014B15
:1013E0001C1BF9E7A08C0000272300004F460000DB
:1013F000504600009E3E010877690000B0B9FFFF2B
:1014000070B50868FFF75EFFC317C4185C40012C75
:1014100003DC01206400204370BD66103100200011
:101420000FF0E0FC85196D10AE420DDC731C1A0044
:1014300031005A437143121B641AA24200DB33008D
:1014400001205B001843E7E7290020000FF0CAFCE9
:101450004019C30F1B182E005D10E5E7F0B50E0014
:10146000A1B0022805DC1C2200202E4B1A7021B0EE
:10147000F0BD0868FFF726FF04007068FFF722FF41
:101480000500B068FFF71EFF06000F2D45DD0F2594
:1014900040222549684610F0DAFC244940225C319C
:1014A00010A810F0D4FC052200233000F11711F031
:1014B000FDFD6F4600231E4AAE0080185941F259C7
:1014C000002311F0F3FDE7170D04020C2A430B145F
:1014D000650CF9032943E0030125FF246D4224062E
:1014E00024184D4140206946091888590021A41844
:1014F0005D4111F0DBFDCE05420A32436008EE0784
:101500004B1230436910801859412B0022000FF014
:1015100095FD430001201843A9E7EB43DB171D406D
:10152000B6E7C0463003002014360108F83501083C
:101530003C050000002310B50C000B70C30705D557
:101540000D494210200011F03FFD08E00B49002832
:1015500002D0042804D10A49200011F061FD10BD19
:101560000428FCD90F2203681340042BF7D1FFF79E
:1015700063FE04490200E5E7025701087D540108B3
:101580004A5401087F540108012310B504000800E3
:101590001840194210D104290DD90F220B681340AD
:1015A000042B08D10800FFF747FE010020000FF0D0
:1015B00069FB4342584110BD0020FCE7F7B50F001E
:1015C000012804DC1C22384B1A700020FEBD4D6837
:1015D000EB0706D4042D04D90F222B681A40092AE0
:1015E00002D00B22304BEFE76C681B099BB26410F2
:1015F000A34200D85C1E01233E68334001930123BF
:101600001E4212D070109E4247DD844245DB8300AB
:10161000EB180433844243DC0123621C013C9C40F0
:101620009200535123436B60CFE731001F48FFF70F
:10163000ABFF002809D0019B9C42C6DB0122019B25
:10164000013301939B00EA50F5E731001848FFF79A
:101650009BFF00280AD0002CB7D00122631C013C5C
:1016600094409B0014435A516C60AEE7042E0FD98E
:101670000F2233681340042B0AD13000FFF722FEFB
:10168000002808D10B483968FFF77EFF002804D1F5
:101690001122054B98E70028B7DC1222024B93E792
:1016A0005A6801301A60B4E73003002088540108FA
:1016B0008C5401087D540108F0B51C2385B0012825
:1016C00044DD4B68019301231C00022806D08A6880
:1016D0001A4203D054109A4200DC1C000127019BDF
:1016E0003B4200D073E0042B00D870E00F221B684F
:1016F0000D681A40042A38D13D4226D1042D24D940
:101700002B680B321340042B1FD10198FEF708FD04
:10171000A0425CDB2800FFF78FFD03780500002B5B
:1017200055D00198FFF788FD013C290006000019FB
:1017300011F0A5FC051E4AD03378002B01D0AE4233
:101740000DD37C000120204303E00E2300204E4AED
:10175000137005B0F0BD0F23F8E72823F6E730003B
:10176000FEF7EFFC01370600E6E7092A3FD1019BAF
:101770005E687610B4422ADC3D422DD1042D2BD96F
:101780002B6806321340042B26D12800FFF754FDA6
:101790000390019A02940134A300D058854203D1EA
:1017A000029B58003843D4E738420ED104280CD9A4
:1017B0000F2203681340042B07D1FFF73DFD010002
:1017C00003980FF05FFA0028EAD0B442E1DD01206F
:1017D0004042BEE7B442FADC230001990134A20082
:1017E0008A58AA42F6D101205B001843B1E7032AC8
:1017F000EDD11E09B6B25B0FB6001340F61AB44223
:10180000E5DC3D4228D1042DA5D92B680C321A40C5
:10181000032A15D1180980B25B0F800013402F1DD9
:10182000C01A019B361A013C38180433B442CEDC8E
:101830003A00191982421ED301348242F6D118E0CF
:101840000F23042A00D081E72800FFF7F5FC0700EA
:101850002800FEF765FCE4E76D10FF2D00D97CE75A
:10186000019B013C0433B442B1DC1A5D0134AA424D
:10187000F9D1640066E70D78AC461578AC45DBD14C
:1018800001310132D6E7C046300300201C2370B579
:1018900001281BDD01230A681A4216D04868184245
:1018A00018D1042816D901680E331940013B0429C8
:1018B0000CD15410012A06DDFFF7BEFC0500FEF72F
:1018C00054FCA0420CDA122300E011230020084A45
:1018D000137070BD0E23F9E7FEF733FC0500013CE1
:1018E0002800012CF8D1FEF74BFC40002043F0E724
:1018F00030030020F0B585B0039301902F4B029187
:10190000002A01D00221197000272D499F548A65B1
:10191000019B9F4201DB05B0F0BD029ABB00D55888
:10192000274B264E9C6DFA239B00A6191C1B0123F6
:101930001D4206D0234A6B102100300011F010FB2D
:1019400009E0214A002D02D0042D19D11F4A21009F
:10195000300011F005FB194C20000FF09DF9184ADA
:10196000039B9065002B09D0019B013BBB4205DD29
:10197000431C9365202222540022E2540137C7E71A
:101980002800FEF7C1FB0300042805D12800FFF75B
:1019900053FC0F4A0300CFE7092803D16B680D4AB7
:1019A0005B10C9E70C4A0328C6D129680A0992B21C
:1019B000490F92000B40D31A084ABDE7E8230020E4
:1019C0007C0300200257010856540108785401088E
:1019D000A256010891540108AB540108A054010813
:1019E000002310B51A00FFF785FF034B986D0DF02B
:1019F00039FC002010BDC0467C030020F8B501234F
:101A00000D000600140008001D40194227D10429CA
:101A100041D90A680F210A40042A3CD11C4215D141
:101A2000042C38D923680B40042B34D1FFF704FC75
:101A300005002000FFF700FC010028000FF022F94C
:101A4000002830DA042370171840F8BDFFF7F4FBC4
:101A500029000A2210F078F90500601012E0170042
:101A60001F401A4215D1042A15D913680F221340BA
:101A7000042B10D120004D10FFF7DEFB0A223900A5
:101A800010F062F98542DDDB08DD002E09DC002064
:101A9000DBE74D10E1E70F22044B1A700136022EEE
:101AA000F5D80420D1E70028EFD1F7E73003002074
:101AB000012310B504001C40184202D0441020003D
:101AC00010BD042810D90F2203681340042B07D13E
:101AD000FFF7B2FB21000A2210F036F90400EEE70E
:101AE000032B01D10430F5E70D22014B1A70E6E714
:101AF0003003002010B50868FFF7DAFF0020014B23
:101B0000D86510BD7C030020086810B5C30703D555
:101B1000FFF7CEFF014B9864002010BDFC020020AF
:101B200070B508680D00FFF7C3FF04006868013C4A
:101B3000FFF7BEFF042C0BD80138042808D8052273
:101B4000012342431219934002498A6C13438B6468
:101B5000002070BDFC02002070B508680D00FFF782
:101B6000A7FF04006868013CFFF7A2FF042C0BD814
:101B70000138042808D805224243131901229A404B
:101B800002498B6C93438B64002070BDFC020020E3
:101B9000114B13B51B6804001B021B0A012B0BD051
:101BA00001210F200CF0BCFB21680F2004394B42AF
:101BB00059410CF013FC13BD07230093043B019320
:101BC000036869460220042B02D1FFF7A9FFF2E760
:101BD000FFF7C2FFEFE7C0460470FF1F10B5080013
:101BE000FFF7D6FF002010BD70B50C68012325005B
:101BF0001D401C4217D1042C15D90F222368134015
:101C0000092B10D166687610B54204DB0120FFF77E
:101C10000CF8002070BD2300AA0008339858FFF785
:101C200047FF0135F0E72000FFF742FFEEE70868C5
:101C3000F8B5C3071ED5FFF73BFF0300203B5E2B23
:101C40001AD805220121534342430020104E9B3AEB
:101C500005241025F75C3D4200D04018013C4900A6
:101C60006D10002CF7D101339342F1D143000120D4
:101C7000184302E0042801D80120F8BD0F230268B0
:101C80001340042BF8D1034B1A42F5D00079D4E766
:101C9000E83A0108F0FF0F00F0B5060087B00868C9
:101CA0000D00FFF705FF012303901C00022E07DD46
:101CB0006868FFF7FDFE0400A868FFF7F9FE03005F
:101CC0005A1D0492214A1800916C012200270192AA
:101CD000461E059605264643B44605267642651EF1
:101CE000221DB444059E042E0DD8042D0BD8664643
:101CF00077190126BE40019F0296039E374221D0EC
:101D0000029E31430127019E013576000196AA42C9
:101D1000E8D1049D0130A842DAD1002F01D00B4850
:101D20008164042A0BD8012B09D108481D34816C29
:101D30001D0095400532A9439442F9D181640020E9
:101D400007B0F0BD029EB143DCE7C046FC020020B4
:101D5000F0B50C0097B0022805DC1C22D84B1A7095
:101D6000002017B0F0BD0868FFF7A2FE0190606880
:101D7000FFF79EFE0500A068FFF79AFE040028000A
:101D8000FFF786F806003B28EAD8CE4D2B5C012BE6
:101D900004D001210CF0C4FA0123AB55002130001E
:101DA0000CF01CFB2100C8480FF01CF8013805009E
:101DB0006A1E9541C54C451BA368FA2114936368BC
:101DC00089000133180068431F000EF081FF0022D4
:101DD000149B1593A36814931599149B994200D3EF
:101DE00046E11599149BFB1A5B18D218149B1593A6
:101DF0009042EFD80121019B300019400CF0EEFA1F
:101E0000A368FA21129363688900013318006843BC
:101E10001F000EF05DFF0022129B1393A368129324
:101E20001399129B994200D326E11399129BFB1A36
:101E30005B18D218129B13939042EFD8019B30008D
:101E40009907C90F0CF0CAFAA368FA2110936368C6
:101E500089000133180068431F000EF039FF00228B
:101E6000109B1193A36810931199109B994200D372
:101E700006E11199109BFB1A5B18D218109B119365
:101E80009042EFD8019B30005907C90F0CF0A6FA19
:101E9000A368FA210E936368890001331800684330
:101EA0001F000EF015FF00220E9B0F93A3680E93E8
:101EB0000F990E9B994200D3E6E00F990E9BFB1AF7
:101EC0005B18D2180E9B0F939042EFD8019B300005
:101ED0001907C90F0CF082FAA368FA210C93636802
:101EE00089000133180068431F000EF0F1FE002244
:101EF0000C9B0D93A3680C930D990C9B994200D3F6
:101F0000C6E00D990C9BFB1A5B18D2180C9B0D9325
:101F10009042EFD8019B3000D906C90F0CF05EFA51
:101F2000A368FA210A9363688900013318006843A3
:101F30001F000EF0CDFE00220A9B0B93A3680A93AC
:101F40000B990A9B994200D3A6E00B990A9BFB1AB6
:101F50005B18D2180A9B0B939042EFD8019B30007C
:101F60009906C90F0CF03AFAA368FA21089363683E
:101F700089000133180068431F000EF0A9FE0022FB
:101F8000089B0993A36808930999089B994200D379
:101F900086E00999089BFB1A5B18D218089B0993E5
:101FA0009042EFD8019B30005906C90F0CF016FA89
:101FB000A368FA2106936368890001331800684317
:101FC0001F000EF085FE0022069B0793A368069370
:101FD0000799069B994267D20799069BFB1A5B18E3
:101FE000D218069B07939042F0D8019B3000190647
:101FF000C90F0CF0F3F9A368FA210493676889000C
:102000000137380068430EF063FE0022049B0593FD
:10201000A36804930599049B994249D20599049BAE
:10202000FB1A5B18D218049B05939042F0D830003D
:1020300001210CF0D3F92800FA21A368890002934A
:102040006668013670430EF043FE0022029B039344
:10205000A36802930399029B99422DD20399029B94
:10206000F31A5B18D218029B03939042F0D877E6DC
:10207000159B14995B1AB8E6139B12995B1AD8E664
:10208000119B10995B1AF8E60F9B0E995B1A18E7E3
:102090000D9B0C995B1A38E70B9B0A995B1A58E762
:1020A000099B08995B1A78E7079B06995B1A97E7E3
:1020B000059B04995B1AB5E7039B02995B1AD1E76C
:1020C000300300205403002040420F0010E000E0E5
:1020D00070B50400FEF7BAFD012805D1043C634247
:1020E0005C416500280070BD00250428FAD120005D
:1020F000FFF7A2F80400084821000EF0C3FDA84233
:1021000007D0210005480EF0BDFDA842EAD1032505
:10211000E8E70225E6E7C046D25A0108BD540108A7
:10212000F8B50C68E30704D40D221C4B1A7001208B
:10213000F8BD00256410012803DD4868FFF7C8FFDB
:102140000500112CF3D8164B16481A686100164B7F
:1021500002421ED15B1812021C269E5F120A012A3F
:1021600004D1E31E012BE2D90C2CE0D0002EDEDBE3
:102170000E4F3B5DAB4204D0290020000CF0D0F89C
:102180003D550A21300008F0AFFF430001201843FD
:10219000CEE702335B183E269E5FE7E73003002060
:1021A0000470FF1FF0FFFF00783601085403002081
:1021B000F8B5060001200B680D00034203D10D2283
:1021C000104B1A70F8BD5810FEF762FE04003B2851
:1021D00001D90020F6E70027012E03DD6868FFF72C
:1021E00077FF0700084D2B5DBB4204D0390020006B
:1021F0000CF096F82F5520000CF02CF90128E8D1AE
:102200000330DFE73003002054030020086870B576
:10221000012405002540204206D1042804D90F22BC
:1022200003681340042B04D00E220E4B00201A70BA
:1022300070BDFFF701F803782900233B5A42534150
:102240001022C0180FF080FD80239B05C218802348
:10225000DB059A4202D31422024BE7E740002043F9
:10226000E6E7C046300300201C2370B5012833DDAB
:102270000123086818422ED104282CD90F260268A1
:102280003240042A27D14D682C001C401D4222D127
:10229000042D20D92A680D333240042A1CD1FEF7C0
:1022A000CBFF06002800FEF7C7FF0100300006F054
:1022B0001BFF00281DD006F006FE03787B2B0FD1F4
:1022C00001300022110006F0E2FE002811D006F0D5
:1022D00001FE0134F5E70E230020084A137070BD9B
:1022E0005B2B06D1013006F0B6FE002801D0013488
:1022F000F9E7012064002043F1E7C04630030020E5
:10230000F8B52B4B1B681B021B0A012B0DD1294C66
:10231000A569002D09D1284BE16D9A6C1000084386
:1023200004D1DA6C002A00D0D864F8BD206E0028F1
:102330000DD1D86C002800D0DD64E265002904D0FE
:10234000002A02D1FEF76CFDEFE7FEF74BFD226E8F
:102350000423002A00DD531E184E9B00F3180021B1
:102360009869FEF77FFC0522276EE36D7A435219C8
:102370001341012199433300AA002C33D058013571
:102380000CF02CF8052DEED1BF00F719B86901212A
:10239000FEF768FC276E0121BB00F618B0690CF04F
:1023A0001DF82900781C0EF003FE2166BDE7C0462B
:1023B0000470FF1F7C030020FC0200207835010818
:1023C000F7B507000E000EF015FC1D4B1D4D1A78D9
:1023D000012A2FD001221A700023AB660CF0B6FA46
:1023E000002824D1F8231B06FB18DC176405640DB4
:1023F000E418E412F61B2700F1174905490D891965
:10240000CB120193019B104EE3189F420BD27369CC
:102410000E4A1340FA0013430D4A134373610CF044
:1024200095FA002809D0022273699343736100234F
:1024300064352B700EF0D4FBF7BD0137E2E7C046E0
:10244000E00300207C0300200020024007FEFFFF85
:102450000200010010B5002804D104480449FFF728
:10246000AFFF10BD02480349F9E7C04600700108FC
:1024700000B8010800000208431E98419023404222
:10248000DB011840044BC018036800201A0E532AC1
:1024900001D11B02180A70470070010813B5431ED2
:1024A000984190234442DB011C400A4B0902E41886
:1024B000A623090ADB050B430093002301930EF0CA
:1024C00099FB009A019B20000DF006F80EF088FBA6
:1024D00013BDC04600700108154B0100DB6F10B53D
:1024E000002B0BD1134C144B00290AD19A68080019
:1024F000120E522A01D10833180010BD0F4C0D4B9B
:10250000F2E700208C42F8D90B681B0E522BF4D155
:102510004B689A1C92008818DB0700D5043084426F
:1025200003D903681B0E522BE7D00020E5E7C04615
:102530007C03002000B801080070010800000208B8
:10254000F8B50020FFF7C8FFFF26DA27050036049C
:102550003F04002801D12800F8BD0468FFF7BCFF44
:102560003440BC42F5D10500F3E7FF2270B51A4CA8
:102570000021D20020000FF00FFCFF25FFF7E0FF45
:10258000002600280CD1154B1A78002A03D05A785F
:10259000D200A2589A600130F0330A28F4D170BDFD
:1025A00003681A142A400C2A0AD11A122A40FF2A58
:1025B00003D0D200A1180B71A050FFF78DFFE0E708
:1025C000132AFAD11B122B40FF2BF6D0DB00E218A6
:1025D0001671E650F1E7C046F01B0020D011002034
:1025E00070B5104D2C686E68B4420CDD8022280056
:1025F0000D49D200121B6118083005F0BBFE00190E
:102600008005840D2C60A6420ADD28000649321B95
:102610006118083005F0AEFE00198005800D2860B5
:1026200070BDC046FC03002066080020044A05492E
:102630005368C85401339B059B0D53607047C046D7
:10264000FC03002066080020064A53681268DB433A
:102650009B189B0501229B0D834200DC0022100089
:102660007047C046FC030020F8B505000C001600BA
:102670001F1E0ED10320FFF7E7FF002808D0FA2025
:10268000FFF7D4FFE8B2FFF7D1FFE0B2FFF7CEFFCC
:10269000F8BD501DFFF7D8FF0028F9D0FB20FFF749
:1026A000C5FFE8B2FFF7C2FFE0B2FFF7BFFFF0B22D
:1026B000FFF7BCFF3012C0B2FFF7B8FF0024B442EE
:1026C000E6DA385DFFF7B2FF0134F8E7104B70B57A
:1026D0000500002418005A78AA4204D00134F033CF
:1026E0000A2CF8D170BDF022130063430021C018FA
:1026F0000FF052FB074A536C013BA34200D15464D4
:10270000002329001A001120FFF7AEFFEAE7C046B8
:10271000D0110020FC020020F8B50F4D00262F003C
:102720000E4C636CB3420ADC962238000021120181
:102730000FF032FB0023343423612370F8BD2B7873
:10274000002B05D0002311201A006978FFF78CFFB9
:102750000136F035E4E7C046D0110020FC0200202D
:1027600010B50400064A53681268DB439B189B05AA
:102770009B0DA34200DB10BDFFF732FFF2E7C0461E
:10278000FC030020F0B51500764C0122A5442C0076
:10279000019002911440154211D005AB1A706A10D5
:1027A0005A70120E1A710522691299706D140299ED
:1027B000DD70FFF759FFCF239B009D44F0BD042D32
:1027C00029D90F2029680840042831D1022305AEF9
:1027D00028003370FEF730FD05000EF05DFAC822C8
:1027E00001009200904200DD11006B1E651CA142A9
:1027F0000DD1904206D95C4804AB03225B49C01856
:102800000FF025FB33002A0002990198D1E72C0034
:102810005D5D3555EAE7042D01D0002DCBD10322B3
:1028200005AB043D1A706A42554102225D70EBE728
:1028300009287AD1042205AB1A706A685110521225
:1028400059709A700391202901DD202203920027FC
:10285000039A06ACDA70039BBB4202DC05ABE21ABA
:10286000D2E72B00BA0008339E583000FDF74CFC2D
:102870000138082855D80EF017FA34054712545479
:1028800054543C00012323707310637072121B0EAA
:102890007614A270E670237105340137DBE702235A
:1028A00030002370FEF7C8FC06000EF0F5F90300B7
:1028B000A01C142B09D800226370934201D1C418C4
:1028C000EBE7B15C81540132F7E714231122637006
:1028D00031000FF0BCFA2E23E374237563751634B0
:1028E000DBE70323043E237073425E4166700234CB
:1028F000D3E70423237073685A1062705B12A370CD
:102900000023E3700434C8E70523032132682370F1
:1029100013099BB2520F9B000A409B1A63701B1253
:10292000EDE7002323700134B7E7032800D042E726
:10293000052205AB1A700A0992B2490F01409200B4
:10294000521A11125A709970642A00DD642204210F
:10295000DA70081F904201DB043255E7685C585476
:102960000131F6E7C4FCFFFF220300008454010894
:10297000012370B50200FF25074C41185B428A42D3
:1029800001D3D84370BD10781E0A2B4043409B00F2
:102990001B5901327340F2E7DC36010813B504001D
:1029A000FF2815D00B4BC200D058002810D041682A
:1029B00008308900FFF7DCFF01900920FFF7D0FE07
:1029C00004222100172001ABFFF74EFEFFF708FE9F
:1029D00013BDC046F01B002070B5FFF7B1FDFF2509
:1029E000E82604002D047603002801D1200070BDE4
:1029F00003682B40B34200D10400FFF76DFDF3E7FD
:102A0000F7B50190FFF7E8FF01250400FF276D42AD
:102A1000002C01D12800FEBD266833143B40152B45
:102A20000DD12100019808310EF02CF9002801D1B8
:102A300035123D402000FFF74FFD0400E8E71D2B55
:102A4000F8D101256D42F5E770B5114D114BAA691A
:102A5000C118824202DC0020A86170BD0C78461CBF
:102A6000FA3C012C07D8B24210DD4C78002C02D081
:102A7000283C9F2C0AD830000131EAE71C5C013168
:102A80001C7001338A42F9DC101AE5E70100F9E70E
:102A9000FC0300206604002010B507F00BFC064A7A
:102AA000D369834201D90023D361C01A034B834207
:102AB0008041404210BDC046FC030020204E000073
:102AC0000020084B10B5DC69844209D007F0F2FB06
:102AD0000300844200D8031B0020034A9A4240416D
:102AE00010BDC046FC030020BFC62D0010B5FFF787
:102AF000E7FF431E9841800010BD70B5B2B00400DE
:102B0000FFF7DEFF002817D06D46022320002B7050
:102B10000EF0C2F8C72800D9C7200023013C5E1C74
:102B200083420BD132331800FFF71AFE2B0032001C
:102B3000FF211420FFF798FD32B070BDA25D330075
:102B4000AA55ECE7F0B5A1B005920A00574F0490E2
:102B500038680132036801911B099BB202929A42C4
:102B600000DA89E006F0A0F8FFF7CAFB07F0A2FB45
:102B7000002403904E4AA300D0580134FDF7CEFC48
:102B8000802CF7D14B4B1868FDF7C8FC386C002837
:102B900001D0FDF7C3FC0026474D7B6C9E4257DBFE
:102BA0004649474D0A001368141F1B0926689BB24B
:102BB000981C002E5DD08B1A5E1EB3415B420B4009
:102BC00023608300C91880001218AA42EBD3FDF7D6
:102BD00039FC3A4C26000F2233681D09ADB213426E
:102BE0000BD06F1CA64204D031002000BA000FF0B9
:102BF0008BFE0023BF00E41908C40235AD0076192E
:102C00002F4DAE42E7D32D1BAD10013D274E2B01BA
:102C10002360346007F04EFB039AABB2821A023B8A
:102C2000284907A810F0D0F907A8FFF766FF06F0BB
:102C30003BF8FFF765FB3068029A03681B099BB2FB
:102C40009A4219DB0A2300203436337021B0F0BDDC
:102C50002B78002B02D10136F0359EE72C69013C20
:102C6000002CF8DB2B00A20018339858FDF756FC17
:102C7000F5E71B011360A6E7019A0C4D941CA20016
:102C80001B1B81181B010B6029600021031F1960A9
:102C9000019B083A1901049B1943030002C39A18C7
:102CA0009A42D3D9059902C3FAE7C046FC02002034
:102CB000D00F002000000020D0110020D4270020D9
:102CC00000440020C254010870B5002204000D0029
:102CD000411C0920FFF736FF002808D001236200BD
:102CE00013430100436000230831A34200DB70BDA1
:102CF0009A00AE5801338E50F7E7F7B50F000190F8
:102D0000012804DC1C221F4B1A700020FEBD08683D
:102D1000FEF7D8FA05007868FEF7D4FA019B0600A2
:102D20000124022B07D0B868FEF7CCFA041E02DC9F
:102D30002922144BE8E7B5421CDC701B21000EF081
:102D400051F8461C00220920711CFFF7FBFE0028E9
:102D5000DBD001227300134343609440954003008D
:102D6000B600361811002943996004332D19B34277
:102D7000F8D1CBE72100A81B0EF034F86442461CC2
:102D8000E0E7C04630030020F7B54C680191E30747
:102D900006D4042C04D90F2223681A40092A04D02F
:102DA0000B22304B1A700020FEBD1B0965689EB2D5
:102DB000731E6D10AB4244D803200B2D08DD972302
:102DC00061305B009D4203DC032128000EF00AF80D
:102DD000254FBB6B9C4234D3FB6B9C4231D2831991
:102DE00019000122092000933C64FFF7ABFE002389
:102DF0003C6C06003B64984223D02268009B120979
:102E000092B204309A4200DD1A009200211D0FF0A8
:102E10001EF8164A16490020131F186013681B0974
:102E20009BB202339B00D2188A42F4D3271F3E6024
:102E3000FDF708FB00233B6023680E4A1340236024
:102E4000340023681B099BB2013B9D42ABD2019B1E
:102E50001A68AB1C9B001A51012301356D002B43EE
:102E60006360A0E730030020FC020020D42700208C
:102E700000440020F0FF0F0070B5002805DC1C2284
:102E8000164B00241A70200070BD01220D681542F7
:102E900002D10D22114BF4E701281DD04B681342DB
:102EA000F7D05B10FF2B02D913220C4BE9E7180275
:102EB0000200C0181A43000402436D10EB43DB17F5
:102EC0001D40E91C03208910FFF73CFE041EDAD0E8
:102ED0002900FDF702F9D6E70022EEE730030020D3
:102EE000F7B5002805DC1C22314B1A7000242000A5
:102EF000FEBD0D6801272E003E403D4211D03D41F0
:102F0000FF2D02D913222A4BEFE7002239000320BC
:102F1000FFF718FE041EEAD03900FDF7DEF8257130
:102F2000E5E7042DEED90F222B681340042B18D1AE
:102F30002800FDF7F5F8C11C0700320003208910B6
:102F4000FFF700FE041ED2D03900FDF7C6F82800B6
:102F5000FEF772F9231D01003A0018000EF077FF0A
:102F6000C5E7092B1FD103206B6832005B1001936A
:102F70000333D9170140C9188910FFF7E3FD041E78
:102F8000B4D00199FDF7A9F80835221D019B9E4296
:102F9000ADDAB300EB583B4203D05B10FF2BB1D846
:102FA00093550136F2E7032BACD12C009FE7C046C6
:102FB0003003002010B5094C0022206402210920B2
:102FC000FFF7C0FD236C002803D10A23343423709B
:102FD00010BD032283604260FAE7C046FC02002075
:102FE00070B50400C30708D54410FF2C07D913227D
:102FF0000A4B00251A70280070BD631E9C410022F8
:1030000001210320FFF79EFD051E02D10A22034B7A
:10301000EFE70121FDF761F82C71ECE730030020A8
:103020000323043010B5C1171940091800220420E9
:103030008910FFF787FD10BDF7B50E00009001283D
:1030400005DC1C225D4B1A7000242000FEBD4B687D
:1030500001221C001440134202D10D22574BF2E70B
:103060000099022902D0B1681142F6D001223768D6
:10307000174200D09EE0042F00D89BE05D109342E1
:1030800000DC15000F213B681940092927D17B6816
:1030900000995B101A00022901D0B2685210009208
:1030A0009A4200DD0093009B01225F1B0137FB4326
:1030B000DB171F400920791CFFF744FD041EC3D015
:1030C00001237F003B4332684360030008330099CB
:1030D000A942BADB0135A900515802C3F7E7042918
:1030E0003CD13800FEF7A8F80190FDF73EF8009AB1
:1030F0000300022A01D0B3685B100093834200DD15
:103100000090009BAB4223DA0020FFF789FF040008
:103110009BE7FDF716F8070001343800A542F8D107
:10312000009BA34216DAC51B2800FFF779FF041E97
:1031300000D18AE7FEF780F800903068FEF77CF84F
:103140002A00019BFF1AC11900980EF080FE7CE74F
:10315000019FE2E7FCF7F5FF0134E1E7032929D1FC
:103160001A0992B25B0F0B4092000099D21A130019
:10317000022901D0B3685B10934200DD1300AB421B
:1031800005DA002203201100FFF7DCFCBFE75E1B1D
:10319000B110002203200131FFF7D4FC041E00D13E
:1031A00053E7013631000335FCF797FF3200201D4D
:1031B0007919CAE72122014B45E7C04630030020B8
:1031C000F0B593B005000191012806DC1C22984B54
:1031D0001A700025280013B0F0BD019B01261B6862
:1031E0001C003440334200D0ACE0042B00D8E7E0B0
:1031F0000F271B6802943B40092B45D1029B019A83
:103200009B00D3581A0032400392334205D1042B5D
:1032100003D918683840092804D02222844BD7E704
:103220000293EBE75B685B10E418029B01339D425D
:10323000F6D10122611CFFF785FC051EC9D0640090
:10324000344344600400039A083401999300C95838
:1032500008684B68000980B25B10984200D8431E92
:103260000020083183420ADCD943C9170B40029978
:103270009B00E418531C9142ACDD1A00E5E7860080
:103280008F590130A751EDE7032B5ED1029B019AC4
:103290009B00D0583042C0D10428BED9026811002A
:1032A000394003293FD113099BB2520F9B000A40BA
:1032B0009B1A1C19029B01339D4232D10320E31C4F
:1032C000D9170140C91800228910FFF73BFC051EE1
:1032D00000D17EE72100FCF700FF00262F1D019A98
:1032E000B300D45801231C4224D1042C22D90F222C
:1032F00023681A40032A1DD1180980B25B0F800091
:103300001340C01A00230434834217DBC343029ADC
:10331000DB1718403F18731CB24200DC5AE71E004E
:10332000DDE70293B2E7042900D076E7FCF7F8FE68
:103330002418BFE72000FCF7F3FEE3E7E25CFA5451
:103340000133E1E700231C00029301260F27029BB3
:10335000019A9B00D058304236D1042834D90268F3
:1033600011003940042936D1FCF7DAFE2418029BFB
:1033700001339D4226D12000FFF752FE051E00D1E9
:1033800027E70023041D0393039B019A9B00D65853
:1033900001231E422AD1042E28D90F2233681A4055
:1033A000042A3AD13000FCF7BBFE07003000FDF7DD
:1033B00043FF010020003A000EF049FDE41923E02C
:1033C0000294C2E70293C2E705A9FEF7B3F805A885
:1033D0000DF062FCCAE7032900D01EE713099BB277
:1033E000520F9B000A409B1A1C19C0E7300005A928
:1033F000FEF7A0F805A80DF04FFC05A90600020095
:1034000020000EF024FDA419039B029A03990133B6
:103410008A42B8D100232370DCE6032AF4D11F09C5
:10342000BFB25B0FBF001340FF1A311DC2E7C04699
:1034300030030020F0B50E0097B0002806DC1C22F7
:10344000604B1A700025280017B0F0BD0C680123EE
:1034500022001A4000921C4206D1042C04D90F22EB
:1034600021681140092902D00B22564BE9E7616817
:103470004D100495012904DC0098FFF7D1FD0500EB
:10348000E1E75149019101280BD07068184208D139
:10349000042806D903681340042B02D1FDF7CCFEA3
:1034A000019001980DF0F8FB05000F27049B029096
:1034B000013B5D430593049B9B00E31803930123A9
:1034C000A06818426CD104286AD9026811003940FA
:1034D000042903D1FCF724FE451908E0032966D12D
:1034E00013099BB2520F9B000A409B1A5D19039B64
:1034F0000434A342E3D12800FFF792FD051EA1D0BA
:1035000033680793029B002B03D07068FDF794FE8D
:1035100001902800FDF790FE0600009B9A00079B93
:1035200008339F5801233B40069301231F4241D19A
:10353000042F3FD93800FDF77FFE039003980DF06C
:10354000ABFB069B0400002B0ED1042F0CD90F22DD
:103550003B681A40032A07D11C09A4B25B0F391D2E
:10356000A40013400391E41A3000220003990EF0E6
:103570006EFC029B3619002B0AD0059B009A9342E1
:1035800006DD3000029A01990EF061FC029BF618EC
:10359000009B01330093009A049B9342BDD152E7F4
:1035A00009A9FDF7C7FF09A80DF076FB94E7FDF721
:1035B00043FEF9E7380009A9FDF7BCFF09AB039307
:1035C000BCE7C04630030020EF55010870B5050088
:1035D00008000C00FFF724FD002809D00023021D7D
:1035E000A34206DBE343DB171C40002312191370D0
:1035F00070BDE95CD1540133F2E7F0B50D0085B040
:10360000012805DC1C22514B1A70002005B0F0BDCA
:1036100001230868184206D1042804D90F21026842
:103620000A40042A02D00E22484BEDE76F683E00A4
:103630001E401F42F7D1042FF5D93B680B40042BE5
:10364000F1D1FDF7F9FD04003800FDF7F5FD02901A
:103650000DF022FB039000281ED12000FCF785FD11
:103660000190019B01220920591CFFF76BFA384F8A
:1036700038640028C9D00122019B5B0013434360DA
:10368000039B002B2CD12000FCF75BFD019B050068
:10369000B34215D1386CB9E7200002990FF0EFFC66
:1036A000001B4342434120000193019B02990133D7
:1036B0000193039BC0180FF0E2FC0028F5D1D0E77E
:1036C0002000291BFFF782FF00289ED03B6CB20030
:1036D0009B1898602800FCF734FD2C000136D5E7D4
:1036E000019B012B02D12B6883608FE72000029998
:1036F0000FF0C5FC01250600019B002E10D1AB4246
:10370000C8DB20000DF0C8FA01002000FFF75EFFC3
:10371000002800D179E73B6C0135AD00E850B9E7EE
:10372000AB42B7DB2000311BFFF750FF002800D170
:103730006BE73B6C0135AA00D050039B0299F4184B
:1037400020000FF09CFC0600D6E7C04630030020A6
:10375000FC020020F0B50E0085B0002804DC1C221D
:10376000314B1A70002419E00D6801242F00274006
:10377000254206D1042D20D90F222B681340042B9B
:103780000FD12800FDF79EFD02AC01002000FCF7E0
:103790002CFD011B2000FFF719FF0400200005B0DD
:1037A000F0BD092B09D16B685B100193019B9C4212
:1037B00006DD1D4B1B78002B1DD02A221A4BD0E7AB
:1037C0000134A300E858FDF77DFD01237F2810DDBB
:1037D0008022DB18120190420BDB8022013352025F
:1037E000904206DB8822023B5202904200DB00231B
:1037F0009B00FF18DAE73800FFF712FC041EB1D077
:10380000FDF71AFD376805000126019B9E42C5DCC5
:103810000136B300F858FDF755FD01002800FCF70C
:10382000E4FC0500F1E7C04630030020F0B50E00CF
:103830008BB0012806DC1C22AA4B1A700024200041
:103840000BB0F0BD0C682000FCF75EFC0500706852
:10385000FDF7F2FCA44907000DF014FA0126002838
:1038600000D0023E3800A1490DF00CFA002800D12A
:10387000022638009E490DF005FA002800D10426E2
:1038800038009C490DF0FEF9002800D109263800C7
:1038900099490DF0F7F9002800D1B6E1731C02D167
:1038A0003022904BC9E7681E0828C8D80DF006FAE8
:1038B0000900240056014200C7FFC7FFC7FFC7FF2A
:1038C000B000B01E0728BAD80DF096FB043009B935
:1038D000B9B9B911042C00D095E1013CAFE7874894
:1038E000042C00D186480121FFF770FE02E0200081
:1038F000FFF760FB0400A2E7701E08289FD80DF0B8
:103900007BFB059E150A9E9E9E9EF600641000D1CC
:1039100094E7042493E77B49621002A80FF054FB5C
:1039200002A80DF0B9F9010002A8DDE72000FFF7B9
:1039300057FBDFE7701E082800D980E70DF0BEF9BD
:103940000900120047007FFF7FFF7FFF7FFF7FFF9F
:1039500019002000FDF770FC68490DF093F900286C
:10396000D7D16BE72000FDF7ADFC012440000443F4
:1039700065E72000FDF760FCFCF7F7FB624D411C9A
:103980000600002209202C64FFF7DCF8041E02D197
:103990000A22544B51E7012273001343286C6360E1
:1039A000FDF74AFC00270500BE4200D147E728008A
:1039B000FCF7E6FB012122004000BB00084308326F
:1039C000D0502800FCF7BDFB01370500ECE72000D4
:1039D000FDF732FC0DF060F94B4EC11C05000022D2
:1039E000032089103464FFF7ADF8041ED0D0366C84
:1039F0002900FCF772FB3000FDF71EFC0023221D9E
:103A00009D4200DC1BE7C15CD1540133F8E703267B
:103A10006568701E6D10032800D910E70DF044F999
:103A2000020E763A012D06D1A4682000FCF76CFB4B
:103A3000012800D103E72D222A4BFEE6012D03D1F8
:103A4000A4682C4200D0FAE62C22264BF5E601367B
:103A5000B300E058FDF736FC01237F2810DD8022FB
:103A6000DB18120190420BDB80220133520290429C
:103A700006DB8822023B5202904200DB00239B00BF
:103A8000FF18B542E3DA174B1F4E1A78002A04D00C
:103A90002A22D2E601260027F3E738003464FFF734
:103AA000BFFA336C041E019300D1C7E6FDF7C4FBD7
:103AB0000127BD4200DAC2E6019A0137BB00D158A6
:103AC0000123194202D12722064BB6E6882349106A
:103AD0005B03994203D3312334363370AEE6FCF7EF
:103AE00084FBE6E730030020E2540108EA540108B1
:103AF000F1540108F8540108FD5401087D540108EF
:103B00004A54010802570108FC0200200320EB1C64
:103B1000D9170140444EC918002289103464FFF7B8
:103B200011F8041E00D133E7376C2900FCF7D5FAF1
:103B30003900002301270831201D9D4200DC7EE66C
:103B40009A008A583A42BED05210FF2A02D9132353
:103B50003436C2E7C2540133EFE72E002368701EEB
:103B60001D09ADB25B00AD009B0FED1A082800D90E
:103B700065E60DF0A3F80900120064FE190064FE6A
:103B800064FE64FE64FE2B00012D00D053E7237910
:103B90000424002B00D052E650E6012D00D053E75C
:103BA000247964002C434AE61F4E28003464FFF752
:103BB00037FA0423041E316C00D1E9E61A1F95423E
:103BC00000DC3CE6CA5CE2540133F7E7164E691CA0
:103BD000002209203464FEF7B5FF316C041E00D1C9
:103BE000D6E601206B0003432600636000230836FD
:103BF00004319D4200DC22E6CA5C9F005200024371
:103C0000F2510133F5E7012419E6681E082800D9AE
:103C100015E60DF053F88BFE8BFEA2FFDCFE14FEC2
:103C200014FE14FE14FEFCFEFC02002010B588B049
:103C3000002806DC1C220024194B1A70200008B052
:103C400010BD0C682000FCF75FFA0138082823D863
:103C50000DF0D2F9050E19F4222222221900114882
:103C6000042C00D110480121FFF7B0FC0400E5E767
:103C70000E49621068460FF0A7F968460DF00CF87F
:103C800001006846F0E72000FDF7D6FA04000DF0C9
:103C900003F801002000E7E70020FFF7C1F9E5E79E
:103CA000300300207D5401084A54010802570108DE
:103CB00010B50C4C86B020000CF0EEFF0100200087
:103CC000032906D00849122201A80EF0C0F81121DC
:103CD00001A8FFF77BFC002802D10A22034B1A70CF
:103CE00006B010BD1C040020085501083003002058
:103CF000F0B59BB0022844DD01230868184245D185
:103D0000042843D90F2402682240042A3ED14D687A
:103D10002F001F401D4239D1042D37D92A68224077
:103D2000042A33D18C681C4232D0FDF785FA060094
:103D30002800FDF781FA01AD010030002F7005F079
:103D4000D3F964100600002C08DC28000CF0A4FF56
:103D500001002800FFF73AFC1BB0F0BD05F003F9A5
:103D60000228F2D164222900701C05F090F9012C80
:103D7000EBD005F070F96422290005F088F9013CC8
:103D8000F5E71C23034A00201370E5E70E23F9E74B
:103D90000D23F7E73003002010B5204CA544041E86
:103DA00002D1FFF73DF90BE005F0DDF801380628F8
:103DB00030D80CF079FF0909192004312C000420B7
:103DC0008023DB009D4410BD200005F083F8844271
:103DD00004D3011B2000FFF7F9FBF1E70378013B57
:103DE0001F2BF6D80138F2E7200005F0E6F8430073
:103DF00001201843E4E7802269462000D20005F044
:103E0000F3F868460CF048FF01006846E3E7042138
:103E10000348E0E70020C4E70020D1E700FCFFFFF3
:103E20001A550108F7B51C2305000C00012833DDE5
:103E30000127086838422ED104282CD90F210368A5
:103E40000B40042B27D166683E4224D1042E22D990
:103E500032680A330A40042A1ED1FDF7EDF90190B9
:103E60003000FDF7E9F90100022D19D0A5683D42A7
:103E700016D03D41019805F037F9040005F073F8BC
:103E8000012816D1002D02DD0134012D0BD12000B7
:103E9000FFF782FF03E00E2300200E4A1370FEBDE1
:103EA00001256D42E6E7200005F0D5F8013D04004C
:103EB000EBE70228EBD1002DE9DD0134012DE6D03E
:103EC00000222000110005F0E2F805F0C4F8013DE1
:103ED0000400F3E730030020F8B51C23022842DD7C
:103EE0000123086818423DD104283BD90F250268F8
:103EF0002A40042A36D14E6834001C401E4231D17B
:103F0000042E2FD932682A40042A2BD18D681D42F5
:103F10002DD0FDF791F907003000FDF78DF9010074
:103F2000380005F0E1F86D1006002000002D25DDB9
:103F3000300005F018F80300701C012B1CD0002085
:103F4000022B1BD1013602000100300005F09FF862
:103F5000012D13D005F07FF80022110005F097F82D
:103F6000013DF5E70E230020064A1370F8BD0D232E
:103F7000F9E705F070F8013D012DFAD1FFF70CFFCC
:103F8000F4E7C0463003002070B50C68E30718D58D
:103F90002000FDF797F90400203C5E2C13D8002286
:103FA00002210320FEF7CEFD051E02D00521FCF7FD
:103FB00094F8052254430B49281D61180DF047FF62
:103FC00002E0042C02D80125280070BD0F222368CE
:103FD0001340042BF7D12000FCF772F80028F2D030
:103FE0002479D9E7C33C01088022F0B5594BA1B030
:103FF00004935B6A00215200574805930DF0CCFEF4
:1040000080220021520055480DF0C6FE544BDB6F54
:104010001A0003935342534118000293FEF71AFA11
:10402000029B5D429023DB011D404E4BED18FEF7D5
:1040300087FA061E2DD10398FEF71EFA411C02983E
:10404000FEF72CFA029A464BDA67424B9D62FEF766
:104050008CFA039B90215A4253416420C901424A81
:104060005B420B409B18EC1A049B60435E6A059B05
:104070000191F61A0CF0B6FE3C4D230032002900E7
:10408000009007A80EF0A0FF07A8FEF736FD21B0AC
:10409000F0BD04F009FEFF223468231427121340F8
:1040A00017401A000C3A072A25D82B4BDC5D002C50
:1040B0001BD13000FF2103681A120A40974206D133
:1040C0001B140B400C2B14D0132B00D10024FEF733
:1040D00003FA0028EED1002C04D028002100FCF7C0
:1040E00095FD05001C4B0122DA553000FEF7F4F96E
:1040F0009FE70400EBE7153B082BF6D8174BDB5D79
:10410000002BF2D1FF231B041C40194B3000E41894
:1041100063425C4164423440FF2103681A140A4040
:10412000152A0FD01D2A00D10024FEF7D5F900284A
:10413000F2D1002C04D028002100FCF767FD050017
:10414000064BD0E7FF221B1213409F42EDD1040023
:10415000EBE7C046FC030020660D0020660C002043
:104160007C03002008700108007001081F55010839
:104170000000EBFFF0B587B0039203220333DC1796
:10418000294F1440E418FB6F284E5A1E9341902289
:10419000A410D2015B421340B56AA21C02912449CB
:1041A000019090005B182A180090934216D2FFF7F6
:1041B0001BFFFB6F1E495A1E934190225B42D201A6
:1041C0001340B56A009A5B18AA18934206D21948A0
:1041D000FEF793FC0025280007B0F0BD019B039A71
:1041E0001B041343029A2F0012021343A422D20588
:1041F0001343049305940CF0FDFC049A059B2800DE
:104200000BF06AF908370CF0EBFC002C07D021000A
:1042100038000C9AFCF7B4FC012301349C43A40041
:104220003F19B762D7E7C0467C030020FC0300209B
:1042300000B8010861550108F0B5BBB007931B4BEE
:10424000002604930C2343430692049A0290D31849
:104250005A689C6803910592059B9E4213DB0C23D0
:10426000029A0399534300910499114ACB5808A824
:10427000C8210EF075FE08A8FEF73FFC1B220D4B6F
:1042800000201A700EE0206803990CF0FBFC270058
:1042900005000834002807D17B68079906989847DD
:1042A000054B1D643BB0F0BD0136D5E7301B002047
:1042B0008755010830030020FC020020F7B50500F7
:1042C0000022214B5B6C0193204B0199914211DC40
:1042D0000024F0231A006243009200991B4A575CA5
:1042E0005618002F0FD001340A2CF3D11848FEF7CE
:1042F00004FC27E05978A94202D11978002921D17C
:104300000132F033E1E7F022390030000DF044FDD6
:1043100002230E4A0099757053540E4BEA00D3588D
:10432000B570B3600423F360019B37617761A342EA
:1043300002DC054B01345C64002329001A001020C4
:10434000FEF792F9F7BDC046FC020020D011002014
:10435000A1550108F01B0020F7B50C000190FFF7F4
:1043600035F90026194B1A4F18603B79062B01D0FE
:10437000032B19D17F22386843891340052B13D1B1
:10438000C3891340292B0FD10C22835E5B000C33B1
:10439000C018FCF751FF03780500002B11D00CF07A
:1043A0007BFC0023A0420AD001360837FF2EDCD167
:1043B000F7BD019AE95CD25C9142F5D101339C4290
:1043C000F7DCF0B2FFF77AFFEEE7C046000000200E
:1043D000F01B0020C368F0B587685B00FF1803007E
:1043E000BBB0183301930269019B92009C1843698A
:1043F00001999B00CB180293CE4B00901B78002BA9
:104400000CD100217B5E7F2192101D1202610B40B6
:10441000C94A9B009B5802379F461400C54BC74DA5
:104420001878FF283ED100221A70C54B5D6995426D
:1044300007DD0123009A137005F03CFF009B2D1847
:104440005D60009B009A9B68FB1A5B10D360019B28
:10445000E41AA410029B1461019A9B1A009A9B1003
:1044600053613BB0F0BD14000700D7E7140007000C
:10447000D4E71400D2E71400D0E71400CEE73400EC
:10448000CCE73400CAE71400C8E73400C6E73400BC
:10449000C4E73400C2E714000700BFE7039FBDE78D
:1044A000049FBBE7009B9A689B78BA1A52101202CD
:1044B0001A43009B597808AB187010125A70987004
:1044C0001014120ED8701A7113200522FEF7CCF8C2
:1044D0000020F021009B9B4A18706B6C013B5943F4
:1044E0008A5C824200D16B64924B1870A9E7009BF2
:1044F0001120597800231A00FEF7B6F80023F021A6
:10450000009A8E481370436C8E4A013B59438A5C73
:10451000002A96D1436494E7E9E7019BAD00641B50
:10452000E21A844B92101B78002B00D076E7002112
:104530007B5E00991D120A617F217F4A0B409B0020
:104540009B58023768E7019B221DD11A7B4BD82963
:1045500003DD1A2234331A7060E734331B78256088
:104560008910002B00D058E700203B5E00981D12F8
:1045700001617F20704903409B0014005B580237A3
:104580004AE7019B221DD11AD82903DD1A22694B63
:104590001A7043E70026BB5FEDB21B021D43654B5B
:1045A000B81C1B7825608910002B00D05BE7022027
:1045B0003B5E00981D1201617F205F4903409B0014
:1045C00014005B58043727E7019B221DD11AD82914
:1045D00003DD1A22574B1A7020E700257B5FB81CB9
:1045E0005B00FB182360534B89101B78002B00D015
:1045F0003CE702203B5E00981D1201617F204E497E
:1046000003409B0014005B58043705E7019B221D03
:10461000D11AD82903DD1A22464B1A70FEE64A4BFE
:10462000AD00EB5889102360424B1B78002B00D063
:104630001FE700203B5E00981D1201617F203E496C
:1046400003409B0014005B580237E5E6043C2268F7
:104650003D4BAD00EA50019BE21A364B92101B789D
:10466000002B00D0DAE600217B5E00991D120A6162
:104670007F21314A0B409B009B580237CCE6324EDB
:10468000AD00A859FCF7FCFD2A4B049003931B785E
:10469000002B00D0C2E6043C2068FCF7F1FD049B2F
:1046A000C018012340000343AB51019BE21A039B56
:1046B00092101B78002B00D0B0E600217B5E0099A1
:1046C0001D120A617F211C4A0B409B009B58023738
:1046D000A2E6019B221DD11A184BD82903DD1A220C
:1046E00034331A709AE6019D029E0120B54202D22F
:1046F00030000C38006834331B7820608910002BA0
:1047000000D0B8E600203B5E00981D1201617F20BA
:10471000094903409B0014005B5802377CE6019B6B
:10472000221DD11A054BD82910DD1A2234331A70F4
:1047300074E6C04630030020543F0108FC0200200C
:104740007C030020D0110020D00F00200198029E91
:104750008910B04210D230000C380068D74E40109B
:10476000AD192D1A0298AD00343328581B782060FB
:10477000002B08D0140051E618213433197000239F
:10478000236014004AE600203B5E00981D12016180
:104790007F20CB4903409B0014005B5802373BE667
:1047A000019A0299C74B8A421ED20C390968C34844
:1047B000043C49102D1822686D1A0299AD006A5008
:1047C0003433019A1B78A21A9210002B00D025E6F0
:1047D00000217B5E00991D120A617F21B84A0B40BF
:1047E0009B009B58023717E6182234331A7015E6DF
:1047F000019B029A93422ED21600B04B0C3EED184C
:104800003368043C5B10EB1A9B009858FCF738FDAA
:1048100003902068FCF734FD3368029A5B10ED1AB0
:10482000039BAD001E18012376003343AB50019B60
:10483000E21AA54B92101B78002B00D0EEE5002168
:104840007B5E00991D120A617F219D4A0B409B00EF
:104850009B580237E0E518229B4B1A70DEE5019B5E
:10486000221DD11A974BD82903DD1A2234331A702E
:10487000D4E50298AD00343328581B7820608910A5
:10488000002B00D0F9E500203B5E00981D1201616D
:104890007F208B4903409B0014005B580237BBE527
:1048A000043C2368029AAD00AB50019BE21A864B90
:1048B00092101B78002B00D0B0E500217B5E0099A0
:1048C0001D120A617F217E4A0B409B009B580237D4
:1048D000A2E5029B043CAD005D1920682E68FCF740
:1048E000CFFC012376103618760033432B60019BF2
:1048F000E21A754B92101B78002B00D08EE5002138
:104900007B5E00991D120A617F216D4A0B409B005E
:104910009B58023780E5019BAD00641BA34212D86F
:10492000E21A694B92101B78002B00D076E500212B
:104930007B5E00991D120A617F21614A0B409B003A
:104940009B58023768E5614A614908A80EF03CFBB4
:1049500008A8FEF7D2F805F0CBFCFCE7002D02D149
:104960000023FD5E02376B00FF18019BE21A9210D4
:10497000002D00DA65E5544B1B78002B00D04DE587
:1049800000217B5E00991D120A617F214C4A0B4079
:104990009B009B5802373FE5E0E7002D02D1002342
:1049A000FD5E0237043C2368042B04D16B00FF1822
:1049B000002D00DA45E5019BE21A434B92101B786B
:1049C000002B00D02AE500217B5E00991D120A61B0
:1049D0007F213B4A0B409B009B5802371CE5002D72
:1049E00002D10023FD5E0237043C2368042B04D06F
:1049F0006B00FF18002D00DA23E5019BE21A324B11
:104A000092101B78002B00D008E500217B5E0099F6
:104A10001D120A617F212A4A0B409B009B580237D6
:104A2000FAE4002D02D10023FD5E0237261F306814
:104A3000C3070AD540100138002809DB01234000D4
:104A40006D0003437F193360FBE4FCF719FCF2E7C8
:104A5000019B3400F21A1C4B92101B78002B00D0E3
:104A6000DCE400217B5E00991D120A617F21144A5B
:104A70000B409B009B580237CEE40022BB5E0237FE
:104A80001A12029901989446124DD2B2D200091A14
:104A900089100392AA18049111790A4A032903D0B4
:104AA000022334321370B9E4260001990C36701ACF
:104AB000D82811DD1A2334321370AFE4FDFFFF3F15
:104AC000543F0108FC02002030030020CF550108AC
:104AD000DF550108F01B0020FF215B0049000B405F
:104AE000FE39FF390B432360009B34329B681278F8
:104AF000FB1A0B41009F1B02BF7880103B438B4089
:104B00000B436360049B8B401943A1606146009B8B
:104B10009970039B00995B598B60002A04D008337D
:104B20001F003400029679E47F211F0008229B5E5B
:104B3000009A1D1210610B40E24A9B0034009B5802
:104B40000A37029668E4231F1D68029A019B93426C
:104B500033D10A20EB0713D4042D18D90F222B6868
:104B6000F7301340FF30042B0AD12800FCF764FB18
:104B70000CF092F8C8239B00984200D91800063028
:104B80006430FDF761FD00280DD1023F59E4072094
:104B9000042DF5D068426841CB4B40421840802339
:104BA0009B00C018ECE7009B2A0059781220FDF703
:104BB000E9FD0023009A137043E4029BC34C0C3BB5
:104BC0001B6800995B10E41A029BA4001C1920C406
:104BD000083B1B685A108A70BD49D2B2D2005B00F4
:104BE00057589B0A009A5B009760FF18029B019A36
:104BF000043B1B685B109B00D3180293B54BA21AB1
:104C00001B789210002B01D0FFF708FC00217B5E7F
:104C100000991D120A617F21AA4A0B409B009B58F4
:104C20000237FFF7F9FB231F1868FCF729FBAD00DB
:104C3000019B641BE31A9B10060003931E2831DCC2
:104C4000A44B1D78002811DC002D01D0FFF7E6FBF6
:104C50000022BB5E0399009A1D1211617F21994ABF
:104C60000B409B009B580237FFF7D6FB05F022FB59
:104C7000033E361805F01EFB974B801B9842F9D86F
:104C8000002D01D0FFF7CAFB0022BB5E0399009AFA
:104C90001D1211617F218B4A0B409B009B580237EC
:104CA000FFF7BAFB0123009A073E137005F002FBE1
:104CB000009B36185E60FFF7C4FB231F1868FCF7E3
:104CC000DFFAAD00019B641BE21A06009210002877
:104CD00012DC804B1B78002B01D0FFF79FFB0021DB
:104CE0007B5E00991D120A617F21764A0B409B0072
:104CF0009B580237FFF790FB784B984204DD1D224A
:104D0000744B1A70FFF78AFB0123009A137005F0A9
:104D1000D1FAFA239B007343009A073B1B18536098
:104D2000FFF78FFBAB00E41A002328001A002100D4
:104D3000FCF7E0FD6A4D6B4EA96D3000FEF746FCB6
:104D4000694BA96D18603000FFF706FBA86D0AF0EB
:104D500089FA019BE21A5F4B92101B78002B01D05D
:104D6000FFF75CFB00217B5E00991D120A617F2129
:104D7000544A0B409B009B580237FFF74DFB019BA9
:104D8000AD00641BE21A534B92101B78002B01D02C
:104D9000FFF744FB00217B5E00991D120A617F2111
:104DA000484A0B409B009B580237FFF735FB002613
:104DB0004E4D009B0136AB421AD14D4B5E64F0352F
:104DC0000A2EF6D1019BE21A424B92101B78002B5F
:104DD00001D0FFF723FB00217B5E00991D120A61C1
:104DE0007F21384A0B409B009B580237FFF714FB8A
:104DF0002B78002BE3D0002369781A001120FDF7EF
:104E000033FCF022002128000CF0C6FFD7E7231F57
:104E1000186800286ED1083B1868C30733D54010C6
:104E2000220001234100083A0B431360002800DCF4
:104E3000ABE0012342001A43211F0A602200083A16
:104E40001668043A1E41361A1068184255D0F618F2
:104E50009E401E43029BAD00EE50019BE21A1D4B8B
:104E600092101B78002B01D0FFF7D8FA00217B5E4F
:104E700000991D120A617F21124A0B409B009B582A
:104E80000237FFF7C9FA042816D90F2203681A401F
:104E9000092A01D14068C2E7042A04D1FCF7CCF901
:104EA000FBF763F9BCE7032A06D1180980B25B0F50
:104EB00080001340C01AB3E71922064B1A70FFF79F
:104EC000ADFAC046543F010807FEFFFFFDFFFF3F5C
:104ED000F01B0020300300207F96980080EE360003
:104EE0007C030020E823002000000020D0110020D7
:104EF000FC0200204010013898E7042840D90F2117
:104F000002680A40092A06D10236B6003358AD00BD
:104F1000029AAB50A1E7042A2AD1029BAD005B198B
:104F20000493FCF789F905000136012E10DC2800F6
:104F3000FBF707F9431B18000393FEF771F8061EF1
:104F40000ED0FCF779F92900039A0CF080FF07E0F6
:104F50002A78013E002A06D112211600DE4B197074
:104F6000049B1E6079E72800FBF7EBF80500DCE7FF
:104F7000032A05D180190279AD0052001343C7E717
:104F80001922D54B1A70FFF749FA043765E7019AE1
:104F9000AB00E3189B1AD82B18DC0123002D1ADC78
:104FA000019BE21ACC4B92101B78002B01D0FFF72B
:104FB00035FA00217B5E00991D120A617F21C74AE4
:104FC0000B409B009B580237FFF726FA1A22C24B70
:104FD0001A70FFF723FA08C4013DDFE7019A231D89
:104FE000BF4E9B1AD82B04DD1A2334363370FFF7DB
:104FF00015FA019B029A934232D2231F1868FCF7DC
:105000003FF9002828DD029B0C3B1B685B108342A4
:1050100022DBC01AB34BC018029B8000C258AB0001
:10502000E31A1A6001235B1B9B00E418019BE21A40
:10503000A94B92101B78002B01D0FFF7EFF900214C
:105040007B5E00991D120A617F21A44A0B409B00E0
:105050009B580237FFF7E0F9202334363370E1E73D
:1050600018233436FAE7A04AAB001268E31A1A6034
:1050700001235B1B9B00E418019BE21A964B9210E4
:105080001B78002B01D0FFF7C9F900217B5E009946
:105090001D120A617F21914A0B409B009B580237E9
:1050A000FFF7BAF9002D02D10023FD5E0237231F5E
:1050B0001A68042A17D16D007F19019BE21A864BEA
:1050C00092101B78002B01D0FFF7A8F900217B5E1E
:1050D00000991D120A617F21804A0B409B009B585A
:1050E0000237FFF799F91C00E7E7002D02D10023F2
:1050F000FD5E0237231F1A68042A19D000226D00B2
:105100001A607F19019BE21A734B92101B78002BD7
:1051100001D0FFF783F900217B5E00991D120A611F
:105120007F216E4A0B409B009B580237FFF774F9B2
:105130001C00E7E7AA00A21A002D25DD10000126B9
:1051400013685B100168314220D10D2362490B7056
:105150000023136001235B1B9B00E418019BE21AF0
:105160005D4B92101B78002B01D0FFF757F90021FF
:105170007B5E00991D120A617F21584A0B409B00FB
:105180009B580237FFF748F91C23DFE749108B4291
:1051900000DD0B0004308442D4D101215B000B43BD
:1051A000D7E7AA00A21A002D25DD100001261368FA
:1051B0005B100168314220D10D2347490B70002359
:1051C000136001235B1B9B00E418019BE21A424B16
:1051D00092101B78002B01D0FFF720F900217B5E95
:1051E00000991D120A617F213C4A0B409B009B588D
:1051F0000237FFF711F91C23DFE749108B4200DA71
:105200000B0004308442D4D101215B000B43D7E76B
:105210002300083B1968231F1A680123AE001942B6
:1052200023D01A4221D019411A410023914200DAB9
:105230000433A61B336001235B1B9B00E418019B16
:10524000E21A254B92101B78002B01D0FFF7E6F8ED
:1052500000217B5E00991D120A617F211F4A0B40CD
:105260009B009B580237FFF7D7F802204042FCF71B
:10527000C5FBA61B3060DEE723000122083B19684E
:10528000231F1B68AE00114230D013422ED05A109B
:1052900094464810CA0F6146DB1781425A41A61B4B
:1052A0009200326001235B1B9B00E418019BE21A11
:1052B000094B92101B78002B01D0FFF7AFF80021AB
:1052C0007B5E00991D120A617F21044A0B409B00FE
:1052D0009B580237FFF7A0F830030020543F010825
:1052E000FC020020FCFFFF3F0000002001201A000C
:1052F0004042FCF783FBA61B3060D3E72300083B4A
:105300001868231F1968AB00E31A039304239C4613
:10531000814219D000239C46042815D90126304229
:1053200012D10F2203681340042B0DD131420BD14F
:10533000042909D90B681340042B05D1FBF70AF89F
:10534000431E984183009C466246039B1A600123DA
:105350005B1B9B00E418019BE21AE84B92101B7840
:10536000002B01D0FFF75AF800217B5E00991D1237
:105370000A617F21E24A0B409B009B580237FFF7EE
:105380004BF82300083B1868231F1968AB00E31A89
:10539000039300239C46814219D004339C469842D3
:1053A00015D90126304212D10F22036813406345FC
:1053B0000DD131420BD1614509D90B6813406345CA
:1053C00005D1FAF7C7FF4342584183009C46624625
:1053D000039B1A6001235B1B9B00E418019BE21AEC
:1053E000C64B92101B78002B01D0FFF717F8002155
:1053F0007B5E00991D120A617F21C14A0B409B0010
:105400009B580237FFF708F823000122083B196870
:10541000231F1B68AE00114226D0134224D04A102D
:105420009446CA1761465810DB0F81425A41A61BA9
:105430009200326001235B1B9B00E418019BE21A7F
:10544000AE4B92101B78002B01D0FEF7E7FF002136
:105450007B5E00991D120A617F21A94A0B409B00C7
:105460009B580237FEF7D8FF1A000120FCF7C6FA56
:10547000A61B3060DEE72300083B1968231F1A686B
:105480000123AE00194223D01A4221D019411A41FA
:105490000023914200DD0433A61B336001235B1B14
:1054A0009B00E418019BE21A944B92101B78002B8E
:1054B00001D0FEF7B3FF00217B5E00991D120A6147
:1054C0007F218F4A0B409B009B580237FEF7A4FFB9
:1054D0000220FCF793FAA61B3060DFE7231F1B684E
:1054E000043B5A1E9341AA00A21A9B001360012399
:1054F0005B1B9B00E418019BE21A804B92101B7807
:10550000002B01D0FEF78AFF00217B5E00991D125F
:105510000A617F217A4A0B409B009B580237FEF7B5
:105520007BFF2300083B1868FBF7AAFE231F060039
:105530001868FBF7A5FE0123361876001E435B1B97
:105540009B00AA00A21AE418019B1660E21A6B4B9A
:1055500092101B78002B01D0FEF760FF00217B5ECC
:1055600000991D120A617F21654A0B409B009B58E0
:105570000237FEF751FF2300083B1868FBF780FE57
:10558000231F06001868FBF77BFE0123361A7600FE
:105590001E435B1B9B00AA00A21AE418019B166025
:1055A000E21A564B92101B78002B01D0FEF736FF03
:1055B00000217B5E00991D120A617F21504A0B4039
:1055C0009B009B580237FEF727FF2300083B186813
:1055D000FBF756FE231F06001868FBF751FE012259
:1055E0007043AB004000E31A1043521B1860920056
:1055F000019BA418E21A414B92101B78002B01D09A
:10560000FEF70CFF00217B5E00991D120A617F21CD
:105610003B4A0B409B009B580237FEF7FDFE231FC1
:105620001868FBF72DFE374B061E039320D11F226F
:1056300034331A70AB00E31A1E6001235B1B9B001E
:10564000E418019BE21A039B921034331B78002B61
:1056500001D0FEF7E3FE00217B5E00991D120A6176
:105660007F21274A0B409B009B580237FEF7D4FE50
:105670002300083B1868FBF703FE31000BF0B2FB78
:10568000012640000643D5E7AE00A61B3068FBF7B5
:10569000F7FD04907068FBF7F3FD00281DD11F2271
:1056A000164B1A7001235B1B9B00E418019B3060B2
:1056B000E21A124B92101B78002B01D0FEF7AEFEBF
:1056C00000217B5E00991D120A617F210C4A0B406C
:1056D0009B009B580237FEF79FFEC317C2185A4023
:1056E0001100049803920BF063FC002901DA039B7C
:1056F000C918012049000843D4E7C0463003002000
:10570000543F0108FC020020231F1868FBF7B8FD76
:10571000C217801850400122AB004000E31A10432A
:10572000521B18609200019BA418E21AE64B9210DB
:105730001B78002B01D0FEF771FE00217B5E0099E3
:105740001D120A617F21E14A0B409B009B580237E2
:10575000FEF762FEAB00E31A04950393012D07D117
:105760001868FBF78DFD061E0EDA01256D420BE071
:10577000022D35D1039B1868FBF782FD039B0500C2
:105780005868FBF77DFD0600B54202DC33002E00B1
:105790001D000135AD1B0CF067F929000BF008FC6A
:1057A00001238919039A490019431160049A9B1A2D
:1057B0009B00E418019BE21AC34B92101B78002B4C
:1057C00001D0FEF72BFE00217B5E00991D120A61BD
:1057D0007F21BE4A0B409B009B580237FEF71CFE00
:1057E00064250126D5E7AE00A61B31002800FCF792
:1057F0000DFD01235B1B9B00E418019B3060E21A46
:10580000B14B92101B78002B01D0FEF707FE002150
:105810007B5E00991D120A617F21AC4A0B409B0000
:105820009B580237FEF7F8FD2300083B1868FBF78A
:1058300027FD231F06001868FBF722FD01223040D8
:10584000AB004000E31A1043521B18609200019B0A
:10585000A418E21A9C4B92101B78002B01D0FEF783
:10586000DDFD00217B5E00991D120A617F21974AB0
:105870000B409B009B580237FEF7CEFD2300083BF0
:105880001868FBF7FDFC231F06001868FBF7F8FCFF
:105890000123064376001E435B1B9B00AA00A21A4D
:1058A000E418019B1660E21A874B92101B78002BBC
:1058B00001D0FEF7B3FD00217B5E00991D120A6145
:1058C0007F21824A0B409B009B580237FEF7A4FDC4
:1058D0002300083B1868FBF7D3FC231F0600186859
:1058E000FBF7CEFC0123464076001E435B1B9B006A
:1058F000AA00A21AE418019B1660E21A724B9210D9
:105900001B78002B01D0FEF789FD00217B5E0099FA
:105910001D120A617F216D4A0B409B009B58023784
:10592000FEF77AFD231F1868FBF7AAFCC04301228B
:10593000AB004000E31A1043521B18609200019B19
:10594000A418E21A604B92101B78002B01D0FEF7CE
:1059500065FD00217B5E00991D120A617F215B4A73
:105960000B409B009B580237FEF756FD2300083B77
:105970001868FBF785FC231F06001868FBF780FCFE
:105980008640012376001E435B1B9B00AA00A21ADF
:10599000E418019B1660E21A4B4B92101B78002B07
:1059A00001D0FEF73BFD00217B5E00991D120A61CC
:1059B0007F21464A0B409B009B580237FEF72CFD87
:1059C0002300083B1868FBF75BFC231F06001868E0
:1059D000FBF756FC0641012376001E435B1B9B0030
:1059E000AA00A21AE418019B1660E21A364B921024
:1059F0001B78002B01D0FEF711FD00217B5E009982
:105A00001D120A617F21314A0B409B009B580237CF
:105A1000FEF702FDAB00E31A9C4600231900012D9E
:105A20004FD163461A6813002B402A4248D1042AFA
:105A300047D90F2610683040092842D11100566816
:105A40001A00083103917610964203DC01225B00B4
:105A5000134319E00398910041580120014203D0FB
:105A6000014112185B18EFE727230AE052109B1838
:105A700001318D42EADD66468A00B2580242F5D114
:105A80000D23114A137000236246136001235B1B30
:105A90009B00E418019BE21A0B4B92101B78002B21
:105AA00001D0FEF7BBFC00217B5E00991D120A614C
:105AB0007F21064A0B409B009B580237FEF7ACFC47
:105AC0000B000120D5E7C04630030020543F0108F9
:105AD00023000C3B1868FBF7D3FB2300083B0600B0
