:020000040800F2
:10000000B05F0020090100081D930008E17000089E
:1000100000000000000000000000000000000000E0
:10002000000000000000000000000000E1A7000840
:1000300000000000000000004196000845B90008DB
:100040001B0100081B010008819900081B01000822
:100050001B010008CD410008F941000809420008D1
:10006000ADC600081B0100081B0100081D33000875
:100070001B0100080DBA00081B0100081B01000845
:100080001B01000800000000000000001B01000828
:1000900000000000EDB9000805BA00081B010008C7
:1000A000C57200081B0100081B010008EDC1000813
:1000B0009DC2000800000000ADDEEFBE1F00000082
:1000C0000348854600F078FF0048004715360108D0
:1000D000B05F0020B0B5012293040A4A54681C4363
:1000E0005460EFF3108372B60024402C03D220C971
:1000F00020C0641CF9E71068C003FCD483F31088A7
:10010000B0BDC04610200240044880470448004764
:10011000FEE7FEE7FEE7FEE7FEE7FEE7DDB90008E3
:10012000C1000008F0B51FB40646002082B00546A5
:100130004024019100901BE0019922460F46304671
:1001400000F04AFD049A059B801A994110D310468D
:100150001946224600F030FD361A8F41019722469B
:1001600001200021009F00F027FD38184D4100902C
:100170002046641E0028DFDC019B00982946324699
:1001800007B0F0BD30B5434351435C18010C130C6C
:100190000D465D432C1980B292B20546554351433A
:1001A0000A0C09044D1962415843010C000440191E
:1001B000514130BD10B5431A934209D283188818B3
:1001C00003E0401E01785B1E1970521EF9D210BD6B
:1001D00003460B439B0703D009E008C9121F08C060
:1001E000042AFAD203E00B780370401C491C521E0B
:1001F000F9D210BDD2B201E00270401C491EFBD200
:1002000070470022F6E710B513460A460446194621
:10021000FFF7F0FF204610BD10B5044605E00B784F
:100220000370401C002B00D0491C521EF7D2204600
:1002300010BD421C0178401C0029FBD1801A704778
:1002400010B5002200E0521C835C8C5CA34201D1FB
:10025000002BF8D1D8B2E1B2401A10BDC9B203E008
:1002600003788B4203D0401C521EF9D20020704705
:1002700003460A780270401C491C002AF9D118462E
:10028000704730B505460020034600E05B1C9342F2
:1002900005D2EC5CC85C201A01D1002CF6D130BD2F
:1002A000F8B50E460546002400E0641C285D00F009
:1002B000C4FC0746305D00F0C0FC381A02D1295D4D
:1002C0000029F2D1F8BD10B54843044614F012FDE0
:1002D000002805D00021002C02D0641E0155FAE749
:1002E00010BD0000F7B5009C0F4600262578641C61
:1002F000002D05D000F094FC0068405DC007F5D1EA
:100300002B2D02D02D2D18D0641E39462046029A7E
:1003100000F099FC002F04D03968A14201D1009966
:1003200039607105022400290BDA4042002803DD00
:1003300014F05EF80460A007FEBD012080020643B1
:10034000E3E70028F8DA14F053F804600048FEBD33
:10035000FFFFFF7FF8B502464A40D40F42004B0032
:1003600052085B089A4202D20246084611464A00E9
:1003700023D0C30D4A00DDB2120EAD1A202D35DA9E
:1003800049020126490AF6058A19002C00D052427A
:1003900020214F1B1146B9402A411018C20D9A4224
:1003A00021D0002C17D0012D08DCDA05801AD20FDD
:1003B0008019D207DBB200F0A7FCF8BDDA05801A7D
:1003C000012340001B06C01880185A428018CA0F2B
:1003D0001043490007E04908C2071143DA05801AB3
:1003E00080194008801800F087FCF8BD61000122E8
:1003F000511A001BF7E70122D2075140AAE7012258
:10040000D2075040A6E7024670B54A40D30FDB073B
:1004100040002DD04A002AD0010E140E0002120214
:100420000919400A520A8418E50104465443000A97
:10043000120A2E045043A4194219200CC543AA18CD
:10044000120C0125AD03521C521912047F392404E9
:1004500000D0521C104301D44000491EC2B20C0609
:10046000C0092018401C4008802A02D003E0002068
:1004700070BD40084000002900DA0020184370BD1C
:1004800070B502464A40D50F40004A00ED074008CB
:100490005208002814D0002A12D0C40DD30D4102F6
:1004A0000120C0055202490A520AE41A091812181A
:1004B0007D34914201D3641C00E04900002C01DA34
:1004C000002070BD0023914201D3891A03434008E4
:1004D00049000028F7D100290AD0914202D1012118
:1004E000C90705E0914201D2012101E00121C94380
:1004F000E005C018401900F0FFFB70BDF0B50746DD
:100500000846584087B0C00F049048000E46590076
:1005100040084908BC1A884105D2384631461E4673
:1005200017460B4602465800400810434CD0300D89
:10053000039040055900400D490D0590401A029066
:10054000402872DA18030121000B090508430190C5
:1005500004980092002805D0019952420020884159
:1005600000920190029840210A1A0199009800F027
:1005700023FB05460C466B4607CB00F03EFBC0193B
:100580007141039A0E0D0023D71756401A467A4040
:10059000164344D0049A002A2DD0029A012A039AC5
:1005A00015DC1205C01A914101263605001C714167
:1005B000D20F059ED2070093019202962A46234647
:1005C00000F033FC07B0F0BD38463146FAE71605B7
:1005D000224A0F46B218C01AB74101210905001C72
:1005E0004F4100187F41114618187941E20F10431E
:1005F0006D19644113E0E2076D0815436408C207F2
:100600001443039A01261205C01A91413605001CB5
:100610007141CE07400830434908C01851412A466D
:10062000234600F0F5FBCDE7FFE7049801224000E8
:10063000C117121A00238B4104983146C417381A87
:10064000A141EEE730B40124E407634030BC55E734
:1006500030B40124E407614030BC4FE70000E0FF04
:10066000F0B51FB488B00B99099800244840099947
:10067000C00F490049080991C0070B990090490033
:1006800049080B9109990898A64608431CD00B9974
:100690000A98084318D0099801244000420D4800E8
:1006A000410D099824050003000B204309900B9885
:1006B0000003000B20430B9050181C4940180022E7
:1006C00001901446104605E0002001460DB0F0BD33
:1006D000032801DA034600E003239C46C11A0AAE50
:1006E0000AE05F0008ADED5B4F00F75B7D4300273C
:1006F000AA187C41491C5B1E6145F2DD410004AB38
:100700005A522104120C0A43240C401C0828DFDB37
:10071000019802900099704601910090059B049AFF
:100720000799069800F081FBD0E700000DFCFFFF61
:10073000F0B50C465C4085B0E40FE40703944C0030
:10074000002664085900944649080246029622434E
:1007500021D062460A431ED06200570D4A000E03A4
:100760002303550D012402462C492405781B1B0B3D
:10077000360B401823432643614600901C46501A0E
:10078000B44103D30098401C009002E092180098F6
:100790005B41002803DA0020014605B0F0BD0020CF
:1007A000012109050746864611E064461D46141BD3
:1007B000B54106D36546521BB341744607430C430B
:1007C000A646CD0740084908284392185B410546D4
:1007D0000D43EAD11046184313D0604619465040E5
:1007E0007140084306D06046101AB34106D2012278
:1007F000002306E000220123DB0702E00122D243AE
:100800005310009874460105381C6141029C039DF9
:100810000019694100F0FCFABFE70000FD03000089
:100820000122D207002800DB101A002900DB511A30
:10083000814201D801207047002070470122D20771
:10084000002800DB101A002900DB511A814201D276
:1008500001207047002070470122D207002800DBEA
:10086000101A002900DB511A814201D30120704780
:10087000002070470122D207002800DB101A00294F
:1008800000DB511A814201D90120704700207047D6
:100890000122D207002800DB101A002900DB511AC0
:1008A000814201D1012070470020704710B5002916
:1008B00004DB0C460121C9074042A141002B04DBA7
:1008C0001C460123DB075242A341801A994101D300
:1008D000012010BD002010BD10B5002904DB0C461E
:1008E0000121C9074042A141002B04DB1C46012322
:1008F000DB075242A341101A8B4101D2012010BDE7
:10090000002010BD10B5002904DB0C460121C907E9
:100910004042A141002B04DB1C460123DB0752426D
:10092000A341101A8B4101D3012010BD002010BD3E
:1009300010B5002904DB0C460121C9074042A14142
:10094000002B04DB1C460123DB075242A341801A23
:10095000994101D2012010BD002010BDC217C10F66
:10096000504010B54018CA079623002100F0CCF97A
:1009700010BD10B500229623114600F0C5F910BD38
:100980000A4670B5C917D30F4A4048400025C11820
:1009900014466C41DA0796232046002C03D0B62378
:1009A00000F0B2F970BD08460021F9E70EB505491F
:1009B0000291002100910A460B46019100F035FAA0
:1009C00003B000BD330400003EB5CA17CB0F0024AE
:1009D00050405140C0186141DA07054B0293019223
:1009E00000942246234600F020FA03B030BD0000F8
:1009F000330400000EB5054A02920022009213460D
:100A0000019200F012FA03B000BD000033040000B0
:100A1000C20F410040020123400ADB05D207090E44
:100A2000C0187F2901DA00207047962903DC96233D
:100A3000591AC84001E096398840002AF4D0404253
:100A40007047410040020122400AD205090E801879
:100A50007F2901DA00207047962903DC9622511A7B
:100A6000C8407047963988407047C20FD20740008F
:100A700040080BD0C10D0723DB01C918400209054E
:100A8000400A1143C2084007114370470020014645
:100A90007047CB0FDB07490010B5490802460A43EF
:100AA00007D00A0D07240903E401090B121B002AD1
:100AB00001DC002010BDC900440F0C43C100E01848
:100AC000D205801800F018F910BD41460160494672
:100AD0004160514681605946C160714601611430E0
:100AE000F0C069460160001D01B5C046C04606BCA5
:100AF000964601C10020704704000D00A06AC04660
:100B0000C046616A8D462200280000D1012011688C
:100B100088465168894691688A46D1688B46116932
:100B20008E461432F0CA704770B50446002903D0CF
:100B300000202022012310E0002801D00020C04323
:100B4000C046C0460DE02546D5408D4205D30D4632
:100B50009540641B1D46954040191546521E002DB8
:100B6000F1DC214670BD000070B5002504462E461C
:100B7000002911D0002C01DA01254442002901DAB4
:100B8000012649422046FFF7CFFFB54200D0404240
:100B9000002D00D0494270BD002C02DA0121C907A6
:100BA00002E0002C00DD03490846C046C04621464D
:100BB00070BD0000FFFFFF7F10B5202A04DB014657
:100BC000203A9140002010BD914020239C1A0346FA
:100BD000E3401943904010BD10B5202A04DB0846BD
:100BE000203AD040002110BD0B46D340D0402024F5
:100BF000A21A91400843194610BD10B5202A06DB01
:100C0000CB170846203A1041C1170B4306E00B46AC
:100C10001341D0402024A21A91400843194610BD28
:100C200000487047545D010810B50446FFF7F8FF0F
:100C30000068005DC007C00F10BD01464139192989
:100C400000D820307047F7B582B0029C002720788A
:100C5000641C15460197302802D0002D15D015E0F0
:100C600020780127641C782804D0582802D0002D51
:100C700009D00BE0002D01D0102D07D10027102541
:100C80002078641C02E0082500E00A250026009672
:100C900010E00099012769430818020C294680B228
:100CA000714300908E183804864201D301200190D0
:100CB0002078641C294600F091F90028E9DA0398AD
:100CC000002805D0002F01D0641E00E0029C0460C3
:100CD0000198002806D013F08BFB02210160C81E8A
:100CE00005B0F0BD009930040843F9E710B50023C2
:100CF000036000F0A3F910BD002904DA401C49008C
:100D000001D140084000704770B40024050C05D1A3
:100D10001024000402D1002921D01124050E01D194
:100D200000020834050F01D10001241D850F01D1F7
:100D30008000A41C002801DB4000641C002908D0AE
:100D400020252E1B0D46F540A14000D0012129434E
:100D5000084301061B1B000ADB1D02D5002070BCE6
:100D60007047DB05181880180029F8DA401C490084
:100D7000F5D170BC40084000704770B5002801DC18
:100D8000002070BD410040020126400AF605090E10
:100D90008019CA0701D14000491E4D10002211469A
:100DA0003F353346CB409B18D418844201D8001BF2
:100DB0001A464000491C1729F3DD5100814202D236
:100DC0000021C94300E00021E8058018FFF794FFE7
:100DD00070BD10B541000DD04100090E962909DC07
:100DE0007E290ADC07DB410205D0C00F7F21C00746
:100DF000C905401810BD002010BD9622541A2021AC
:100E00000A1B01469140E040FFF776FFA04010BD6D
:100E100010B5002B08DA0024401C614192185B4198
:100E20001A4301D14008400010BDF0B51FB482B094
:100E300005460C0003D0084613F094FA02E013F0C4
:100E400091FA20300246009021462846FFF7B4FE72
:100E5000049B059A04460F4618431143084314D0D7
:100E6000184610431BD0009840210A1A18460599CD
:100E7000FFF7B2FE05460E46009A05990498FFF763
:100E80009BFE084305D0012004E02046394607B008
:100E9000F0BD0020C11705430E432C433743009992
:100EA0000E986305401A7905E40A00220C43FD0AF6
:100EB0000A3002D500200146E9E701051019694111
:100EC0000C9C0D9D00196941FFF7A2FFDFE7F0B50B
:100ED0005F0085B07F0DCD0F03974E0001273F05C2
:100EE0001B0309031B0BED07090B3B43760D39432D
:100EF00097189C46029700245B41039F01957F1E33
:100F000000949E46039713E0029F7346C01B9941CD
:100F100006D50127FF077D400F4600214042B94119
:100F20006346171A8B41EFD3761E0018039F494181
:100F3000BE42F5DA02460A4307D000221346029663
:100F40000195FFF772FF05B0F0BD20460199FAE761
:100F50004A0009030123090B1B0519430A4B10B56D
:100F6000520D9A4202DA0020014610BD064B34337E
:100F70009A4203DC9A1AFFF72FFE10BD034BD218DA
:100F8000FFF71AFE10BD0000FF030000CDFBFFFFBE
:100F900010B5002904DB0124E40740428C412146BE
:100FA000002B04DB1C460123DB075242A34199427C
:100FB00000D1904210BD0000064C0125064E05E010
:100FC000E36807CC2B430C3C98471034B442F7D36A
:100FD000FFF77AF8E4750108047601083A2800D290
:100FE0003038202302469A43412A01D3104637382D
:100FF000884201D30020C043704700000FB400B501
:1010000089B00A460DA9009100230C99002ACB60F3
:10101000234B0693234B079301D0042300E00023C6
:10102000214A0292214A0892019302466B4600200F
:1010300000F01BF909B008BC04B01847F0B585B042
:1010400007460020C04301901E46002015460C466E
:101050000091029104903B466A46314604A8FFF78E
:10106000CDFF049902466018002D05D0002901D05B
:10107000034600E023462B6000290ED0002A02DD43
:101080000099814209D0001B019000943B466A46BA
:101090003146029404A8FFF7B1FF05B0F0BD00008F
:1010A000C1140008E1140008FFFFFF7F290C0008AD
:1010B00070B54B005B0803430BD04B005C0D002662
:1010C00033466542B341D417AD1AA34102DB002079
:1010D000014670BD12053018514170BD0EB5C217E2
:1010E000C10F5040CA0740180021054B02930192DE
:1010F00000910A460B46FFF798FE03B000BD0000C2
:101100003304000070B5CD0F4A0009030123090B19
:101110001B0519430B4BED070024520D9A4201DACF
:10112000002070BD074B34339A4203DC9A1AFFF754
:1011300053FD02E00449511888402C43F1D040424D
:1011400070BD0000FF030000CDFBFFFFFFB5087876
:1011500089B01546FF2805D0491C2D2804D000224F
:10116000002407E000240BE00122F9E70A235C4396
:101170000419491C0878FF28F8D1002A00D06442DD
:10118000002004902A7801462D2A01D02B2A0FD165
:101190006D1C2D2A02D00022049209E00122FBE7F7
:1011A00000260A2233466D1CFEF7ECFF3818714109
:1011B0002F78FF2FF4D10C9AA218069202460A4308
:1011C00004D0FF23069A9133DA4205DA0021099808
:1011D0000A4606C00DB0F0BD0024B74AB54D2646FC
:1011E0000792FFF707FC029006980391002801DAA6
:1011F000474200E0074639050020AF4A001C514134
:101200000191009012E0F80707D022462B463046A5
:101210000799FFF725FA0646079122462B46104606
:101220001946FFF71DFA04460D467F10002FEAD13C
:101230000698019B0028009A0399029806DAFFF7A6
:1012400077FA3246079BFFF773FA05E0FFF708FAD3
:101250003246079BFFF704FA049A002A02D00122C3
:10126000D2075140099A03C2B4E7FFB591B00020FC
:1012700009900025ED432E209E685C681F46019072
:10128000B9696D1C129888470090396A8847002810
:10129000F6D10098401C0AD00D20C0018443002ED6
:1012A00012DD00982B2809D02D280DD103E0002055
:1012B000C04315B0F0BD012080020443B9696D1C24
:1012C00012988847761E009003A9600501D52D204D
:1012D00000E02B206A461073491C0CA80F91029065
:1012E0000AE0B9696D1C12988847009001204002FD
:1012F00004431398761E0560002E02DD0098302806
:10130000EFD001990098884245D18020044308E03D
:101310000998401E09900120400204431399681C5B
:101320000860B9696D1C761E1298884700903028B5
:10133000EED030E00199884205D1200603D4802008
:101340000443761E1DE0009813F0E0FD002825D030
:10135000012149020C43009807AA0F990332303843
:10136000761E914208D208700F98401C0F902006FC
:1013700007D50998401E03E0200602D40998401CB6
:101380000990A00502D51399681C0860B9696D1C05
:10139000129888470090002ECCDC59E0002E57DDD3
:1013A0000098652801D0452852D1A00550D50320CA
:1013B00000028443B9696D1C761E1298884700901C
:1013C000002E0CDD2B2804D02D2808D1FF20013061
:1013D0000443B9696D1C12988847761E0090E00599
:1013E00001D52D2100E02B21029801700298401CAC
:1013F0000290019025E00120400204430EA90298CA
:101400000131761E88420ED20098029930380006CB
:10141000000E087003D10299019881420AD90298FE
:10142000401C029006E0E00501D5244801E0234875
:1014300040420990B9696D1C129888470090139832
:101440000560002E04DD009813F060FD0028D2D165
:10145000F969129888470F99FF200870029903AA2A
:10146000087000200A900B900CA90AA8099BFFF7AE
:101470006DFEA00502D40120C0431AE724200442D7
:1014800009D0E00713D138680B9A0A99031D3B6015
:10149000006806C00BE00B990A98FFF7FAFA0146BC
:1014A000E00704D13868021D3A60006801602846F0
:1014B000FFE60000000014400000F03FF1D8FFFFFD
:1014C0004268002A08D001680B78491C002B03D021
:1014D000521E06C0184670470121C160881E704721
:1014E0004268002A0BD0C3680168002B07D18368CB
:1014F0008B4204D0491E521C06C0002070470020B9
:10150000C043704770B58C180578401C6B075B0FA3
:1015100001D10378401C2A1106D10278401C03E057
:1015200006780E70401C491C5B1EF9D12B0705D4B0
:101530000023521E0DD40B70491CFAE70378401C9F
:10154000CB1A921C03E01D780D70491C5B1C521EC7
:10155000F9D5A142D8D3002070BD000070B5044673
:1015600000688168002549071BD58168890704D474
:101570008168484A0A401032826004F0A9FA06469F
:101580002068806840070CD504F0A2FA801B03286D
:10159000F6D3206E102101432166606E0125284399
:1015A0006066284670BDC04670B505460068816813
:1015B00082680024D20722D0022211401FD1816804
:1015C00005220A40012A12D18168324A0A40911C40
:1015D00081600321016004F07BFA06462868806878
:1015E000C0070CD004F074FA801B0328F6D3286ED1
:1015F000102101432966686E012420436866204655
:1016000070BDC046F8B505460024009400688168A6
:10161000C9071AD181681F4A2F32114208D0286E9B
:10162000102101432966686E0124204368660CE09E
:101630008168184A114001273943816016480068C3
:10164000000204D4E86901280ED12046F8BD1348F1
:1016500000681349FFF768FA401C009000980028C2
:10166000F0D00098401EF8E704F032FA06462868E9
:101670000168C907E9D18168C90704D18168054AB1
:1016800011403943816004F023FA801B0328EED314
:10169000C5E7C046E8FFFF7F082701402000002083
:1016A000400D0300411E12292CD8880001A10858C2
:1016B0008746C046011700081517000819170008CB
:1016C0001D17000821170008251700082917000812
:1016D0002D170008311700083517000839170008C2
:1016E0003D17000841170008451700084917000872
:1016F0004D17000851170008551700085917000822
:10170000284870479249884227D0A249884224D06D
:101710000120704722487047204870471E48704794
:101720001C4870471A487047184870471648704759
:101730001448704712487047104870470E48704769
:101740000C4870470A487047084870470648704779
:101750000448704702487047004870470000084C32
:101760000000044800000244000001400080003CEA
:101770000040003800200034001000300008002C29
:101780000004002800020024000100208000001C4A
:101790004000001820000014100000100800000C89
:1017A0000400000802000004F8B5012421051648D1
:1017B00002680A430260764D0022AA65AA640726E1
:1017C000042320036A62AC62EC622A636A63AC633E
:1017D000E8632E64E007A6070C4F6F60AE60EA6016
:1017E0002A616861AB61EA612A62074800680840C3
:1017F00000900098281D03F0E1FC002801D002F0C1
:101800002BFD2C70F8BDC046401002400024014062
:101810007FB504460F4E3068A0421AD05C48051DC3
:10182000284603F06DFC284603F0C8FC284603F068
:101830008FFA2046FFF736FF0021039102910190B5
:1018400001A9284603F02EFB002801D002F004FD78
:1018500034607FBD0C010020F8B50026002825D497
:101860000446192822D81248E040C70700F07AF849
:10187000002F1BD10546204607F0F8FE20010D4938
:10188000085C0221009103210022134603F0AAF90B
:101890000948005700F014F8FFF760F801462846A1
:1018A000FEF7B1FD0549FEF7EBFD06463046F8BDF3
:1018B00001FC7D0110010020A05F010800F07F45C0
:1018C000B0B5FFF7A5FF3248041D204603F0DAFD4E
:1018D0000021CD43002811D10A21204603F078FDD4
:1018E000002808D1204603F063FC800503D520467C
:1018F00003F060FC0546204603F0F0FD2846B0BD2D
:1019000010B523480078002801D1FFF74DFF00F003
:1019100029F80E49FEF777FDFFF793F804460C48C7
:10192000FFF7CEFF60430B49FFF7FEF87D21C900AA
:101930004843FFF71EF80849FEF70CFD0749FEF77C
:101940009FFD0749FEF706FD10BDC04600007A4422
:10195000000200A4FF0F0000008C39C900201E45C2
:101960000000F04180B50A480078002801D1FFF757
:101970001BFF0848FFF7A4FFFFF718F802460B46C5
:1019800000200549FEF7D4FEFFF783F880BDC0466E
:1019900038030020000400A80032B340F0B58BB03B
:1019A00004460026009607AD0921FF23284632464B
:1019B00008F034FA287801250028284600D0DDE018
:1019C00008F090FA0028284600D0D7E006950025B8
:1019D000FF2008F0F3F9102D03D007A948556D1C1E
:1019E000F6E7FF2008F0EAF907A84178617041881E
:1019F000618001788A0989008918217041790A0972
:101A000003791B019A1809035118A18081794809AB
:101A100002220240A079F0230340C8091818801858
:101A2000CA0804231340C0184A0808231340C018EA
:101A3000A071A0484088002819D007204007A2685C
:101A40000240890007A8C3791D06AD0F49193F253B
:101A50000D405119027A12029B069B0AD218437A52
:101A6000D21892015118A160807A059033E007AB3B
:101A7000587A4200059238251540E77AC02217406F
:101A8000400938184019E072A57A1540187A820684
:101A9000520F4707BF0EBA185219A272227BF825BF
:101AA00015400622059F3A409F7A0597FF09BA180C
:101AB0005219227303229203258915400A07920FB7
:101AC000AA188907090DDB799B00591880090818A5
:101AD00080008018208107ABD97A04917F200840CC
:101AE0001D7B802102912A460A4010186074D87B21
:101AF0004208C0018018A075A17CE020039001403D
:101B00001C2028406F06BF0F38184018A074587B5F
:101B10001F2101409B7B40271F4079189F082022EE
:101B20003A4089189A00029F3A4089182175059F0A
:101B30007900049A1206D20F891849007A06D20F4A
:101B400089182174E17C039F39408209AD072D0F6C
:101B5000521951184008102202408818E074607D24
:101B60003840590806220A40D906C90F51189A0769
:101B7000D20E8918081860750020069D05900694FD
:101B80002C46284608F0F0F8FF27384608F016F9EA
:101B9000009607AD0A21284632463B4608F03EF93A
:101BA0002878002802D02546069C55E008F09AF9CE
:101BB00000282546069C4FD125462035FF2008F0F9
:101BC000FDF8102E03D007A98855761CF6E7FF20F4
:101BD00008F0F4F80798207607A841780902618395
:101BE0008178628B0A436283C1780906E1610179D9
:101BF0000904E2690A43E26141790902E2690A43A0
:101C0000E2618179E2690A43E261C1792970099947
:101C10006970417A09066162616A827A12040A4334
:101C20006262616AC27A12020A436262017B626A7C
:101C30000A436262297A427B13090B432B72110714
:101C4000090D6185817B628D0A436285C07B4008F6
:101C500028730120687300250126304608F084F8B7
:101C6000FF2008F0ABF8BF484088012809D1710275
:101C7000E163F004A2689209D20410182063616342
:101C800010E07002E063A088010B8E406663207B49
:101C900007220240921C20898004000D401C9040C5
:101CA000884020630599400AA0630D4328460BB085
:101CB000F0BDC046300600207FB50220009002AC87
:101CC0000D210022FF2520462B4608F0A7F8667854
:101CD0002478012008F048F8284608F06FF83443CB
:101CE000601E8441204604B070BD0000F0B585B090
:101CF00008F044F8E4480125057004A800240470A5
:101D00000498401C04AF3870009402AE952330460E
:101D10002146224608F082F83678284608F024F852
:101D2000FF2008F04BF83878632800D99EE0012E98
:101D3000E6D105200090D520420002AD082187237E
:101D4000284608F06BF82E780125284608F00CF894
:101D5000FF2008F033F8700764D4012E00D085E02E
:101D60000026009602A83721FF2732463B4608F09E
:101D700055F80125284607F0F7FF384608F01EF809
:101D800001960096AA0702AE292130463B4608F08C
:101D900045F83678284607F0E7FF384608F00EF891
:101DA000012EDDD0700723D5019A009202AE3721B3
:101DB000FF2730463B4608F031F83678284607F0D2
:101DC000D3FF384607F0FAFF012E4FD1019A009257
:101DD00002AE2921FF2730463B4608F01FF836782F
:101DE000012007F0C1FF384607F0E8FF012EDBD0E5
:101DF0000320009002AD3A210022FF2628463346F8
:101E000008F00CF8687801902F780125284607F033
:101E1000ABFF304607F0D2FF002F27D101984006D4
:101E2000C00F20E0009402A83721FF2522462B4650
:101E300007F0F4FF0126304607F096FF284607F02A
:101E4000BDFF009402AF2921384622462B4607F0F9
:101E5000E5FF3F78304607F087FF284607F0AEFFE2
:101E6000012FDFD02046884948802546284605B006
:101E7000F0BDC046F0B58DB006AB07C3002005909D
:101E80000090012672020BAF1021FF243846049205
:101E9000234607F0C3FF3D780296304607F064FF03
:101EA000204607F08BFF002D50D1069F079E089C0F
:101EB000049D284612F01EFF002847D00121029100
:101EC0004902FF220390FEF795F96F4841880129E6
:101ED000284600D10846464325460020002D32D032
:101EE000009009AC1121FF232046324607F096FFEF
:101EF0002078002828D107F0F5FF002824D1079684
:101F00000895394601277C0203980691224607F07E
:101F100068FF5D4840880590FF2528465B4EB04726
:101F20002846B047384607F01FFF2846B0470599B6
:101F30000129049800D10846069F3F19079E86197B
:101F4000089D6D1EC9E7029003980590012007F0D7
:101F50000BFFFF2007F032FF059812F04DFA0298B0
:101F60000DB0F0BD30060020F0B58FB00992089199
:101F7000069000200A900090012462020DAF10210B
:101F8000FF25384607922B4607F048FF3E7803941A
:101F9000204607F0E9FE284607F010FF002E01D08A
:101FA0000A9865E0089E099D079C204612F0A2FE53
:101FB00005900028F4D0344841880129204600D1FA
:101FC00008464643002002900A90069F002D4AD002
:101FD000002000900BAC1821FF232046324607F06A
:101FE0001DFF2078002842D108960995FF2420463D
:101FF000264EB0472046B047FE20B0470A98381812
:10200000012104914A02059907F0EBFE1E4845881C
:102010002046B0472046B0472046B04707462046F6
:10202000B047012D079C204600D128461F210F40B4
:10203000052F1AD1099D6D1E0A9909190A91089E4A
:102040008619012007F090FE002007F08DFEFF208A
:1020500007F0B4FEFF28FAD1012007F085FEFF202B
:1020600007F0ACFEB1E7029800E0049803900598F1
:1020700012F0C2F9012007F077FEFF2007F09EFE64
:1020800003980FB0F0BDC04630060020BD9D00088B
:102090007047704770B5724D696800291ED000F016
:1020A00071F800281AD40C26464368688019C07A53
:1020B000002813D003F00CFD044668688019007AEC
:1020C00002F0C6FD6968002809D088194168611AC4
:1020D000152903D3011D0C600121817270BD88593F
:1020E000201A1528FAD3881904600121417270BDA5
:1020F000FEB5019202910746594C2078002801D183
:1021000000F05AF80C257D436068002646514019BE
:102110004660867246723C016B49095D0172384621
:1021200007F0A4FA6848005D0F21014001208840B3
:102130000104090D029C19D0002C12D0072702219E
:102140003846324603F0B4FF384603F0A5FF444852
:1021500040684019007A009609493246019B02F016
:1021600041FD3F4840684019C472FEBD800703D05E
:10217000002CF6D00527E2E7002CF2D00627DEE798
:1021800000003110F8B5054600240827344E0094AD
:1021900007F06AFA84420ADA7068C05DFF2803D04B
:1021A0000F210840A84204D00C37641CF0E70098C7
:1021B000C4432046F8BDC04670B507F055FA0C215F
:1021C000FEF781F8264C606001202070002508266B
:1021D00007F04AFA854205DA6068FF2181550C361E
:1021E0006D1CF5E770BDC046B0B50C2444431C4DD2
:1021F00068680019C07A002811D003F069FC014614
:102200006B681D196A7A00206872551EAA411B5915
:10221000C91A09097D2900D201201040B0BD002053
:10222000B0BDC046B0B50C2444430D4D68680019DC
:10223000C07A002811D003F04BFC014668680319EE
:102240009A7A00209872541EA2415B68C91A090943
:102250007D2900D201201040B0BD0020B0BDC04695
:1022600024040020F0B585B002920E46044607F023
:10227000FDF903942401144F385D002200920125DA
:1022800029462B4602F0AEFC381904900F4831461F
:10229000FEF76AFC064609F016FF0299441809F099
:1022A00012FFA0420BD2012729463940049800783A
:1022B00002F034FD304609F0B7FE7D40EFE70398A9
:1022C00007F0D4F905B0F0BD1001002040420F0026
:1022D000F0B585B08F480078012871D101263C27E0
:1022E00004F0FFFE86426BDA8A484068C15D00292F
:1022F00063D0C0191038006801285EDB03F0E8FBEA
:1023000084494968CC19214614390968884254D354
:1023100020460C380168491C0160204608380068D6
:1023200089004058FEF774FB01461C3C20887D2242
:1023300093000022029204F053FF03F0C9FB754999
:102340004968CD19294610390A68521E04920A605C
:10235000291F0968039129460C3909688C00FEF78A
:1023600008FB0146019403980059FDF7F3FFFEF7BF
:1023700068FB294614390860049800281DD12C46B2
:102380001C3C083D286801994058FEF741FB014676
:102390002088029C2246234604F022FF5D484068C4
:1023A0000490C51928460838006812F025F8281F3F
:1023B000006812F021F80498C4552037761C8FE786
:1023C00005B0F0BD80B504F08CFE2021FDF77BFF49
:1023D000504948600120087080BDC046F0B589B002
:1023E0001F461646029108904A4D2878002801D1D0
:1023F000FFF7E8FF0898410107916868401800243A
:1024000044618461F80F0197381842100692EFF387
:102410001080059072B6042103911046FDF753FF1A
:1024200007466968049107980D186F61069803992B
:10243000FDF749FF2946089B079A049DAB52886126
:102440000C61002F11D000280FD010310491019998
:102450008919B200029B9A188E420BDA28CA3B51A6
:1024600005510032241DB61CF6E70598C00728D197
:1024700062B626E00024049804603868FEF7C8FAC3
:1024800001467D2083000898224604F0A9FE03F04F
:102490001FFB20494968079A8C180121217706996A
:1024A000E160A56921698E00FEF763FA0146A8592B
:1024B000FDF750FFFEF7C5FAA0600598C00700D1F0
:1024C00062B609B0F0BDC046F8B50446114D287893
:1024D000002801D1FFF776FF66016F68B819017F08
:1024E000002916D00024C460016940698900405861
:1024F000FEF78EFA0146B85B2246234604F070FED2
:1025000068688519686911F077FFA86911F074FF90
:102510002C77F8BD9C05002080B508F021F880BD1F
:10252000B0B50C46054608F01BF86C21425A03234F
:102530009A434252FF2101702846214608F012F8C2
:10254000B0BDFEB502210491002103910291032147
:10255000C9020191002804D00520000701A903F059
:10256000FDF9012006B080BD80B509F05DF980BDA0
:1025700080B508F087F880BDF0B58DB00491079064
:102580000CAEBB20B070442070705A20307009A887
:10259000089000270771099708F0F6FE1224D94A1F
:1025A0002046394690470125D749284688470322C7
:1025B00006920097019230463946089B08F000FFCA
:1025C00008F0EEFE059420462946CE4A904728465C
:1025D000CD49884700F079F8079A100A0146514022
:1025E0000BAEB1707270307008F0CEFE20463946E6
:1025F000C44A90472846C44CA0470097069A0192C7
:10260000304603973946089B08F0DAFE08F0C8FE0A
:1026100005982946BB4A904708952846A04700F0F0
:1026200054F815480799814223D80BAE0498B0702E
:102630007070039C347008F0A7FE122528462146CE
:1026400002F06CFB0127384602F0A2FF0094069AC4
:10265000019209AB3046214608F0B2FE08F0A0FE18
:102660002846089902F05AFB384602F091FF00F024
:102670002CF80DB0F0BDC046EFFF0000F0B585B0FE
:1026800004AE5A20307008F07FFE1225002728463D
:10269000394602F043FB0124204602F079FF0097FF
:1026A000019403AB30463946224608F089FE08F013
:1026B00077FE2846214602F031FB204602F068FFF3
:1026C00000F003F8204605B0F0BDF0B587B005AEC8
:1026D0000024347004A87921017003F0F9F908F09E
:1026E00053FE12273846214602F018FB01252846E2
:1026F00002F04EFF0094019503AB304621462A4676
:1027000008F05EFE08F04CFE3846294602F006FB53
:10271000284602F03DFF08F037FE122630462146DB
:1027200002F0FCFA284602F033FF0094019505A858
:1027300006AF21462A463B4608F042FE08F030FE2E
:102740003046294602F0EAFA284602F021FF38789E
:102750007928E0D108F018FE12263046214602F012
:10276000DDFA284602F014FF0094019504A803AB9B
:1027700021462A4608F024FE08F012FE304629467B
:1027800002F0CCFA284602F003FF284607B0F0BD5D
:10279000F0B5CFB00692059103904C1E4BA8049063
:1027A0000470104600F0B8F860404AA9079108701C
:1027B000012421020AA80990FDF723FD4EAECE2088
:1027C000B070312070705A2030704D488047122010
:1027D00008900025994A294690474B49204688474A
:1027E000032200950192494F30462946099BB8477C
:1027F00047488047089F38462146904A90472046E0
:1028000041498847434880474CAE0399F170080A14
:10281000B070080C7070080E30700421304600F063
:102820007BF830713648804738462946834A9047BE
:1028300020463549884705220095019230462946B1
:10284000099E3346314FB84731488047089F384684
:1028500021467A4A904720462B4988472D48804791
:102860002748804738462946744A904720462649DB
:102870008847009501940498294622463346234E02
:10288000B04723488047384621466C4A9047204647
:102890001D4EB0471A48804738462946674A904738
:1028A0002046B0470095059A019206982946099B53
:1028B000164EB04716488047384621465F4A904733
:1028C0002046114EB0470E488047384629465B4A9D
:1028D00090472046B0470095019407982946224624
:1028E000099B0A4DA8470A48804738462146534A63
:1028F00090472046B047074880474FB0F0BDC046DC
:1029000089B300081D4D000891550008C1B30008A7
:10291000A1B30008CB26000810B5027801238B4232
:1029200003DAC45C62405B1CF9E7D0B210BD000062
:10293000BCB50022009201200146134602F052F974
:10294000C6480078002801D100F036F8012420465E
:10295000214602F0E3F96425284602F019FE00F052
:10296000EFF80021204602F0D9F9284602F010FEC7
:10297000BCBDC04610B586B002AC601C0F21FDF78F
:1029800040FC762020702046FDF753FC411C204679
:1029900000F0EEF800280BD16C460021A171A18057
:1029A00000910622204600F057F8204605F074FFFB
:1029B000002006B010BD0000FEB50124A002214693
:1029C000FDF781FCA5494860002802D1212011F0C3
:1029D0004DF90025009508200290174E21462A4601
:1029E0002B46B04700951227384621462A462B46EB
:1029F000B0470095162029462A462346B047009541
:102A0000172029462A462346B0470C4E3846214611
:102A1000B0473746029E30462946B847642002F048
:102A2000B7FD30462146B8477D208101284608F091
:102A3000E3FB8A480470FEBDE54B00081D4D00080D
:102A400080B5162002F004F980BD80B5172002F091
:102A5000FFF80121484080BDF0B589B014460E460C
:102A600007467E480078002803D1FFF7A5FF00F055
:102A7000D4FB172002F0ECF8002500285CD11620CA
:102A800002F0E6F8002857D10597069608AF7C704B
:102A900002203870200AB87008F076FC1226002553
:102AA0003046294602F03AF903940124204602F008
:102AB0006FFD03220095019207AB3846294608F0C6
:102AC000F3FC08F06DFC3046214602F027F904942F
:102AD000204602F05DFD162002F0BAF800282BD146
:102AE000069805990818069007A8417805918578F9
:102AF00008F04AFC122000260446314602F00EF986
:102B00000127384602F044FD28020599451803982C
:102B1000854200DB05460096019530463146324637
:102B2000069B08F0C1FC08F03BFC2046049902F02B
:102B3000F5F8384602F02CFD284609B0F0BDC04635
:102B4000B0B546480078002801D1FFF735FF0824CA
:102B50000021204602F0E2F86425284602F018FD24
:102B60000121204602F0DAF8284602F011FDB0BD3E
:102B700080B50A460918491E0A230B70002100F08F
:102B800059FB00F007FB80BDFEB505463048002428
:102B90002146FFF7F1FC012D14D12E4D264630467B
:102BA0002946FDF7C1FF07462B48006880470028EB
:102BB0000AD16F43E01902D1432005F077FE761C5D
:102BC000641EECE7012540E00120C10602910402E9
:102BD0000190870205F0AEFC011F4D424D410428D3
:102BE00027D00199C943C01E884224D305F0A2FC16
:102BF00005F0A0FC002505F09DFCAF4204D017496C
:102C0000496848556D1CF6E705F094FC00260298CB
:102C10008519BE4208D211484068821928462146CB
:102C2000FFF7B6FD3619F2E7062005F03FFE0295E4
:102C3000D0E7062406E0152005F038FE18242046CB
:102C400005F034FE204605F031FE2846FEBDC046A4
:102C5000FFFF000064660000DC04002098040020F0
:102C60007FB505466C46A61C0E213046FDF7C9FA15
:102C70002020607063202070F24930462A4611F00F
:102C80005DFB2046FDF7D5FA411C2046FFF770FF9B
:102C900004B070BD70B5A0B005466C46A61C7E2180
:102CA0003046FDF7AEFA2020607078202070304664
:102CB0002946FDF7DDFA2046FDF7BBFA411C204608
:102CC000FFF756FF20B070BD70B5A0B005466C464A
:102CD000A61C7E213046FDF794FA20206070642007
:102CE000207030462946FDF7C3FA2046FDF7A1FAC9
:102CF000411C2046FFF73CFF20B070BD70B5A0B06E
:102D000005466C46A61C7E213046FDF77AFA202047
:102D100060703F20207030462946FDF7A9FA204612
:102D2000FDF787FA411C2046FFF722FF20B070BD57
:102D3000F0B5CBB00C46064647AD681C0F21FDF739
:102D400060FA6E2028702846FDF773FA411C284669
:102D5000FFF70EFF0021CF43002841D1029401204C
:102D6000040207AD28462146FDF74BFA002128460C
:102D70000D462246FFF770FEA04231D107AC204637
:102D8000FDF757FA024630462146FDF713FA00F0E8
:102D900001FA002824D106AF0126974B3846294670
:102DA0003246984703AC25720495039508222046C5
:102DB0002946914B9847102220462946FDF792FA62
:102DC00001903846294632468B4CA0473846294662
:102DD0003246A04702980199017000F0DBF90746DE
:102DE00038464BB0F0BDC04610B5A0B06C4620468A
:102DF00011306F21FDF705FA2020607071202070DE
:102E0000A01C06A10F22FDF7D5F92046FDF711FA07
:102E1000411C2046FFF7ACFE20B010BD636F6E660C
:102E200069726D20666F726D6174000070B5A0B03C
:102E300005466C46A61C7E213046FDF7E2F92020AF
:102E400060702520207030462946FDF711FA204693
:102E5000FDF7EFF9411C2046FFF78AFE20B070BD58
:102E60007FB505466C46A61C0E213046FDF7C9F914
:102E70002020607069202070C44930462A4611F035
:102E80005DFA2046FDF7D5F9411C2046FFF770FE9C
:102E9000002803D17D20C00002F07AFB00F0D4F8B6
:102EA00004B070BD70B5A0B005466C46A61C7E216E
:102EB0003046FDF7A6F92020607040202070304693
:102EC0002946FDF7D5F92046FDF7B3F9411C204608
:102ED000FFF74EFE20B070BDF0B5A3B00192029195
:102EE000074603ACA51C7E212846FDF78AF9202061
:102EF00060706F202070A54E284631463A4611F08A
:102F00001DFAE01C3146019A11F018FA3E2020719A
:102F1000601D0299FDF7ACF92046FDF78AF9411CC6
:102F20002046FFF725FE23B0F0BDC046F0B58BB0BC
:102F3000029314460D46019007AFBE1C0E21304689
:102F4000FDF75FF920207870722038708F49304685
:102F5000029E019A11F0F2F93E2038715E20F8705D
:102F6000781D8B49324611F0E9F93846FDF761F9D1
:102F7000411C3846FFF7FCFD002818D1F017000E61
:102F800030180612012007020196012E07DB2846A1
:102F900021463A46FFF760FDE419761EF5E70198F1
:102FA00047430298C21B28462146FFF755FD06AC51
:102FB00000250126104B204629463246984703AF8C
:102FC0003D72049503950822384629460A4B9847D6
:102FD000102238462946FDF785F9029020462946F9
:102FE0003246054FB847204629463246B84700F0DA
:102FF000D1F802980BB0F0BD592A0008F0B585B0A1
:103000000D46064601ACA71C0E213846FDF7F9F81F
:1030100020206070702020705C493846324611F0E4
:103020008DF93E20E070201D59492A4611F086F99D
:103030002046FDF7FEF8411C2046FFF799FD05B03C
:10304000F0BDC046346B0108B0B586B06C46A01C1C
:103050000E21FDF7D6F804A80025294606F04EFDFE
:103060006570732020702046FDF7E3F8411C204670
:10307000FFF77EFD002801D0E84306E004A8002108
:10308000062200F0D7F800F085F806B0B0BD0000C9
:103090007FB505466C46A61C0E213046FDF7B1F8FB
:1030A0002020607066202070384930462A4611F092
:1030B00045F92046FDF7BDF8411C2046FFF758FDB5
:1030C00004B070BD7FB505466C46A61C0E21304687
:1030D000FDF797F820206070792020702B4930464A
:1030E0002A4611F02BF92046FDF7A3F8411C204693
:1030F000FFF73EFD04B070BDF0B587B01D46144625
:103100000291019003AFBE1C0E213046FDF779F805
:1031100020207870772038701C493046019A11F0D1
:103120000DF93E20F870381D19492A4611F006F9AC
:103130003846FDF77EF8411C3846FFF719FD002898
:1031400001D000241CE0E817000E01952818051294
:103150000120070200260095012D08DB0298214678
:103160003A4600F067F88619E4196D1EF4E70098F6
:1031700047430198C21B0298214600F05BF884196E
:1031800000F008F8204607B0F0BDC046346B0108D7
:10319000396B0108BFB5FFF753FC0028FBD1FFF7DF
:1031A00054FC0028FBD002A8002585800295042D40
:1031B0000CD802A8401905214A1B0021FFF74CFC3E
:1031C00004460A2002F0E4F96519F0E702A8007845
:1031D000212802D102A8407803E002A924280ED1B8
:1031E000487830280BD102A88178302907D1C178DE
:1031F0000D2904D100790A2801D100200BE001A893
:103200000021817002AA537892781202D2180280AB
:103210001022FDF767F804B0B0BD80B5162001F0AC
:1032200017FD0028FAD1172001F012FD0028FAD06E
:1032300080BD0000F0B589B016460D4607463648F9
:103240000078002803D1FFF7B7FBFFF7E6FF172050
:1032500001F0FEFC002400285AD0162001F0F8FCF2
:10326000002855D10397049508AD6E7001272F7083
:103270000596300AA87007AE0024B470348008F0B8
:1032800083F812200690214601F048FD384602F0EE
:103290007FF903220094019228462146334608F024
:1032A00003F908F07DF80698394601F037FD3D46F0
:1032B000384602F06DF97078012829D1B0780128DC
:1032C00026D1162001F0C4FC002821D104980399CE
:1032D0000E1808F059F8122006900027394601F020
:1032E0001DFD0124204602F053F900970197304656
:1032F0003946059E32463B4608F0D6F808F050F8AD
:103300000698294601F00AFD204602F041F93446AC
:10331000204609B0F0BDC046980400200648016868
:10332000890301D4006802E00121090441600348D7
:10333000012101707047C0460000024008030020D0
:1033400081B008490A680092401C01D30020C043A4
:10335000009A012804DB0A68D203D2171018F8E794
:1033600001B0704710E000E070B588B0294E3078A9
:10337000FF2808D0F06800283CD1B078002839D068
:103380003078002836D0F078002803D03078FF2835
:1033900030D102E03078FF28F8D0B06801281AD088
:1033A000002822D14020002400940194029403902C
:1033B000E1204102012528462246234609F018FC57
:1033C0000094284621462246234609F035FDB06880
:1033D000401CB0600EE004A80F21FCF712FF30780B
:1033E000FF2809D03078431C07E0707C002801D00A
:1033F00005F040F808B070BD012304AC0F2106A20F
:10340000204610F07FFF20780028E0D009F0E2FC91
:10341000641CF8E7B00E00207365746164642825AD
:1034200064290D00F0B58DB003AC25A126222046FD
:10343000FCF7C0FE4F4801684F4A002591420295B3
:1034400000D14568E8B20A263146FDF76DFB074614
:1034500030302077280A0190C0B23146FDF764FB76
:103460000146303161767743E91B302211436177A1
:1034700046430198801B1043A076029800F052F852
:10348000FDF7DFFA020C0E2A15D8044603AE3046CB
:103490001F30154D154F2946B84730462130210AB7
:1034A000CAB22946B84730462330E2B22946B84767
:1034B00025200021315403A805F012FA0DB0F0BD0B
:1034C00047484920456C656374726F6E6963732069
:1034D0004455454C696E6B207630312E30333A7846
:1034E0007878787878000000697101083D43010818
:1034F00080B589480078FDF73CFA80BD80B58648E4
:10350000FF21017082680121002A0A4600DC0022A6
:10351000826001717D20800002F03AF87F20C005B2
:1035200080BDC04610B501280AD0002810D114482B
:1035300001684A1C18D0104A914217D0124816E070
:103540000C4801680C4A0024914203D0204602E056
:10355000002010BD4068FDF729FA084B2246FDF710
:10356000E7F8FDF796FA10BD064810BD4068FDF774
:1035700000FA10BDB8000008ADDEEFBE00005940F3
:103580000070FF1F0100704B0200F00080B5624820
:103590000021816001228274C174017508F098FDD8
:1035A00080BDC0465C480178FF39484248417047B9
:1035B00080B5002813D0012810D10D480178491C8E
:1035C0000170C8B2022809D10AA005F089F9642067
:1035D00001F0DEFF04F04AFE01F010FA80BD02485F
:1035E00002490160FEE7C0460CED00E00400FA0568
:1035F000501E002045726173696E672E2E2E506C2E
:1036000065617365207761697420666F722035206B
:103610007365636F6E6473207468656E20706F7776
:103620006572206379636C652074686520626F61E0
:1036300072642100F8B50C460546374F00263E71EE
:10364000304604F013FFA64209DAA85739788842B9
:1036500003D0C0B2761C0028F5D101203871397929
:103660003879012242400020034605F031FEF8BDC2
:1036700010B504462848C07800280CD020780028CF
:1036800003D009F0A7FB641CF8E70D2009F0A2FBAA
:103690007F20C00510BD002010BDC046B0B5044657
:1036A0001D4D2878FF2804D02878012C02D101284C
:1036B00000D9B0BD2C707D20810000200A46234631
:1036C00005F006FE601E4142414129710120A870AB
:1036D000B0BDC04670B504460F480121C17404F066
:1036E000C5FD642001F054FF0C4E012C05D0032CC5
:1036F0000FD1761C1025022400E02546204602F05A
:10370000F7FD02F0EDFD0020294602F0B9FD044866
:10371000066002F0FBFD70BDB00E0020010001004C
:1037200018700040FEB5002407F084F80546AC424E
:1037300005DA07F0D7F909F04DFB641CF7E70195AE
:10374000002409F041FB0546AC420FDA01260027B0
:103750003046394609F0ECFB02A9087008463946A4
:103760003246334607F05CFB641CEDE70198C0B2BB
:103770002906090C0818FDF7F1F8FEBD80B508F020
:10378000DDFA0448406880BD80B508F0D7FA0148EA
:10379000006880BDE0030020F8B50025012801D0B5
:1037A000044600E0EC43944F7978052929D801209C
:1037B0008840322108420AD0002C00D0FF247889AA
:1037C0003989414338692246FCF714FD19E00007A6
:1037D000800F16D0387B002810D08748214607F08C
:1037E0006FFBF8BD00263889864206D22046314656
:1037F0002A4600F03BFC761CF5E76D1C7889854273
:10380000F0D3F8BDF0B587B0174606467A4A0024D3
:103810001476022801D1022F26D10D9D022E01D04F
:10382000002D21D0012E02D1012F02D01CE0042E48
:1038300001D1012D18D1069104930C980390506981
:103840006E4988476C4800696C4988476B496A48EB
:10385000C06988470295002D0BD0032E664D1ED0FF
:10386000002E12D16C7002E0232010F0FFF907B097
:10387000F0BD049840000121FCF725FD5E4D286154
:10388000002800D19FE0022027E0049803994843D4
:103890000121FCF718FD2861002800D193E00421E4
:1038A0003846FCF710FDE861002800D18BE0059058
:1038B0002546BD4208DA06980059FDF7C2F8059979
:1038C0000851241D6D1CF4E7052E4B4D0BD801202B
:1038D000B040362108425BD049480121FCF7F3FC97
:1038E000686100286FD06E70F0B2C11E032934D316
:1038F000012832D00228039BB9D16B81049A2A8116
:103900000124029E002E204600D03046687371428A
:10391000714129734343EB804243AA80069F386874
:10392000FDF776F800012E46364D285CB0707868B9
:10393000FDF76EF800012856F0700025009521462D
:103940002A462B4601F04EF90220305600952146BA
:103950002A462B4601F046F989E701216973039C49
:10396000EC800499A9806C812981401E042800D92B
:103970007DE7C0467844007940008744030226333F
:103980003A0074E706980068FDF742F828706EE781
:10399000032EA8D1049F3846039C6043032106915F
:1039A00048432E4601252946FCF78DFC706100280E
:1039B00009D07573F480B780069870707481378170
:1039C0003546059B02E021204FE7EB69187B242157
:1039D00068545968298499686984002800D046E7AA
:1039E0006C8444E7E86900682421685405F01CFBF6
:1039F0003DE705F0B5FB3AE7581A0020F943010806
:103A00000104000010010020F0B58BB00593029274
:103A1000089105214143A0390191119C109804900F
:103A200001281BD1012C19D10024052C4CD002985F
:103A300027180198201825490E5C0025082D0BD069
:103A40003046E840C00705D0059842190898394625
:103A500000F00CFB6D1CF1E7641CE6E70021052972
:103A600032D001980E1804980091484302994018EA
:103A7000039000210498814223DA039840180990AA
:103A80000020059B0A930691082818D0012707906B
:103A900087400025A5420BDA0C48805D074205D01F
:103AA0000A9842190898099900F0E0FA6D1CF1E7AC
:103AB0000A9800190A900798401C0699E4E7491CE7
:103AC000D8E70099491CCAE70BB0F0BDD7680108D8
:103AD000F0B58BB0099207910190012B79DB1C4660
:103AE0001D4609982218019F3846079E31463A4BD9
:103AF00098470998021B38463146374B9847A11919
:103B00003846099A344B9847334B311B3846099A4B
:103B1000984701231E1BDA43501C0A9062431D463E
:103B2000581EA04255DA0595079FF9180391F01722
:103B3000C0432418069609982618019D2846089324
:103B400004923246244B98470A9839180291284625
:103B50003246214B9847099F3E1B2846039932461F
:103B60001D4B98472846029932461B4B98470898A8
:103B70003E18079FE119039128463246164B984795
:103B800002943F1B284639463246134EB0470A98E6
:103B900009990C18284603992246B0472846394609
:103BA0002246B047049A069B911C002B084600DA77
:103BB0001046059DAD1CEA18002B01DA164600E000
:103BC0005618029C089B5B1C0A9A521E0A920246D7
:103BD000A6E70BB0F0BDC0466D400008F0B587B059
:103BE0001E4614460D46069000F040FA0296771BDA
:103BF000F817394641400E1A0C980190011BCA175C
:103C00000B4653409B1A0022D2430120002F0590FF
:103C1000049000DA049277005B00002900DA059234
:103C20009F42039319DD019778101F1A0298A8424A
:103C30002CD0002F01DB05982418039E04982D1822
:103C400006982946224600F011FAB819002F01DA29
:103C50000746EBE70199471AE8E758103E463F1A36
:103C60000198A04212D0002F01DB04982D1805986E
:103C7000241806982946224600F0F8F9B819002FB2
:103C800001DA0746ECE70399471AE9E707B0F0BD08
:103C9000FEB5002B2CD406460898002828D41446DC
:103CA0005A18029200190190471E00910D46029881
:103CB00085420BDA30462946224600F0D7F93046D5
:103CC00029463A4600F0D2F96D1CF0E70298471EEB
:103CD000009D019884420BDA30462946224600F0C6
:103CE000C5F930463946224600F0C0F9641CF0E7B9
:103CF000FEBDF0B587B0059107460C9806900028E8
:103D00002DD00D980490002829D01C461646062177
:103D100006984143039109210498414302911546B5
:103D2000387800281BD020280BD3069900910499DD
:103D3000019105992A462346FFF766FE03982D1840
:103D40000BE00A28314600D029460D28354600D020
:103D50000D460A2801D1029824187F1CE0E707B01D
:103D6000F0BD0000F0B587B00493039206910521E1
:103D700001914843A03802900021052919D00498E8
:103D80000C180298059140180B490F5C039D019E89
:103D9000002E0BD0761E3846F040C00704D006989F
:103DA0002946224600F062F96D1CF1E70599491C8D
:103DB000E3E707B0F0BDC046FC660108F8B51C4655
:103DC00015460E4607463878002807D031462A4661
:103DD0002346FFF7C7FFAD1D7F1CF4E7F8BDFEB516
:103DE00014460D4602905F1808988618B44208DA07
:103DF00000940298294622463B46FFF7EFFE641CDA
:103E0000F4E7FEBDE0B5D748017B002900D08CBDAA
:103E10004178491E0429FAD87944097949008F4428
:103E200002060E111400CF4803F0BAFF8CBD0389BF
:103E30004189009100210A4607F090F88CBD05F0F9
:103E40006FFA8CBD05F0DCF88CBD05F077F98CBD00
:103E5000F0B58FB002920D910C90149D16994D43C0
:103E6000159A0B931F4657431798089000280695FC
:103E70000E970A91099200D19AE0384668430421CE
:103E8000FCF721FA0790002800D1E6E0781E002414
:103E9000A54200DCC1E0291B79430591E14304916F
:103EA000691879430391611C00910026019007462F
:103EB0000E98B04276DD0898401E04286FD8C046A0
:103EC000784400794000874402172A405100204678
:103ED0000A99FCF749FE05460B9845433046099977
:103EE000FCF742FE281880000C990818711C069AED
:103EF0005143049A8D184AE020460A99FCF734FE93
:103F000005460B98454330460999FCF72DFE2818C5
:103F100080000C990818F143059A551837E020469F
:103F20000A99FCF721FE05460B984543304609994E
:103F3000FCF71AFE281880000C990818F1430E9A15
:103F40005118069A51430D1921E020460A99FCF7B1
:103F50000BFE05460B98454330460999FCF704FED5
:103F6000281880000C9908183D4610E020460A9950
:103F7000FCF7FAFD05460B98454330460999FCF7D6
:103F8000F3FD281880000C9908180399751800682B
:103F9000FCF757FDFCF7EDFCA900079A50507F1E77
:103FA000761C85E70E9F0198C019009C069D6FE75F
:103FB00001204140504008434142414108910021C5
:103FC0000C46A94249DA029807910E180025BD4215
:103FD0001FDA0898002803D0611C20460C460CE02C
:103FE00007980A99FCF7C0FD07460B9847432846F7
:103FF0000999FCF7B9FD38180E9F80000C990858F4
:10400000FCF71FFD0D994919324600F02FF86D1C81
:10401000DDE70799491C069DD3E700210E46069867
:10402000864217DA029834180C91880007990D1807
:1040300000270E98874209DA01CDFCF702FD0D99A1
:10404000C919224600F012F87F1CF2E70C99C91931
:10405000761CE4E7079810F0CFF90FB0F0BD0178B7
:10406000401C0029FBD1704770470000F0B587B0B5
:104070000025012801D0074600E0EF4300296ED457
:10408000384C208988426AD9002A68D463899342CF
:1040900065DD237B002B18D0607802285FD1380CB7
:1040A000F82303403804400F181863691870780922
:1040B000E02303403806C00E1818636958700123C6
:1040C0000093204606F04AFF49E0424350183A0A5E
:1040D0003B0C6178032905D1D9B2D2B2FBB205F00D
:1040E000DDF93CE00690D0B205900493FCF741FC6A
:1040F0001D49FCF788F97721CE053146FCF783F995
:10410000FCF786FC0290FFB23846FCF732FC1749F8
:10411000FCF779F903963146FCF775F9FCF778FC62
:1041200006460498C0B200280BD0FCF722FC0E49CA
:10413000FCF769F90399FCF766F9FCF769FC45019E
:104140002035002F059A00D0771C002A02D0029853
:104150008000021D3A432A4320690699425407B061
:10416000F0BDC046581A00200000E040000040406A
:104170007047F0B585B01E4604910B99C91800919F
:104180000A99CC1D07218C430192A1180291009934
:104190008E42019D18DA02998D4213DA0390077856
:1041A00000242919082C09D078B2002803D50498D6
:1041B0003246FFF75BFF641C7F00F2E70398401C68
:1041C0000D46E8E7761CE2E705B0F0BD80B509488A
:1041D0000078002806D006F0C1FC1E4801210160CD
:1041E000416080BD002000F019F8012000F016F8B1
:1041F00080BDC0467404002080B5022000F00EF897
:10420000032000F00BF880BD10B50424102C04D05E
:10421000204600F003F8641CF8E710BD10B5044612
:104220000120A04080B20B490A68024202D14A68CC
:1042300002420DD008604860002C01D104F05AFB06
:104240002046FDF727FF20460FF096FEFDF720FFE2
:1042500010BDC0460C180240FEE780B5002200F0F9
:1042600001F880BDB0B503461C4C607A002801D02F
:104270000120B0BD657A00206055657AAD006519F2
:104280006B60637AE3181A72627A531C6372C870A7
:104290002F238B703A234B7030320A70B0BDC0466A
:1042A00080B5002100F002F880BD000010B5014685
:1042B0000A4A537A0120002B0FD009783039C9B24D
:1042C0008B00D3185C68002C07D01B1D00201860E1
:1042D00051180872517A491E517210BDC80E002043
:1042E00070B5044601F0F4FB0619104D2868C003B0
:1042F00005D501F0EDFBB042F8D3032070BD29686D
:104300000B480840286003D00A494860012070BD6E
:1043100001F0DEFB04192868400304D501F0D8FB46
:10432000A042F8D3E9E7002070BDC046102002404B
:10433000FAC30000A01D002070B501460025E84327
:10434000012916DBDB4E32788A4212D34C1E70787C
:10435000012806D134206043F16808180CF07CFE77
:1043600005E07078022805D12046FEF779FC002888
:1043700000D070BD0120A040716881437160284663
:1043800070BDC04680B5E3494A78012A02D10CF0DD
:10439000BCFF80BD4978022902D1FEF77BFC80BDBD
:1043A0000020C04380BDC04670B5ED4D687801283F
:1043B00009D1294608310024204622460DF090FB01
:1043C00000280AD070BD6878022803D10020FEF7CB
:1043D00047FD70BD0020C04370BD3026E8682978D5
:1043E0008C4205D2805910F007F83436641CF5E78A
:1043F00010F002F8002070BD80B5E8494A78012A23
:1044000002D10DF03EFE80BD4978022902D1FEF7AF
:104410005BFC80BD0020C04380BDC04610B5C6B067
:104420000021CC43EB494A78012A0AD169460DF0B4
:10443000B9FD00280DD16846007AC00608D51024C1
:1044400007E04978022904D1FEF758FC044600E051
:104450002024204646B010BDF0B5C7B00C46054636
:10446000EB4E707801281ED12320C10001AF3846E1
:10447000FBF7C7FEFF212846FBF7C3FE1036304688
:1044800039460DF067FD002815D101A9887D002867
:1044900011D01631012002022846FBF78BFE03984B
:1044A0002070002009E07078022804D128462146B7
:1044B000FEF73EFC01E00020C04347B0F0BDC0461F
:1044C000B0B5FFB083B0E54C607008015C49085C92
:1044D0005C4908707D20C000824201DB5A480260BE
:1044E000607801280ED1FDF701FC0546002811D1A6
:1044F000083456482146FFF7B0FE00280ED00020B1
:10450000C54307E06078022803D1FEF76DFC05463D
:1045100000E0002528467FB003B0B0BDFDF7CCFB1E
:1045200005460028F6D101204202009248480221A7
:1045300002AB0CF097FF05464448FFF7B1FEE9E7F0
:10454000B0B50021CC43C54D697801290DD10121B9
:1045500000F080F801280EDB34214143EA68891815
:1045600028390C68FFF7E8FE05E06978022902D1D6
:10457000FEF75CFC04462046B0BDC046FEB5B74F12
:10458000787008012E49085C2E4908703B707D2028
:10459000C000824201DB2C4802600520C4437878C9
:1045A00001280CD1FDF7A2FB002847D1394608317C
:1045B0002648FFF752FE00280BD0641D3EE07878B5
:1045C00002280AD11846FEF74BFC002836D10024F9
:1045D00033E0FDF771FB002830D1394608311C4823
:1045E00000252A460DF07CFA002801D0641C25E045
:1045F000342102913878FBF766FEF860002819D064
:10460000064600950194651D30246D1C387885425E
:1046100012D22746343701214802FBF754FE3051AD
:104620008E48C668305900283C468C4FEDD1019C1D
:10463000E41C03E0A41C01E0009C7C602046FEBD5D
:1046400010010020E01E0020F4020020885E010816
:10465000A806002070B50A46014600207F4E044699
:1046600033789C4206D27368E340DB0702D03430D3
:10467000641CF5E70023DD437378012B07D1337801
:104680009C4215D2F36818180DF054FA08E07078BF
:1046900002280DD1307884420AD22046FEF71CFC55
:1046A000002805D10120A040716801437160651C9C
:1046B000284670BD2C04002070B50446674E707803
:1046C00001280CD1B078002810D0304610300CF002
:1046D000D8FC0021B170002808D0C84370BD7078A4
:1046E000022810D12046FEF7DDFB0BE035461035E1
:1046F00038212846FBF785FD284621460DF02AFB88
:10470000002803D070BD0020C04370BD0120B070F0
:10471000002070BD2C0400207CB50024E443012857
:104720001BDB4E4D2E78864217D3401E6E78012E2D
:104730000DD1891834224243E868801801AD1A4629
:104740002B460DF04BFB002807D1019C05E06D784E
:10475000022D02D1FEF7EAFB044620467CBDC0468E
:104760002C04002010B502460020C043012A14DBAF
:104770003A4B1C78944210D3521E5878012806D127
:1047800034205043DA6810180CF08DFC10BD5878B6
:10479000022802D11046FEF731FC10BD2C04002087
:1047A00080B501460020C043012911DB2B4A137854
:1047B0008B420DD35378012B04D10C3210460DF0EF
:1047C00013FC80BD5278022A02D1481EFEF760FC1D
:1047D00080BDC0462C04002080B501460020C043A7
:1047E000012913DB1D4A13788B420FD3491E5078E1
:1047F000012805D134204843D1680818806980BD5C
:104800005078022802D10846FEF75CFC80BDC04605
:104810002C0400207CB50024E44301281BDB0F4D51
:104820002E78864217D3401E6E78012E0DD189183E
:1048300034224243E868801801AD1A462B460DF039
:1048400071FC002807D1019C05E06D78022D02D192
:10485000FEF752FC044620467CBDC0462C040020D6
:1048600010B53C4C2078002809D0231D0ECB012028
:1048700001F026F8002806D160680830606000F07A
:10488000EFFF002801D0002010BD606810BDC046B9
:10489000BFB50C4600F0C0F8054600F05FF801F027
:1048A00049F8002800D0BFBD0295022001900020E9
:1048B00000906105E00A002900D0401C039001200F
:1048C000C44301A8694600F075FE002803D0601CAF
:1048D000002C0446F5D100F0C3FFBFBD80B51D49D3
:1048E0001D4A48608A60CA600020087000F036F8EF
:1048F00001F020F84142484180BDC046B0B50446B1
:104900002578002D05D0641C284600F005F8002805
:10491000F6D168426841B0BD10B50E4C21786218DE
:104920001072481C2070C0B2082810D1231D0ECB75
:10493000012000F0C5FF01460748E060A0600020AC
:1049400020706068083060604842484110BD012016
:1049500010BDC046F802002003030303B0B525488C
:10496000074901600021074A074B084C0A2906D273
:1049700005686D0301D513600460491CF6E7B0BDFE
:10498000FB830000409001084B530000FAC3000075
:10499000B0B58EB004466D46281D3421FBF731FCBE
:1049A00004200090284600F05FFE1148069901425D
:1049B0001CD000F0BFFF0120C0030E49086080201A
:1049C0000860102008602020086000F065FF0A4899
:1049D000069901400691684600F09CFE002C05D027
:1049E00000F048FF00F04EFF00F03AFF0EB0B0BDFF
:1049F0000006000110200240FFF9FFFEF8B500207C
:104A000003900290042101910090FFF767FF01A835
:104A1000694600F0CFFD8FBDB0B501460120C2064A
:104A2000C4020023064D1846402807D08A4201D808
:104A30008D4204D812192D19401CF5E7D843B0BD9A
:104A4000000800081049405C7047C04670B5064633
:104A50000024400716D1F0087E2813D80D46FFF732
:104A60007DFF00F067FF00280CD1074831180CCDFE
:104A7000012000F025FF054600F0F2FE002D01D1D7
:104A800044424441204670BD0070FF1F10B58100B4
:104A90000A4A1268535830241C40202C0DD151185A
:104AA000C000074A83589BB28350835883500868DC
:104AB000044A024004485040086010BDFC0A00202F
:104AC000009800403F0FFF07B080000080B502282B
:104AD00001D1086880BD0846FBF79AFF002801D481
:104AE000812800D300200149081880BDC41300208C
:104AF0007CB50C460546002604F0B6FDA8421BDD39
:104B0000002D19D4280171490E187068002805D1AC
:104B1000B068A04202D1F068002809D0284604F00D
:104B2000A5FD3078002100910A46234600F05AF88E
:104B3000307800F08DF8064630467CBD7CB50C46DA
:104B4000054604F091FDA8421BDD002D19D4280173
:104B50005E490E187068012805D1B068002802D19E
:104B6000F068002809D0284604F080FD3078002243
:104B700000920121134600F035F83078214600F00C
:104B8000CDF87CBD0107CA0E032191400F2292028D
:104B9000800110400522120783588B438350024A3C
:104BA00083588B43835070470C000050F0B50F22A0
:104BB0008301104045000324AC4092021A400523B3
:104BC0001B07D658A64301242746AF403743D7508A
:104BD000002901D1282100E01821D2185118844061
:104BE0000C60F0BD1CB5049C009400F009F8FF2097
:104BF00001900198012802DB0198401EF8E71CBDD6
:104C0000F0B585B01D4614460E46074604920A9834
:104C10000390029301910F203946014001228A40FE
:104C200000928002B901014005200007081869467A
:104C300000F094FE384604F005FD002805D400017C
:104C40002249081846608560C46005B0F0BDC046C2
:104C500081B0C1B209096A4611700F210140107874
:104C60008002034A8258CA400120104001B07047B8
:104C700010000050FEB502920E46054604F0F6FC08
:104C80002C011248005D0007800E11A10F5802216F
:104C9000002538462A4601F00BFA384601F0FCF9A7
:104CA0000A48005D0095012E01D01A4900E018491C
:104CB000002E029C00D11849621E53425341022C1F
:104CC00000D123462A46FFF78DFFFEBD10010020CC
:104CD00005000000050000000600000006000000BE
:104CE00007000000070000000700000007000000A8
:104CF0000700000007000000070000000700000098
:104D00000700000007000000070000000700000087
:104D100000001110000031100000211082B00F239C
:104D2000034001AA1370C0B203096846037000294A
:104D300001D1282100E0182100788002081811789C
:104D400001228A4005210907425002B07047000045
:104D5000F0B587B0044600250695C06D012801D145
:104D6000022047E00127E7652046FCF71DFC266886
:104D7000B268216ED2072FD1039702908122520090
:104D80009143891C2166F168F268434B1340F3603C
:104D90004248084001903146B4310491404A2846C7
:104DA0002F46082F28D0B1681140134618320A4305
:104DB000B260B168002907D50699491C0691069989
:104DC000C90A5729F5D30CE0049909687F220A40E3
:104DD00010187F1C1A46E4E710221143E56521668E
:104DE00008E00020E065206E10210143022081438D
:104DF0002166039807B0F0BD0346B168174611401D
:104E0000012003900143B160DB083169890F14D19F
:104E10000F218904E54A12680A40900C07280CD338
:104E2000C11E01228A4005920599490805910599FC
:104E3000002902D00599491EF8E7049801687F22ED
:104E4000914319430160B168394002273943B16089
:104E500000F03EFE064620688168C90712D000F0C7
:104E600037FE801B0328F6D320688068C007F2D085
:104E7000206E102101432166606E0399084360662D
:104E80000846B7E7C168019A1143C160206E01214D
:104E90000143B9430298A1E7FC7FFFFF03800000B4
:104EA000E8FFFF7FF0B587B0044600260696C06D88
:104EB000012801D10225C2E00125E565206882684C
:104EC000520711D423694A68022A12D104221343DB
:104ED000874A93421CD1854AD3430A68D143194378
:104EE000836A0B40836214E0206E20210143216617
:104EF000A4E00592042213437C4D7D4FBB4218D1A0
:104F00000B681A462F462A40856A1543856289E058
:104F10000A680025002A00D490E0A4480168774B75
:104F20009A4258D0744B9A4200D087E001229205F1
:104F300053E01F23059F3B400F27019704939F4099
:104F4000A36E0297BB4303930B682B424DD0DF0740
:104F5000374652D19F074BD45F074BD41F074BD422
:104F6000DF06174649D49A0600D59EE05A0600D5BA
:104F70009DE01A0600D59CE0DA0500D59BE09A0575
:104F800000D59AE05A0500D599E01A0500D598E0B9
:104F9000DA0400D597E09A0400D596E05A0400D5CB
:104FA00095E01A04019F28D4DA0300D591E09A0312
:104FB00000D590E05A0300D58FE01A0300D58EE0AB
:104FC000DA0200D58DE09A0200D58CE05A02D217A1
:104FD0001627174011E0454A521C11400322920542
:104FE000036893435918016028E05A00D70E04E083
:104FF000012702E0022700E00327049A9740039A62
:105000001743A766059A9208656A954209D9029ADC
:10501000D243856A15409A00120F049FBA402A4372
:105020008262324F1A024569954389681140314ABC
:105030000A402A4342610025002B03D4E665284636
:1050400007B0F0BDE04802680320800511460590D6
:1050500001402948834219D1781C1746074015D1D1
:10506000D94B1A68059FBA43114301431960D148CF
:105070000068D149FBF758FD0C214143481C0690BC
:1050800006980028DAD00698401EF8E71B488342AD
:10509000D4D1012080050240D0D1CB4B1A68059FA6
:1050A000BA43114301431960C8E70527A5E706275E
:1050B000A3E70727A1E708279FE709279DE70A2716
:1050C0009BE70B2799E70C2797E70D2795E70E2716
:1050D00093E7102791E711278FE712278DE7132712
:1050E0008BE7142789E7152787E7C046FFFF7F0076
:1050F0000400008000FFFF7F000200A4000400A85D
:1051000070B500280CD00446006E022101432166D0
:105110002046FCF723FA002804D0054620680EE05C
:10512000012539E02046FCF73FFA0546002801D169
:1051300001202066206881689D4A0A40826041689B
:10514000164A0A40426016490160C168154A0A4081
:10515000C2600321890702698A430261416907220B
:1051600091434161016A104A11400162416A114054
:105170004162C16A1140C162816A002686623F2095
:10518000800491490A6882430A60204600F01EF9B3
:105190006666A666E6652666284670BD60F4FFFF73
:1051A0009F0B000000021E8300F000F00827014062
:1051B000006E70470068006C70470000F0B587B063
:1051C000044600200690002C57D00590206E002841
:1051D00005D1204600F0FBF80020E065606601275D
:1051E0003D072668B068C00011D4B068704901401E
:1051F0002943B1606F4800686F49FBF795FC400098
:1052000006900698002802D00698401EF8E7B0687D
:10521000284208D1206E102101432166606E0121D1
:10522000059108436066B06804210140226E102099
:1052300002405118226E22D1049060480240921C14
:105240002266B268D20774D1A26B531E9A41120330
:10525000A568A769E369206ABF032F43DB033B43CB
:10526000019047031F43E5683D4315430120C107F3
:105270002269002A07DA8A4306E0012096E0024309
:105280002266384692E042051543626B57002F4371
:10529000A26A012A0CD1019A002A07D0226E20238B
:1052A00013432366626E0243626601E00204174301
:1052B000E36A002B0390029106D00722920113406B
:1052C000226B1A433A4300E03A46F3683C4D1D40D6
:1052D0001543F56003229307606807461F40626D1F
:1052E000616C01290ED1A16C0091E56C216D0191D9
:1052F00000990D4301990D433D43154303990D4317
:105300002F4600E0174331692E4A0A403A43326182
:10531000029988420DD098420BD0039989078842A0
:1053200007D00F2189040840274A13688B431818B7
:105330001060706907229043E76B384370617069B1
:1053400070218843216C09010143716125690123A2
:105350005805854206D0002D10D11849F331B06AA6
:1053600008430AE0B06A606A80001C301C210140DA
:10537000124DF3358D40A06E2843B0627069104025
:10538000B84209D100206066206E0121014302204D
:1053900081432166059809E0206E049908430221A3
:1053A00088432066606E18436066184607B0F0BDFB
:1053B000E8FFFF6F20000020400D0300FDFEFFFF0F
:1053C0000102DEFF02FCFF1F082701407047704703
:1053D000F8B50D4604464069082801D1082704E0C5
:1053E0002068C068C00735D1042700F071FB06466D
:1053F00021680868384210D1681CF9D000F068FBB9
:10540000801BA84201D8002DF2D10020E065206E5B
:105410000421014321660320F8BD01204202236ECE
:1054200013432366CA681205920F22D1226A002A0A
:105430001FD10A6812071CD58A68520710D4224669
:1054400060324B680C25AB434B60FF250235136877
:10545000AB430CE0206E2021014321660120F8BD02
:10546000226E20231343236622466432636E034375
:105470001360A2690020002A00D0F8BD0C220A6047
:10548000F8BD0000B0B505460068806802244007FA
:105490001ED4E86D01281BD00124EC652846FCF7DA
:1054A000B1F8002802D00020E86511E0286E094913
:1054B0000140012000020818286600246C66286854
:1054C0001C210160EC658168034A0A40111D81605E
:1054D0002046B0BDFEF0FFFFE8FFFF7FB0B50446F9
:1054E000C06D012801D10220B0BD0125E56520462F
:1054F000FCF734F800280CD12046FCF755F80028BA
:10550000284606D1FF200230216E8143481C2066C8
:1055100000200021E165B0BDB0B501244462816A7C
:1055200002292AD1026811680E2399431160136879
:1055300001218B431360836C1C68124A14401C6069
:10554000436C1C241C400B46A3400F4C25681D4394
:105550002560C36C046D5C60436D002B05D01C6836
:1055600014401C60826DC36D5360002444628162EC
:10557000C16B002903D0884701E004210164204663
:10558000B0BDC046FFFEFFFF04000240806A7047C6
:10559000B0B5044600F09CFA0546601C02D00448F1
:1055A0004068041900F094FA401BA042FAD3B0BD41
:1055B0000C000020F0B585B0DC4C2268012A01D136
:1055C00002204AE0049002910027012081C47D203E
:1055D000C6003046083CFEF783FE00283CD1039607
:1055E000049800681E4DD24B042807D1A81C1968E6
:1055F000014319600398FEF773FE2DE00197F8430D
:105600000299086004994A68D7001446039889688B
:1056100089188C4213D21968124A114039432E4618
:1056200029431D461960FEF75BFE00280BD10837A1
:1056300004994A68641C2B4603983546E7E7019FA6
:105640003846BA4C04E002990C60B84C019F2B46D6
:105650001968022291431960276005B0F0BDC04669
:105660000200010005FEFEFFFEB507210160416852
:10567000012901D0102300E00C23234A9C583F212C
:1056800002910C4084609B589B029B0EC360116882
:105690000091166801210191CF0654682406E40B9D
:1056A000E4190462194C631C91680B40C5692540DC
:1056B000EC18C4610906C90B154BC9184162516940
:1056C0000906C90BC919816291690906C90BC91874
:1056D000C162614941610E4086610099CDB2AA2D37
:1056E00001D12E4600E0BB26CC2D00D12E4606610E
:1056F00003210C43C46101990904126E1140029BFD
:10570000134001634363FEBD20200240FFFFFF7F83
:10571000FF010008F0B585B0844D2968012901D149
:1057200002208DE00021012203922A600491696029
:105730000168CA077E4F09D043688468C2681204B2
:105740002243012B01D1BA6100E0FA6106220A402E
:10575000062A0AD1044610341CCC1443FF2293437A
:10576000D2435A40FB68134019E08A070DD44A0718
:1057700017D54269FF239A43DB435340FC68FA681C
:10578000E4B2AA2C5ED126465DE0FA68324C1440A1
:10579000FF22D2436240FE6816400369334323432D
:1057A000FB600A072CD5C269039BDB075C1C224205
:1057B0001AD07E69D40701D1344611E0056A446AE3
:1057C00002941F24E40601942D196D0A3D61FF2502
:1057D000AE43564D029C019FE419554F640A344371
:1057E000002A00D51C437C61920709D51F22D206EE
:1057F000836A9B185B0A3B62C36A9A18520A7A62F0
:10580000C90607D5F96E154A0A40016B406B08437B
:105810001043F8667D20C4002046FEF761FD002895
:105820000CD12E460398450438682843386020463A
:10583000FEF756FD3968A943354639600499296059
:1058400005B0F0BDBB261A40CC2C00D1264683699A
:1058500033431343A4E7C04600FFEF3FC0FFFEFF02
:105860000120C00732490A6802430A600868C04341
:10587000C00F70470120C1062D4A13680B43136007
:105880007047C04601208107294A13680B43136003
:105890001168890F8843704706488168490001D420
:1058A000012070470449016004490160806840009C
:1058B000C00F70470C2002403B2A19087F6E5D4CD8
:1058C000F0B585B0194C2568012D01D102202BE0DF
:1058D000029101930392049000270126C0C47D2009
:1058E000C5002846083CFEF7FBFC00281BD10097AA
:1058F0000F4F049801280AD1386830433860039864
:1059000002990860BFF36F8F0198486003E0029826
:105910000399FAF7DFFB2846FEF7E2FC3968049AA0
:1059200091433960009F276005B0F0BDA01D0020A5
:10593000142002400648C168002901D400207047A5
:105940000449016004490160C068C00F7047C04647
:105950000820024023016745AB89EFCDF0B589B03F
:105960000B465749884201D0062200E005220B2150
:105970000907049040180A21C8410090042800D368
:10598000009200252A460795284606931E68314650
:10599000C14000D191E001242746089087403E4055
:1059A000029600D181E0059203955E681021314393
:1059B0001229049A14D11C21079801400F252E4664
:1059C0008E400898C008800010180190036AB34305
:1059D000069806692E408E401E4301990E62466865
:1059E000032130460840039DA8400191A940136857
:1059F0008B4303431360C943122E069B059A15D8A7
:105A0000B440324804420FD0049CA0680840069B72
:105A1000DB68AB400343A3603009089B9840636890
:105A2000BB4303436360069B032E3ED0049CE068A7
:105A300008409968A9400143E160F00035D518207D
:105A400010400F218140089B019A93431D4AD218B0
:105A5000136E8B43009981401943069B11661A48C7
:105A600001685A68D00302D5029C214301E0029CE0
:105A7000A143154801604168900301D5214300E02E
:105A8000A143114841600F480168D00201D521436C
:105A900000E0A1430B4801604168900201D5214319
:105AA00000E0A143059A07484160AD1C0832079801
:105AB000001D07900898401C68E709B0F0BDC0467B
:105AC0000014005000180240801802400600060032
:105AD000014800687047C04640230020B0B5436CC1
