:020000040800F2
:10000000F05E0020090100082DA9000811820008F7
:1000100000000000000000000000000000000000E0
:10002000000000000000000000000000C5BE000845
:10003000000000000000000081AC0008E5CF0008CF
:100040001B0100081B010008BDAF00081B010008D0
:100050001B010008AD4D0008D94D0008E94D00080E
:1000600081E100081B0100081B010008F1370008AE
:100070001B0100081B0100081B0100081B010008F0
:100080001B010008000000000000000091D00008E3
:1000900000000000ADD00008C5D000081B0100081A
:1000A000F58300081B0100081B010008B5DB0008F0
:1000B000F9DC000800000000ADDEEFBE39000000F2
:1000C0000348854601F0C4F900480047815A0108F9
:1000D000F05E0020B0B5012293040A4A54681C4324
:1000E0005460EFF3108372B60024402C03D220C971
:1000F00020C0641CF9E71068C003FCD483F31088A7
:10010000B0BDC04610200240044880470448004764
:10011000FEE7FEE7FEE7FEE7FEE7FEE781D0000828
:10012000C1000008F0B51FB40646002082B00546A5
:100130004024019100901BE0019922460F46304671
:1001400000F01CFE049A059B801A994110D31046BA
:100150001946224600F002FE361A8F4101972246C8
:1001600001200021009F00F0F9FD38184D4100905A
:100170002046641E0028DFDC019B00982946324699
:1001800007B0F0BD30B5434351435C18010C130C6C
:100190000D465D432C1980B292B20546554351433A
:1001A0000A0C09044D1962415843010C000440191E
:1001B000514130BD10B5431A934209D283188818B3
:1001C00003E0401E01785B1E1970521EF9D210BD6B
:1001D00003460B439B0703D009E008C9121F08C060
:1001E000042AFAD203E00B780370401C491C521E0B
:1001F000F9D210BDD2B201E00270401C491EFBD200
:1002000070470022F6E710B513460A460446194621
:10021000FFF7F0FF204610BD10B5044605E00B784F
:100220000370401C002B00D0491C521EF7D2204600
:1002300010BD421C0178401C0029FBD1801A704778
:1002400010B5002200E0521C835C8C5CA34201D1FB
:10025000002BF8D1D8B2E1B2401A10BDC9B203E008
:1002600003788B4203D0401C521EF9D20020704705
:1002700003460A780270401C491C002AF9D118462E
:10028000704730B505460020034600E05B1C9342F2
:1002900005D2EC5CC85C201A01D1002CF6D130BD2F
:1002A000F8B50E460546002400E0641C285D00F009
:1002B00084FD0746305D00F080FD381A02D1295DCB
:1002C0000029F2D1F8BD10B54843044616F018FBDA
:1002D000002805D00021002C02D0641E0155FAE749
:1002E00010BD00000FB400B58DB009900B9010A99F
:1002F00000200091C0430A9000200C900648069010
:10030000064807906A4609A80F9900F063FD0DB0F2
:1003100008BC04B018470000F50D0008150E0008D1
:10032000FFB5087889B01546FF2805D0491C2D284F
:1003300004D00022002407E000240BE00122F9E7AA
:100340000A235C430419491C0878FF28F8D1002AC5
:1003500000D06442002004902A7801462D2A01D062
:100360002B2A0FD16D1C2D2A02D00022049209E005
:100370000122FBE700260A2233466D1CFFF702FF2D
:10038000381871412F78FF2FF4D10C9AA2180692D9
:1003900002460A4304D0FF23069A9133DA4205DA73
:1003A000002109980A4606C00DB0F0BD0024B74AE6
:1003B000B54D2646079200F0EFFB02900698039198
:1003C000002801DA474200E0074639050020AF4A1D
:1003D000001C51410191009012E0F80707D022461D
:1003E0002B463046079900F065FA064607912246EB
:1003F0002B461046194600F05DFA04460D467F1064
:10040000002FEAD10698019B0028009A03990298D0
:1004100006DA00F0B7FA3246079B00F0B3FA05E0BF
:1004200000F048FA3246079B00F044FA049A002A8A
:1004300002D00122D2075140099A03C2B4E7FFB5A6
:1004400091B0002009900025ED432E209E685C6845
:100450001F460190B9696D1C129888470090396A4F
:1004600088470028F6D10098401C0AD00D20C00112
:100470008443002E12DD00982B2809D02D280DD1A1
:1004800003E00020C04315B0F0BD0120800204430A
:10049000B9696D1C12988847761E009003A9600503
:1004A00001D52D2000E02B206A461073491C0CA8B2
:1004B0000F9102900AE0B9696D1C1298884700906C
:1004C0000120400204431398761E0560002E02DDD1
:1004D00000983028EFD001990098884245D18020BB
:1004E000044308E00998401E09900120400204439B
:1004F0001399681C0860B9696D1C761E12988847AC
:1005000000903028EED030E00199884205D12006D5
:1005100003D480200443761E1DE0009816F0C4FB2F
:10052000002825D0012149020C43009807AA0F9901
:1005300003323038761E914208D208700F98401C62
:100540000F90200607D50998401E03E0200602D42C
:100550000998401C0990A00502D51399681C0860F1
:10056000B9696D1C129888470090002ECCDC59E0C8
:10057000002E57DD0098652801D0452852D1A005EE
:1005800050D5032000028443B9696D1C761E129871
:1005900088470090002E0CDD2B2804D02D2808D190
:1005A000FF2001300443B9696D1C12988847761EFC
:1005B0000090E00501D52D2100E02B21029801706B
:1005C0000298401C0290019025E001204002044363
:1005D0000EA902980131761E88420ED20098029927
:1005E00030380006000E087003D10299019881424C
:1005F0000AD90298401C029006E0E00501D5244883
:1006000001E0234840420990B9696D1C129888475F
:10061000009013980560002E04DD009816F044FB4E
:100620000028D2D1F969129888470F99FF200870E5
:10063000029903AA087000200A900B900CA90AA83E
:10064000099BFFF76DFEA00502D40120C0431AE705
:100650002420044209D0E00713D138680B9A0A9984
:10066000031D3B60006806C00BE00B990A9800F080
:10067000E2FA0146E00704D13868021D3A600068DA
:1006800001602846FFE60000000014400000F03F33
:10069000F1D8FFFFF7B5009C0F4600262578641CB3
:1006A000002D05D000F07CFB0068405DC007F5D14F
:1006B0002B2D02D02D2D18D0641E39462046029ACB
:1006C00000F0BAFB002F04D03968A14201D1009993
:1006D00039607105022400290BDA4042002803DD4D
:1006E00016F0D8F80460A007FEBD01208002064382
:1006F000E3E70028F8DA16F0CDF804600048FEBD04
:10070000FFFFFF7F10B500F04BFC10BDF8B50246AF
:100710004A40D40F42004B0052085B089A4202D272
:100720000246084611464A0023D0C30D4A00DDB2F6
:10073000120EAD1A202D35DA49020126490AF605B6
:100740008A19002C00D0524220214F1B1146B9407B
:100750002A411018C20D9A4221D0002C17D0012D29
:1007600008DCDA05801AD20F8019D207DBB200F05C
:1007700064FCF8BDDA05801A012340001B06C0188E
:1007800080185A428018CA0F1043490007E04908F0
:10079000C2071143DA05801A80194008801800F05A
:1007A00044FCF8BD61000122511A001BF7E7012249
:1007B000D2075140AAE70122D2075040A6E70246DD
:1007C00070B54A40D30FDB0740002DD04A002AD035
:1007D000010E140E000212020919400A520A84186E
:1007E000E50104465443000A120A2E045043A4199A
:1007F0004219200CC543AA18120C0125AD03521C46
:10080000521912047F39240400D0521C104301D421
:100810004000491EC2B20C06C0092018401C400806
:10082000802A02D003E0002070BD4008400000296B
:1008300000DA0020184370BD70B502464A40D50F5B
:1008400040004A00ED0740085208002814D0002A52
:1008500012D0C40DD30D41020120C0055202490A35
:10086000520AE41A091812187D34914201D3641C0B
:1008700000E04900002C01DA002070BD0023914205
:1008800001D3891A0343400849000028F7D1002901
:100890000AD0914202D10121C90705E0914201D25B
:1008A000012101E00121C943E005C018401900F011
:1008B000BCFB70BDF0B51FB488B00B99099800243B
:1008C00048400999C00F490049080991C0070B9990
:1008D0000090490049080B9109990898A6460843D9
:1008E0001CD00B990A98084318D00998012440009D
:1008F000420D4800410D099824050003000B2043D8
:1009000009900B980003000B20430B9050181C49D2
:100910004018002201901446104605E000200146D0
:100920000DB0F0BD032801DA034600E003239C4626
:10093000C11A0AAE0AE05F0008ADED5B4F00F75B3D
:100940007D430027AA187C41491C5B1E6145F2DDEE
:10095000410004AB5A522104120C0A43240C401CDF
:100960000828DFDB01980290009970460191009001
:10097000059B049A0799069800F0F0FBD0E7000069
:100980000DFCFFFFF0B50C465C4085B0E40FE407BA
:1009900003944C0000266408590094464908024616
:1009A0000296224321D062460A431ED06200570DB0
:1009B0004A000E032303550D012402462C49240549
:1009C000781B1B0B360B40182343264361460090CF
:1009D0001C46501AB44103D30098401C009002E01A
:1009E000921800985B41002803DA0020014605B008
:1009F000F0BD0020012109050746864611E0644646
:100A00001D46141BB54106D36546521BB3417446BF
:100A100007430C43A646CD074008490828439218CF
:100A20005B4105460D43EAD11046184313D060469A
:100A3000194650407140084306D06046101AB34131
:100A400006D20122002306E000220123DB0702E098
:100A50000122D2435310009874460105381C6141AD
:100A6000029C039D0019694100F06BFBBFE7000089
:100A7000FD0300000122D207002800DB101A002924
:100A800000DB511A814201D80120704700207047D5
:100A90000122D207002800DB101A002900DB511ABE
:100AA000814201D201207047002070470122D20705
:100AB000002800DB101A002900DB511A814201D303
:100AC00001207047002070470122D207002800DB78
:100AD000101A002900DB511A814201D90120704708
:100AE000002070470122D207002800DB101A0029DD
:100AF00000DB511A814201D101207047002070476C
:100B0000C217C10F504010B54018CA0796230021E4
:100B100000F093FA10BD10B500229623114600F0A4
:100B20008CFA10BD0A4670B5C917D30F4A40484029
:100B30000025C11814466C41DA0796232046002C84
:100B400003D0B62300F079FA70BD08460021F9E71A
:100B50000EB505490291002100910A460B4601910C
:100B600000F0FCFA03B000BD330400003EB5CA1724
:100B7000CB0F002450405140C0186141DA07054BAB
:100B80000293019200942246234600F0E7FA03B054
:100B900030BD0000330400000EB5054A0292002269
:100BA00000921346019200F0D9FA03B000BD000094
:100BB00033040000C20F410040020123400ADB055C
:100BC000D207090EC0187F2901DA00207047962944
:100BD00003DC9623591AC84001E096398840002A60
:100BE000F4D040427047410040020122400AD20541
:100BF000090E80187F2901DA00207047962903DC4E
:100C00009622511AC8407047963988407047C20FE3
:100C1000D207400040080BD0C10D0723DB01C918E3
:100C200040020905400A1143C208400711437047BA
:100C3000002001467047CB0FDB07490010B549087B
:100C400002460A4307D00A0D07240903E401090BF1
:100C5000121B002A01DC002010BDC900440F0C4308
:100C6000C100E018D205801800F0DFF910BD414640
:100C7000016049464160514681605946C1607146F4
:100C800001611430F0C069460160001D01B5C04625
:100C9000C04606BC964601C10020704704000D0006
:100CA000A06AC046C046616A8D462200280000D175
:100CB0000120116888465168894691688A46D16842
:100CC0008B4611698E461432F0CA704770B50446DF
:100CD000002903D000202022012310E0002801D0A9
:100CE0000020C043C046C0460DE02546D5408D4299
:100CF00005D30D469540641B1D4695404019154689
:100D0000521E002DF1DC214670BD000070B500259B
:100D100004462E46002911D0002C01DA0125444258
:100D2000002901DA012649422046FFF7CFFFB542EC
:100D300000D04042002D00D0494270BD002C02DAA4
:100D40000121C90702E0002C00DD03490846C04626
:100D5000C046214670BD0000FFFFFF7F10B5202A6E
:100D600004DB0146203A9140002010BD9140202331
:100D70009C1A0346E3401943904010BD10B5202A49
:100D800004DB0846203AD040002110BD0B46D3407A
:100D9000D0402024A21A91400843194610BD0000FB
:100DA00000487047887C010810B50446FFF7F8FF3B
:100DB0000068005DC007C00F10BD01464139192908
:100DC00000D8203070470000026813785118016085
:100DD0001846704710B5D160044951610449116249
:100DE00000211161114600F067FB10BDC90D00081C
:100DF000A90D00084268002A08D001680B78491C38
:100E0000002B03D0521E06C0184670470121C16056
:100E1000881E70474268002A0BD0C3680168002B07
:100E200007D183688B4204D0491E521C06C00020A3
:100E300070470020C0437047F7B582B0029C00277E
:100E40002078641C15460197302802D0002D15D05B
:100E500015E020780127641C782804D0582802D097
:100E6000002D09D00BE0002D01D0102D07D1002757
:100E700010252078641C02E0082500E00A250026E1
:100E8000009610E00099012769430818020C2946D2
:100E900080B2714300908E183804864201D301203D
:100EA00001902078641C294600F0F7FA0028E9DA5E
:100EB0000398002805D0002F01D0641E00E0029C9A
:100EC00004600198002806D015F0E4FC02210160BE
:100ED000C81E05B0F0BD009930040843F9E70000D2
:100EE0000FB400B589B00A460DA9009100230C99F2
:100EF000002ACB60234B0693234B079301D0042396
:100F000000E00023214A0292214A089201930246FE
:100F10006B460020FFF793FA09B008BC04B01847ED
:100F2000F0B585B007460020C04301901E46002062
:100F300015460C460091029104903B466A463146A4
:100F400004A8FFF7CDFF049902466018002D05D0D4
:100F5000002901D0034600E023462B6000290ED073
:100F6000002A02DD0099814209D0001B0190009403
:100F70003B466A463146029404A8FFF7B1FF05B02C
:100F8000F0BD0000F50D0008150E0008FFFFFF7F03
:100F9000A90D000810B500230360FFF7C1FF10BDC5
:100FA000F7B5009C0E4600252778641C002F05D05D
:100FB000FFF7F6FE0068C05DC007F5D12B2F02D009
:100FC0002D2F1ED0641E31462046029A00F010FCE0
:100FD000002E04D03268A24201D1009A32606A0524
:100FE0000224002A18DA0022454200268A413346AC
:100FF000751B934109DB002240428A41114603B030
:10100000F0BD012080020543DDE715F043FC0460DC
:1010100000200121C907F2E70029F0DA15F03AFCB7
:1010200004600020C0434108E9E7002904DA401CBD
:10103000490001D140084000704770B40024050CFD
:1010400005D11024000402D1002921D01124050E5D
:1010500001D100020834050F01D10001241D850FC4
:1010600001D18000A41C002801DB4000641C002981
:1010700008D020252E1B0D46F540A14000D00121AF
:101080002943084301061B1B000ADB1D02D5002073
:1010900070BC7047DB05181880180029F8DA401C6E
:1010A0004900F5D170BC40084000704770B5002879
:1010B00001DC002070BD410040020126400AF60517
:1010C000090E8019CA0701D14000491E4D100022A7
:1010D00011463F353346CB409B18D418844201D883
:1010E000001B1A464000491C1729F3DD51008142BC
:1010F00002D20021C94300E00021E8058018FFF773
:1011000094FF70BD10B541000DD04100090E962925
:1011100009DC7E290ADC07DB410205D0C00F7F21F4
:10112000C007C905401810BD002010BD9622541AF2
:1011300020210A1B01469140E040FFF776FFA040C6
:1011400010BD10B5002B08DA0024401C6141921834
:101150005B411A4301D14008400010BDF0B51FB4F7
:1011600082B005460C0003D0084615F051FB02E0A2
:1011700015F04EFB20300246009021462846FFF72E
:10118000EDFD049B059A04460F461843114308439E
:1011900014D0184610431BD0009840210A1A184654
:1011A0000599FFF7EBFD05460E46009A0599049850
:1011B000FFF7D4FD084305D0012004E0204639465E
:1011C00007B0F0BD0020C11705430E432C43374341
:1011D00000990E986305401A7905E40A00220C4331
:1011E000FD0A0A3002D500200146E9E70105101981
:1011F00069410C9C0D9D00196941FFF7A2FFDFE7D3
:10120000F0B507460846584087B0C00F0490480024
:101210000E46590040084908BC1A884105D2384694
:1012200031461E4617460B460246580040081043FA
:101230004CD0300D039040055900400D490D0590EC
:10124000401A0290402872DA18030121000B0905A8
:101250000843019004980092002805D00199524259
:101260000020884100920190029840210A1A0199B9
:101270000098FFF773FD05460C466B4607CB00F060
:10128000F9F8C0197141039A0E0D0023D717564083
:101290001A467A40164344D0049A002A2DD0029A66
:1012A000012A039A15DC1205C01A91410126360560
:1012B000001C7141D20F059ED20700930192029645
:1012C0002A462346FFF74AFF07B0F0BD38463146AD
:1012D000FAE71605224A0F46B218C01AB741012193
:1012E0000905001C4F4100187F411146181879412B
:1012F000E20F10436D19644113E0E2076D081543D6
:101300006408C2071443039A01261205C01A9141CA
:101310003605001C7141CE07400830434908C0180B
:1013200051412A462346FFF70CFFCDE7FFE704981B
:1013300001224000C117121A00238B410498314644
:10134000C417381AA141EEE730B40124E407634022
:1013500030BC55E730B40124E407614030BC4FE7AE
:101360000000E0FFF0B55F0085B07F0DCD0F039763
:101370004E0001273F051B0309031B0BED07090B5B
:101380003B43760D394397189C46029700245B41F6
:10139000039F01957F1E00949E46039713E0029FD2
:1013A0007346C01B994106D50127FF077D400F46B4
:1013B00000214042B9416346171A8B41EFD3761E94
:1013C0000018039F4941BE42F5DA02460A4307D09E
:1013D0000022134602960195FFF7C0FE05B0F0BD4E
:1013E00020460199FAE700004A0009030123090B8E
:1013F0001B0519430A4B10B5520D9A4202DA002020
:10140000014610BD064B34339A4203DC9A1AFFF7AB
:10141000B5FC10BD034BD218FFF7A0FC10BD0000B7
:10142000FF030000CDFBFFFF10B5002904DB012402
:10143000E40740428C412146002B04DB1C4601237B
:10144000DB075242A341994200D1904210BD0000F7
:10145000064C0125064E05E0E36807CC2B430C3C07
:1014600098471034B442F7D3FEF72EFE7096010869
:10147000A096010810B5202A06DBCB170846203AB3
:101480001041C1170B4306E00B461341D040202406
:10149000A21A91400843194610BD3A2800D23038AC
:1014A000202302469A43412A01D310463738884206
:1014B00001D30020C0437047F3B58DB000200A90DF
:1014C00001200B90002608460C300C4609906269FA
:1014D000012109989047051E2ED0252D2DD0216A77
:1014E0008847002818D06269012109989047216A2D
:1014F00088470028F7D1411E62690998904700E0AB
:10150000761CA1690D988847216A88470028F7D181
:10151000E1690D988847DAE7A1690D988847074681
:10152000A84201D1761CD2E7E1690D9888477F1C5B
:1015300002D10A98002877D049E1002762693D4628
:101540003946099890472A280CD1626901210998E7
:101550009047012506E00A214F433F18303FEBD466
:1015600010200543626901210998904701463039EE
:101570000A2903D29B498F42DEDCECE7E90600D45E
:10158000994F6C280AD04C2810D0682824D06A289B
:101590002ED074280CD07A280AD00DE0626901217F
:1015A000099890476C2823D004211CE02020054393
:1015B0006269012109989047A760656065284FD04E
:1015C00026DC582839D01ADC452849D012DC2528D9
:1015D00034D04128B0D143E0626901210998904795
:1015E000682802D008210D43E6E70120C002DEE7AB
:1015F0000220DCE7462833D047282CD130E05B2896
:1016000070D061282CD063286CD0642823D161E08D
:101610006F284FD009DC662822D0672820D069289F
:1016200026D06E2817D12EE0CDE070284DD073283B
:101630006FD075284ED078280DD154E0A1690D984F
:1016400088470546252800D16CE7E1690D98884751
:101650006D1C00D16DE7BAE00A224CE00A2252E08C
:10166000012023466A46C0430D99FEF7E8FEA3E039
:101670002846402108436060A807234601D5002280
:1016800039E000223FE0E80700D020E72068011D94
:1016900021600068290501D5067018E7290701D5E2
:1016A000068014E7A90703D5F117066041600EE72D
:1016B00006600CE72846402108436060A8072346DF
:1016C00001D5082217E008221DE0484928460840B5
:1016D000606016E02846402108436060A807234662
:1016E000BCD5B9E715E02846402108436060A8074B
:1016F00007D5234610220120C0430D99C046C0469D
:101700005AE0234610220120C0430D99C046C0462E
:1017100052E000210C910B460091632802D05B2817
:1017200007D043E0E80601D40120A060012000902A
:101730003CE062690121099890475E2805D10120AB
:101740000C9001466269099890472169002906D1E9
:101750000B4601AA8F00491CD3510829FADB002847
:1017600035D0216900290ED1C117C90E09184A11B7
:10177000930001AA9A1849094901411A01201368E6
:1017800088400343136062690121099890475D28EE
:10179000E5D10C98002808D0002001AB81005A58F0
:1017A000401CD2435A500828F8DB01AB01202246E6
:1017B000C0430D99C046C04600280ADA401C06D135
:1017C0000B98002803D00020C0430FB0F0BD0A984A
:1017D000FBE7E90702D10A99491C0A913618002053
:1017E0000B9074E6CCCCCC0CFFFFFF7FF1F7FFFF32
:1017F000F7B584B0049C00212078641C1546019143
:101800000291302802D0002D17D017E0012001905E
:101810002078641C782804D0582802D0002D0AD0E3
:101820000CE0002D01D0102D08D1002001901025D2
:101830002078641C02E0082500E00A250027E9174B
:101840003E46009703911CE0012101910099334627
:1018500069430A18009228463A460399FEF792FC1B
:10186000009A130C0022C7185141009A0E4690B2FC
:10187000009001200004814201D3012002902078D1
:10188000641C2946FFF709FE0028DDDA05980028C8
:1018900007D00198002801D0641E00E0049C059840
:1018A00004600298002807D014F0F4FF02210160C0
:1018B000C81E014607B0F0BD380C31040143009A40
:1018C00038041043F6E7420005D04200120E52429F
:1018D0008A4201DB00207047C9050818704770B5BF
:1018E0008C180578401C6B075B0F01D10378401CF6
:1018F0002A1106D10278401C03E006780E70401CC5
:10190000491C5B1EF9D12B0705D40023521E0DD4B0
:101910000B70491CFAE70378401CCB1A921C03E0B9
:101920001D780D70491C5B1C521EF9D5A142D8D3FD
:10193000002070BD70B50446006881680025490725
:101940001BD58168890704D48168484A0A4010324F
:10195000826004F069FF06462068806840070CD565
:1019600004F062FF801B0328F6D3206E1021014390
:101970002166606E012528436066284670BDC0461A
:1019800070B505460068816882680024D20722D0BD
:10199000022211401FD1816805220A40012A12D17A
:1019A0008168324A0A40911C81600321016004F081
:1019B0003BFF064628688068C0070CD004F034FF5F
:1019C000801B0328F6D3286E102101432966686E18
:1019D000012420436866204670BDC046F8B5054620
:1019E0000024009400688168C9071AD181681F4AE1
:1019F0002F32114208D0286E102101432966686EEB
:101A00000124204368660CE08168184A11400127D0
:101A10003943816016480068000204D4E86901284F
:101A20000ED12046F8BD134800681349FFF74EF960
:101A3000401C009000980028F0D00098401EF8E765
:101A400004F0F2FE064628680168C907E9D18168FA
:101A5000C90704D18168054A11403943816004F007
:101A6000E3FE801B0328EED3C5E7C046E8FFFF7FF7
:101A700008270140B8000020400D03001CB50446B3
:101A8000B3480078002801D100F0A2F80C48E040EB
:101A9000C00713D1204609F007F920010949085C65
:101AA0000221009103210022134603F0B7FE0648ED
:101AB000005700F0E5F8FFF723F81CBD00201CBD1F
:101AC00001FC7D01CC000020D47E0108411E1229BA
:101AD0002CD8880001A108588746C046291B000859
:101AE0003D1B0008411B0008451B0008491B00085E
:101AF0004D1B0008511B0008551B0008591B00080E
:101B00005D1B0008611B0008651B0008691B0008BD
:101B10006D1B0008711B0008751B0008791B00086D
:101B20007D1B0008811B00082848704778498842BF
:101B300027D08849884224D0012070472248704726
:101B4000204870471E4870471C4870471A48704725
:101B50001848704716487047144870471248704735
:101B6000104870470E4870470C4870470A48704745
:101B70000848704706487047044870470248704755
:101B8000004870470000084C000004480000024470
:101B9000000001400080003C00400038002000347C
:101BA000001000300008002C00040028000200246F
:101BB000000100208000001C4000001820000014DC
:101BC000100000100800000C0400000802000004CF
:101BD000F8B501242105164802680A4302605C4DED
:101BE0000022AA65AA640726042320036A62AC6265
:101BF000EC622A636A63AC63E8632E64E007A607BD
:101C00000C4F6F60AE60EA602A616861AB61EA61A7
:101C10002A6207480068084000900098281D04F0D8
:101C2000F1F8002801D003F007F92C70F8BDC04688
:101C300040100240002401407FB504460F4E30683A
:101C4000A0421AD04248051D284604F07DF82846D7
:101C500004F0D8F8284603F09FFE2046FFF736FF31
:101C6000002103910291019001A9284603F03EFF53
:101C7000002801D003F0E0F834607FBDC8000020E8
:101C8000B0B5FFF7D9FF3248041D204604F01EFA14
:101C90000021CD43002811D10A21204604F0BCF9CF
:101CA000002808D1204604F0A7F8800503D5204677
:101CB00004F0A4F80546204604F034FA2846B0BDE6
:101CC00010B523480078002801D1FFF781FF00F00C
:101CD00029F80E49FEF773FDFEF785FF04460C4810
:101CE000FFF7CEFF60430B49FEF7F0FF7D21C900EF
:101CF0004843FEF710FF0849FEF708FD0749FEF7C5
:101D00009BFD0749FEF702FD10BDC04600007A4466
:101D1000000200A4FF0F0000008C39C900201E45FE
:101D20000000F04180B50A480078002801D1FFF793
:101D30004FFF0848FFF7A4FFFEF70AFF02460B46D5
:101D400000200549FEF71EFEFEF775FF80BDC04668
:101D5000F4020020000400A80032B340B0B50446ED
:101D60000020002C0ED4192C0CD8FFF7DBFF054601
:101D70002046FFF783FE01462846FEF720FD024974
:101D8000FEF75AFDB0BDC04600F07F45F0B58BB000
:101D900004460026009607AD0921FF232846324657
:101DA00009F05CFB287801250028284600D0DDE0FA
:101DB00009F0B8FB0028284600D0D7E0069500259A
:101DC000FF2009F01BFB102D03D007A948556D1CFF
:101DD000F6E7FF2009F012FB07A8417861704188FF
:101DE000618001788A0989008918217041790A097E
:101DF00003791B019A1809035118A18081794809B8
:101E000002220240A079F0230340C8091818801864
:101E1000CA0804231340C0184A0808231340C018F6
:101E2000A071A0484088002819D007204007A26868
:101E30000240890007A8C3791D06AD0F49193F2547
:101E40000D405119027A12029B069B0AD218437A5E
:101E5000D21892015118A160807A059033E007AB47
:101E6000587A4200059238251540E77AC02217407B
:101E7000400938184019E072A57A1540187A820690
:101E8000520F4707BF0EBA185219A272227BF825CB
:101E900015400622059F3A409F7A0597FF09BA1818
:101EA0005219227303229203258915400A07920FC3
:101EB000AA188907090DDB799B00591880090818B1
:101EC00080008018208107ABD97A04917F200840D8
:101ED0001D7B802102912A460A4010186074D87B2D
:101EE0004208C0018018A075A17CE0200390014049
:101EF0001C2028406F06BF0F38184018A074587B6C
:101F00001F2101409B7B40271F4079189F082022FA
:101F10003A4089189A00029F3A4089182175059F16
:101F20007900049A1206D20F891849007A06D20F56
:101F300089182174E17C039F39408209AD072D0F78
:101F4000521951184008102202408818E074607D30
:101F50003840590806220A40D906C90F51189A0775
:101F6000D20E8918081860750020069D0590069409
:101F70002C46284609F018FAFF27384609F03EFAA1
:101F8000009607AD0A21284632463B4609F066FA1C
:101F90002878002802D02546069C55E009F0C2FAB0
:101FA00000282546069C4FD125462035FF2009F004
:101FB00025FA102E03D007A98855761CF6E7FF20D6
:101FC00009F01CFA0798207607A841780902618376
:101FD0008178628B0A436283C1780906E1610179E5
:101FE0000904E2690A43E26141790902E2690A43AC
:101FF000E2618179E2690A43E261C1792970099954
:102000006970417A09066162616A827A12040A4340
:102010006262616AC27A12020A436262017B626A88
:102020000A436262297A427B13090B432B72110720
:10203000090D6185817B628D0A436285C07B400802
:1020400028730120687300250126304609F0ACF999
:10205000FF2009F0D3F9BF484088012809D1710257
:10206000E163F004A2689209D2041018206361634E
:1020700010E07002E063A088010B8E406663207B55
:1020800007220240921C20898004000D401C9040D1
:10209000884020630599400AA0630D4328460BB091
:1020A000F0BDC046240500207FB50220009002ACA0
:1020B0000D210022FF2520462B4609F0CFF9667836
:1020C0002478012009F070F9284609F097F9344383
:1020D000601E8441204604B070BD0000F0B585B09C
:1020E00009F06CF9E4480125057004A80024047087
:1020F0000498401C04AF3870009402AE952330461B
:102100002146224609F0AAF93678284609F04CF90A
:10211000FF2009F073F93878632800D99EE0012E7A
:10212000E6D105200090D520420002AD082187238A
:10213000284609F093F92E780125284609F034F94C
:10214000FF2009F05BF9700764D4012E00D085E010
:102150000026009602A83721FF2732463B4609F0A9
:102160007DF90125284609F01FF9384609F046F99E
:1021700001960096AA0702AE292130463B4609F097
:102180006DF93678284609F00FF9384609F036F926
:10219000012EDDD0700723D5019A009202AE3721BF
:1021A000FF2730463B4609F059F93678284609F0B2
:1021B000FBF8384609F022F9012E4FD1019A00921E
:1021C00002AE2921FF2730463B4609F047F9367811
:1021D000012009F0E9F8384609F010F9012EDBD0AA
:1021E0000320009002AD3A210022FF262846334604
:1021F00009F034F9687801902F780125284609F014
:10220000D3F8304609F0FAF8002F27D1019840069C
:10221000C00F20E0009402A83721FF2522462B465C
:1022200009F01CF90126304609F0BEF8284609F0ED
:10223000E5F8009402AF2921384622462B4609F0E2
:102240000DF93F78304609F0AFF8284609F0D6F886
:10225000012FDFD02046884948802546284605B012
:10226000F0BDC046F0B58DB006AB07C300200590A9
:102270000090012672020BAF1021FF243846049211
:10228000234609F0EBF83D780296304609F08CF8C9
:10229000204609F0B3F8002D50D1069F079E089CF8
:1022A000049D284614F02CFB002847D00121029100
:1022B0004902FF220390FDF79DFF6F4841880129E5
:1022C000284600D10846464325460020002D32D03E
:1022D000009009AC1121FF232046324609F0BEF8D8
:1022E0002078002828D109F01DF9002824D107966C
:1022F0000895394601277C0203980691224609F089
:1023000090F85D4840880590FF2528465B4EB04711
:102310002846B047384609F047F82846B04705999F
:102320000129049800D10846069F3F19079E861987
:10233000089D6D1EC9E7029003980590012009F0E1
:1023400033F8FF2009F05AF8059814F0A7FA02981C
:102350000DB0F0BD24050020F0B58FB009920891B2
:10236000069000200A900090012462020DAF102117
:10237000FF25384607922B4609F070F83E78039403
:10238000204609F011F8284609F038F8002E01D04F
:102390000A9865E0089E099D079C204614F0B0FA53
:1023A00005900028F4D0344841880129204600D106
:1023B00008464643002002900A90069F002D4AD00E
:1023C000002000900BAC1821FF232046324609F074
:1023D00045F82078002842D108960995FF24204628
:1023E000264EB0472046B047FE20B0470A9838181E
:1023F000012104914A02059909F013F81E48458805
:102400002046B0472046B0472046B0470746204602
:10241000B047012D079C204600D128461F210F40C0
:10242000052F1AD1099D6D1E0A9909190A91089E56
:102430008619012008F0B8FF002008F0B5FFFF2042
:1024400008F0DCFFFF28FAD1012008F0ADFFFF20E3
:1024500008F0D4FFB1E7029800E0049803900598D3
:1024600014F01CFA012008F09FFFFF2008F0C6FFBF
:1024700003980FB0F0BDC04624050020FDB300084E
:1024800070B5944D696800291DD000F089F80028C6
:1024900019D4060168688019C07A002813D004F0A6
:1024A000C3F9044668688019007A03F0EDF9696899
:1024B000002809D088194168611A152903D3011D24
:1024C0000C600121817270BD8859201A1528FAD339
:1024D000881904600121417270BDC046F8B50E46EE
:1024E00005461C480078002801D100F073F82F0140
:1024F000184840680024C451C019446006738472AF
:102500004472154EF15D0172284608F0CDFBF05D76
:102510000007800E11A10E5802253046294622469A
:1025200004F072FC304604F063FC0A484068C119AC
:10253000087A097B009401260029334600D02B46F7
:102540001649224603F06AF902484068C019C6726B
:10255000F8BDC046BC030020CC00002005000000F0
:102560000500000006000000060000000700000053
:10257000070000000700000007000000070000003F
:10258000070000000700000007000000070000002F
:1025900007000000070000000700000000003110E5
:1025A000F8B50546002408274A4E009408F07AFB47
:1025B00084420ADA7068C05DFF2803D00F2108400A
:1025C000A84204D01037641CF0E70098C4432046AA
:1025D000F8BDC04670B508F065FB1021FDF773FE2D
:1025E0003C4C6060012020700025082608F05AFB52
:1025F000854205DA6068FF21815510366D1CF5E7CC
:1026000070BDC04680B50101324A52685118CA7A7D
:10261000002A05D0097B002904D000F02FF880BDE6
:10262000002080BD00F040F880BDC046B0B5040178
:10263000284D68680019C17A002909D0007A03F092
:1026400023F969680919097B091A48424841B0BD54
:102650000020B0BD80B501011E4A52685118CA7AE7
:10266000002A05D0097B002904D000F01DF880BDA8
:10267000002080BD00F002F880BDC04610B5040106
:1026800004F0D2F801461348406803199A7A0020F2
:102690009872541EA2415B68C91A09097D2900D2AB
:1026A0000120104010BDC046B0B5040104F0BCF8D4
:1026B0000146084843681D196A7A00206872551E51
:1026C000AA411B59C91A09097D2900D201201040CD
:1026D000B0BDC046BC030020F0B585B002920E46E6
:1026E000044608F0E1FA03942401144F385D0022F7
:1026F0000092012529462B4603F090F838190490E2
:102700000F483146FEF702FB06460BF0AEF8029981
:1027100044180BF0AAF8A0420BD2012729463940F1
:102720000498007803F01EF930460BF04DF87D4018
:10273000EFE7039808F0B8FA05B0F0BDCC00002030
:1027400040420F00FEB5834C207801284FD101266E
:10275000042705F05EFD864249DA6068C559002D00
:1027600042D0287F00283FD0E86801283CDB04F0F5
:102770005BF8A968884237D32869401C28616969D9
:1027800080000858FEF716FA014628887D2293003B
:102790000022029205F0BCFD04F046F8E9684C1EE8
:1027A000EC60FEF7B8F90146A8692A699200019227
:1027B0008058FDF7ABFFFEF716FAA860002C654CB9
:1027C00012D1686901994058FEF7F4F9014628884A
:1027D000029A029B05F09CFD686914F05FF8A869F5
:1027E00014F05CF8029828773F1D761CB1E7FEBD17
:1027F00080B505F00EFD0421FDF765FD55494860E3
:102800000120087080BDC046F0B587B01F4616464F
:10281000029105464F4C2078002801D1FFF7E8FFD0
:10282000EFF31080059072B6A80061680C58002C78
:10283000069506D10D1801202021FDF744FD044620
:102840002860606914F02AF8A06914F027F8F80FDE
:10285000019738184510042104912846FDF733FDEF
:1028600007466061039528460499FDF72CFDA06199
:10287000002121610494069A2280002F10D00028A4
:102880000ED0019A9219B300029CE31896420CDA1A
:102890001D685C687D5044500833091DB61CF5E77F
:1028A0000598C00724D162B622E00025049C25616A
:1028B0003868FEF77FF901467D20830006982A4696
:1028C00005F026FD03F0B0FF012121770399E160B7
:1028D000FEF721F90146A069226992008058FDF7B0
:1028E00015FFFEF780F9A0600598C00700D162B619
:1028F00007B0F0BDF8B50446164E3078002801D177
:10290000FFF776FFA7007068C459002C21D0207F04
:1029100000281ED00025E560206961698000085804
:10292000FEF748F9014620882A462B4605F0F0FCC0
:102930006069002802D013F0B1FF6561A06900282A
:1029400002D013F0ABFFA561204613F0A7FF70681B
:10295000C551F8BDD804002080B509F07DF980BDCF
:10296000BCB50C4605467D2001900198401C0190A5
:1029700009F072F90649FF2242547521C900425AF2
:1029800003239A4342522846214609F067F9BCBD09
:1029900033030000FEB5022104910021039102914E
:1029A0000321C9020191002804D00520000701A9D4
:1029B00003F080FE012006B080BD80B50AF078FAF1
:1029C00080BD80B509F02CFA80BD0000F0B58DB057
:1029D000039108900CAEBB20B070442070705A2058
:1029E000307009AD00272F71049509970AF0CCF8D3
:1029F00012200790D34A394690470124D2492046F5
:102A000088470322069200970192304639462B46AA
:102A10000AF0CCF80AF0BAF82046CB498847079D5F
:102A200028462146C74A90477D200001059000F0C6
:102A300053F8089A100A014651400BAEB1707270FB
:102A400030700AF0A1F828463D463946BD4A904705
:102A50002046BD4FB8470095069A01923046294658
:102A6000049B0AF0A3F80AF091F82046B8470798AB
:102A700007942146B34A9047059800F02DF8154871
:102A80000899814223D80BAF0398B87078703D70D5
:102A90000AF07AF812242046294602F063FF012644
:102AA000304603F027FC0095069A019209AB3846A0
:102AB00029460AF07BF80AF069F8304603F01AFC60
:102AC0002046079902F04EFF059800F005F80DB07A
:102AD000F0BDC046EFFF0000F0B589B0049007AC30
:102AE0000027277006A87921017003F09DFE03904E
:102AF0000AF04AF812263046394602F033FF012523
:102B0000284603F0F7FB0097019505AB2046029796
:102B100039462A460AF04AF80AF038F8284603F0FF
:102B2000E9FB3046294602F01DFF04980399081876
:102B3000049003F079FE0146049881423CD203914F
:102B40000AF022F8122400272046394602F00AFF34
:102B5000284603F0CFFB0097019507A808AE394639
:102B60002A4633460AF022F80AF010F8284603F005
:102B7000C1FB2046294602F0F5FE30787928D8D1ED
:102B80000AF002F812242046394602F0EBFE2846ED
:102B900003F0B0FB0097019506A805AB39462A461D
:102BA0000AF004F809F0F2FF284603F0A3FB2046E0
:102BB000294602F0D7FE03990498814200D3029D72
:102BC000284609B0F0BD0000F0B5CFB005920491E1
:102BD00002904C1E4BA803900470104600F0BCF805
:102BE00060404AA906910870012421020AA80890B1
:102BF000FDF707FB4EAECE20B070312070705A202A
:102C000030704F4880471220099000254D4A2946D0
:102C100090474D49204688470322009501924B4F2B
:102C200030462946089BB8474948804720464649D0
:102C30008847099F38462146424A90477D20000137
:102C40000790444988474CAE0299F170080AB07069
:102C5000080C7070080E30700421304600F07CF8CB
:102C600030713748804738462946364A90472046D3
:102C70003549884705220095019230462946089E2D
:102C80003346324FB8473248804720462E4988475E
:102C9000099F384621462B4A904707982D49884777
:102CA0002748804738462946264A90472046264FDF
:102CB000B847009501940398294622463346234E8F
:102CC000B047234880472046B847099E30462146F2
:102CD0001C4FB8471A48804730462946B847204617
:102CE000194EB0470095049A019205982946089B11
:102CF000164FB847164880472046B047099F3846C8
:102D00002146104EB0470E48804738462946B04706
:102D1000374620460C4EB047009501940698294648
:102D20002246089B094DA847094880472046B047DE
:102D300009982146B8470798064988474FB0F0BD23
:102D400089CB000865590008F5620008ADCB000882
:102D50008DCB0008D92A000810B5027801238B42D8
:102D600003DAC45C62405B1CF9E7D0B210BD00001E
:102D7000F8B50446EA4E3078002801D100F04EF84C
:102D800070780125002804D1204600F02BF9002896
:102D900001D075701DE0002600960127384639469F
:102DA0003246334602F03AFD3846294602F0DAFD53
:102DB0006425284603F09EFA00F0F6F838463146BE
:102DC00002F0D0FD284603F095FA204600F00AF9FB
:102DD00005462846F8BDC04610B586B002AC601C5A
:102DE0000F21FDF70EFA762020702046FDF721FA1C
:102DF000411C204600F01EF900280BD16C46002132
:102E0000A171A18000910622204600F055F82046CD
:102E100006F08AFE002006B010BD0000FEB50124B9
:102E2000A0022146FDF74FFABD494860002802D1B3
:102E3000212013F041F90025009512200290174E31
:102E400021462A462B46B0470095062029462A46A9
:102E50002346B0470095072029462A462346B04717
:102E60000095052029462A462B46B04700950427A1
:102E7000384621462A462B46B0473846214602F0BE
:102E800071FD0298214602F06DFD7D2081012846EA
:102E900009F0ACFDA2480470FEBDC0461D580008F4
:102EA00080B5062002F0F0FC80BD80B5072002F05E
:102EB000EBFC0121484080BDF0B58BB016460C46B6
:102EC000074697480078002803D1FFF7A7FF00F0D6
:102ED00006FC072002F0D8FC0025002860D10897E6
:102EE0000627384602F0D0FC002859D106940AACD7
:102EF000667002202070300AA07009F045FE122092
:102F000007900025294602F02DFD05960126304642
:102F100003F0F0F90322009501920297039609ABA2
:102F20002046294609F050FE09F030FE304603F0F5
:102F3000E1F90798314602F015FD384602F0A4FC8D
:102F400000282DD1069808990818079009A84178FB
:102F50000491857809F018FE12200024089021467B
:102F600002F000FD0120069003F0C4F902970396D9
:102F70002802049945180598854200DB054600940F
:102F80000195204621462246079B09F01DFE09F0C7
:102F9000FDFD069803F0AEF90898314602F0E2FC18
:102FA00028460BB0F0BDC0467CB55D480026467093
:102FB000009608240125204629463246334602F071
:102FC0002DFC2046314602F0CDFC6426304603F04D
:102FD00091F92046294602F0C5FC304603F08AF9F3
:102FE0007CBDC046F0B585B0029004AF5A20387061
:102FF00009F0CAFD122500242846214602F0B2FC41
:103000000126304603F076F90094019603AB38466A
:103010002146324609F0CAFD09F0B8FD304603F0FA
:1030200069F92846314602F09DFC0298FFF754FDED
:1030300005B0F0BD80B50A460918491E0A230B7079
:10304000002100F059FB00F007FB80BDFEB50546EE
:10305000304800242146FFF7B9FC012D14D12E4D34
:10306000264630462946FDF731FE07462B480068C4
:10307000804700280AD16F43E01902D1432006F0AF
:103080005DFD761C641EECE7012540E00120C106D1
:10309000029104020190870206F09AFB011F4D4243
:1030A0004D41042827D00199C943C01E884224D32A
:1030B00006F08EFB06F08CFB002506F089FBAF4284
:1030C00004D01749496848556D1CF6E706F080FBA7
:1030D000002602988519BE4208D21148406882191C
:1030E00028462146FFF770FD3619F2E7062006F064
:1030F00025FD0295D0E7062406E0152006F01EFD0A
:103100001824204606F01AFD204606F017FD284632
:10311000FEBDC046FFFF0000646600007004002092
:103120002C0400207FB505466C46A61C0E213046B7
:10313000FDF767F82020607063202070F249304668
:103140002A4613F051FB2046FDF773F8411C204638
:10315000FFF770FF04B070BD70B5A0B005466C46B7
:10316000A61C7E213046FDF74CF8202060707820A8
:10317000207030462946FDF77BF82046FDF759F8C8
:10318000411C2046FFF756FF20B070BD70B5A0B0BF
:1031900005466C46A61C7E213046FDF732F82020FD
:1031A00060706420207030462946FDF761F82046A3
:1031B000FDF73FF8411C2046FFF73CFF20B070BDF3
:1031C00070B5A0B005466C46A61C7E213046FDF7C2
:1031D00018F8202060703F20207030462946FDF707
:1031E00047F82046FDF725F8411C2046FFF722FF4F
:1031F00020B070BDF0B5CBB00C46064647AD681C9C
:103200000F21FCF7FEFF6E2028702846FDF711F80D
:10321000411C2846FFF70EFF0021CF43002841D173
:1032200002940120040207AD28462146FCF7E9FF7D
:10323000002128460D462246FFF73EFEA04231D12E
:1032400007AC2046FCF7F5FF024630462146FCF766
:10325000B1FF00F001FA002824D106AF0126974BF8
:10326000384629463246984703AC257204950395A3
:10327000082220462946914B98471022204629468D
:10328000FDF708FA01903846294632468B4CA04794
:10329000384629463246A04702980199017000F04D
:1032A000DBF9074638464BB0F0BDC04610B5A0B0BC
:1032B0006C46204611306F21FCF7A3FF2020607080
:1032C00071202070A01C06A10F22FCF773FF20467E
:1032D000FCF7AFFF411C2046FFF7ACFE20B010BD4D
:1032E000636F6E6669726D20666F726D6174000047
:1032F00070B5A0B005466C46A61C7E213046FCF792
:1033000080FF202060702520207030462946FCF781
:10331000AFFF2046FCF78DFF411C2046FFF78AFED9
:1033200020B070BD7FB505466C46A61C0E21304608
:10333000FCF767FF2020607069202070C449304688
:103340002A4613F051FA2046FCF773FF411C204631
:10335000FFF770FE002803D17D20C00002F0CAFFF5
:1033600000F0D4F804B070BD70B5A0B005466C464E
:10337000A61C7E213046FCF744FF202060704020D0
:10338000207030462946FCF773FF2046FCF751FFBA
:10339000411C2046FFF74EFE20B070BDF0B5A3B033
:1033A00001920291074603ACA51C7E212846FCF73A
:1033B00028FF202060706F202070A54E28463146DF
:1033C0003A4613F011FAE01C3146019A13F00CFA58
:1033D0003E202071601D0299FCF74AFF2046FCF751
:1033E00028FF411C2046FFF725FE23B0F0BDC04654
:1033F000F0B58BB0029314460D46019007AFBE1C8A
:103400000E213046FCF7FDFE2020787072203870C7
:103410008F493046029E019A13F0E6F93E2038713A
:103420005E20F870781D8B49324613F0DDF938467E
:10343000FCF7FFFE411C3846FFF7FCFD002818D1C1
:10344000F017000E30180612012007020196012E17
:1034500007DB284621463A46FFF72EFDE419761E83
:10346000F5E7019847430298C21B28462146FFF71B
:1034700023FD06AC00250126104B20462946324686
:10348000984703AF3D7204950395082238462946B4
:103490000A4B9847102238462946FDF7FBF8029060
:1034A000204629463246054FB8472046294632462F
:1034B000B84700F0D1F802980BB0F0BDB92E000863
:1034C000F0B585B00D46064601ACA71C0E21384666
:1034D000FCF797FE20206070702020705C49384611
:1034E000324613F081F93E20E070201D59492A46EA
:1034F00013F07AF92046FCF79CFE411C2046FFF7AA
:1035000099FD05B0F0BDC046D88A0108B0B586B0B7
:103510006C46A01C0E21FCF774FE04A80025294669
:1035200007F00AFE6570732020702046FCF781FECC
:10353000411C2046FFF77EFD002801D0E84306E04D
:1035400004A80021062200F0D7F800F085F806B0A4
:10355000B0BD00007FB505466C46A61C0E21304666
:10356000FCF74FFE202060706620207038493046FE
:103570002A4613F039F92046FCF75BFE411C204631
:10358000FFF758FD04B070BD7FB505466C46A61C1C
:103590000E213046FCF735FE202060707920207027
:1035A0002B4930462A4613F01FF92046FCF741FE0E
:1035B000411C2046FFF73EFD04B070BDF0B587B05A
:1035C0001D4614460291019003AFBE1C0E213046E9
:1035D000FCF717FE20207870772038701C493046A1
:1035E000019A13F001F93E20F870381D19492A4656
:1035F00013F0FAF83846FCF71CFE411C3846FFF77A
:1036000019FD002801D000241CE0E817000E0195E8
:10361000281805120120070200260095012D08DB5D
:10362000029821463A4600F067F88619E4196D1EA3
:10363000F4E7009847430198C21B0298214600F026
:103640005BF8841900F008F8204607B0F0BDC046CA
:10365000D88A0108DD8A0108BFB5FFF721FC0028E0
:10366000FBD1FFF722FC0028FBD002A800258580B3
:103670000295042D0CD802A8401905214A1B0021EF
:10368000FFF71AFC04460A2002F034FE6519F0E741
:1036900002A80078212802D102A8407803E002A9FC
:1036A00024280ED1487830280BD102A881783029FF
:1036B00007D1C1780D2904D100790A2801D1002051
:1036C0000BE001A80021817002AA537892781202BF
:1036D000D21802801022FCF7DDFF04B0B0BD80B527
:1036E000062002F0D1F80028FAD1072002F0CCF829
:1036F0000028FAD080BD0000F0B58BB016460F460A
:1037000005463A480078002803D1FFF787FBFFF70A
:10371000E6FF072002F0B8F80024002863D00895DF
:103720000625284602F0B0F800285CD104970AAFBD
:103730007E70069501253D700596300AB87009AE79
:103740000024B470348009F01FFA1220079021463B
:1037500002F008F9284602F0CDFD03220094019200
:1037600006980290039538462146334609F02CFA14
:1037700009F00CFA284602F0BDFD07982F462946AD
:1037800002F0F0F8707801282DD1B07801282AD104
:103790000625284602F078F8002824D104980899D4
:1037A0000818079009F0F0F9122008900026314619
:1037B00002F0D8F80120069002F09CFD00960196D8
:1037C0000295039707983146059D2A46334609F02E
:1037D000FBF909F0DBF9069802F08CFD08983946F0
:1037E00002F0C0F82C4620460BB0F0BD2C0400209F
:1037F00006480168890301D4006802E00121090438
:1038000041600348012101707047C046000002403A
:10381000C802002010B504460A48616C0322914397
:1038200009188030A164E0642168FC200840083851
:103830001421FDF74BFA1C2101400120884020652E
:1038400010BDC0460008024010B507490279521E5B
:103850000323134001249C409200521840314265DA
:103860008165C46510BDC0460009024070B5C46CD6
:10387000056D6560446D002C02D0846DC56D65607A
:10388000446C1C2525400124AC40084D2E6826437D
:103890002E600468636080681028134600D00B46D1
:1038A000A360102800D01146E16070BD0400024002
:1038B00070B58EB00646F3488079022800D080E0CB
:1038C0000C46012528460BF0A3F8C430016809898D
:1038D000002907D000BFF9E700200BF07FF8012096
:1038E00002F008FD0BF072F80028F5D102E00BF0B1
:1038F00083F8761C30780028F9D10D200BF07CF885
:103900000D9405A82021FCF77CFC0024049403A856
:10391000047002A8057001940D98012800DA9BE05C
:103920000BF054F8002810D0002528460BF056F86C
:1039300005A9049A88540498085C0A2835D004988C
:10394000401C04900498202809D0012002F0D2FCE9
:103950000D98401E0D90DFE700200BF03FF801208E
:1039600002F0C8FC0BF032F80028F5D172E0002616
:1039700030460BF033F803A9087008783E2822D0AF
:1039800003A8007824281ED003A8007821281AD084
:1039900003A800780D281DD1002630460BF01EF834
:1039A00003A9087008780A2814D10BF00FF8002832
:1039B00002D1012002F09EFC0BF008F80028D6D1BD
:1039C0000AE0002455E0012002F094FC0AF0FEFF1A
:1039D000002801D002A8067002A80078C00723D1F1
:1039E00003A8057003A800780A281DD00D980128A7
:1039F0001ADB0198401C01900AF0E8FF002804D06F
:103A000000200AF0EBFF03A90870012002F072FC0D
:103A10000D98401E0D9003A800780A28E2D10AF004
:103A2000D5FF0028DCD1DDE70498012812DD02A8CB
:103A30000078C00710D005A804990818401E007827
:103A40000D2807D105A804990918491E0D7004997D
:103A5000455401E002A8057002A80078C00708D00C
:103A60000498012805DB05A813F0D2FCFDF7E3F864
:103A7000044620460EB070BD81B008490A68009225
:103A8000401C01D30020C043009A012804DB0A68CF
:103A9000D203D2171018F8E701B0704710E000E029
:103AA0008CB007AB07C3DA4C002767773846394636
:103AB0000AF00AFE00970920022539463A462B46AD
:103AC00001F0ACFE00970A26304639463A462B46AE
:103AD00001F0A4FE3349304688470121069188024F
:103AE00000970197029103900490E1204102802504
:103AF00028463A463B460AF03BFE284639463A46B7
:103B00003B460AF091FF304626498847264A079DE2
:103B10002846394690476426304622498847089807
:103B20003946214A904709983946069F1E4A9047D0
:103B300030461C49884728463D4639461A4A904730
:103B400030461849884700200AF0AAFD00280CD109
:103B500000BFF8E700200BF01FF80BA908700878E9
:103B60000AF058FD012002F0C5FB00200AF098FD84
:103B70000128EFDA257700200AF092FD012807DB03
:103B800000200BF009F80AA9087008780AF042FD35
:103B90000A2002F0AFFB607F6428ECD3002000F025
:103BA000B5F9E8E7F562000875570008F0B58DB083
:103BB00003AC25A126222046FCF7FCFA50480168F8
:103BC000504A00259142029500D14568E8B20A2684
:103BD0003146FDF77BF8074630302077280A019000
:103BE000C0B23146FDF772F8014630316176774355
:103BF000E91B30221143617746430198801B104333
:103C0000A076029800F040F8FCF7EDFF020C0E2AB7
:103C100015D8044603AE30461F30154D154F2946C2
:103C2000B84730462130210ACAB22946B847304643
:103C30002330E2B22946B84725200021315403A899
:103C400005F09EFF0DB0F0BD47484920456C656307
:103C500074726F6E696373204455454C696E6B20B6
:103C60007630312E30333A787878787878000000E2
:103C70005B910108E967010880B5FB480079FCF712
:103C80004AFF80BDB004002010B5032815D880007D
:103C900001A108588746C046A93C0008BF3C00085F
:103CA000CF3C0008DB3C0008184801684A1C21D0C2
:103CB000144A914220D017481FE0002010BD104840
:103CC0000168104A002491420AD0204609E00520EC
:103CD000E5490856FCF714FF10BDE34880790CE075
:103CE0004068FCF735FF084B2246FCF74BFEFCF71B
:103CF000A2FF10BD064810BD4068FCF70CFF10BDC8
:103D0000B8000008ADDEEFBE000059400070FF1F94
:103D10000100704B0200F00080B5D34801214172D0
:103D20000021817281717D21C900C16009F0A2FD6D
:103D300080BDC046B0B504460EA104220AF0C4FFFF
:103D40000125002814D00D49072220460AF0BCFFA7
:103D500000280DD00AA1062220460AF0B5FF00284F
:103D600006D009A1082220460AF0AEFF454245418F
:103D70002846B0BD73656C28000000004991010819
:103D8000726573657428000067657461646428292E
:103D90000000000080B5034907220AF095FF414268
:103DA000484180BD4991010880B5034909220AF0C4
:103DB0008BFF4142484180BD51910108F8B5002573
:103DC000002822D10C46FD480126867205F07AFBB8
:103DD000642002F08FFA002C14D00E4F012C05D075
:103DE000032C12D17F1C1025022400E0254620461A
:103DF00003F02AF903F020F90020294603F0ECF83B
:103E00000548076003F02EF935462846F8BDC04640
:103E1000B00400200100010018700040FEB5E74D1D
:103E20006969AA790020032A6ED100296CD0002686
:103E300030460AF035FC01907F20C1056869406872
:103E4000FCF750FE002801D1022000E00120029082
:103E50000198864220DA0024204621460AF040FEDE
:103E6000074668690068FCF7A5FE029901F05CFC52
:103E7000FCF751FE014668694068FCF733FE0028F4
:103E800000D12C7C2C74287C002803D001203946DA
:103E90000AF08EFE761CDBE700260AF091FD00900A
:103EA0000098864220DA0120002421460AF018FEFC
:103EB000074668690068FCF77DFE029901F034FC52
:103EC000FCF729FE014668694068FCF70BFE0028F4
:103ED00000D12C7C2C74287C002803D0002039468B
:103EE0000AF066FE761CDBE7287C002804D104205B
:103EF00000210A4600F0C0F80198C0B200990906F6
:103F0000090C0818FCF7FCFDFEBDC04680B5012871
:103F100019D000282BD10AF067FD002802D000BF7D
:103F2000F9E700BF0AF024FE0028FAD100E000BF44
:103F30000AF04CFD0028FAD1022002F0DBF90C480F
:103F40000C490160FEE70C48017A00290FD0017886
:103F5000491C0170C8B2022809D108A005F010FE62
:103F6000642002F0C7F905F0ADFA01F051FB80BD05
:103F70000CED00E00400FA05B00400204572617306
:103F8000696E672E2E2E506C6561736520776169AE
:103F90007420666F722035207365636F6E647320C2
:103FA0007468656E20706F776572206379636C65E5
:103FB0002074686520626F6172642100F8B50C4658
:103FC00005467E4F00263E72304605F089FBA6422C
:103FD00009DAA8573979884203D0C0B2761C002884
:103FE000F5D101203872F8BDF0B585B004461E4FFA
:103FF000B879002801D10120B871002C18D0387987
:104000003C71B87901281ED101AD0F2628463146F2
:10401000FCF7F7F83879431C14A22846314612F011
:10402000C7FB287800280BD00AF0E6FC6D1CF8E7E7
:10403000002038713872B97901290AD1B87108E0C5
:10404000012002F057F9012C01D1012000E00020ED
:10405000387205F049FB012200200146034606F0B4
:104060003DFC05B0F0BDC046B0040020736574612E
:104070006464282564290D00FEB502920F464F4C5A
:10408000A179022905D10221CA43411F914208D2D8
:104090000AE0A3790321C943421F8A4201D8032BB6
:1040A00002D0A179052901D10020FEBD0190002197
:1040B0002174029801282EDB0091606912F0EEFB5A
:1040C0000426029D28463146FCF7FDF86061002D6C
:1040D00003D004CF04C06D1EF9E7009D029885420D
:1040E00019DA6069871980597F21C905FCF7FAFC44
:1040F0000446381F0068FCF75DFD0127002C394697
:1041000000D1022101F010FB384602F0F3F8083626
:10411000AD1C2A4CE2E7019EB01E022839D20120D4
:104120000AF076FCC43041680989002903D100688F
:104130000089002802D00A2002F0DCF80125284678
:104140000AF032FC28460AF023FCA6711C486421C0
:10415000FFF7AEFB27461B4C2846A0471A48002114
:10416000FFF7A6FB2846A0470520A0473C46284667
:104170000AF01AFC28460AF00BFC032E19D1002481
:1041800020460AF011FC20463C460AF001FC3D7432
:104190000FE0052E0DD101202546002421460AF00E
:1041A00093FA28461E300221032223462C4607F0AC
:1041B000BEFEA6717F20C005FEBDC046B004002033
:1041C00051910108F56200084F8E010880B509F091
:1041D00089F90448406880BD80B509F083F9014839
:1041E000006880BD78030020F8B50025012801D0C3
:1041F000044600E0EC43D04F787806281ED8012111
:104200008140322211421AD10907890F22D0387B0E
:10421000002810D0C848214608F04CFAF8BD002606
:104220003889864206D2204631462A4600F008FDEB
:10423000761CF5E76D1C78898542F0D3F8BD002C1B
:1042400000D0FF2478893989414338692246FBF739
:10425000D1FFF8BD0628F1D120460CF035FFF8BD9E
:10426000F0B587B01746B44E00253576022806D142
:10427000022F04D0232011F01FFF07B0F0BD0690DD
:104280000D9C002C05D00698012808D1012F08D0DC
:10429000F0E70420069A8243022AEBD103E00428C7
:1042A00001D1012CE6D1049302910C98039070691E
:1042B0000594A24CA0473069A047F069A047059C2F
:1042C000002C08D00698062821D003281FD00028EB
:1042D00013D17570D1E7049840000121FBF7F3FF7B
:1042E0003061002800D1D3E002200121FBF7EBFF71
:1042F00070610028069D31D1CAE0049803994843B3
:104300000121FBF7E0FF3061002800D1C0E0002F61
:1043100012D004213846FBF7D6FF04468648C46114
:10432000002C00D1B4E0029EBD4205DA01CEFCF7BC
:104330005AFC01C46D1CF7E7069D062D7E4E059CB8
:104340000CD80120A840362108423CD07C480121ED
:10435000FBF7B9FF7061002800D199E07570E8B2F1
:10436000401E0528039B88D8810001A25258974619
:1043700089430008954400088943000889430008E0
:1043800089430008EF43000801227273F380049A06
:10439000B28073813281042800D96EE701A04058B1
:1043A0008746C046BB430008B9430008774400086D
:1043B00025450008334500085FE702980068FCF7D0
:1043C000F9FB307059E7032D3FD0062DC6D1049874
:1043D00003994843C117490F4018C0100121FBF74A
:1043E00072FF7061002853D006207070039B029FFB
:1043F00038681D46FCF7DEFB34460646242026546A
:10440000F868FCF7D7FB2521069160540599617384
:104410006581049820814D43E58048430D46A08086
:104420007868FCF7C7FBA070B868FCF7C3FB2746A9
:10443000E070E9B201295CD0012E5AD1786912F0FE
:104440002DFAF86912F02AFA14E7049F3846039D02
:10445000684303210691484301242146FBF733FFBB
:104460007061002814D07473F580B780069870705E
:10447000758137812B46F069017B2422B154426853
:10448000328480687084002900D0F6E67384F4E6F4
:104490002120F0E673813546049A32810126002CF2
:1044A000304600D02046687361426141297343431E
:1044B000EB804243AA80029F3868FCF77BFB000137
:1044C000214C205CA8707868FCF774FB0001205632
:1044D000E8700024009431462246234601F09EF9FC
:1044E00002202856009431462246234601F096F9D0
:1044F000C3E6002400940126124D3146224623468D
:10450000A847022038560094314622462346A84741
:10451000069838560094314622462346A8470CF0A8
:104520008BFEAAE6F06900682421705406F010F8AA
:10453000A3E606F0B9F8A0E6B01600209D680108D1
:10454000010400001D580008CC000020F0B58BB01D
:1045500005930292089105214143A0390191119CD4
:104560001098049001281BD1012C19D10024052C8E
:104570004CD0029827180198201825490E5C002578
:10458000082D0BD03046E840C00705D005984219E9
:104590000898394600F054FB6D1CF1E7641CE6E70F
:1045A0000021052932D001980E1804980091484343
:1045B00002994018039000210498814223DA03985D
:1045C000401809900020059B0A930691082818D0EE
:1045D0000127079087400025A5420BDA0C48805D33
:1045E000074205D00A9842190898099900F028FB5B
:1045F0006D1CF1E70A9800190A900798401C06996B
:10460000E4E7491CD8E70099491CCAE70BB0F0BDA4
:104610007B880108F0B58BB0099207910190012BBE
:1046200079DB1C461D4609982218019F3846079ED3
:1046300031463A4B98470998021B38463146374B6A
:104640009847A1193846099A344B9847334B311B88
:104650003846099A984701231E1BDA43501C0A90DA
:1046600062431D46581EA04255DA0595079FF9186A
:104670000391F017C0432418069609982618019D47
:104680002846089304923246244B98470A983918D2
:10469000029128463246214B9847099F3E1B2846E7
:1046A000039932461D4B98472846029932461B4BC8
:1046B000984708983E18079FE1190391284632460B
:1046C000164B984702943F1B284639463246134EF4
:1046D000B0470A9809990C18284603992246B04712
:1046E000284639462246B047049A069B911C002B67
:1046F000084600DA1046059DAD1CEA18002B01DAC9
:10470000164600E05618029C089B5B1C0A9A521E33
:104710000A920246A6E70BB0F0BDC046414C000825
:10472000F0B587B005930D4604900020C0430C9966
:104730000123039191420293019300DC01900599BA
:10474000A94200DC02900398801AC1174840431A1E
:104750000598401BC1174840441AE01A0690009380
:104760005B420598854202D1039882421ED004988C
:104770002F46294615461E4600F062FA3346069A31
:104780005000864202DC0099521A069284422A4660
:1047900002DB0699091906913D46844201DB019925
:1047A00052188342DDDC02982D18DAE707B0F0BD1D
:1047B000FEB5002B2CD406460898002828D41446B1
:1047C0005A18029200190190471E00910D46029856
:1047D00085420BDA30462946224600F031FA30464F
:1047E00029463A4600F02CFA6D1CF0E70298471E65
:1047F000009D019884420BDA30462946224600F09B
:104800001FFA30463946224600F01AFA641CF0E7D7
:10481000FEBDF0B587B0059107460C9806900028BC
:104820002DD00D980490002829D01C46164606214C
:10483000069841430391092104984143029115468A
:10484000387800281BD020280BD3069900910499B2
:10485000019105992A462346FFF778FE03982D1803
:104860000BE00A28314600D029460D28354600D0F5
:104870000D460A2801D1029824187F1CE0E707B0F2
:10488000F0BD0000F0B587B00493039206910521B6
:1048900001914843A03802900021052919D00498BD
:1048A0000C180298059140180B490F5C039D019E5E
:1048B000002E0BD0761E3846F040C00704D0069874
:1048C0002946224600F0BCF96D1CF1E70599491C08
:1048D000E3E707B0F0BDC046A0860108F8B51C4666
:1048E00015460E4607463878002807D031462A4636
:1048F0002346FFF7C7FFAD1D7F1CF4E7F8BDFEB5EB
:1049000014460D4602905F1808988618B44208DADB
:1049100000940298294622463B46FFF701FF641C9B
:10492000F4E7FEBDE0B53E48017B002900D08CBD18
:104930004178491E0529FAD87944097949008F44FC
:1049400002060E111417364804F04CFB8CBD038987
:104950004189009100210A4607F0FAFE8CBD05F05E
:10496000E7FF8CBD05F0E0FD8CBD05F08DFE8CBD34
:104970000CF0C8FB8CBDC046F0B58BB0059104901F
:10498000F048007B002848D0EE484078022844D107
:10499000129808901199109858430A914B43059F1B
:1049A000DB1940000390002602930398864234DA14
:1049B000049B985DE34C61690870012506963046BA
:1049C0002843185C616948700021079214460898D2
:1049D000814211DA099100260A98864208DAB9194B
:1049E0000095D84822462B4607F0B2FE761CF3E726
:1049F0000999491C641CEAE70A983818029B9842F6
:104A000001D0079A02E0079A08995218069E984228
:104A1000059F00D00746B61CC7E70BB0F0BDC046E7
:104A2000B0160020F0B58FB002920D910C90149D3D
:104A300016994D43159A0B931F46574317980890A4
:104A4000002806950E970A91099200D19AE03846FF
:104A500068430421FBF737FC0790002800D1E6E00B
:104A6000781E0024A54200DCC1E0291B7943059192
:104A7000E1430491691879430391611C0091002678
:104A8000019007460E98B04276DD0898401E042833
:104A90006FD8C046784400794000874402172A4006
:104AA000510020460A99FCF731F905460B98454319
:104AB00030460999FCF72AF9281880000C99081843
:104AC000711C069A5143049A8D184AE020460A99AF
:104AD000FCF71CF905460B98454330460999FCF74D
:104AE00015F9281880000C990818F143059A5518F3
:104AF00037E020460A99FCF709F905460B9845432B
:104B000030460999FCF702F9281880000C9908181A
:104B1000F1430E9A5118069A51430D1921E020468F
:104B20000A99FCF7F3F805460B9845433046099976
:104B3000FCF7ECF8281880000C9908183D4610E0A6
:104B400020460A99FCF7E2F805460B9845433046A3
:104B50000999FCF7DBF8281880000C9908180399CC
:104B600075180068FCF73FF8FBF7D5FFA900079A16
:104B700050507F1E761C85E70E9F0198C019009C3F
:104B8000069D6FE7012041405040084341424141AA
:104B9000089100210C46A94249DA029807910E18A3
:104BA0000025BD421FDA0898002803D0611C20466A
:104BB0000C460CE007980A99FCF7A8F807460B98F2
:104BC000474328460999FCF7A1F838180E9F800042
:104BD0000C990858FCF707F80D994919324600F06E
:104BE0002FF86D1CDDE70799491C069DD3E70021CE
:104BF0000E460698864217DA029834180C918800FF
:104C000007990D1800270E98874209DA01CDFBF7A6
:104C1000EAFF0D99C919224600F012F87F1CF2E74D
:104C20000C99C919761CE4E7079811F037FE0FB00C
:104C3000F0BD0178401C0029FBD17047704700008F
:104C4000F0B587B00025012801D0064600E0EE430C
:104C5000002975D43B4C2089884271D9002A6FD431
:104C6000638993426CDD237B002B18D06078022887
:104C700066D1300CF82303403004400F18186369E4
:104C800018707009E02303403006C00E18186369DD
:104C9000587001230093204607F05AFD50E06378D6
:104CA000062B0BD042435018032B0BD1F3B2310C1F
:104CB000C9B2320AD2B205F0F9FE41E030460CF03A
:104CC000E3FA3DE00690300AC0B20490FBF723FF00
:104CD0001D49FBF774FD7721CF053946FBF76FFDC2
:104CE000FBF768FF0290F0B20590FBF714FF17493D
:104CF000FBF765FD03973946FBF761FDFBF75AFFAC
:104D00000746300CC0B200280BD0FBF704FF0E4959
:104D1000FBF755FD0399FBF752FDFBF74BFF4501F0
:104D200020350599002900D0791C049A002A02D068
:104D300002988000021D0A432A43206906994254C2
:104D400007B0F0BDB01600200000E0400000404079
:104D50007047F0B585B01E4604910B99C9180091B3
:104D60000A99CC1D07218C430192A1180291009948
:104D70008E42019D18DA02998D4213DA039007786A
:104D800000242919082C09D078B2002803D50498EA
:104D90003246FFF755FF641C7F00F2E70398401C82
:104DA0000D46E8E7761CE2E705B0F0BD80B509489E
:104DB0000078002806D007F027FB1E48012101607B
:104DC000416080BD002000F019F8012000F016F8C5
:104DD00080BDC0460C04002080B5022000F00EF813
:104DE000032000F00BF880BD10B50424102C04D073
:104DF000204600F003F8641CF8E710BD10B5044627
:104E00000120A04080B20B490A68024202D14A68E0
:104E100002420DD00860486000F060FCA04201D161
:104E200004F0B8FE2046FDF72BFB204611F0E2FA15
:104E300010BDC0460C180240FEE780B5002200F00D
:104E400001F880BDB0B503461C4C607A002801D043
:104E50000120B0BD657A00206055657AAD00651906
:104E60006B60637AE3181A72627A531C6372C870BB
:104E70002F238B703A234B7030320A70B0BDC0467E
:104E800080B5002100F002F880BD000010B5014699
:104E90000A4A537A0120002B0FD009783039C9B261
:104EA0008B00D3185C68002C07D01B1D00201860F5
:104EB00051180872517A491E517210BD7C0B0020A6
:104EC00070B5044601F0B0FC0619104D2868C00307
:104ED00005D501F0A9FCB042F8D3032070BD2968C4
:104EE0000B480840286003D00A494860012070BD83
:104EF00001F09AFC04192868400304D501F094FCE1
:104F0000A042F8D3E9E7002070BDC046102002405F
:104F1000FAC300003819002070B501460025E843A7
:104F2000012916DBE94E32788A4212D34C1E707882
:104F3000012806D134206043F16808180EF0F2F918
:104F400005E07078022805D12046FEF7EBF800282E
:104F500000D070BD0120A040716881437160284677
:104F600070BDC04680B5F1494A78012A02D10EF0E1
:104F700032FB80BD4978022902D1FEF7EDF880BDF1
:104F80000020C04380BDC046F8B50020C543E74FB0
:104F90003878002829D07878012815D13C46083483
:104FA00000263046214632460EF000FF0546002816
:104FB0001BD13025F86839788E420DD2405911F056
:104FC0006DFC3435761CF5E7787802280DD1002089
:104FD000FEF7A8F9054608E011F060FC0025204620
:104FE0002946FFF753FF7D603D702846F8BDC04657
:104FF00080B5EF494A78012A02D10FF0A8F980BDA7
:105000004978022902D1FEF7C1F880BD0020C043D3
:1050100080BDC04610B5C6B00021CC43F2494A78E5
:10502000012A0AD169460FF023F900280DD16846FC
:10503000007AC00608D5102407E04978022904D177
:10504000FEF7BEF8044600E02024204646B010BD1E
:10505000F0B5C7B00C460546F24E707801281ED157
:105060002320C10001AF3846FBF7CBF8FF212846CB
:10507000FBF7C7F81036304639460FF0D1F8002854
:1050800015D101A9887D002811D016310120020216
:105090002846FBF78FF803982070002009E070780D
:1050A000022804D128462146FEF7A4F801E000209A
:1050B000C04347B0F0BDC046B0B5FFB083B0EC4CC4
:1050C000607008016449085C644908707D20C00074
:1050D000824201DB62480260607801280ED1FCF751
:1050E000FDFF0546002811D108345E482146FFF730
:1050F000A4FE00280ED00020C54307E060780228F7
:1051000003D1FEF7D3F8054600E0002528467FB01E
:1051100003B0B0BDFCF7C8FF05460028F6D101205A
:10512000420200925048022102AB0EF001FB0546FC
:105130004C48FFF7A5FEE9E7B0B50021CC43CC4DC4
:10514000697801290DD1012100F090F801280EDBCA
:1051500034214143EA68891828390C68FFF7DCFEDE
:1051600005E06978022902D1FEF7C2F8044620461C
:10517000B0BDC046FEB51C460723DD43BC4F3B789F
:10518000002B01D0681CFEBD002C1FD078700801D8
:105190003149085C314908707D20C000824201DB42
:1051A0002F4802607878012812D1FCF797FF002879
:1051B00003D0FCF793FF002819D13946083129485C
:1051C000FFF73BFE00280ED0E81DFEBD2846FEBDC1
:1051D000787802280DD12046FEF7A4F8002806D1E1
:1051E00000207860FEBDFCF75FFF002801D0A81CFE
:1051F000FEBD394608311C48002632460EF0D6FD69
:10520000002801D0E81CFEBD019634210291204601
:10521000FBF759F8F860002819D006463C70009555
:10522000EC1D39463027641C0878844211D23D4673
:10523000343501214802FBF746F88D49F051CE681C
:10524000F05900282F46EED10098401DFEBD281DC4
:10525000FEBD01984860FEBDCC000020741A0020FD
:10526000B0020020BC7D0108A806002070B50A46E7
:10527000014600207E4E044633789C4206D2736875
:10528000E340DB0702D03430641CF5E70023DD4344
:105290007378012B07D133789C4215D2F368181824
:1052A0000EF0AEFD08E0707802280DD1307884420F
:1052B0000AD22046FEF772F8002805D10120A0404E
:1052C000716801437160651C284670BDC4030020ED
:1052D00070B50446664E707801280CD1B07800286D
:1052E00010D0304610300EF032F80021B170002896
:1052F00008D0C84370BD7078022810D12046FEF750
:1053000033F80BE03546103538212846FAF779FF97
:10531000284621460EF084FE002803D070BD0020F0
:10532000C04370BD0120B070002070BDC4030020D8
:105330007CB50024E44301281BDB4D4D2E788642CA
:1053400017D3401E6E78012E0DD1891834224243A6
:10535000E868801801AD1A462B460EF0A5FE00281D
:1053600007D1019C05E06D78022D02D1FEF740F8CF
:10537000044620467CBDC04610B502460020C0430E
:10538000012A14DB3A4B1C78944210D3521E5878F1
:10539000012806D134205043DA6810180DF0E9FFD7
:1053A00010BD5878022802D11046FEF789F810BDCA
:1053B000C403002080B501460020C043012911DB51
:1053C0002B4A13788B420DD35378012B04D10C3226
:1053D00010460EF06FFF80BD5278022A02D1481E9F
:1053E000FEF7B8F880BDC046C403002080B5014672
:1053F0000020C043012913DB1D4A13788B420FD3D1
:10540000491E5078012805D134204843D168081836
:10541000806980BD5078022802D10846FEF7B4F8B2
:1054200080BDC046C40300207CB50024E4430128AD
:105430001BDB0F4D2E78864217D3401E6E78012E4F
:105440000DD1891834224243E868801801AD1A460C
:105450002B460EF0CDFF002807D1019C05E06D78AA
:10546000022D02D1FEF7AAF8044620467CBDC046B4
:10547000C403002010B53C4C2078002809D0231D1F
:105480000ECB012001F0C8F8002806D16068083072
:10549000606001F091F8002801D0002010BD606824
:1054A00010BDC046BFB50C4600F0BEF8054600F082
:1054B0005FF801F0EBF8002800D0BFBD0295022094
:1054C0000190002000906105E00A002900D0401CF6
:1054D00003900120C44301A8694600F017FF00288B
:1054E00003D0601C002C0446F5D101F065F8BFBD67
:1054F00080B51D491D4A48608A60CA600020087056
:1055000000F036F801F0C2F84142484180BDC04683
:10551000B0B504462578002D05D0641C284600F05F
:1055200005F80028F6D168426841B0BD10B50E4CB0
:10553000217862181072481C2070C0B2082810D15F
:10554000231D0ECB012001F067F801460748E060FB
:10555000A0600020207060680830606048424841C8
:1055600010BD012010BDC046B80200200303030394
:10557000B0B52548074901600021074A074B084C90
:105580000A2906D205686D0301D513600460491C21
:10559000F6E7B0BDFB83000040A001084B530000BC
:1055A000FAC30000B0B58EB004466D46281D342104
:1055B000FAF727FE04200090284600F001FF11486A
:1055C000069901421CD001F061F80120C0030E4988
:1055D000086080200860102008602020086001F02A
:1055E00007F80A48069901400691684600F03EFF18
:1055F000002C05D000F0EAFF00F0F0FF00F0DCFF27
:105600000EB0B0BD0006000110200240FFF9FFFE01
:1056100080B50020FFF76CFF7D20C000FFF750FC35
:1056200011F0C0F880BD0000B0B501460120C206EF
:10563000C4020023064D1846402807D08A4201D8EC
:105640008D4204D812192D19401CF5E7D843B0BD7E
:10565000000800081049405C7047C04670B5064617
:105660000024400716D1F0087E2813D80D46FFF716
:105670007FFF01F00BF800280CD1074831180CCD42
:10568000012000F0C9FF054600F096FF002D01D172
:1056900044424441204670BD0070FF1F10B5810098
:1056A0000A4A1268535830241C40202C0DD151183E
:1056B000C000074A83589BB28350835883500868C0
:1056C000044A024004485040086010BDB81E002043
:1056D000009800403F0FFF07B08000000748417866
:1056E000FF20FF2908D0064A1278012A04D10801B8
:1056F0008849095C0F2008407047C0468800002098
:105700003005002080B5022801D1086880BD084618
:10571000FBF750FA002801D4812800D3002001496A
:10572000081880BD6C1000207CB50C46054600268C
:1057300005F0B8FAA8421BDD002D19D428017549DF
:105740000E187068002805D1B068A04202D1F06838
:10575000002809D0284605F0A7FA307800210091EA
:105760000A46234600F05AF8307800F08DF80646D5
:1057700030467CBD7CB50C46054605F093FAA84240
:105780001BDD002D19D4280162490E18706801280C
:1057900005D1B068002802D1F068002809D0284659
:1057A00005F082FA3078002200920121134600F0C1
:1057B00035F83078214600F0D5F87CBD0107CA0ED7
:1057C000032191400F22920280011040052212070E
:1057D00083588B438350024A83588B4383507047CE
:1057E0000C000050F0B50F22830110404500032447
:1057F000AC4092021A4005231B07D658A643012449
:105800002746AF403743D750002901D1282100E077
:105810001821D218511884400C60F0BD1CB5049CAE
:10582000009400F009F8FF2001900198012802DBA4
:105830000198401EF8E71CBDF0B585B01D46144622
:105840000E46074604920A980390029301910F2096
:105850003946014001228A4000928002B90101408C
:10586000052000070818694600F024FF384605F0B7
:1058700009FA002805D40001264908184660856009
:10588000C46005B0F0BDC04682B00106090F0191A9
:105890000F210140009101988002074940580121E1
:1058A000009A0B469340034000988140591A4842A1
:1058B000484102B07047C04610000050FEB5029249
:1058C0000E46054605F0F0F92C011248005D000770
:1058D000800E11A10F580221002538462A4601F0FA
:1058E00093FA384601F084FA0A48005D0095012ECB
:1058F00001D01A4900E01849002E029C00D1184935
:10590000621E53425341022C00D123462A46FFF720
:1059100085FFFEBDCC000020050000000500000052
:10592000060000000600000007000000070000005D
:10593000070000000700000007000000070000004B
:10594000070000000700000007000000070000003B
:1059500007000000070000000000111000003110D7
:105960000000211082B00F23034001AA1370C0B2BF
:10597000030968460370002901D1282100E018219D
:10598000007880020818117801228A400521090751
:10599000425002B070470000F0B587B004460025C1
:1059A0000695C06D012801D1022047E00127E76577
:1059B0002046FBF7E5FF2668B268216ED2072FD19B
:1059C00003970290812252009143891C2166F1685D
:1059D000F268434B1340F36042480840019031465F
:1059E000B4310491404A28462F46082F28D0B16888
:1059F0001140134618320A43B260B168002907D536
:105A00000699491C06910699C90A5729F5D30CE055
:105A1000049909687F220A4010187F1C1A46E4E79F
:105A200010221143E565216608E00020E065206E44
:105A300010210143022081432166039807B0F0BD85
:105A40000346B16817461140012003900143B1603D
:105A5000DB083169890F14D10F218904E54A1268E6
:105A60000A40900C07280CD3C11E01228A400592DF
:105A70000599490805910599002902D00599491E03
:105A8000F8E7049801687F22914319430160B168E7
:105A9000394002273943B16000F0C6FE064620684F
:105AA0008168C90712D000F0BFFE801B0328F6D31F
:105AB00020688068C007F2D0206E10210143216663
:105AC000606E0399084360660846B7E7C168019AAB
:105AD0001143C160206E01210143B9430298A1E73F
