:020000040800F2
:10000000385E002009010008F99D000855770008B6
:1000100000000000000000000000000000000000E0
:1000200000000000000000000000000041B30008D4
:1000300000000000000000004DA10008D1C500082C
:100040001B0100081B01000889A400081B0100080F
:100050001B010008C1470008ED470008FD470008E4
:1000600011D400081B0100081B01000845340008DA
:100070001B0100089DC600081B0100081B010008A9
:100080001B01000800000000000000001B01000828
:10009000000000007DC6000895C600081B0100088E
:1000A000397900081B0100081B01000875CE000803
:1000B00089CF000800000000ADDEEFBE3100000077
:1000C0000348854600F0B2FF004800477948010820
:1000D000385E0020B0B5012293040A4A54681C43DC
:1000E0005460EFF3108372B60024402C03D220C971
:1000F00020C0641CF9E71068C003FCD483F31088A7
:10010000B0BDC04610200240044880470448004764
:10011000FEE7FEE7FEE7FEE7FEE7FEE76DC6000846
:10012000C1000008F0B51FB40646002082B00546A5
:100130004024019100901BE0019922460F46304671
:1001400000F044FC049A059B801A994110D3104694
:100150001946224600F02AFC361A8F4101972246A2
:1001600001200021009F00F021FC38184D41009033
:100170002046641E0028DFDC019B00982946324699
:1001800007B0F0BD30B5434351435C18010C130C6C
:100190000D465D432C1980B292B20546554351433A
:1001A0000A0C09044D1962415843010C000440191E
:1001B000514130BD10B5431A934209D283188818B3
:1001C00003E0401E01785B1E1970521EF9D210BD6B
:1001D00003460B439B0703D009E008C9121F08C060
:1001E000042AFAD203E00B780370401C491C521E0B
:1001F000F9D210BDD2B201E00270401C491EFBD200
:1002000070470022F6E710B513460A460446194621
:10021000FFF7F0FF204610BD10B5044605E00B784F
:100220000370401C002B00D0491C521EF7D2204600
:1002300010BD421C0178401C0029FBD1801A704778
:1002400010B5002200E0521C835C8C5CA34201D1FB
:10025000002BF8D1D8B2E1B2401A10BDC9B203E008
:1002600003788B4203D0401C521EF9D20020704705
:1002700003460A780270401C491C002AF9D118462E
:10028000704730B505460020034600E05B1C9342F2
:1002900005D2EC5CC85C201A01D1002CF6D130BD2F
:1002A000F8B50E460546002400E0641C285D00F009
:1002B000ACFB0746305D00F0A8FB381A02D1295D7F
:1002C0000029F2D1F8BD10B54843044615F002FAF2
:1002D000002805D00021002C02D0641E0155FAE749
:1002E00010BD0000F7B5009C0F4600262578641C61
:1002F000002D05D000F07CFB0068405DC007F5D103
:100300002B2D02D02D2D18D0641E39462046029A7E
:1003100000F081FB002F04D03968A14201D100997F
:1003200039607105022400290BDA4042002803DD00
:1003300015F09AF90460A007FEBD01208002064373
:10034000E3E70028F8DA15F08FF904600048FEBDF5
:10035000FFFFFF7F10B500F011FC10BDF8B502469D
:100360004A40D40F42004B0052085B089A4202D226
:100370000246084611464A0023D0C30D4A00DDB2AA
:10038000120EAD1A202D35DA49020126490AF6056A
:100390008A19002C00D0524220214F1B1146B9402F
:1003A0002A411018C20D9A4221D0002C17D0012DDD
:1003B00008DCDA05801AD20F8019D207DBB200F010
:1003C0002AFCF8BDDA05801A012340001B06C0187C
:1003D00080185A428018CA0F1043490007E04908A4
:1003E000C2071143DA05801A80194008801800F00E
:1003F0000AFCF8BD61000122511A001BF7E7012237
:10040000D2075140AAE70122D2075040A6E7024690
:1004100070B54A40D30FDB0740002DD04A002AD0E8
:10042000010E140E000212020919400A520A841821
:10043000E50104465443000A120A2E045043A4194D
:100440004219200CC543AA18120C0125AD03521CF9
:10045000521912047F39240400D0521C104301D4D5
:100460004000491EC2B20C06C0092018401C4008BA
:10047000802A02D003E0002070BD4008400000291F
:1004800000DA0020184370BD70B502464A40D50F0F
:1004900040004A00ED0740085208002814D0002A06
:1004A00012D0C40DD30D41020120C0055202490AE9
:1004B000520AE41A091812187D34914201D3641CBF
:1004C00000E04900002C01DA002070BD00239142B9
:1004D00001D3891A0343400849000028F7D10029B5
:1004E0000AD0914202D10121C90705E0914201D20F
:1004F000012101E00121C943E005C018401900F0C5
:1005000082FB70BDF0B51FB488B00B990998002428
:1005100048400999C00F490049080991C0070B9943
:100520000090490049080B9109990898A64608438C
:100530001CD00B990A98084318D009980124400050
:10054000420D4800410D099824050003000B20438B
:1005500009900B980003000B20430B9050181C4986
:100560004018002201901446104605E00020014684
:100570000DB0F0BD032801DA034600E003239C46DA
:10058000C11A0AAE0AE05F0008ADED5B4F00F75BF1
:100590007D430027AA187C41491C5B1E6145F2DDA2
:1005A000410004AB5A522104120C0A43240C401C93
:1005B0000828DFDB019802900099704601910090B5
:1005C000059B049A0799069800F0B6FBD0E7000057
:1005D0000DFCFFFFF0B50C465C4085B0E40FE4076E
:1005E00003944C00002664085900944649080246CA
:1005F0000296224321D062460A431ED06200570D64
:100600004A000E032303550D012402462C492405FC
:10061000781B1B0B360B4018234326436146009082
:100620001C46501AB44103D30098401C009002E0CD
:10063000921800985B41002803DA0020014605B0BB
:10064000F0BD0020012109050746864611E06446F9
:100650001D46141BB54106D36546521BB341744673
:1006600007430C43A646CD07400849082843921883
:100670005B4105460D43EAD11046184313D060464E
:10068000194650407140084306D06046101AB341E5
:1006900006D20122002306E000220123DB0702E04C
:1006A0000122D2435310009874460105381C614161
:1006B000029C039D0019694100F031FBBFE7000077
:1006C000FD0300000122D207002800DB101A0029D8
:1006D00000DB511A814201D8012070470020704789
:1006E0000122D207002800DB101A002900DB511A72
:1006F000814201D201207047002070470122D207B9
:10070000002800DB101A002900DB511A814201D3B6
:1007100001207047002070470122D207002800DB2B
:10072000101A002900DB511A814201D901207047BB
:10073000002070470122D207002800DB101A002990
:1007400000DB511A814201D101207047002070471F
:10075000C217C10F504010B54018CA079623002198
:1007600000F059FA10BD10B500229623114600F092
:1007700052FA10BD0A4670B5C917D30F4A40484017
:100780000025C11814466C41DA0796232046002C38
:1007900003D0B62300F03FFA70BD08460021F9E708
:1007A0000EB505490291002100910A460B460191C0
:1007B00000F0C2FA03B000BD330400003EB5CA1712
:1007C000CB0F002450405140C0186141DA07054B5F
:1007D0000293019200942246234600F0ADFA03B042
:1007E00030BD0000330400000EB5054A029200221D
:1007F00000921346019200F09FFA03B000BD000082
:1008000033040000C20F410040020123400ADB050F
:10081000D207090EC0187F2901DA002070479629F7
:1008200003DC9623591AC84001E096398840002A13
:10083000F4D040427047410040020122400AD205F4
:10084000090E80187F2901DA00207047962903DC01
:100850009622511AC8407047963988407047C20F97
:10086000D207400040080BD0C10D0723DB01C91897
:1008700040020905400A1143C2084007114370476E
:10088000002001467047CB0FDB07490010B549082F
:1008900002460A4307D00A0D07240903E401090BA5
:1008A000121B002A01DC002010BDC900440F0C43BC
:1008B000C100E018D205801800F0A5F910BD41462E
:1008C000016049464160514681605946C1607146A8
:1008D00001611430F0C069460160001D01B5C046D9
:1008E000C04606BC964601C10020704704000D00BA
:1008F000A06AC046C046616A8D462200280000D129
:100900000120116888465168894691688A46D168F5
:100910008B4611698E461432F0CA704770B5044692
:10092000002903D000202022012310E0002801D05C
:100930000020C043C046C0460DE02546D5408D424C
:1009400005D30D469540641B1D469540401915463C
:10095000521E002DF1DC214670BD000070B500254F
:1009600004462E46002911D0002C01DA012544420C
:10097000002901DA012649422046FFF7CFFFB542A0
:1009800000D04042002D00D0494270BD002C02DA58
:100990000121C90702E0002C00DD03490846C046DA
:1009A000C046214670BD0000FFFFFF7F10B5202A22
:1009B00004DB0146203A9140002010BD91402023E5
:1009C0009C1A0346E3401943904010BD10B5202AFD
:1009D00004DB0846203AD040002110BD0B46D3402E
:1009E000D0402024A21A91400843194610BD0000AF
:1009F000004870475C6A010810B50446FFF7F8FF2D
:100A00000068005DC007C00F10BD014641391929BB
:100A100000D820307047F7B582B0029C00272078BC
:100A2000641C15460197302802D0002D15D015E022
:100A300020780127641C782804D0582802D0002D83
:100A400009D00BE0002D01D0102D07D10027102573
:100A50002078641C02E0082500E00A2500260096A4
:100A600010E00099012769430818020C294680B25A
:100A7000714300908E183804864201D30120019002
:100A80002078641C294600F0F6FA0028E9DA039879
:100A9000002805D0002F01D0641E00E0029C0460F5
:100AA0000198002806D014F0DFFD02210160C81E65
:100AB00005B0F0BD009930040843F9E70FB400B564
:100AC00089B00A460DA9009100230C99002ACB6039
:100AD000234B0693234B079301D0042300E000230C
:100AE000214A0292214A0892019302466B46002055
:100AF00000F05FFB09B008BC04B01847F0B585B042
:100B000007460020C04301901E46002015460C46B3
:100B10000091029104903B466A46314604A8FFF7D3
:100B2000CDFF049902466018002D05D0002901D0A0
:100B3000034600E023462B6000290ED0002A02DD88
:100B40000099814209D0001B019000943B466A46FF
:100B50003146029404A8FFF7B1FF05B0F0BD0000D4
:100B60000914000829140008FFFFFF7FF909000895
:100B700010B500230360FFF7C1FF10BDF7B5009C5F
:100B80000E4600252778641C002F05D0FFF730FFA4
:100B90000068C05DC007F5D12B2F02D02D2F1ED0CD
:100BA000641E31462046029A00F050FC002E04D00C
:100BB0003268A24201D1009A32606A050224002AFA
:100BC00018DA0022454200268A413346751B9341BC
:100BD00009DB002240428A41114603B0F0BD0120EA
:100BE00080020543DDE714F03FFD04600020012191
:100BF000C907F2E70029F0DA14F036FD046000209E
:100C0000C0434108E9E7002904DA401C490001D14A
:100C100040084000704770B40024050C05D1102432
:100C2000000402D1002921D01124050E01D10002B7
:100C30000834050F01D10001241D850F01D180006A
:100C4000A41C002801DB4000641C002908D02025DA
:100C50002E1B0D46F540A14000D001212943084339
:100C600001061B1B000ADB1D02D5002070BC70476B
:100C7000DB05181880180029F8DA401C4900F5D166
:100C800070BC40084000704770B5002801DC0020AF
:100C900070BD410040020126400AF605090E801988
:100CA000CA0701D14000491E4D10002211463F35B0
:100CB0003346CB409B18D418844201D8001B1A46F7
:100CC0004000491C1729F3DD5100814202D2002166
:100CD000C94300E00021E8058018FFF794FF70BDCC
:100CE00010B541000DD04100090E962909DC7E297E
:100CF0000ADC07DB410205D0C00F7F21C007C90510
:100D0000401810BD002010BD9622541A20210A1B45
:100D100001469140E040FFF776FFA04010BD10B5BE
:100D2000002B08DA0024401C614192185B411A43F1
:100D300001D14008400010BDF0B51FB482B0054697
:100D40000C0003D0084614F04DFC02E014F04AFCFD
:100D500020300246009021462846FFF727FE049BDC
:100D6000059A04460F4618431143084314D0184609
:100D700010431BD0009840210A1A18460599FFF726
:100D800025FE05460E46009A05990498FFF70EFECB
:100D9000084305D0012004E02046394607B0F0BDE5
:100DA0000020C11705430E432C43374300990E988A
:100DB0006305401A7905E40A00220C43FD0A0A3053
:100DC00002D500200146E9E70105101969410C9C94
:100DD0000D9D00196941FFF7A2FFDFE7F0B5074657
:100DE0000846584087B0C00F049048000E4659008E
:100DF00040084908BC1A884105D2384631461E468B
:100E000017460B4602465800400810434CD0300DA0
:100E1000039040055900400D490D0590401A02907D
:100E2000402872DA18030121000B090508430190DC
:100E300004980092002805D0019952420020884170
:100E400000920190029840210A1A01990098FFF738
:100E5000ADFD05460C466B4607CB00F0F9F8C0190E
:100E60007141039A0E0D0023D71756401A467A4057
:100E7000164344D0049A002A2DD0029A012A039ADC
:100E800015DC1205C01A914101263605001C71417E
:100E9000D20F059ED2070093019202962A4623465E
:100EA000FFF74AFF07B0F0BD38463146FAE71605AE
:100EB000224A0F46B218C01AB74101210905001C89
:100EC0004F4100187F41114618187941E20F104335
:100ED0006D19644113E0E2076D0815436408C20709
:100EE0001443039A01261205C01A91413605001CCD
:100EF0007141CE07400830434908C01851412A4685
:100F00002346FFF70CFFCDE7FFE7049801224000DE
:100F1000C117121A00238B4104983146C417381A9E
:100F2000A141EEE730B40124E407634030BC55E74B
:100F300030B40124E407614030BC4FE70000E0FF1B
:100F4000F0B55F0085B07F0DCD0F03974E000127F0
:100F50003F051B0309031B0BED07090B3B43760DF4
:100F6000394397189C46029700245B41039F0195E3
:100F70007F1E00949E46039713E0029F7346C01B9A
:100F8000994106D50127FF077D400F4600214042C9
:100F9000B9416346171A8B41EFD3761E0018039FA1
:100FA0004941BE42F5DA02460A4307D00022134601
:100FB00002960195FFF7C0FE05B0F0BD20460199ED
:100FC000FAE700004A0009030123090B1B05194336
:100FD0000A4B10B5520D9A4202DA0020014610BDAC
:100FE000064B34339A4203DC9A1AFFF7EFFC10BD2C
:100FF000034BD218FFF7DAFC10BD0000FF0300001E
:10100000CDFBFFFF10B5002904DB0124E4074042BB
:101010008C412146002B04DB1C460123DB07524296
:10102000A341994200D1904210BD0000064C012519
:10103000064E05E0E36807CC2B430C3C9847103480
:10104000B442F7D3FFF740F828830108588301081A
:1010500010B5202A06DBCB170846203A1041C117ED
:101060000B4306E00B461341D0402024A21A9140C6
:101070000843194610BD3A2800D2303820230246D2
:101080009A43412A01D310463738884201D30020C1
:10109000C0437047FFB5087889B01546FF2805D0D2
:1010A000491C2D2804D00022002407E000240BE076
:1010B0000122F9E70A235C430419491C0878FF2838
:1010C000F8D1002A00D06442002004902A7801461A
:1010D0002D2A01D02B2A0FD16D1C2D2A02D00022DF
:1010E000049209E00122FBE700260A2233466D1C28
:1010F000FFF748F8381871412F78FF2FF4D10C9A78
:10110000A218069202460A4304D0FF23069A91339E
:10111000DA4205DA002109980A4606C00DB0F0BD92
:101120000024B74AB54D26460792FFF75DFB0290B3
:1011300006980391002801DA474200E00746390586
:101140000020AF4A001C51410191009012E0F807C5
:1011500007D022462B4630460799FFF7D3F90646BB
:10116000079122462B4610461946FFF7CBF9044655
:101170000D467F10002FEAD10698019B0028009AA7
:101180000399029806DAFFF725FA3246079BFFF724
:1011900021FA05E0FFF7B6F93246079BFFF7B2F9EF
:1011A000049A002A02D00122D2075140099A03C2B0
:1011B000B4E7FFB591B0002009900025ED432E2043
:1011C0009E685C681F460190B9696D1C129888473B
:1011D0000090396A88470028F6D10098401C0AD050
:1011E0000D20C0018443002E12DD00982B2809D069
:1011F0002D280DD103E00020C04315B0F0BD012023
:1012000080020443B9696D1C12988847761E0090CD
:1012100003A9600501D52D2000E02B206A4610733C
:10122000491C0CA80F9102900AE0B9696D1C129834
:10123000884700900120400204431398761E056001
:10124000002E02DD00983028EFD0019900988842E6
:1012500045D18020044308E00998401E09900120F0
:10126000400204431399681C0860B9696D1C761E1E
:101270001298884700903028EED030E001998842DB
:1012800005D1200603D480200443761E1DE000987B
:1012900014F0F4FB002825D0012149020C430098EA
:1012A00007AA0F9903323038761E914208D208708F
:1012B0000F98401C0F90200607D50998401E03E0A8
:1012C000200602D40998401C0990A00502D5139964
:1012D000681C0860B9696D1C129888470090002E40
:1012E000CCDC59E0002E57DD0098652801D0452858
:1012F00052D1A00550D5032000028443B9696D1C6A
:10130000761E129888470090002E0CDD2B2804D002
:101310002D2808D1FF2001300443B9696D1C1298B3
:101320008847761E0090E00501D52D2100E02B2195
:10133000029801700298401C0290019025E0012063
:10134000400204430EA902980131761E88420ED253
:101350000098029930380006000E087003D10299F7
:10136000019881420AD90298401C029006E0E005EB
:1013700001D5244801E0234840420990B9696D1C19
:1013800012988847009013980560002E04DD00989D
:1013900014F074FB0028D2D1F969129888470F998C
:1013A000FF200870029903AA087000200A900B9091
:1013B0000CA90AA8099BFFF76DFEA00502D4012025
:1013C000C0431AE72420044209D0E00713D138684B
:1013D0000B9A0A99031D3B60006806C00BE00B994D
:1013E0000A98FFF750FA0146E00704D13868021D59
:1013F0003A60006801602846FFE6000000001440E3
:101400000000F03FF1D8FFFF4268002A08D00168D1
:101410000B78491C002B03D0521E06C0184670479B
:101420000121C160881E70474268002A0BD0C36842
:101430000168002B07D183688B4204D0491E521CDF
:1014400006C0002070470020C0437047F7B584B045
:10145000049C00212078641C1546019102913028DB
:1014600002D0002D17D017E0012001902078641CD5
:10147000782804D0582802D0002D0AD00CE0002D86
:1014800001D0102D08D10020019010252078641C77
:1014900002E0082500E00A250027E9173E460097EC
:1014A00003911CE0012101910099334669430A1818
:1014B000009228463A460399FEF764FE009A130C00
:1014C0000022C7185141009A0E4690B200900120A8
:1014D0000004814201D3012002902078641C294637
:1014E000FFF7C9FD0028DDDA0598002807D001982C
:1014F000002801D0641E00E0049C05980460029856
:10150000002807D014F0B0F802210160C81E01467F
:1015100007B0F0BD380C31040143009A3804104381
:10152000F6E7420005D04200120E52428A4201DB29
:1015300000207047C9050818704770B58C180578E9
:10154000401C6B075B0F01D10378401C2A1106D1A8
:101550000278401C03E006780E70401C491C5B1E9C
:10156000F9D12B0705D40023521E0DD40B70491C52
:10157000FAE70378401CCB1A921C03E01D780D702B
:10158000491C5B1C521EF9D5A142D8D3002070BD66
:1015900070B5044600688168002549071BD581683D
:1015A000890704D48168484A0A401032826004F0F6
:1015B000B7FD06462068806840070CD504F0B0FDF2
:1015C000801B0328F6D3206E102101432166606E34
:1015D000012528436066284670BDC04670B50546A3
:1015E0000068816882680024D20722D0022211405C
:1015F0001FD1816805220A40012A12D18168324A2E
:101600000A40911C81600321016004F089FD0646B7
:1016100028688068C0070CD004F082FD801B032876
:10162000F6D3286E102101432966686E01242043F9
:101630006866204670BDC046F8B505460024009493
:1016400000688168C9071AD181681F4A2F32114288
:1016500008D0286E102101432966686E01242043BA
:1016600068660CE08168184A11400127394381609F
:1016700016480068000204D4E86901280ED120460B
:10168000F8BD134800681349FFF748F9401C009063
:1016900000980028F0D00098401EF8E704F040FDC4
:1016A000064628680168C907E9D18168C90704D1DD
:1016B0008168054A11403943816004F031FD801B87
:1016C0000328EED3C5E7C046E8FFFF7F08270140A7
:1016D000B8000020400D03001CB50446B348007854
:1016E000002801D100F0A2F80C48E040C00713D157
:1016F000204608F03FFD20010949085C02210091C5
:1017000003210022134603F093FD0648005700F022
:10171000E5F8FFF71DF81CBD00201CBD01FC7D0194
:10172000CC000020A86C0108411E12292CD888008A
:1017300001A108588746C046851700089917000878
:101740009D170008A1170008A5170008A917000891
:10175000AD170008B1170008B5170008B917000841
:10176000BD170008C1170008C5170008C9170008F1
:10177000CD170008D1170008D5170008D9170008A1
:10178000DD170008284870477849884227D08849E3
:10179000884224D001207047224870472048704773
:1017A0001E4870471C4870471A48704718487047D1
:1017B00016487047144870471248704710487047E1
:1017C0000E4870470C4870470A48704708487047F1
:1017D0000648704704487047024870470048704701
:1017E0000000084C000004480000024400000140D2
:1017F0000080003C00400038002000340010003021
:101800000008002C00040028000200240001002031
:101810008000001C40000018200000141000001080
:101820000800000C0400000802000004F8B50124C0
:101830002105164802680A4302605C4D0022AA6531
:10184000AA640726042320036A62AC62EC622A635E
:101850006A63AC63E8632E64E007A6070C4F6F6011
:10186000AE60EA602A616861AB61EA612A6207489A
:101870000068084000900098281D03F0CDFF002864
:1018800001D002F0E3FF2C70F8BDC04640100240CA
:10189000002401407FB504460F4E3068A0421AD0A4
:1018A0004248051D284603F059FF284603F0B4FFBF
:1018B000284603F07BFD2046FFF736FF0021039109
:1018C0000291019001A9284603F01AFE002801D0D8
:1018D00002F0BCFF34607FBDC8000020B0B5FFF748
:1018E000D9FF3248041D204604F0FAF80021CD4308
:1018F000002811D10A21204604F098F8002808D1C8
:10190000204603F083FF800503D5204603F080FFC7
:101910000546204604F010F92846B0BD10B523480E
:101920000078002801D1FFF781FF00F029F80E4967
:10193000FEF76DFDFEF77FFF04460C48FFF7CEFF74
:1019400060430B49FEF7EAFF7D21C9004843FEF7DB
:101950000AFF0849FEF702FD0749FEF795FD074912
:10196000FEF7FCFC10BDC04600007A44000200A453
:10197000FF0F0000008C39C900201E450000F04117
:1019800080B50A480078002801D1FFF74FFF0848CA
:10199000FFF7A4FFFEF704FF02460B4600200549AF
:1019A000FEF718FEFEF76FFF80BDC046F80200206C
:1019B000000400A80032B340B0B504460020002C5B
:1019C0000ED4192C0CD8FFF7DBFF05462046FFF795
:1019D00083FE01462846FEF71AFD0249FEF754FD34
:1019E000B0BDC04600F07F45F0B58BB00446002680
:1019F000009607AD0921FF232846324608F094FFE0
:101A0000287801250028284600D0DDE008F0F0FF06
:101A10000028284600D0D7E006950025FF2008F0D2
:101A200053FF102D03D007A948556D1CF6E7FF2082
:101A300008F04AFF07A84178617041886180017809
:101A40008A0989008918217041790A0903791B01E3
:101A50009A1809035118A18081794809022202408D
:101A6000A079F0230340C80918188018CA08042375
:101A70001340C0184A0808231340C018A071A0489A
:101A80004088002819D007204007A268024089003A
:101A900007A8C3791D06AD0F49193F250D405119FF
:101AA000027A12029B069B0AD218437AD21892013C
:101AB0005118A160807A059033E007AB587A420054
:101AC000059238251540E77AC0221740400938189A
:101AD0004019E072A57A1540187A8206520F47071E
:101AE000BF0EBA185219A272227BF82515400622A1
:101AF000059F3A409F7A0597FF09BA185219227339
:101B000003229203258915400A07920FAA18890714
:101B1000090DDB799B00591880090818800080188E
:101B2000208107ABD97A04917F2008401D7B80215A
:101B300002912A460A4010186074D87B4208C001FE
:101B40008018A075A17CE020039001401C20284053
:101B50006F06BF0F38184018A074587B1F21014032
:101B60009B7B40271F4079189F0820223A40891804
:101B70009A00029F3A4089182175059F7900049ABE
:101B80001206D20F891849007A06D20F89182174DB
:101B9000E17C039F39408209AD072D0F521951187E
:101BA0004008102202408818E074607D38405908CF
:101BB00006220A40D906C90F51189A07D20E891871
:101BC000081860750020069D059006942C4628464E
:101BD00008F050FEFF27384608F076FE009607AD65
:101BE0000A21284632463B4608F09EFE2878002807
:101BF00002D02546069C55E008F0FAFE002825464E
:101C0000069C4FD125462035FF2008F05DFE102EA2
:101C100003D007A98855761CF6E7FF2008F054FE8C
:101C20000798207607A84178090261838178628B42
:101C30000A436283C1780906E16101790904E26916
:101C40000A43E26141790902E2690A43E26181796A
:101C5000E2690A43E261C179297009996970417AA0
:101C600009066162616A827A12040A436262616AE9
:101C7000C27A12020A436262017B626A0A436262AA
:101C8000297A427B13090B432B721107090D6185D9
:101C9000817B628D0A436285C07B400828730120E6
:101CA000687300250126304608F0E4FDFF2008F0A7
:101CB0000BFEBF484088012809D17102E163F0049E
:101CC000A2689209D20410182063616310E07002C8
:101CD000E063A088010B8E406663207B07220240F0
:101CE000921C20898004000D401C90408840206395
:101CF0000599400AA0630D4328460BB0F0BDC046CD
:101D0000080500207FB50220009002AC0D210022C2
:101D1000FF2520462B4608F007FE66782478012030
:101D200008F0A8FD284608F0CFFD3443601E84412A
:101D3000204604B070BD0000F0B585B008F0A4FDE9
:101D4000E4480125057004A8002404700498401C90
:101D500004AF3870009402AE9523304621462246E7
:101D600008F0E2FD3678284608F084FDFF2008F0F0
:101D7000ABFD3878632800D99EE0012EE6D105201E
:101D80000090D520420002AD08218723284608F0A4
:101D9000CBFD2E780125284608F06CFDFF2008F0C9
:101DA00093FD700764D4012E00D085E000260096D4
:101DB00002A83721FF2732463B4608F0B5FD012532
:101DC000284608F057FD384608F07EFD019600963B
:101DD000AA0702AE292130463B4608F0A5FD367819
:101DE000284608F047FD384608F06EFD012EDDD08C
:101DF000700723D5019A009202AE3721FF273046A3
:101E00003B4608F091FD3678284608F033FD384609
:101E100008F05AFD012E4FD1019A009202AE2921FD
:101E2000FF2730463B4608F07FFD3678012008F05A
:101E300021FD384608F048FD012EDBD0032000903C
:101E400002AD3A210022FF262846334608F06CFDF9
:101E5000687801902F780125284608F00BFD304660
:101E600008F032FD002F27D101984006C00F20E076
:101E7000009402A83721FF2522462B4608F054FD86
:101E80000126304608F0F6FC284608F01DFD0094B7
:101E900002AF2921384622462B4608F045FD3F78FF
:101EA000304608F0E7FC284608F00EFD012FDFD091
:101EB0002046884948802546284605B0F0BDC046E2
:101EC000F0B58DB006AB07C3002005900090012649
:101ED00072020BAF1021FF2438460492234608F00B
:101EE00023FD3D780296304608F0C4FC204608F0F9
:101EF000EBFC002D50D1069F079E089C049D2846B0
:101F000013F0E8FB002847D0012102914902FF228B
:101F10000390FEF76FF96F4841880129284600D1E8
:101F20000846464325460020002D32D0009009ACDB
:101F30001121FF232046324608F0F6FC20780028C5
:101F400028D108F055FD002824D107960895394678
:101F500001277C0203980691224608F0C8FC5D48E0
:101F600040880590FF2528465B4EB0472846B0477D
:101F7000384608F07FFC2846B047059901290498A7
:101F800000D10846069F3F19079E8619089D6D1EC1
:101F9000C9E7029003980590012008F06BFCFF2030
:101FA00008F092FC059813F063FB02980DB0F0BDA9
:101FB00008050020F0B58FB0099208910690002026
:101FC0000A900090012462020DAF1021FF253846CF
:101FD00007922B4608F0A8FC3E780394204608F0B0
:101FE00049FC284608F070FC002E01D00A9865E0F4
:101FF000089E099D079C204613F06CFB0590002865
:10200000F4D0344841880129204600D1084646438F
:10201000002002900A90069F002D4AD000200090D8
:102020000BAC1821FF232046324608F07DFC2078B7
:10203000002842D108960995FF242046264EB04735
:102040002046B047FE20B0470A9838180121049175
:102050004A02059908F04BFC1E4845882046B047C7
:102060002046B0472046B04707462046B047012DDE
:10207000079C204600D128461F210F40052F1AD16A
:10208000099D6D1E0A9909190A91089E8619012059
:1020900008F0F0FB002008F0EDFBFF2008F014FC36
:1020A000FF28FAD1012008F0E5FBFF2008F00CFC26
:1020B000B1E7029800E004980390059813F0D8FA6D
:1020C000012008F0D7FBFF2008F0FEFB03980FB0BB
:1020D000F0BDC04608050020C9A8000870B5944DA1
:1020E000696800291DD000F089F8002819D406017C
:1020F00068688019C07A002813D004F011F80446EB
:1021000068688019007A03F0C9F86968002809D066
:1021100088194168611A152903D3011D0C6001213A
:10212000817270BD8859201A1528FAD38819046065
:102130000121417270BDC046F8B50E4605461C48E7
:102140000078002801D100F073F82F01184840688A
:102150000024C451C0194460067384724472154E41
:10216000F15D0172284608F005F8F05D0007800E69
:1021700011A10E58022530462946224604F0C0FA25
:10218000304604F0B1FA0A484068C119087A097B60
:10219000009401260029334600D02B4616492246DA
:1021A00003F046F802484068C019C672F8BDC04640
:1021B000BC030020CC00002005000000050000004A
:1021C00006000000060000000700000007000000F5
:1021D00007000000070000000700000007000000E3
:1021E00007000000070000000700000007000000D3
:1021F000070000000700000000003110F8B5054698
:10220000002408274A4E009407F0B2FF84420ADAFD
:102210007068C05DFF2803D00F210840A84204D099
:102220001037641CF0E70098C4432046F8BDC04650
:1022300070B507F09DFF1021FEF745F83C4C60603B
:10224000012020700025082607F092FF854205DA5C
:102250006068FF21815510366D1CF5E770BDC046E2
:1022600080B50101324A52685118CA7A002A05D055
:10227000097B002904D000F02FF880BD002080BD2C
:1022800000F040F880BDC046B0B50401284D686834
:102290000019C17A002909D0007A02F0FFFF6968AD
:1022A0000919097B091A48424841B0BD0020B0BD58
:1022B00080B501011E4A52685118CA7A002A05D019
:1022C000097B002904D000F01DF880BD002080BDEE
:1022D00000F002F880BDC04610B5040103F020FFF5
:1022E00001461348406803199A7A00209872541ED8
:1022F000A2415B68C91A09097D2900D2012010405A
:1023000010BDC046B0B5040103F00AFF01460848FD
:1023100043681D196A7A00206872551EAA411B592C
:10232000C91A09097D2900D201201040B0BDC0465C
:10233000BC030020F0B585B002920E46044607F0BB
:1023400019FF03942401144F385D002200920125E7
:1023500029462B4602F06CFF381904900F4831468D
:10236000FEF7FCFA06460AF0F2FC029944180AF05D
:10237000EEFCA0420BD20127294639400498007890
:1023800002F0FAFF30460AF093FC7D40EFE7039835
:1023900007F0F0FE05B0F0BDCC00002040420F0079
:1023A000FEB5834C207801284FD10126042705F083
:1023B000D2F9864249DA6068C559002D42D0287F9B
:1023C00000283FD0E86801283CDB03F0A9FEA9689B
:1023D000884237D32869401C286169698000085801
:1023E000FEF710FA014628887D229300002202920F
:1023F00005F030FA03F094FEE9684C1EEC60FEF73D
:10240000B2F90146A8692A69920001928058FDF745
:10241000A5FFFEF710FAA860002C654C12D1686980
:1024200001994058FEF7EEF901462888029A029B6E
:1024300005F010FA686913F01BF9A86913F018F990
:10244000029828773F1D761CB1E7FEBD80B505F0E8
:1024500082F90421FDF737FF5549486001200870D3
:1024600080BDC046F0B587B01F46164602910546AE
:102470004F4C2078002801D1FFF7E8FFEFF31080E0
:10248000059072B6A80061680C58002C069506D11C
:102490000D1801202021FDF716FF04462860606911
:1024A00013F0E6F8A06913F0E3F8F80F0197381875
:1024B0004510042104912846FDF705FF0746606199
:1024C000039528460499FDF7FEFEA06100212161D5
:1024D0000494069A2280002F10D000280ED0019A72
:1024E0009219B300029CE31896420CDA1D685C68EE
:1024F0007D5044500833091DB61CF5E70598C00708
:1025000024D162B622E00025049C25613868FEF7DC
:1025100079F901467D20830006982A4605F09AF94C
:1025200003F0FEFD012121770399E160FEF71BF91D
:102530000146A069226992008058FDF70FFFFEF75F
:102540007AF9A0600598C00700D162B607B0F0BD67
:10255000F8B50446164E3078002801D1FFF776FF13
:10256000A7007068C459002C21D0207F00281ED0FD
:102570000025E5602069616980000858FEF742F98E
:10258000014620882A462B4605F064F96069002838
:1025900002D013F06DF86561A069002802D013F035
:1025A00067F8A561204613F063F87068C551F8BD5F
:1025B000D404002080B508F077FD80BDB0B50C468E
:1025C000054608F071FD0749FF2242547321C900F6
:1025D000425A03239A4342522846214608F066FD98
:1025E000B0BDC0462F030000FEB5022104910021BA
:1025F000039102910321C9020191002804D0052012
:10260000000701A903F0D2FC012006B080BD80B50F
:1026100009F044FF80BD80B508F0E2FD80BD0000F8
:10262000F0B58DB0039108900CAEBB20B070442083
:1026300070705A20307009AD00272F7104950997EA
:1026400009F098FD12200790D34A3946904701249B
:10265000D2492046884703220692009701923046CD
:1026600039462B4609F098FD09F086FD2046CB49F6
:102670008847079D28462146C74A90477D2000018C
:10268000059000F053F8089A100A014651400BAE2D
:10269000B1707270307009F06DFD28463D463946C4
:1026A000BD4A90472046BD4FB8470095069A019213
:1026B00030462946049B09F06FFD09F05DFD204678
:1026C000B847079807942146B34A9047059800F009
:1026D0002DF815480899814223D80BAF0398B8709C
:1026E00078703D7009F046FD12242046294602F01C
:1026F00043FE0126304603F079FA0095069A0192CE
:1027000009AB3846294609F047FD09F035FD30464A
:1027100003F06CFA2046079902F02EFE059800F0AF
:1027200005F80DB0F0BDC046EFFF0000F0B589B070
:10273000049007AC0027277006A87921017003F0E8
:10274000EFFC039009F016FD12263046394602F0E0
:1027500013FE0125284603F049FA0097019505ABC1
:102760002046029739462A4609F016FD09F004FD75
:10277000284603F03BFA3046294602F0FDFD049856
:1027800003990818049003F0CBFC01460498814299
:102790003CD2039109F0EEFC122400272046394672
:1027A00002F0EAFD284603F021FA0097019507A8F8
:1027B00008AE39462A46334609F0EEFC09F0DCFC47
:1027C000284603F013FA2046294602F0D5FD30785A
:1027D0007928D8D109F0CEFC12242046394602F0DF
:1027E000CBFD284603F002FA0097019506A805AB39
:1027F00039462A4609F0D0FC09F0BEFC284603F011
:10280000F5F92046294602F0B7FD03990498814264
:1028100000D3029D284609B0F0BD0000F0B5CFB04E
:102820000592049102904C1E4BA803900470104630
:1028300000F0BCF860404AA906910870012421020A
:102840000AA80890FDF7DDFC4EAECE20B070312016
:1028500070705A2030704F48804712200990002530
:102860004D4A294690474D49204688470322009506
:1028700001924B4F30462946089BB847494880474C
:10288000204646498847099F38462146424A904794
:102890007D2000010790444988474CAE0299F170B1
:1028A000080AB070080C7070080E307004213046B1
:1028B00000F07CF830713748804738462946364A60
:1028C00090472046354988470522009501923046B9
:1028D0002946089E3346324FB84732488047204643
:1028E0002E498847099F384621462B4A904707982A
:1028F0002D4988472748804738462946264A904729
:102900002046264FB8470095019403982946224651
:102910003346234EB047234880472046B847099E98
:10292000304621461C4FB8471A4880473046294652
:10293000B8472046194EB0470095049A0192059871
:102940002946089B164FB847164880472046B0478F
:10295000099F38462146104EB0470E4880473846FA
:102960002946B047374620460C4EB04700950194A3
:10297000069829462246089B094DA84709488047E2
:102980002046B04709982146B84707980649884726
:102990004FB0F0BD75C1000879530008ED5B000829
:1029A00099C1000879C100082D27000810B50278E8
:1029B00001238B4203DAC45C62405B1CF9E7D0B2AE
:1029C00010BD0000F8B50446EA4E3078002801D169
:1029D00000F04EF870780125002804D1204600F060
:1029E0002BF9002801D075701DE000260096012704
:1029F000384639463246334602F01AFC38462946F4
:102A000002F0BAFC6425284603F0F0F800F0F6F86E
:102A10003846314602F0B0FC284603F0E7F820467D
:102A200000F00AF905462846F8BDC04610B586B044
:102A300002AC601C0F21FDF7E4FB762020702046DD
:102A4000FDF7F7FB411C204600F01EF900280BD1D2
:102A50006C460021A171A18000910622204600F061
:102A600055F8204606F0C6FA002006B010BD00005A
:102A7000FEB50124A0022146FDF725FCBD494860B2
:102A8000002802D1212012F013FA0025009512200F
:102A90000290174E21462A462B46B0470095062045
:102AA00029462A462346B0470095072029462A464C
:102AB0002346B0470095052029462A462B46B047B5
:102AC00000950427384621462A462B46B04738460B
:102AD000214602F051FC0298214602F04DFC7D2077
:102AE0008101284609F078FAA2480470FEBDC0466C
:102AF0003152000880B5062002F0D0FB80BD80B5C1
:102B0000072002F0CBFB0121484080BDF0B58BB01F
:102B100016460C46074697480078002803D1FFF771
:102B2000A7FF00F006FC072002F0B8FB00250028F4
:102B300060D108970627384602F0B0FB002859D12B
:102B400006940AAC667002202070300AA07009F06A
:102B500011FB122007900025294602F00DFC059676
:102B60000126304603F042F80322009501920297B5
:102B7000039609AB2046294609F01CFB09F0FCFA34
:102B8000304603F033F80798314602F0F5FB38463B
:102B900002F084FB00282DD10698089908180790A8
:102BA00009A841780491857809F0E4FA12200024FC
:102BB0000890214602F0E0FB0120069003F016F891
:102BC000029703962802049945180598854200DB70
:102BD000054600940195204621462246079B09F0B0
:102BE000E9FA09F0C9FA069803F000F808983146A6
:102BF00002F0C2FB28460BB0F0BDC0467CB55D4874
:102C000000264670009608240125204629463246B3
:102C1000334602F00DFB2046314602F0ADFB642640
:102C2000304602F0E3FF2046294602F0A5FB30467D
:102C300002F0DCFF7CBDC046F0B585B0029004AF69
:102C40005A20387009F096FA1225002428462146A9
:102C500002F092FB0126304602F0C8FF0094019674
:102C600003AB38462146324609F096FA09F084FA59
:102C7000304602F0BBFF2846314602F07DFB029849
:102C8000FFF754FD05B0F0BD80B50A460918491E8E
:102C90000A230B70002100F059FB00F007FB80BDF8
:102CA000FEB50546304800242146FFF7B9FC012D4A
:102CB00014D12E4D264630462946FDF72FFE0746F5
:102CC0002B480068804700280AD16F43E01902D1E1
:102CD000432006F099F9761C641EECE7012540E0DC
:102CE0000120C106029104020190870205F0D6FF7F
:102CF000011F4D424D41042827D00199C943C01EF0
:102D0000884224D305F0CAFF05F0C8FF002505F06E
:102D1000C5FFAF4204D01749496848556D1CF6E716
:102D200005F0BCFF002602988519BE4208D2114862
:102D30004068821928462146FFF770FD3619F2E7F0
:102D4000062006F061F90295D0E7062406E015207A
:102D500006F05AF91824204606F056F9204606F0E7
:102D600053F92846FEBDC046FFFF00006466000020
:102D700074040020300400207FB505466C46A61C74
:102D80000E213046FDF73DFA202060706320207050
:102D9000F24930462A4612F011FC2046FDF749FA66
:102DA000411C2046FFF770FF04B070BD70B5A0B0A5
:102DB00005466C46A61C7E213046FDF722FA2020EF
:102DC00060707820207030462946FDF751FA204681
:102DD000FDF72FFA411C2046FFF756FF20B070BDCB
:102DE00070B5A0B005466C46A61C7E213046FDF7A6
:102DF00008FA202060706420207030462946FDF7D4
:102E000037FA2046FDF715FA411C2046FFF73CFF34
:102E100020B070BD70B5A0B005466C46A61C7E21E2
:102E20003046FDF7EEF9202060703F2020703046DC
:102E30002946FDF71DFA2046FDF7FBF9411C204607
:102E4000FFF722FF20B070BDF0B5CBB00C460646B0
:102E500047AD681C0F21FDF7D4F96E202870284675
:102E6000FDF7E7F9411C2846FFF70EFF0021CF438D
:102E7000002841D102940120040207AD28462146D2
:102E8000FDF7BFF9002128460D462246FFF73EFE1A
:102E9000A04231D107AC2046FDF7CBF902463046BF
:102EA0002146FDF787F900F001FA002824D106AF8A
:102EB0000126974B384629463246984703AC25727F
:102EC00004950395082220462946914B98471022E5
:102ED00020462946FDF706FA019038462946324633
:102EE0008B4CA047384629463246A04702980199A4
:102EF000017000F0DBF9074638464BB0F0BDC04624
:102F000010B5A0B06C46204611306F21FDF779F95D
:102F10002020607071202070A01C06A10F22FDF7F8
:102F200049F92046FDF785F9411C2046FFF7ACFE24
:102F300020B010BD636F6E6669726D20666F726D32
:102F40006174000070B5A0B005466C46A61C7E21D9
:102F50003046FDF756F9202060702520207030465D
:102F60002946FDF785F92046FDF763F9411C204607
:102F7000FFF78AFE20B070BD7FB505466C46A61CE3
:102F80000E213046FDF73DF9202060706920207049
:102F9000C44930462A4612F011FB2046FDF749F994
:102FA000411C2046FFF770FE002803D17D20C000A1
:102FB00002F01CFE00F0D4F804B070BD70B5A0B0F3
:102FC00005466C46A61C7E213046FDF71AF92020E6
:102FD00060704020207030462946FDF749F92046B0
:102FE000FDF727F9411C2046FFF74EFE20B070BDCB
:102FF000F0B5A3B001920291074603ACA51C7E2157
:103000002846FDF7FEF8202060706F202070A54E46
:10301000284631463A4612F0D1FAE01C3146019A70
:1030200012F0CCFA3E202071601D0299FDF720F9C4
:103030002046FDF7FEF8411C2046FFF725FE23B091
:10304000F0BDC046F0B58BB0029314460D4601901A
:1030500007AFBE1C0E213046FDF7D3F82020787054
:10306000722038708F493046029E019A12F0A6FAFB
:103070003E2038715E20F870781D8B49324612F080
:103080009DFA3846FDF7D5F8411C3846FFF7FCFDA0
:10309000002818D1F017000E301806120120070280
:1030A0000196012E07DB284621463A46FFF72EFD02
:1030B000E419761EF5E7019847430298C21B28469B
:1030C0002146FFF723FD06AC00250126104B2046C4
:1030D00029463246984703AF3D720495039508226E
:1030E000384629460A4B9847102238462946FDF7AC
:1030F000F9F80290204629463246054FB847204647
:1031000029463246B84700F0D1F802980BB0F0BD1E
:103110000D2B0008F0B585B00D46064601ACA71C86
:103120000E213846FDF76DF8202060707020207069
:103130005C493846324612F041FA3E20E070201DCC
:1031400059492A4612F03AFA2046FDF772F8411C16
:103150002046FFF799FD05B0F0BDC0465478010840
:10316000B0B586B06C46A01C0E21FDF74AF804A845
:103170000025294607F046FA657073202070204626
:10318000FDF757F8411C2046FFF77EFD002801D0CF
:10319000E84306E004A80021062200F0D7F800F07A
:1031A00085F806B0B0BD00007FB505466C46A61C8C
:1031B0000E213046FDF725F8202060706620207033
:1031C000384930462A4612F0F9F92046FDF731F821
:1031D000411C2046FFF758FD04B070BD7FB5054681
:1031E0006C46A61C0E213046FDF70BF820206070BF
:1031F000792020702B4930462A4612F0DFF920460C
:10320000FDF717F8411C2046FFF73EFD04B070BDE6
:10321000F0B587B01D4614460291019003AFBE1C65
:103220000E213046FCF7EDFF2020787077203870B3
:103230001C493046019A12F0C1F93E20F870381D41
:1032400019492A4612F0BAF93846FCF7F2FF411C38
:103250003846FFF719FD002801D000241CE0E817CC
:10326000000E01952818051201200702002600957E
:10327000012D08DB029821463A4600F067F88619CE
:10328000E4196D1EF4E7009847430198C21B0298A9
:10329000214600F05BF8841900F008F8204607B0DA
:1032A000F0BDC0465478010859780108BFB5FFF752
:1032B00021FC0028FBD1FFF722FC0028FBD002A84C
:1032C000002585800295042D0CD802A840190521FF
:1032D0004A1B0021FFF71AFC04460A2002F086FC74
:1032E0006519F0E702A80078212802D102A84078E9
:1032F00003E002A924280ED1487830280BD102A877
:103300008178302907D1C1780D2904D100790A28A4
:1033100001D100200BE001A80021817002AA53789E
:1033200092781202D21802801022FCF7DBFF04B060
:10333000B0BD80B5062001F0B1FF0028FAD107200A
:1033400001F0ACFF0028FAD080BD0000F0B58BB0D2
:1033500016460F4605463A480078002803D1FFF785
:1033600087FBFFF7E6FF072001F098FF0024002805
:1033700063D008950625284601F090FF00285CD10F
:1033800004970AAF7E70069501253D700596300AB8
:10339000B87009AE0024B470348008F0EBFE12203F
:1033A0000790214601F0E8FF284602F01FFC0322A7
:1033B00000940192069802900395384621463346C0
:1033C00008F0F8FE08F0D8FE284602F00FFC079837
:1033D0002F46294601F0D0FF707801282DD1B07812
:1033E00001282AD10625284601F058FF002824D1BB
:1033F000049808990818079008F0BCFE122008905D
:103400000026314601F0B8FF0120069002F0EEFBE5
:10341000009601960295039707983146059D2A4626
:10342000334608F0C7FE08F0A7FE069802F0DEFB60
:103430000898394601F0A0FF2C4620460BB0F0BD9D
:103440003004002006480168890301D4006802E0C6
:103450000121090441600348012101707047C04601
:1034600000000240C802002070B58EB00646DA485F
:10347000807902287FD10C46012528460AF0C6FB38
:10348000C421405801890029FCD105E000200AF040
:10349000A3FB012002F0AAFB0AF096FB0028F5D15D
:1034A00002E00AF0A7FB761C30780028F9D10D2045
:1034B0000AF0A0FB0D9405A82021FCF7A2FE002431
:1034C000049403A8047002A8057001940D980128C3
:1034D00000DA9BE00AF078FB002810D0002528468F
:1034E0000AF07AFB05A9049A88540498085C0A2813
:1034F00035D00498401C04900498202809D001205D
:1035000002F074FB0D98401E0D90DFE700200AF0DA
:1035100063FB012002F06AFB0AF056FB0028F5D19C
:1035200072E0002630460AF057FB03A908700878BD
:103530003E2822D003A8007824281ED003A80078B3
:1035400021281AD003A800780D281DD10026304666
:103550000AF042FB03A9087008780A2814D10AF07F
:1035600033FB002802D1012002F040FB0AF02CFBC3
:103570000028D6D10AE0002455E0012002F036FBF5
:103580000AF022FB002801D002A8067002A80078E9
:10359000C00723D103A8057003A800780A281DD00E
:1035A0000D9801281ADB0198401C01900AF00CFBD1
:1035B000002804D000200AF00FFB03A908700120A6
:1035C00002F014FB0D98401E0D9003A800780A2805
:1035D000E2D10AF0F9FA0028DCD1DDE704980128ED
:1035E00012DD02A80078C00710D005A804990818B9
:1035F000401E00780D2807D105A804990918491E16
:103600000D700499455401E002A8057002A80078E5
:10361000C00708D00498012805DB05A812F0E2FDD8
:10362000FDF731F9044620460EB070BD81B008495F
:103630000A680092401C01D30020C043009A012870
:1036400004DB0A68D203D2171018F8E701B07047FC
:1036500010E000E0F0B58DB003AC25A12622204695
:10366000FCF7A8FD4F4801684F4A0025914202959A
:1036700000D14568E8B20A263146FDF74FF9074602
:1036800030302077280A0190C0B23146FDF746F964
:103690000146303161767743E91B3022114361776F
:1036A00046430198801B1043A076029800F03EF834
:1036B000FDF7C1F8020C0E2A15D8044603AE3046B9
:1036C0001F30154D154F2946B84730462130210A85
:1036D000CAB22946B84730462330E2B22946B84735
:1036E00025200021315403A805F0B0FC0DB0F0BD39
:1036F00047484920456C656374726F6E6963732037
:103700004455454C696E6B207630312E30333A7813
:103710007878787878000000AB7E0108BD55010804
:1037200080B5F8480079FDF71EF880BD10B5032874
:1037300015D8800001A108588746C0464D370008BB
:1037400063370008733700087F370008184801689E
:103750004A1C21D0144A914220D017481FE0002073
:1037600010BD10480168104A002491420AD020463A
:1037700009E00520E3490856FCF7EAFF10BDE148DF
:1037800080790CE04068FDF70BF8084B2246FCF707
:1037900021FFFDF778F810BD064810BD4068FCF722
:1037A000E2FF10BDB8000008ADDEEFBE00005940DA
:1037B0000070FF1F0100704B0200F00080B5D1487F
:1037C000012141720021817281717D22D200C2608B
:1037D000017409F0C1FA80BDB4040020B0B50446FC
:1037E0000EA104220AF066FB0125002814D00D4921
:1037F000072220460AF05EFB00280DD00AA106220F
:1038000020460AF057FB002806D009A108222046CE
:103810000AF050FB454245412846B0BD73656C280F
:1038200000000000997E010872657365742800002D
:1038300067657461646428290000000080B503494D
:1038400007220AF037FB4142484180BD997E0108BA
:1038500080B5034909220AF02DFB4142484180BD51
:10386000A17E0108F8B50025002822D10C46FA48AF
:103870000126867205F08CF8642002F0B7F9002C5E
:1038800014D00D4F012C05D0032C12D17F1C102514
:10389000022400E02546204603F052F803F048F8E1
:1038A0000020294603F014F80448076003F056F896
:1038B00035462846F8BDC04601000100187000409A
:1038C000FEB5E54D6969AA790020032A6ED1002969
:1038D0006CD0002630460AF001F801907F20C10527
:1038E00068694068FCF726FF002801D1022000E04B
:1038F000012002900198864220DA002420462146C9
:103900000AF0E6F9074668690068FCF77BFF029950
:1039100001F014FCFCF727FF014668694068FCF7DA
:1039200009FF002800D16C7C6C74687C002803D0EF
:10393000012039460AF032FA761CDBE700260AF04D
:103940003DF900900098864220DA012000242146AB
:103950000AF0BEF9074668690068FCF753FF029950
:1039600001F0ECFBFCF7FFFE014668694068FCF7DC
:10397000E1FE002800D16C7C6C74687C002803D0C8
:10398000002039460AF00AFA761CDBE7687C00283A
:1039900004D1042000210A4600F0BCF80198C0B20E
:1039A00000990906090C0818FCF7D2FEFEBDC046B6
:1039B00080B5012814D0002826D10AF013F9002878
:1039C000FBD10AF0CBF90028FBD10AF0FDF8002862
:1039D000FBD1022002F00AF90C480D490160FEE714
:1039E0000C48017A00290FD00178491C0170C8B237
:1039F000022809D108A005F029FB642002F0F6F89E
:103A000004F0C6FF01F00EFB80BDC0460CED00E0E7
:103A10000400FA05B404002045726173696E672ED4
:103A20002E2E506C65617365207761697420666F16
:103A3000722035207365636F6E6473207468656EE1
:103A400020706F776572206379636C652074686598
:103A500020626F6172642100F8B50C4605467E4F06
:103A600000263E72304605F0A1F8A64209DAA857B2
:103A70003979884203D0C0B2761C0028F5D10120E4
:103A80003872F8BDF0B585B004461E4FB8790028ED
:103A900001D10120B871002C18D038793C71B87967
:103AA00001281ED101AD0F2628463146FCF7A9FB9F
:103AB0003879431C14A22846314611F063FD28785A
:103AC00000280BD00AF096F86D1CF8E7002038713A
:103AD0003872B97901290AD1B87108E0012002F0E1
:103AE00085F8012C01D1012000E00020387205F09A
:103AF00061F8012200200146034606F055F905B0A1
:103B0000F0BDC046B4040020736574616464282568
:103B100064290D00FEB502920F464F4CA17902298F
:103B200005D10221CA43411F914208D20AE0A3797C
:103B30000321C943421F8A4201D8032B02D0A17935
:103B4000052901D10020FEBD019000216174029879
:103B500001282EDB0091606911F08AFD0426029D88
:103B600028463146FCF7AFFB6061002D03D004CF3F
:103B700004C06D1EF9E7009D0298854219DA60695C
:103B8000871980597F21C905FCF7D4FD0446381FE9
:103B90000068FCF737FE0127002C394600D10221CE
:103BA00001F0CCFA384602F021F80836AD1C2A4C58
:103BB000E2E7019EB01E022839D201200AF026F861
:103BC000C43041680989002903D1006800890028B0
:103BD00002D00A2002F00AF80125284609F0E2FF87
:103BE000284609F0D3FFA6711C486421FFF73CFC6E
:103BF00027461B4C2846A0471A480021FFF734FCF3
:103C00002846A0470520A0473C46284609F0CAFFA1
:103C1000284609F0BBFF032E19D10024204609F0E5
:103C2000C1FF20463C4609F0B1FF7D740FE0052E30
:103C30000DD1012025460024214609F063FE2846C7
:103C400018300221032223462C4607F0AEFBA67152
:103C50007F20C005FEBDC046B4040020A17E01083F
:103C6000ED5B0008A67B010880B508F0AFFE0448B4
:103C7000406880BD80B508F0A9FE0148006880BD9D
:103C800078030020F8B50025012801D0044600E0A3
:103C9000EC43D04F787806281ED80121814032228B
:103CA00011421AD10907890F22D0387B002810D081
:103CB000C848214607F0F4FFF8BD0026388986423F
:103CC00006D2204631462A4600F0C4FC761CF5E7B1
:103CD0006D1C78898542F0D3F8BD002C00D0FF24FC
:103CE00078893989414338692246FCF783FAF8BD5F
:103CF0000628F1D120460CF083F9F8BDF0B587B065
:103D00001746B44E00253576022806D1022F04D07E
:103D1000232011F0CDF807B0F0BD06900D9C002CCB
:103D200005D00698012808D1012F08D0F0E704201B
:103D3000069A8243022AEBD103E0042801D1012C28
:103D4000E6D1049302910C98039070690594A24CFB
:103D5000A0473069A047F069A047059C002C08D017
:103D60000698062821D003281FD0002813D175708B
:103D7000D1E7049840000121FCF7A5FA3061002842
:103D800000D1D3E002200121FCF79DFA70610028E8
:103D9000069D31D1CAE00498039948430121FCF7FC
:103DA00092FA3061002800D1C0E0002F12D0042127
:103DB0003846FCF788FA04468648C461002C00D1D6
:103DC000B4E0029EBD4205DA01CEFCF734FD01C429
:103DD0006D1CF7E7069D062D7E4E059C0CD8012034
:103DE000A840362108423CD07C480121FCF76BFA00
:103DF0007061002800D199E07570E8B2401E052876
:103E0000039B88D8810001A252589746253E00089E
:103E1000313F0008253E0008253E0008253E0008E9
:103E20008B3E000801227273F380049AB280738182
:103E30003281042800D96EE701A040588746C04669
:103E4000573E0008553E0008133F0008C13F0008D8
:103E5000CF3F00085FE702980068FCF7D3FC3070A2
:103E600059E7032D3FD0062DC6D104980399484346
:103E7000C117490F4018C0100121FCF724FA7061E6
:103E8000002853D006207070039B029F38681D469F
:103E9000FCF7B8FC3446064624202654F868FCF7A4
:103EA000B1FC2521069160540599617365810498E0
:103EB00020814D43E58048430D46A0807868FCF79B
:103EC000A1FCA070B868FCF79DFC2746E070E9B241
:103ED00001295CD0012E5AD1786911F0C9FBF8692B
:103EE00011F0C6FB14E7049F3846039D6843032185
:103EF0000691484301242146FCF7E5F9706100284A
:103F000014D07473F580B78006987070758137810E
:103F10002B46F069017B2422B154426832848068C8
:103F20007084002900D0F6E67384F4E62120F0E6E0
:103F300073813546049A32810126002C304600D028
:103F4000204668736142614129734343EB804243D9
:103F5000AA80029F3868FCF755FC0001214C205CC8
:103F6000A8707868FCF74EFC00012056E870002429
:103F7000009431462246234601F05AF90220285681
:103F8000009431462246234601F052F9C3E600244C
:103F900000940126124D314622462346A8470220AE
:103FA00038560094314622462346A847069838568C
:103FB0000094314622462346A8470CF0D9F8AAE6D9
:103FC000F06900682421705405F028FDA3E605F08F
:103FD000D1FDA0E6D81600207156010801040000AA
:103FE00031520008CC000020F0B58BB0059302924E
:103FF000089105214143A0390191119C109804902A
:1040000001281BD1012C19D10024052C4CD0029879
:1040100027180198201825490E5C0025082D0BD083
:104020003046E840C00705D005984219089839463F
:1040300000F010FB6D1CF1E7641CE6E70021052988
:1040400032D001980E180498009148430299401804
:10405000039000210498814223DA039840180990C4
:104060000020059B0A930691082818D00127079085
:1040700087400025A5420BDA0C48805D074205D039
:104080000A9842190898099900F0E4FA6D1CF1E7C2
:104090000A9800190A900798401C0699E4E7491C01
:1040A000D8E70099491CCAE70BB0F0BDF7750108C5
:1040B000F0B58BB0099207910190012B79DB1C467A
:1040C0001D4609982218019F3846079E31463A4BF3
:1040D00098470998021B38463146374B9847A11933
:1040E0003846099A344B9847334B311B3846099A66
:1040F000984701231E1BDA43501C0A9062431D4659
:10410000581EA04255DA0595079FF9180391F0173C
:10411000C0432418069609982618019D284608933E
:1041200004923246244B98470A983918029128463F
:104130003246214B9847099F3E1B28460399324639
:104140001D4B98472846029932461B4B98470898C2
:104150003E18079FE119039128463246164B9847AF
:1041600002943F1B284639463246134EB0470A9800
:1041700009990C18284603992246B0472846394623
:104180002246B047049A069B911C002B084600DA91
:104190001046059DAD1CEA18002B01DA164600E01A
:1041A0005618029C089B5B1C0A9A521E0A920246F1
:1041B000A6E70BB0F0BDC04655460008F0B587B085
:1041C0001E4614460D46069000F044FA0296771BF0
:1041D000F817394641400E1A0C980190011BCA1776
:1041E0000B4653409B1A0022D2430120002F05901A
:1041F000049000DA049277005B00002900DA05924F
:104200009F42039319DD019778101F1A0298A84264
:104210002CD0002F01DB05982418039E04982D183C
:1042200006982946224600F015FAB819002F01DA3F
:104230000746EBE70199471AE8E758103E463F1A50
:104240000198A04212D0002F01DB04982D18059888
:10425000241806982946224600F0FCF9B819002FC8
:1042600001DA0746ECE70399471AE9E707B0F0BD22
:10427000FEB5002B2CD406460898002828D41446F6
:104280005A18029200190190471E00910D4602989B
:1042900085420BDA30462946224600F0DBF93046EB
:1042A00029463A4600F0D6F96D1CF0E70298471E01
:1042B000009D019884420BDA30462946224600F0E0
:1042C000C9F930463946224600F0C4F9641CF0E7CB
:1042D000FEBDF0B587B0059107460C980690002802
:1042E0002DD00D980490002829D01C461646062192
:1042F00006984143039109210498414302911546D0
:10430000387800281BD020280BD3069900910499F7
:10431000019105992A462346FFF766FE03982D185A
:104320000BE00A28314600D029460D28354600D03A
:104330000D460A2801D1029824187F1CE0E707B037
:10434000F0BD0000F0B587B00493039206910521FB
:1043500001914843A03802900021052919D0049802
:104360000C180298059140180B490F5C039D019EA3
:10437000002E0BD0761E3846F040C00704D00698B9
:104380002946224600F066F96D1CF1E70599491CA3
:10439000E3E707B0F0BDC0461C740108F8B51C4641
:1043A00015460E4607463878002807D031462A467B
:1043B0002346FFF7C7FFAD1D7F1CF4E7F8BDFEB530
:1043C00014460D4602905F1808988618B44208DA21
:1043D00000940298294622463B46FFF7EFFE641CF4
:1043E000F4E7FEBDE0B5DC48017B002900D08CBDC0
:1043F0004178491E0529FAD87944097949008F4442
:1044000002060E111417D44804F08EF88CBD0389EF
:104410004189009100210A4607F090FC8CBD05F00F
:10442000EDFC8CBD05F0E6FA8CBD05F093FB8CBD70
:104430000BF004FE8CBDC046F0B58FB002920D911A
:104440000C90149D16994D43159A0B931F46574394
:1044500017980890002806950E970A91099200D1A6
:104460009AE0384668430421FBF72DFF07900028A7
:1044700000D1E6E0781E0024A54200DCC1E0291B43
:1044800079430591E1430491691879430391611CD3
:1044900000910026019007460E98B04276DD0898FC
:1044A000401E04286FD8C0467844007940008744F5
:1044B00002172A40510020460A99FCF74FFA054698
:1044C0000B98454330460999FCF748FA28188000B4
:1044D0000C990818711C069A5143049A8D184AE0E9
:1044E00020460A99FCF73AFA05460B9845433046B0
:1044F0000999FCF733FA281880000C990818F14341
:10450000059A551837E020460A99FCF727FA054620
:104510000B98454330460999FCF720FA281880008B
:104520000C990818F1430E9A5118069A51430D1927
:1045300021E020460A99FCF711FA05460B984543FD
:1045400030460999FCF70AFA281880000C990818D7
:104550003D4610E020460A99FCF700FA05460B9804
:10456000454330460999FCF7F9F9281880000C9961
:104570000818039975180068FCF75DF9FCF7F3F863
:10458000A900079A50507F1E761C85E70E9F019860
:10459000C019009C069D6FE7012041405040084330
:1045A00041424141089100210C46A94249DA029852
:1045B00007910E180025BD421FDA0898002803D085
:1045C000611C20460C460CE007980A99FCF7C6F9D6
:1045D00007460B98474328460999FCF7BFF9381856
:1045E0000E9F80000C990858FCF725F90D99491980
:1045F000324600F02FF86D1CDDE70799491C069D37
:10460000D3E700210E460698864217DA029834183E
:104610000C91880007990D1800270E98874209DA37
:1046200001CDFCF708F90D99C919224600F012F8DE
:104630007F1CF2E70C99C919761CE4E7079811F082
:1046400017F80FB0F0BD0178401C0029FBD170476E
:1046500070470000F0B587B00025012801D006465C
:1046600000E0EE43002975D43B4C2089884271D983
:10467000002A6FD4638993426CDD237B002B18D012
:104680006078022866D1300CF82303403004400FD4
:104690001818636918707009E02303403006C00ED3
:1046A00018186369587001230093204607F046FBF1
:1046B00050E06378062B0BD042435018032B0BD1EC
:1046C000F3B2310CC9B2320AD2B205F055FC41E066
:1046D00030460BF075FD3DE00690300AC0B2049004
:1046E000FCF741F81D49FBF792FE7721CF053946CB
:1046F000FBF78DFEFCF786F80290F0B20590FCF710
:1047000032F81749FBF783FE03973946FBF77FFE24
:10471000FCF778F80746300CC0B200280BD0FCF745
:1047200022F80E49FBF773FE0399FBF770FEFCF7C6
:1047300069F8450120350599002900D0791C049AB3
:10474000002A02D002988000021D0A432A432069F1
:104750000699425407B0F0BDD81600200000E04092
:10476000000040407047F0B585B01E4604910B999B
:10477000C91800910A99CC1D07218C430192A118F8
:10478000029100998E42019D18DA02998D4213DA46
:104790000390077800242919082C09D078B2002842
:1047A00003D504983246FFF755FF641C7F00F2E7FB
:1047B0000398401C0D46E8E7761CE2E705B0F0BD23
:1047C00080B509480078002806D007F0B7F81E48E1
:1047D00001210160416080BD002000F019F8012036
:1047E00000F016F880BDC0460C04002080B5022001
:1047F00000F00EF8032000F00BF880BD10B5042483
:10480000102C04D0204600F003F8641CF8E710BD1B
:1048100010B504460120A04080B20B490A6802424C
:1048200002D14A6802420DD00860486000F060FC86
:10483000A04201D104F014FC2046FDF74FFC2046B5
:1048400010F0D4FC10BDC0460C180240FEE780B545
:10485000002200F001F880BDB0B503461C4C607A20
:10486000002801D00120B0BD657A00206055657A2E
:10487000AD0065196B60637AE3181A72627A531C93
:104880006372C8702F238B703A234B7030320A70DA
:10489000B0BDC04680B5002100F002F880BD000028
:1048A00010B501460A4A537A0120002B0FD009782F
:1048B0003039C9B28B00D3185C68002C07D01B1D9F
:1048C0000020186051180872517A491E517210BDAB
:1048D000640B002070B5044601F022FC0619104D4F
:1048E0002868C00305D501F01BFCB042F8D30320B3
:1048F00070BD29680B480840286003D00A49486009
:10490000012070BD01F00CFC04192868400304D597
:1049100001F006FCA042F8D3E9E7002070BDC046D4
:1049200010200240FAC300009018002070B5014624
:104930000025E843012916DBE94E32788A4212D37A
:104940004C1E7078012806D134206043F1680818A5
:104950000DF024FC05E07078022805D12046FEF712
:104960000BFA002800D070BD0120A040716881437F
:104970007160284670BDC04680B5F1494A78012A69
:1049800002D10DF064FD80BD4978022902D1FEF705
:104990000DFA80BD0020C04380BDC046F8B50020A0
:1049A000C543E74F3878002829D07878012815D1F9
:1049B0003C46083400263046214632460EF032F995
:1049C000054600281BD13025F86839788E420DD273
:1049D000405910F04DFE3435761CF5E77878022802
:1049E0000DD10020FEF7C8FA054608E010F040FEA1
:1049F000002520462946FFF753FF7D603D7028467D
:104A0000F8BDC04680B5EF494A78012A02D10EF0C0
:104A1000DAFB80BD4978022902D1FEF7E1F980BDB9
:104A20000020C04380BDC04610B5C6B00021CC43B5
:104A3000F2494A78012A0AD169460EF055FB00284E
:104A40000DD16846007AC00608D5102407E04978E1
:104A5000022904D1FEF7DEF9044600E020242046B6
:104A600046B010BDF0B5C7B00C460546F24E7078A2
:104A700001281ED12320C10001AF3846FBF7C1FB3E
:104A8000FF212846FBF7BDFB1036304639460EF0B5
:104A900003FB002815D101A9887D002811D016310B
:104AA000012002022846FBF785FB039820700020B6
:104AB00009E07078022804D128462146FEF7C4F99F
:104AC00001E00020C04347B0F0BDC046B0B5FFB024
:104AD00083B0EC4C607008016449085C644908705C
:104AE0007D20C000824201DB6248026060780128BC
:104AF0000ED1FDF721F90546002811D108345E4892
:104B00002146FFF7A4FE00280ED00020C54307E091
:104B10006078022803D1FEF7F3F9054600E000258E
:104B200028467FB003B0B0BDFDF7ECF8054600287D
:104B3000F6D10120420200925048022102AB0DF052
:104B400033FD05464C48FFF7A5FEE9E7B0B5002167
:104B5000CC43CC4D697801290DD1012100F090F8AA
:104B600001280EDB34214143EA68891828390C6892
:104B7000FFF7DCFE05E06978022902D1FEF7E2F9D1
:104B800004462046B0BDC046FEB51C460723DD43A3
:104B9000BC4F3B78002B01D0681CFEBD002C1FD001
:104BA000787008013149085C314908707D20C000E7
:104BB000824201DB2F4802607878012812D1FDF78C
:104BC000BBF8002803D0FDF7B7F8002819D1394603
:104BD00008312948FFF73BFE00280ED0E81DFEBD36
:104BE0002846FEBD787802280DD12046FEF7C4F98C
:104BF000002806D100207860FEBDFDF783F800286C
:104C000001D0A81CFEBD394608311C48002632469A
:104C10000EF008F8002801D0E81CFEBD01963421F2
:104C200002912046FBF74FFBF860002819D006469A
:104C30003C700095EC1D39463027641C087884428E
:104C400011D23D46343501214802FBF73CFB8D492A
:104C5000F051CE68F05900282F46EED10098401D43
:104C6000FEBD281DFEBD01984860FEBDCC000020A1
:104C7000CC190020B0020020906B010890060020A3
:104C800070B50A46014600207E4E044633789C42A9
:104C900006D27368E340DB0702D03430641CF5E7CA
:104CA0000023DD437378012B07D133789C4215D262
:104CB000F36818180DF0E0FF08E0707802280DD1B5
:104CC000307884420AD22046FEF792F9002805D1B6
:104CD0000120A040716801437160651C284670BDC9
:104CE000C403002070B50446664E707801280CD1CC
:104CF000B078002810D0304610300DF064FA002152
:104D0000B170002808D0C84370BD7078022810D157
:104D10002046FEF753F90BE035461035382128467A
:104D2000FBF76FFA284621460EF0B6F8002803D0AC
:104D300070BD0020C04370BD0120B070002070BD68
:104D4000C40300207CB50024E44301281BDB4D4D47
:104D50002E78864217D3401E6E78012E0DD1891809
:104D600034224243E868801801AD1A462B460EF003
:104D7000D7F8002807D1019C05E06D78022D02D1FB
:104D8000FEF760F9044620467CBDC04610B50246D9
:104D90000020C043012A14DB3A4B1C78944210D304
:104DA000521E5878012806D134205043DA68101872
:104DB0000DF01BFA10BD5878022802D11046FEF7FC
:104DC000A9F910BDC403002080B501460020C043EE
:104DD000012911DB2B4A13788B420DD35378012B19
:104DE00004D10C3210460EF0A1F980BD5278022A8F
:104DF00002D1481EFEF7D8F980BDC046C40300208A
:104E000080B501460020C043012913DB1D4A1378F9
:104E10008B420FD3491E5078012805D134204843D6
:104E2000D1680818806980BD5078022802D10846F0
:104E3000FEF7D4F980BDC046C40300207CB5002431
:104E4000E44301281BDB0F4D2E78864217D3401E0A
:104E50006E78012E0DD1891834224243E8688018FB
:104E600001AD1A462B460EF0FFF9002807D1019C30
:104E700005E06D78022D02D1FEF7CAF904462046FE
:104E80007CBDC046C403002010B53C4C20780028EF
:104E900009D0231D0ECB012001F03AF8002806D1DD
:104EA00060680830606001F003F8002801D000203D
:104EB00010BD606810BDC046BFB50C4600F0BEF81E
:104EC000054600F05FF801F05DF8002800D0BFBD96
:104ED000029502200190002000906105E00A00295F
:104EE00000D0401C03900120C44301A8694600F093
:104EF00089FE002803D0601C002C0446F5D100F088
:104F0000D7FFBFBD80B51D491D4A48608A60CA6091
:104F10000020087000F036F801F034F841424841B2
:104F200080BDC046B0B504462578002D05D0641C70
:104F3000284600F005F80028F6D168426841B0BD67
:104F400010B50E4C217862181072481C2070C0B247
:104F5000082810D1231D0ECB012000F0D9FF0146F7
:104F60000748E060A0600020207060680830606042
:104F70004842484110BD012010BDC046B802002083
:104F800003030303B0B52548074901600021074A20
:104F9000074B084C0A2906D205686D0301D513603A
:104FA0000460491CF6E7B0BDFB8300004090010897
:104FB0004B530000FAC30000B0B58EB004466D46F6
:104FC000281D3421FBF71DF904200090284600F02D
:104FD00073FE1148069901421CD000F0D3FF012056
:104FE000C0030E490860802008601020086020205F
:104FF000086000F079FF0A4806990140069168466A
:1050000000F0B0FE002C05D000F05CFF00F062FF65
:1050100000F04EFF0EB0B0BD0006000110200240AF
:10502000FFF9FFFE80B50020FFF76CFF7D20C00078
:10503000FFF750FC10F0A0FA80BD0000B0B50146AB
:105040000120C206C4020023064D1846402807D09E
:105050008A4201D88D4204D812192D19401CF5E757
:10506000D843B0BD000800081049405C7047C046F6
:1050700070B506460024400716D1F0087E2813D8E4
:105080000D46FFF77FFF00F07DFF00280CD1074899
:1050900031180CCD012000F03BFF054600F008FF61
:1050A000002D01D144424441204670BD0070FF1FD5
:1050B00010B581000A4A1268535830241C40202C35
:1050C0000DD15118C000074A83589BB283508358B2
:1050D00083500868044A024004485040086010BDEC
:1050E000101E0020009800403F0FFF07B080000016
:1050F00007484178FF20FF2908D0064A1278012A84
:1051000004D108018849095C0F2008407047C04657
:10511000880000201805002080B5022801D1086809
:1051200080BD0846FBF76EFB002801D4812800D320
:1051300000200149081880BD941000207CB50C4661
:105140000546002605F014F8A8421BDD002D19D4F1
:10515000280175490E187068002805D1B068A04272
:1051600002D1F068002809D0284605F003F830780D
:10517000002100910A46234600F05AF8307800F0EA
:105180008DF8064630467CBD7CB50C46054604F0DD
:10519000EFFFA8421BDD002D19D4280162490E182B
:1051A0007068012805D1B068002802D1F068002895
:1051B00009D0284604F0DEFF307800220092012159
:1051C000134600F035F83078214600F0D5F87CBD64
:1051D0000107CA0E032191400F2292028001104064
:1051E0000522120783588B438350024A83588B430E
:1051F000835070470C000050F0B50F22830110401F
:1052000045000324AC4092021A4005231B07D658E0
:10521000A64301242746AF403743D750002901D188
:10522000282100E01821D218511884400C60F0BDEC
:105230001CB5049C009400F009F8FF20019001982F
:10524000012802DB0198401EF8E71CBDF0B585B0CF
:105250001D4614460E46074604920A980390029390
:1052600001910F203946014001228A4000928002BC
:10527000B9010140052000070818694600F096FEB4
:10528000384604F065FF002805D4000126490818B7
:1052900046608560C46005B0F0BDC04682B00106BE
:1052A000090F01910F2101400091019880020749E7
:1052B00040580121009A0B469340034000988140DA
:1052C000591A4842484102B07047C0461000005089
:1052D000FEB502920E46054604F04CFF2C01124822
:1052E000005D0007800E11A10F58022100253846ED
:1052F0002A4601F005FA384601F0F6F90A48005D41
:105300000095012E01D01A4900E01849002E029C98
:1053100000D11849621E53425341022C00D123464A
:105320002A46FFF785FFFEBDCC00002005000000E7
:105330000500000006000000060000000700000055
:105340000700000007000000070000000700000041
:105350000700000007000000070000000700000031
:105360000700000007000000070000000000111007
:10537000000031100000211082B00F23034001AA69
:105380001370C0B2030968460370002901D12821B7
:1053900000E01821007880020818117801228A4064
:1053A00005210907425002B070470000F0B587B0F0
:1053B000044600250695C06D012801D1022047E072
:1053C0000127E7652046FCF709F92668B268216ED7
:1053D000D2072FD103970290812252009143891C5A
:1053E0002166F168F268434B1340F360424808407D
:1053F00001903146B4310491404A28462F46082F87
:1054000028D0B1681140134618320A43B260B1681F
:10541000002907D50699491C06910699C90A5729FA
:10542000F5D30CE0049909687F220A4010187F1C0C
:105430001A46E4E710221143E565216608E00020E2
:10544000E065206E1021014302208143216603980C
:1054500007B0F0BD0346B168174611400120039024
:105460000143B160DB083169890F14D10F21890430
:10547000E54A12680A40900C07280CD3C11E01228D
:105480008A4005920599490805910599002902D09D
:105490000599491EF8E7049801687F229143194352
:1054A0000160B168394002273943B16000F038FE2D
:1054B000064620688168C90712D000F031FE801BC3
:1054C0000328F6D320688068C007F2D0206E102130
:1054D00001432166606E0399084360660846B7E79A
:1054E000C168019A1143C160206E01210143B94393
:1054F0000298A1E7FC7FFFFF03800000E8FFFF7F29
:10550000F0B587B0044600260696C06D012801D18B
:105510000225C2E00125E56520688268520711D4A2
:1055200023694A68022A12D104221343874A93420C
:105530001CD1854AD3430A68D1431943836A0B407F
:10554000836214E0206E202101432166A4E00592CD
:10555000042213437C4D7D4FBB4218D10B681A4681
:105560002F462A40856A1543856289E00A6800252E
:10557000002A00D490E0A4480168774B9A4258D0A2
:10558000744B9A4200D087E00122920553E01F231A
:10559000059F3B400F27019704939F40A36E0297FE
:1055A000BB4303930B682B424DD0DF07374652D1E4
:1055B0009F074BD45F074BD41F074BD4DF0617461A
:1055C00049D49A0600D59EE05A0600D59DE01A06F9
:1055D00000D59CE0DA0500D59BE09A0500D59AE05D
:1055E0005A0500D599E01A0500D598E0DA0400D5EF
:1055F00097E09A0400D596E05A0400D595E01A0485
:10560000019F28D4DA0300D591E09A0300D590E0F9
:105610005A0300D58FE01A0300D58EE0DA0200D5D8
:105620008DE09A0200D58CE05A02D2171627174057
:1056300011E0454A521C114003229205036893432E
:105640005918016028E05A00D70E04E0012702E053
:10565000022700E00327049A9740039A1743A7669E
:10566000059A9208656A954209D9029AD243856AD9
:1056700015409A00120F049FBA402A438262324FAB
:105680001A024569954389681140314A0A402A4304
:1056900042610025002B03D4E665284607B0F0BD23
:1056A000E048026803208005114605900140294822
:1056B000834219D1781C1746074015D1D94B1A6877
:1056C000059FBA43114301431960D1480068D1498D
:1056D000FBF724F90C214143481C0690069800284A
:1056E000DAD00698401EF8E71B488342D4D1012047
:1056F00080050240D0D1CB4B1A68059FBA431143B5
:1057000001431960C8E70527A5E70627A3E7072790
:10571000A1E708279FE709279DE70A279BE70B27B3
:1057200099E70C2797E70D2795E70E2793E71027B2
:1057300091E711278FE712278DE713278BE71427AF
:1057400089E7152787E7C046FFFF7F000400008038
:1057500000FFFF7F000200A4000400A870B500282D
:105760000CD00446006E0221014321662046FBF75F
:105770000FFF002804D0054620680EE0012539E01F
:105780002046FBF72BFF0546002801D101202066AB
:10579000206881689D4A0A4082604168164A0A4032
:1057A000426016490160C168154A0A40C26003217F
:1057B000890702698A430261416907229143416175
:1057C000016A104A11400162416A11404162C16A96
:1057D0001140C162816A002686623F20800491499F
:1057E0000A6882430A60204600F01EF96666A666D3
:1057F000E6652666284670BD60F4FFFF9F0B00003B
:1058000000021E8300F000F008270140006E704780
:105810000068006C70470000F0B587B004460020B7
:105820000690002C57D00590206E002805D1204608
:1058300000F0FBF80020E065606601273D07266860
:10584000B068C00011D4B068704901402943B1600C
:105850006F4800686F49FBF761F8400006900698B2
:10586000002802D00698401EF8E7B068284208D108
:10587000206E102101432166606E012105910843CD
:105880006066B06804210140226E10200240511869
:10589000226E22D1049060480240921C2266B268B7
:1058A000D20774D1A26B531E9A411203A568A7694F
:1058B000E369206ABF032F43DB033B4301904703A7
:1058C0001F43E5683D4315430120C1072269002AB3
:1058D00007DA8A4306E0012096E002432266384652
:1058E00092E042051543626B57002F43A26A012ADA
:1058F0000CD1019A002A07D0226E2023134323667D
:10590000626E0243626601E002041743E36A002B01
:105910000390029106D0072292011340226B1A4392
:105920003A4300E03A46F3683C4D1D401543F560AC
:1059300003229307606807461F40626D616C01296E
:105940000ED1A16C0091E56C216D019100990D4380
:1059500001990D433D43154303990D432F4600E044
:10596000174331692E4A0A403A433261029988420C
:105970000DD098420BD003998907884207D00F2198
:1059800089040840274A13688B431818106070690F
:1059900007229043E76B3843706170697021884338
:1059A000216C090101437161256901235805854274
:1059B00006D0002D10D11849F331B06A08430AE02F
:1059C000B06A606A80001C301C210140124DF33522
:1059D0008D40A06E2843B06270691040B84209D172
:1059E00000206066206E0121014302208143216670
:1059F000059809E0206E0499084302218843206637
:105A0000606E18436066184607B0F0BDE8FFFF6F90
:105A1000B8000020400D0300FDFEFFFF0102DEFF85
:105A200002FCFF1F0827014070477047F8B50D467C
:105A300004464069082801D1082704E02068C068AE
:105A4000C00735D1042700F06BFB064621680868C3
:105A5000384210D1681CF9D000F062FB801BA842CC
:105A600001D8002DF2D10020E065206E0421014311
:105A700021660320F8BD01204202236E13432366F2
:105A8000CA681205920F22D1226A002A1FD10A6821
:105A900012071CD58A68520710D4224660324B6820
:105AA0000C25AB434B60FF2502351368AB430CE07C
:105AB000206E2021014321660120F8BD226E2023A3
:105AC0001343236622466432636E03431360A26964
:105AD0000020002A00D0F8BD0C220A60F8BD0000AA
