:020000040800F2
:10000000D85E00200901000855B100089188000859
:1000100000000000000000000000000000000000E0
:10002000000000000000000000000000F1C7000810
:100030000000000000000000D1B40008ADD90008A5
:100040001B0100081B01000879B800081B0100080B
:100050001B01000839500008655000087550000861
:10006000A1EB00081B0100081B010008E138000893
:100070001B0100081B0100081B0100081B010008F0
:100080001B010008000000000000000059DA000811
:100090000000000075DA00088DDA00081B01000876
:1000A000F18B00081B0100081B010008C9E50008CE
:1000B0000DE7000800000000ADDEEFBE4A000000C2
:1000C0000348854601F050F900480047D166010811
:1000D000D85E0020B0B5012293040A4A54681C433C
:1000E0005460EFF3108372B60024402C03D220C971
:1000F00020C0641CF9E71068C003FCD483F31088A7
:10010000B0BDC04610200240044880470448004764
:10011000FEE7FEE7FEE7FEE7FEE7FEE749DA000856
:10012000C1000008F0B51FB40646002082B00546A5
:100130004024019100901BE0019922460F46304671
:1001400000F018FD049A059B801A994110D31046BF
:100150001946224600F0FEFC361A8F4101972246CE
:1001600001200021009F00F0F5FC38184D4100905F
:100170002046641E0028DFDC019B00982946324699
:1001800007B0F0BD30B5434351435C18010C130C6C
:100190000D465D432C1980B292B20546554351433A
:1001A0000A0C09044D1962415843010C000440191E
:1001B000514130BD10B5431A934209D283188818B3
:1001C00003E0401E01785B1E1970521EF9D210BD6B
:1001D00003460B439B0703D009E008C9121F08C060
:1001E000042AFAD203E00B780370401C491C521E0B
:1001F000F9D210BDD2B201E00270401C491EFBD200
:1002000070470022F6E710B513460A460446194621
:10021000FFF7F0FF204610BD10B5044605E00B784F
:100220000370401C002B00D0491C521EF7D2204600
:1002300010BD421C0178401C0029FBD1801A704778
:1002400010B5002200E0521C835C8C5CA34201D1FB
:10025000002BF8D1D8B2E1B2401A10BDC9B203E008
:1002600003788B4203D0401C521EF9D20020704705
:1002700003460A780270401C491C002AF9D118462E
:10028000704730B505460020034600E05B1C9342F2
:1002900005D2EC5CC85C201A01D1002CF6D130BD2F
:1002A000F8B50E460546002400E0641C285D00F009
:1002B00080FC0746305D00F07CFC381A02D1295DD5
:1002C0000029F2D1F8BD10B54843044617F0C0F933
:1002D000002805D00021002C02D0641E0155FAE749
:1002E00010BD00000FB400B58DB009900B9010A99F
:1002F00000200091C0430A9000200C900648069010
:10030000064807906A4609A80F9900F05FFC0DB0F7
:1003100008BC04B018470000ED0B00080D0C0008E5
:10032000FFB5087889B01546FF2805D0491C2D284F
:1003300004D00022002407E000240BE00122F9E7AA
:100340000A235C430419491C0878FF28F8D1002AC5
:1003500000D06442002004902A7801462D2A01D062
:100360002B2A0FD16D1C2D2A02D00022049209E005
:100370000122FBE700260A2233466D1CFFF702FF2D
:10038000381871412F78FF2FF4D10C9AA2180692D9
:1003900002460A4304D0FF23069A9133DA4205DA73
:1003A000002109980A4606C00DB0F0BD0024B74AE6
:1003B000B54D2646079200F095FF029006980391EE
:1003C000002801DA474200E0074639050020AF4A1D
:1003D000001C51410191009012E0F80707D022461D
:1003E0002B463046079900F05BFE064607912246F1
:1003F0002B461046194600F053FE04460D467F106A
:10040000002FEAD10698019B0028009A03990298D0
:1004100006DA00F0ADFE3246079B00F0A9FE05E0CB
:1004200000F03EFE3246079B00F03AFE049A002A96
:1004300002D00122D2075140099A03C2B4E7FFB5A6
:1004400091B0002009900025ED432E209E685C6845
:100450001F460190B9696D1C129888470090396A4F
:1004600088470028F6D10098401C0AD00D20C00112
:100470008443002E12DD00982B2809D02D280DD1A1
:1004800003E00020C04315B0F0BD0120800204430A
:10049000B9696D1C12988847761E009003A9600503
:1004A00001D52D2000E02B206A461073491C0CA8B2
:1004B0000F9102900AE0B9696D1C1298884700906C
:1004C0000120400204431398761E0560002E02DDD1
:1004D00000983028EFD001990098884245D18020BB
:1004E000044308E00998401E09900120400204439B
:1004F0001399681C0860B9696D1C761E12988847AC
:1005000000903028EED030E00199884205D12006D5
:1005100003D480200443761E1DE0009817F06CFA87
:10052000002825D0012149020C43009807AA0F9901
:1005300003323038761E914208D208700F98401C62
:100540000F90200607D50998401E03E0200602D42C
:100550000998401C0990A00502D51399681C0860F1
:10056000B9696D1C129888470090002ECCDC59E0C8
:10057000002E57DD0098652801D0452852D1A005EE
:1005800050D5032000028443B9696D1C761E129871
:1005900088470090002E0CDD2B2804D02D2808D190
:1005A000FF2001300443B9696D1C12988847761EFC
:1005B0000090E00501D52D2100E02B21029801706B
:1005C0000298401C0290019025E001204002044363
:1005D0000EA902980131761E88420ED20098029927
:1005E00030380006000E087003D10299019881424C
:1005F0000AD90298401C029006E0E00501D5244883
:1006000001E0234840420990B9696D1C129888475F
:10061000009013980560002E04DD009817F0ECF9A7
:100620000028D2D1F969129888470F99FF200870E5
:10063000029903AA087000200A900B900CA90AA83E
:10064000099BFFF76DFEA00502D40120C0431AE705
:100650002420044209D0E00713D138680B9A0A9984
:10066000031D3B60006806C00BE00B990A9800F080
:10067000DEF90146E00704D13868021D3A600068DF
:1006800001602846FFE60000000014400000F03F33
:10069000F1D8FFFFF7B5009C0F4600262578641CB3
:1006A000002D05D000F078FA0068405DC007F5D154
:1006B0002B2D02D02D2D18D0641E39462046029ACB
:1006C00000F0B6FA002F04D03968A14201D1009998
:1006D00039607105022400290BDA4042002803DD4D
:1006E00016F080FF0460A007FEBD012080020643D3
:1006F000E3E70028F8DA16F075FF04600048FEBD55
:10070000FFFFFF7F10B500F047FB10BDF8B50246B4
:100710004A40D40F42004B0052085B089A4202D272
:100720000246084611464A0023D0C30D4A00DDB2F6
:10073000120EAD1A202D35DA49020126490AF605B6
:100740008A19002C00D0524220214F1B1146B9407B
:100750002A411018C20D9A4221D0002C17D0012D29
:1007600008DCDA05801AD20F8019D207DBB200F05C
:1007700060FBF8BDDA05801A012340001B06C01893
:1007800080185A428018CA0F1043490007E04908F0
:10079000C2071143DA05801A80194008801800F05A
:1007A00040FBF8BD61000122511A001BF7E701224E
:1007B000D2075140AAE70122D2075040A6E70246DD
:1007C00070B54A40D30FDB0740002DD04A002AD035
:1007D000010E140E000212020919400A520A84186E
:1007E000E50104465443000A120A2E045043A4199A
:1007F0004219200CC543AA18120C0125AD03521C46
:10080000521912047F39240400D0521C104301D421
:100810004000491EC2B20C06C0092018401C400806
:10082000802A02D003E0002070BD4008400000296B
:1008300000DA0020184370BD70B502464A40D50F5B
:1008400040004A00ED0740085208002814D0002A52
:1008500012D0C40DD30D41020120C0055202490A35
:10086000520AE41A091812187D34914201D3641C0B
:1008700000E04900002C01DA002070BD0023914205
:1008800001D3891A0343400849000028F7D1002901
:100890000AD0914202D10121C90705E0914201D25B
:1008A000012101E00121C943E005C018401900F011
:1008B000B8FA70BD0122D207002800DB101A002907
:1008C00000DB511A814201D8012070470020704797
:1008D0000122D207002800DB101A002900DB511A80
:1008E000814201D201207047002070470122D207C7
:1008F000002800DB101A002900DB511A814201D3C5
:1009000001207047002070470122D207002800DB39
:10091000101A002900DB511A814201D901207047C9
:10092000002070470122D207002800DB101A00299E
:1009300000DB511A814201D101207047002070472D
:10094000C217C10F504010B54018CA0796230021A6
:1009500000F06FFA10BD10B500229623114600F08A
:1009600068FA10BD0A4670B5C917D30F4A4048400F
:100970000025C11814466C41DA0796232046002C46
:1009800003D0B62300F055FA70BD08460021F9E700
:1009900010B5044696230800214604D0B623002251
:1009A00000F047FA10BD20460021F8E7C20F4100D1
:1009B00040020123400ADB05D207090EC0187F2937
:1009C00001DA00207047962903DC9623591AC840A3
:1009D00001E096398840002AF4D040427047410037
:1009E00040020122400AD205090E80187F2901DA4F
:1009F00000207047962903DC9622511AC8407047A0
:100A0000963988407047C20FD207400040080BD08B
:100A1000C10D0723DB01C91840020905400A114333
:100A2000C208400711437047002001467047CB0FB2
:100A3000DB07490010B5490802460A4307D00A0DF2
:100A400007240903E401090B121B002A01DC002022
:100A500010BDC900440F0C43C100E018D205801836
:100A600000F0DFF910BD4146016049464160514642
:100A700081605946C160714601611430F0C0694619
:100A80000160001D01B5C046C04606BC964601C1C6
:100A90000020704704000D00A06AC046C046616A8D
:100AA0008D462200280000D1012011688846516837
:100AB000894691688A46D1688B4611698E46143200
:100AC000F0CA704770B50446002903D000202022E8
:100AD000012310E0002801D00020C043C046C046DA
:100AE0000DE02546D5408D4205D30D469540641B4B
:100AF0001D46954040191546521E002DF1DC214639
:100B000070BD000070B5002504462E46002911D0A6
:100B1000002C01DA01254442002901DA012649426C
:100B20002046FFF7CFFFB54200D04042002D00D055
:100B3000494270BD002C02DA0121C90702E0002CF5
:100B400000DD03490846C046C046214670BD00008E
:100B5000FFFFFF7F10B5202A04DB0146203A9140B9
:100B6000002010BD914020239C1A0346E340194306
:100B7000904010BD10B5202A04DB0846203AD04032
:100B8000002110BD0B46D340D0402024A21A914032
:100B90000843194610BD000000487047D889010875
:100BA00010B50446FFF7F8FF0068005DC007C00FEE
:100BB00010BD01464139192900D820307047000086
:100BC00002681378511801601846704710B5D1605B
:100BD000044951610449116200211161114600F07C
:100BE000F7FB10BDC10B0008A10B00084268002AEA
:100BF00008D001680B78491C002B03D0521E06C098
:100C0000184670470121C160881E70474268002A5B
:100C10000BD0C3680168002B07D183688B4204D0D6
:100C2000491E521C06C0002070470020C043704778
:100C3000F7B582B0029C00272078641C1546019706
:100C4000302802D0002D15D015E020780127641C33
:100C5000782804D0582802D0002D09D00BE0002DB0
:100C600001D0102D07D1002710252078641C02E048
:100C7000082500E00A250026009610E000990127CB
:100C800069430818020C294680B2714300908E18FF
:100C90003804864201D3012001902078641C294643
:100CA00000F087FB0028E9DA0398002805D0002F20
:100CB00001D0641E00E0029C04600198002806D068
:100CC00016F090FC02210160C81E05B0F0BD00992D
:100CD00030040843F9E700000FB400B589B00A46B4
:100CE0000DA9009100230C99002ACB60234B069399
:100CF000234B079301D0042300E00023214A0292F2
:100D0000214A0892019302466B460020FFF797FBA9
:100D100009B008BC04B01847F0B585B007460020FC
:100D2000C04301901E46002015460C4600910291DA
:100D300004903B466A46314604A8FFF7CDFF04996C
:100D400002466018002D05D0002901D0034600E0BE
:100D500023462B6000290ED0002A02DD0099814233
:100D600009D0001B019000943B466A46314602942C
:100D700004A8FFF7B1FF05B0F0BD0000ED0B0008BF
:100D80000D0C0008FFFFFF7FA10B000810B500232A
:100D90000360FFF7C1FF10BDF7B5009C0E460025AC
:100DA0002778641C002F05D0FFF7F6FE0068C05DB1
:100DB000C007F5D12B2F02D02D2F1ED0641E314637
:100DC0002046029A00F0A0FC002E04D03268A24215
:100DD00001D1009A32606A050224002A18DA002242
:100DE000454200268A413346751B934109DB0022A8
:100DF00040428A41114603B0F0BD01208002054304
:100E0000DDE716F0EFFB046000200121C907F2E7DF
:100E10000029F0DA16F0E6FB04600020C043410828
:100E2000E9E7002904DA401C490001D140084000EC
:100E3000704770B40024050C05D11024000402D1C1
:100E4000002921D01124050E01D100020834050F1C
:100E500001D10001241D850F01D18000A41C0028B0
:100E600001DB4000641C002908D020252E1B0D4604
:100E7000F540A14000D001212943084301061B1B76
:100E8000000ADB1D02D5002070BC7047DB05181876
:100E900080180029F8DA401C4900F5D170BC4008E0
:100EA0004000704770B5002801DC002070BD410093
:100EB00040020126400AF605090E8019CA0701D131
:100EC0004000491E4D10002211463F353346CB40AD
:100ED0009B18D418844201D8001B1A464000491CB4
:100EE0001729F3DD5100814202D20021C94300E0FD
:100EF0000021E8058018FFF794FF70BD10B5410090
:100F00000DD04100090E962909DC7E290ADC07DB99
:100F1000410205D0C00F7F21C007C905401810BD90
:100F2000002010BD9622541A20210A1B0146914030
:100F3000E040FFF776FFA04010BD0000F0B5074687
:100F40000846584087B0C00F049048000E4659002C
:100F500040084908BC1A884105D2384631461E4629
:100F600017460B4602465800400810434CD0300D3F
:100F7000039040055900400D490D0590401A02901C
:100F8000402872DA18030121000B0905084301907B
:100F900004980092002805D001995242002088410F
:100FA00000920190029840210A1A01990098FFF7D7
:100FB000D1FD05460C466B4607CB00F0E7F9C0199A
:100FC0007141039A0E0D0023D71756401A467A40F6
:100FD000164344D0049A002A2DD0029A012A039A7B
:100FE00015DC1205C01A914101263605001C71411D
:100FF000D20F059ED2070093019202962A462346FD
:1010000000F006FC07B0F0BD38463146FAE7160599
:10101000224A0F46B218C01AB74101210905001C27
:101020004F4100187F41114618187941E20F1043D3
:101030006D19644113E0E2076D0815436408C207A7
:101040001443039A01261205C01A91413605001C6B
:101050007141CE07400830434908C01851412A4623
:10106000234600F0C8FBCDE7FFE7049801224000CB
:10107000C117121A00238B4104983146C417381A3D
:10108000A141EEE730B40124E407634030BC55E7EA
:1010900030B40124E407614030BC4FE70000E0FFBA
:1010A000F0B51FB488B00B990998002448400999FD
:1010B000C00F490049080991C0070B9900904900E9
:1010C00049080B9109990898A64608431CD00B992A
:1010D0000A98084318D0099801244000420D48009E
:1010E000410D099824050003000B204309900B983B
:1010F0000003000B20430B9050181C49401800229D
:1011000001901446104605E0002001460DB0F0BDE8
:10111000032801DA034600E003239C46C11A0AAE05
:101120000AE05F0008ADED5B4F00F75B7D430027F1
:10113000AA187C41491C5B1E6145F2DD410004ABED
:101140005A522104120C0A43240C401C0828DFDBED
:10115000019802900099704601910090059B049AB5
:101160000799069800F054FBD0E700000DFCFFFF44
:10117000F0B50C465C4085B0E40FE40703944C00E6
:101180000026640859009446490802460296224304
:1011900021D062460A431ED06200570D4A000E035A
:1011A0002303550D012402462C492405781B1B0BF3
:1011B000360B401823432643614600901C46501AC4
:1011C000B44103D30098401C009002E092180098AC
:1011D0005B41002803DA0020014605B0F0BD002085
:1011E000012109050746864611E064461D46141B89
:1011F000B54106D36546521BB341744607430C43C1
:10120000A646CD0740084908284392185B41054689
:101210000D43EAD11046184313D06046194650409A
:101220007140084306D06046101AB34106D201222D
:10123000002306E000220123DB0702E00122D24363
:101240005310009874460105381C6141029C039DAF
:101250000019694100F0CFFABFE70000FD0300006C
:10126000F0B55F0085B07F0DCD0F03974E000127CD
:101270003F051B0309031B0BED07090B3B43760DD1
:10128000394397189C46029700245B41039F0195C0
:101290007F1E00949E46039713E0029F7346C01B77
:1012A000994106D50127FF077D400F4600214042A6
:1012B000B9416346171A8B41EFD3761E0018039F7E
:1012C0004941BE42F5DA02460A4307D000221346DE
:1012D0000296019500F09CFA05B0F0BD20460199F8
:1012E000FAE700000EB5054A02920022009213466A
:1012F000019200F08DFA03B000BD0000330400003D
:101300004A0009030123090B1B0519430A4B10B5B9
:10131000520D9A4202DA0020014610BD064B3433CA
:101320009A4203DC9A1AFFF725FC10BD034BD21832
:10133000FFF710FC10BD0000FF030000CDFBFFFF16
:1013400010B5002904DB0124E40740428C4121460A
:10135000002B04DB1C460123DB075242A3419942C8
:1013600000D1904210BD0000064C0125064E05E05C
:10137000E36807CC2B430C3C98471034B442F7D3B6
:10138000FEF7A2FE30A4010860A4010810B5202ACF
:1013900006DBCB170846203A1041C1170B4306E085
:1013A0000B461341D0402024A21A9140084319460D
:1013B00010BD3A2800D23038202302469A43412AF1
:1013C00001D310463738884201D30020C04370470C
:1013D000F3B58DB000200A9001200B90002608463E
:1013E0000C300C4609906269012109989047051E4E
:1013F0002ED0252D2DD0216A8847002818D062696B
:10140000012109989047216A88470028F7D1411E99
:1014100062690998904700E0761CA1690D98884799
:10142000216A88470028F7D1E1690D988847DAE7F3
:10143000A1690D9888470746A84201D1761CD2E7DA
:10144000E1690D9888477F1C02D10A98002877D05F
:1014500049E1002762693D463946099890472A28A4
:101460000CD16269012109989047012506E00A2103
:101470004F433F18303FEBD41020054362690121F0
:1014800009989047014630390A2903D29B498F4277
:10149000DEDCECE7E90600D4994F6C280AD04C2832
:1014A00010D0682824D06A282ED074280CD07A282E
:1014B0000AD00DE062690121099890476C2823D079
:1014C00004211CE02020054362690121099890470E
:1014D000A760656065284FD026DC582839D01ADC13
:1014E000452849D012DC252834D04128B0D143E02A
:1014F0006269012109989047682802D008210D43AC
:10150000E6E70120C002DEE70220DCE7462833D010
:1015100047282CD130E05B2870D061282CD063287C
:101520006CD0642823D161E06F284FD009DC662895
:1015300022D0672820D0692826D06E2817D12EE027
:10154000CDE070284DD073286FD075284ED0782804
:101550000DD154E0A1690D9888470546252800D192
:101560006CE7E1690D9888476D1C00D16DE7BAE022
:101570000A224CE00A2252E0012023466A46C04378
:101580000D99FEF75CFFA3E0284640210843606008
:10159000A807234601D5002239E000223FE0E807F2
:1015A00000D020E72068011D21600068290501D5D1
:1015B000067018E7290701D5068014E7A90703D5A7
:1015C000F117066041600EE706600CE728464021EF
:1015D00008436060A807234601D5082217E00822C7
:1015E0001DE0484928460840606016E02846402132
:1015F00008436060A8072346BCD5B9E715E0284634
:10160000402108436060A80707D523461022012027
:10161000C0430D99C046C0465AE02346102201201F
:10162000C0430D99C046C04652E000210C910B46C4
:101630000091632802D05B2807D043E0E80601D47C
:101640000120A060012000903CE06269012109981E
:1016500090475E2805D101200C90014662690998E7
:1016600090472169002906D10B4601AA8F00491C29
:10167000D3510829FADB002835D0216900290ED181
:10168000C117C90E09184A11930001AA9A184909ED
:101690004901411A012013688840034313606269BD
:1016A0000121099890475D28E5D10C98002808D0C1
:1016B000002001AB81005A58401CD2435A500828E0
:1016C000F8DB01AB01202246C0430D99C046C0465D
:1016D00000280ADA401C06D10B98002803D000200D
:1016E000C0430FB0F0BD0A98FBE7E90702D10A99A1
:1016F000491C0A91361800200B9074E6CCCCCC0C17
:10170000FFFFFF7FF1F7FFFFF7B584B0049C0021D6
:101710002078641C154601910291302802D0002DDA
:1017200017D017E0012001902078641C782804D09D
:10173000582802D0002D0AD00CE0002D01D0102D29
:1017400008D10020019010252078641C02E00825B3
:1017500000E00A250027E9173E46009703911CE0A8
:10176000012101910099334669430A1800922846E5
:101770003A460399FEF706FD009A130C0022C7189B
:101780005141009A0E4690B200900120000481421F
:1017900001D3012002902078641C2946FFF709FE3E
:1017A0000028DDDA0598002807D00198002801D02C
:1017B000641E00E0049C059804600298002807D08D
:1017C00015F010FF02210160C81E014607B0F0BDF0
:1017D000380C31040143009A38041043F6E7420004
:1017E00005D04200120E52428A4201DB00207047AF
:1017F000C9050818704710B5002B08DA0024401CF2
:10180000614192185B411A4301D14008400010BD6C
:10181000F0B51FB482B005460C0003D0084615F0A1
:101820009FFE02E015F09CFE20300246009021460B
:101830002846FFF78FF9049B059A04460F46184384
:101840001143084314D0184610431BD00098402180
:101850000A1A18460599FFF78DF905460E46009AB3
:1018600005990498FFF776F9084305D0012004E0B4
:101870002046394607B0F0BD0020C11705430E438E
:101880002C43374300990E986305401A7905E40A02
:1018900000220C43FD0A0A3002D500200146E9E788
:1018A0000105101969410C9C0D9D00196941FFF754
:1018B000A2FFDFE770B58C180578401C6B075B0F43
:1018C00001D10378401C2A1106D10278401C03E0A4
:1018D00006780E70401C491C5B1EF9D12B0705D4FD
:1018E0000023521E0DD40B70491CFAE70378401CEC
:1018F000CB1A921C03E01D780D70491C5B1C521E14
:10190000F9D5A142D8D3002070BD000070B50446BF
:1019100000688168002549071BD58168890704D4C0
:101920008168484A0A401032826005F0EFF90646A5
:101930002068806840070CD505F0E8F9801B032873
:10194000F6D3206E102101432166606E01252843E5
:101950006066284670BDC04670B50546006881685F
:1019600082680024D20722D0022211401FD1816850
:1019700005220A40012A12D18168324A0A40911C8C
:1019800081600321016005F0C1F90646286880687E
:10199000C0070CD005F0BAF9801B0328F6D3286ED7
:1019A000102101432966686E0124204368662046A1
:1019B00070BDC046F8B505460024009400688168F3
:1019C000C9071AD181681F4A2F32114208D0286EE8
:1019D000102101432966686E0124204368660CE0EB
:1019E0008168184A11400127394381601648006810
:1019F000000204D4E86901280ED12046F8BD13483E
:101A000000681349FFF75EF8401C0090009800281A
:101A1000F0D00098401EF8E705F078F906462868EF
:101A20000168C907E9D18168C90704D18168054AFD
:101A300011403943816005F069F9801B0328EED31A
:101A4000C5E7C046E8FFFF7F08270140A00000204F
:101A5000400D03001CB50446B1480078002801D1B0
:101A600000F0A2F80C48E040C00713D1204609F06E
:101A700043FD20010949085C022100910321002255
:101A8000134604F03DF90648005700F0E5F8FEF76C
:101A900057FF1CBD00201CBD01FC7D01B4000020CF
:101AA000248C0108411E12292CD8880001A1085855
:101AB0008746C046011B0008151B0008191B0008BB
:101AC0001D1B0008211B0008251B0008291B0008FE
:101AD0002D1B0008311B0008351B0008391B0008AE
:101AE0003D1B0008411B0008451B0008491B00085E
:101AF0004D1B0008511B0008551B0008591B00080E
:101B0000284870477849884227D08649884224D09F
:101B10000120704722487047204870471E48704790
:101B20001C4870471A487047184870471648704755
:101B30001448704712487047104870470E48704765
:101B40000C4870470A487047084870470648704775
:101B50000448704702487047004870470000084C2E
:101B60000000044800000244000001400080003CE6
:101B70000040003800200034001000300008002C25
:101B80000004002800020024000100208000001C46
:101B90004000001820000014100000100800000C85
:101BA0000400000802000004F8B5012421051648CD
:101BB00002680A4302605A4D0022AA65AA640726F9
:101BC000042320036A62AC62EC622A636A63AC633A
:101BD000E8632E64E007A6070C4F6F60AE60EA6012
:101BE0002A616861AB61EA612A62074800680840BF
:101BF00000900098281D04F077FB002801D003F026
:101C000061FA2C70F8BDC04640100240002401402B
:101C10007FB504460F4E3068A0421AD04048051DDB
:101C2000284604F003FB284604F05EFB284604F037
:101C300025F92046FFF736FF00210391029101901C
:101C400001A9284604F0C4F9002801D003F03AFAAB
:101C500034607FBDB0000020B0B5FFF7D9FF304839
:101C6000041D204604F0A4FC0021CD43002811D11E
:101C70000A21204604F042FC002808D1204604F046
:101C80002DFB800503D5204604F02AFB054620469F
:101C900004F0BAFC2846B0BD10B5214800780028F1
:101CA00001D1FFF781FF00F029F80E49FEF787FD0B
:101CB000FEF795FE04460C48FFF7CEFF60430B4944
:101CC000FEF700FF7D21C9004843FEF744FE0849A6
:101CD000FEF71CFD0749FEF7AFFD0749FEF716FDAD
:101CE00010BDC04600007A44000200A4FF0F0000AF
:101CF000008C39C900201E450000F04180B508481D
:101D00000078002801D1FFF74FFF0648FFF7A4FF36
:101D1000FEF721FE01460448FEF78EFD80BDC04659
:101D2000DC020020000400A800909945B0B50446EC
:101D30000020002C0ED4192C0CD8FFF7DFFF05462D
:101D40002046FFF787FE01462846FEF738FD024988
:101D5000FEF772FDB0BDC04600F07F45F0B58BB018
:101D600004460026009607AD0921FF232846324687
:101D70000AF008F8287801250028284600D0DDE080
:101D80000AF064F80028284600D0D7E00695002520
:101D9000FF2009F0C7FF102D03D007A948556D1C7F
:101DA000F6E7FF2009F0BEFF07A84178617041887F
:101DB000618001788A0989008918217041790A09AE
:101DC00003791B019A1809035118A18081794809E8
:101DD00002220240A079F0230340C8091818801895
:101DE000CA0804231340C0184A0808231340C01827
:101DF000A071A0484088002819D007204007A26899
:101E00000240890007A8C3791D06AD0F49193F2577
:101E10000D405119027A12029B069B0AD218437A8E
:101E2000D21892015118A160807A059033E007AB77
:101E3000587A4200059238251540E77AC0221740AB
:101E4000400938184019E072A57A1540187A8206C0
:101E5000520F4707BF0EBA185219A272227BF825FB
:101E600015400622059F3A409F7A0597FF09BA1848
:101E70005219227303229203258915400A07920FF3
:101E8000AA188907090DDB799B00591880090818E1
:101E900080008018208107ABD97A04917F20084008
:101EA0001D7B802102912A460A4010186074D87B5D
:101EB0004208C0018018A075A17CE0200390014079
:101EC0001C2028406F06BF0F38184018A074587B9C
:101ED0001F2101409B7B40271F4079189F0820222B
:101EE0003A4089189A00029F3A4089182175059F47
:101EF0007900049A1206D20F891849007A06D20F87
:101F000089182174E17C039F39408209AD072D0FA8
:101F1000521951184008102202408818E074607D60
:101F20003840590806220A40D906C90F51189A07A5
:101F3000D20E8918081860750020069D0590069439
:101F40002C46284609F0C4FEFF27384609F0EAFE71
:101F5000009607AD0A21284632463B4609F012FF9B
:101F60002878002802D02546069C55E009F06EFF2F
:101F700000282546069C4FD125462035FF2009F034
:101F8000D1FE102E03D007A98855761CF6E7FF2056
:101F900009F0C8FE0798207607A8417809026183F6
:101FA0008178628B0A436283C1780906E161017915
:101FB0000904E2690A43E26141790902E2690A43DC
:101FC000E2618179E2690A43E261C1792970099984
:101FD0006970417A09066162616A827A12040A4371
:101FE0006262616AC27A12020A436262017B626AB9
:101FF0000A436262297A427B13090B432B72110751
:10200000090D6185817B628D0A436285C07B400832
:1020100028730120687300250126304609F058FE18
:10202000FF2009F07FFEBF484088012809D17102D6
:10203000E163F004A2689209D2041018206361637E
:1020400010E07002E063A088010B8E406663207B85
:1020500007220240921C20898004000D401C904001
:10206000884020630599400AA0630D4328460BB0C1
:10207000F0BDC0463C0500207FB50220009002ACB8
:102080000D210022FF2520462B4609F07BFE6678B5
:102090002478012009F01CFE284609F043FE344351
:1020A000601E8441204604B070BD0000F0B585B0CC
:1020B00009F018FEE4480125057004A80024047006
:1020C0000498401C04AF3870009402AE952330464B
:1020D0002146224609F056FE3678284609F0F8FDDA
:1020E000FF2009F01FFE3878632800D99EE0012EFA
:1020F000E6D105200090D520420002AD08218723BB
:10210000284609F03FFE2E780125284609F0E0FD1B
:10211000FF2009F007FE700764D4012E00D085E08F
:102120000026009602A83721FF2732463B4609F0D9
:1021300029FE0125284609F0CBFD384609F0F2FDBD
:1021400001960096AA0702AE292130463B4609F0C7
:1021500019FE3678284609F0BBFD384609F0E2FD45
:10216000012EDDD0700723D5019A009202AE3721EF
:10217000FF2730463B4609F005FE3678284609F031
:10218000A7FD384609F0CEFD012E4FD1019A0092ED
:1021900002AE2921FF2730463B4609F0F3FD367891
:1021A000012009F095FD384609F0BCFD012EDBD079
:1021B0000320009002AD3A210022FF262846334634
:1021C00009F0E0FD687801902F780125284609F094
:1021D0007FFD304609F0A6FD002F27D1019840066B
:1021E000C00F20E0009402A83721FF2522462B468D
:1021F00009F0C8FD0126304609F06AFD284609F0BD
:1022000091FD009402AF2921384622462B4609F061
:10221000B9FD3F78304609F05BFD284609F082FDA4
:10222000012FDFD02046884948802546284605B042
:10223000F0BDC046F0B58DB006AB07C300200590D9
:102240000090012672020BAF1021FF243846049241
:10225000234609F097FD3D780296304609F038FD97
:10226000204609F05FFD002D50D1069F079E089C77
:10227000049D284615F0ECF9002847D00121029171
:102280004902FF220390FDF7B5FF6F4841880129FD
:10229000284600D10846464325460020002D32D06E
:1022A000009009AC1121FF232046324609F06AFD57
:1022B0002078002828D109F0C9FD002824D10796EC
:1022C0000895394601277C0203980691224609F0B9
:1022D0003CFD5D4840880590FF2528465B4EB04791
:1022E0002846B047384609F0F3FC2846B047059920
:1022F0000129049800D10846069F3F19079E8619B8
:10230000089D6D1EC9E7029003980590012009F011
:10231000DFFCFF2009F006FD059815F067F902982B
:102320000DB0F0BD3C050020F0B58FB009920891CA
:10233000069000200A900090012462020DAF102147
:10234000FF25384607922B4609F01CFD3E78039482
:10235000204609F0BDFC284609F0E4FC002E01D01F
:102360000A9865E0089E099D079C204615F070F9C3
:1023700005900028F4D0344841880129204600D136
:1023800008464643002002900A90069F002D4AD03E
:10239000002000900BAC1821FF232046324609F0A4
:1023A000F1FC2078002842D108960995FF242046A8
:1023B000264EB0472046B047FE20B0470A9838184E
:1023C000012104914A02059909F0BFFC1E48458885
:1023D0002046B0472046B0472046B0470746204633
:1023E000B047012D079C204600D128461F210F40F1
:1023F000052F1AD1099D6D1E0A9909190A91089E87
:102400008619012009F064FC002009F061FCFF201E
:1024100009F088FCFF28FAD1012009F059FCFF20BF
:1024200009F080FCB1E7029800E004980390059859
:1024300015F0DCF8012009F04BFCFF2009F072FCDC
:1024400003980FB0F0BDC0463C05002025BD000834
:102450007FB5054603A8DE214170212101700221CC
:1024600014F0BCFF7D20C40020460DF093F9002835
:1024700020D001AEF570280AB070280C7070280EBC
:102480003070042130460DF0A3F93071052130463B
:1024900014F0A4FF20460DF07DF900280AD068460C
:1024A000FF21417000210170022114F097FF2046A6
:1024B0000DF070F97FBD0000F0B5C5B0002942D025
:1024C0000C4606460120000281423CD8154644A82D
:1024D000CE21417031210170022114F07FFF7D2057
:1024E000C00000900DF056F942AFFE70300AB8708F
:1024F000300C7870300E3870042138460DF068F9D1
:1025000038710521384614F069FF00980DF042F942
:10251000601E01A908700020844205D001A9091895
:102520002A5C4A70401CF7E7661CB1B201AD284630
:102530000DF04EF9A855A01C81B2284614F04EFFAC
:1025400002480DF027F945B0F0BDC04688130000E1
:1025500070B59B4D696800291DD000F097F80028E0
:1025600019D4060168688019C07A002813D004F0D5
:10257000CDFB044668688019007A03F0F7FB6968B0
:10258000002809D088194168611A152903D3011D53
:102590000C600121817270BD8859201A1528FAD368
:1025A000881904600121417270BDC046F8B50E461D
:1025B000054621480078002801D100F081F82F015C
:1025C0001D4840680024C451C019446006738472D9
:1025D00044721A4EF15D0172284608F08DFFF05DDD
:1025E0000007800E16A10D5802212846224604F04D
:1025F00075FE284604F066FE0F484068C019017B4E
:10260000012906D000290AD1007A00941D4901232E
:1026100003E0007A00941A490223224604E0007A7B
:10262000009419492246234603F06AFB0248406899
:10263000C0190121C172F8BDD4030020B4000020EC
:102640000500000005000000060000000600000074
:10265000070000000700000007000000070000005E
:10266000070000000700000007000000070000004E
:10267000070000000700000007000000070000003E
:10268000000011100000211000003110F8B50546BF
:10269000002408274A4E009408F02CFF84420ADAEE
:1026A0007068C05DFF2803D00F210840A84204D005
:1026B0001037641CF0E70098C4432046F8BDC046BC
:1026C00070B508F017FF1021FDF7FDFD3C4C606070
:1026D000012020700025082608F00CFF854205DA4D
:1026E0006068FF21815510366D1CF5E770BDC0464E
:1026F00080B50101324A52685118CA7A002A05D0C1
:10270000097B002904D000F02FF880BD002080BD97
:1027100000F040F880BDC046B0B50401284D68689F
:102720000019C17A002909D0007A03F01FFB6968FB
:102730000919097B091A48424841B0BD0020B0BDC3
:1027400080B501011E4A52685118CA7A002A05D084
:10275000097B002904D000F01DF880BD002080BD59
:1027600000F002F880BDC04610B5040104F0CEFAB6
:1027700001461348406803199A7A00209872541E43
:10278000A2415B68C91A09097D2900D201201040C5
:1027900010BDC046B0B5040104F0B8FA01460848BF
:1027A00043681D196A7A00206872551EAA411B5998
:1027B000C91A09097D2900D201201040B0BDC046C8
:1027C000D4030020F0B585B002920E46044608F00E
:1027D00093FE03942401144F385D002200920125DA
:1027E00029462B4603F08CFA381904900F483146DD
:1027F000FEF788F906460BF01CFD029944180BF011
:1028000018FDA0420BD201272946394004980078D0
:1028100003F01AFB30460BF0BBFC7D40EFE703985A
:1028200008F06AFE05B0F0BDB400002040420F0081
:10283000F8B5844C2078012855D10126042706F0EC
:1028400028F886424FDA6068C559002D48D0287FA5
:10285000002845D0E868012842DB04F057FAA9684F
:1028600088423DD32869401C286169698000085866
:10287000FEF79CF8014628887D229300002206F08E
:102880008FF804F043FAE9684C1EEC60FEF763F839
:102890000146A8692A69920000928058FDF736FF28
:1028A000FEF79DF8A860002C664C19D16869009964
:1028B0004058FEF77BF8014628880024224623462C
:1028C00006F06EF86869002802D014F08FFE6C6183
:1028D000A869002802D014F089FEAC612C77594C0D
:1028E0003F1D761CABE7F8BD80B505F0D2FF042193
:1028F000FDF7E9FC534948600120087080BDC046DF
:10290000F0B587B01F461646029105464D4C20781B
:10291000002801D1FFF7E8FFEFF31080059072B6B1
:10292000A80061680C58002C069506D10D180120EE
:102930002021FDF7C8FC04462860606914F056FEAB
:10294000A06914F053FEF80F0197381845100421C0
:1029500004912846FDF7B7FC0746606103952846B9
:102960000499FDF7B0FCA061002121610494069A4E
:102970002280002F10D000280ED0019A9219B300A7
:10298000029CE31896420CDA1D685C687D50445046
:102990000833091DB61CF5E70598C00724D162B6B7
:1029A00022E00025049C25613868FDF7FFFF014601
:1029B0007D20830006982A4605F0F2FF04F0A6F970
:1029C000012121770399E160FDF7C5FF0146A06968
:1029D000226992008058FDF799FEFEF700F8A0608A
:1029E0000598C00700D162B607B0F0BDB0B5044687
:1029F000144D2878002801D1FFF776FFA000696800
:102A00000D58002D1DD0287F00281AD00024EC601E
:102A10002869696980000858FDF7C8FF01462888C1
:102A20002246234605F0BCFF6869002802D014F056
:102A3000DDFD6C61A869002802D014F0D7FDAC61FF
:102A40002C77B0BDF004002080B509F09BFD80BD5F
:102A5000BCB50C4605467D2001900198401C0190B4
:102A600009F090FD0649FF2242547521C900425ADF
:102A700003239A4342522846214609F085FDBCBDF6
:102A800033030000FEB5022104910021039102915D
:102A90000321C9020191002804D00520000701A9E3
:102AA00004F07AF8012006B080BD80B50AF0DEFEA1
:102AB00080BD80B509F04AFE80BD0000F0B58DB044
:102AC000039108900CAEBB20B070442070705A2067
:102AD000307009AD00272F71049509970AF032FD77
:102AE00012200790D34A394690470124D249204604
:102AF00088470322069200970192304639462B46BA
:102B00000AF032FD0AF020FD2046CB498847079D98
:102B100028462146C74A90477D200001059000F0D5
:102B200053F8089A100A014651400BAEB17072700A
:102B300030700AF007FD28463D463946BD4A9047A9
:102B40002046BD4FB8470095069A01923046294667
:102B5000049B0AF009FD0AF0F7FC2046B8470798E5
:102B600007942146B34A9047059800F02DF8154880
:102B70000899814223D80BAF0398B87078703D70E4
:102B80000AF0E0FC12242046294603F05DF90126F4
:102B9000304603F021FE0095069A019209AB3846B3
:102BA00029460AF0E1FC0AF0CFFC304603F014FE9F
:102BB0002046079903F048F9059800F005F80DB094
:102BC000F0BDC046EFFF0000F0B589B0049007AC3F
:102BD0000027277006A87921017004F097F8039068
:102BE0000AF0B0FC12263046394603F02DF90125D3
:102BF000284603F0F1FD0097019505AB20460297AA
:102C000039462A460AF0B0FC0AF09EFC284603F03A
:102C1000E3FD3046294603F017F904980399081894
:102C2000049004F073F80146049881423CD2039169
:102C30000AF088FC122400272046394603F004F9E4
:102C4000284603F0C9FD0097019507A808AE39464C
:102C50002A4633460AF088FC0AF076FC284603F040
:102C6000BBFD2046294603F0EFF830787928D8D10B
:102C70000AF068FC12242046394603F0E5F828469D
:102C800003F0AAFD0097019506A805AB39462A4630
:102C90000AF06AFC0AF058FC284603F09DFD204625
:102CA000294603F0D1F803990498814200D3029D8C
:102CB000284609B0F0BD0000F0B5CFB005920491F0
:102CC00002904C1E4BA803900470104600F0BCF814
:102CD00060404AA906910870012421020AA80890C0
:102CE000FDF78FFA4EAECE20B070312070705A20B2
:102CF00030704F4880471220099000254D4A2946E0
:102D000090474D49204688470322009501924B4F3A
:102D100030462946089BB8474948804720464649DF
:102D20008847099F38462146424A90477D20000146
:102D30000790444988474CAE0299F170080AB07078
:102D4000080C7070080E30700421304600F07CF8DA
:102D500030713748804738462946364A90472046E2
:102D60003549884705220095019230462946089E3C
:102D70003346324FB8473248804720462E4988476D
:102D8000099F384621462B4A904707982D49884786
:102D90002748804738462946264A90472046264FEE
:102DA000B847009501940398294622463346234E9E
:102DB000B047234880472046B847099E3046214601
:102DC0001C4FB8471A48804730462946B847204626
:102DD000194EB0470095049A019205982946089B20
:102DE000164FB847164880472046B047099F3846D7
:102DF0002146104EB0470E48804738462946B04716
:102E0000374620460C4EB047009501940698294657
:102E10002246089B094DA847094880472046B047ED
:102E200009982146B8470798064988474FB0F0BD32
:102E300045D50008495E0008D967000869D5000833
:102E400049D50008C92B000810B5027801238B4230
:102E500003DAC45C62405B1CF9E7D0B210BD00002D
:102E6000F8B50446EA4E3078002801D100F04EF85B
:102E700070780125002804D1204600F02BF90028A5
:102E800001D075701DE000260096012738463946AE
:102E90003246334602F034FF3846294602F0D4FF6A
:102EA0006425284603F098FC00F0F6F838463146D1
:102EB00002F0CAFF284603F08FFC204600F00AF912
:102EC00005462846F8BDC04610B586B002AC601C69
:102ED0000F21FDF796F9762020702046FDF7A9F91D
:102EE000411C204600F01EF900280BD16C46002141
:102EF000A171A18000910622204600F055F82046DD
:102F000007F018FA002006B010BD0000FEB501243D
:102F1000A0022146FDF7D7F9BD494860002802D13B
:102F2000212013F003FF0025009512200290174E78
:102F300021462A462B46B0470095062029462A46B8
:102F40002346B0470095072029462A462346B04726
:102F50000095052029462A462B46B04700950427B0
:102F6000384621462A462B46B0473846214602F0CD
:102F70006BFF0298214602F067FF7D208101284601
:102F80000AF012FAA2480470FEBDC046015D0008B6
:102F900080B5062002F0EAFE80BD80B5072002F071
:102FA000E5FE0121484080BDF0B58BB016460C46C9
:102FB000074697480078002803D1FFF7A7FF00F0E5
:102FC00006FC072002F0D2FE0025002860D10897F9
:102FD0000627384602F0CAFE002859D106940AACEA
:102FE000667002202070300AA0700AF0ABFA12203E
:102FF00007900025294602F027FF05960126304656
:1030000003F0EAFB0322009501920297039609ABB5
:10301000204629460AF0B6FA0AF096FA304603F03E
:10302000DBFB0798314602F00FFF384602F09EFEA8
:1030300000282DD1069808990818079009A841780A
:10304000049185780AF07EFA122000240890214627
:1030500002F0FAFE0120069003F0BEFB02970396F1
:103060002802049945180598854200DB054600941E
:103070000195204621462246079B0AF083FA0AF072
:1030800063FA069803F0A8FB0898314602F0DCFECC
:1030900028460BB0F0BDC0467CB55D4800264670A2
:1030A000009608240125204629463246334602F080
:1030B00027FE2046314602F0C7FE6426304603F064
:1030C0008BFB2046294602F0BFFE304603F084FB0E
:1030D0007CBDC046F0B585B0029004AF5A20387070
:1030E0000AF030FA122500242846214602F0ACFEF0
:1030F0000126304603F070FB0094019603AB38467E
:10310000214632460AF030FA0AF01EFA304603F041
:1031100063FB2846314602F097FE0298FFF754FD04
:1031200005B0F0BD80B50A460918491E0A230B7088
:10313000002100F059FB00F007FB80BDFEB50546FD
:10314000304800242146FFF7B9FC012D14D12E4D43
:10315000264630462946FDF7B5FC07462B48006851
:10316000804700280AD16F43E01902D1432007F0BD
:10317000EBF8761C641EECE7012540E00120C10657
:10318000029104020190870206F028FF011F4D42C0
:103190004D41042827D00199C943C01E884224D339
:1031A00006F01CFF06F01AFF002506F017FFAF42DD
:1031B00004D01749496848556D1CF6E706F00EFF24
:1031C000002602988519BE4208D21148406882192B
:1031D00028462146FFF770FD3619F2E7062007F072
:1031E000B3F80295D0E7062406E0152007F0ACF806
:1031F0001824204607F0A8F8204607F0A5F828462E
:10320000FEBDC046FFFF0000646600008804002089
:10321000440400207FB505466C46A61C0E213046AE
:10322000FCF7EFFF2020607063202070F2493046E9
:103230002A4614F081F92046FCF7FBFF411C20468A
:10324000FFF770FF04B070BD70B5A0B005466C46C6
:10325000A61C7E213046FCF7D4FF20206070782029
:10326000207030462946FDF703F82046FCF7E1FFC1
:10327000411C2046FFF756FF20B070BD70B5A0B0CE
:1032800005466C46A61C7E213046FCF7BAFF20207E
:1032900060706420207030462946FCF7E9FF204624
:1032A000FCF7C7FF411C2046FFF73CFF20B070BD74
:1032B00070B5A0B005466C46A61C7E213046FCF7D2
:1032C000A0FF202060703F20207030462946FCF788
:1032D000CFFF2046FCF7ADFF411C2046FFF722FF41
:1032E00020B070BDF0B5CBB00C46064647AD681CAB
:1032F0000F21FCF786FF6E2028702846FCF799FF07
:10330000411C2846FFF70EFF0021CF43002841D182
:1033100002940120040207AD28462146FCF771FF04
:10332000002128460D462246FFF73EFEA04231D13D
:1033300007AC2046FCF77DFF024630462146FCF7ED
:1033400039FF00F001FA002824D106AF0126974B7F
:10335000384629463246984703AC257204950395B2
:10336000082220462946914B98471022204629469C
:10337000FDF790F901903846294632468B4CA0471C
:10338000384629463246A04702980199017000F05C
:10339000DBF9074638464BB0F0BDC04610B5A0B0CB
:1033A0006C46204611306F21FCF72BFF2020607007
:1033B00071202070A01C06A10F22FCF7FBFE204606
:1033C000FCF737FF411C2046FFF7ACFE20B010BDD4
:1033D000636F6E6669726D20666F726D6174000056
:1033E00070B5A0B005466C46A61C7E213046FCF7A1
:1033F00008FF202060702520207030462946FCF709
:1034000037FF2046FCF715FF411C2046FFF78AFED8
:1034100020B070BD7FB505466C46A61C0E21304617
:10342000FCF7EFFE2020607069202070C449304610
:103430002A4614F081F82046FCF7FBFE411C20468A
:10344000FFF770FE002803D17D20C00003F0C4F90F
:1034500000F0D4F804B070BD70B5A0B005466C465D
:10346000A61C7E213046FCF7CCFE20206070402058
:10347000207030462946FCF7FBFE2046FCF7D9FEBB
:10348000411C2046FFF74EFE20B070BDF0B5A3B042
:1034900001920291074603ACA51C7E212846FCF749
:1034A000B0FE202060706F202070A54E2846314667
:1034B0003A4614F041F8E01C3146019A14F03CF809
:1034C0003E202071601D0299FCF7D2FE2046FCF7D9
:1034D000B0FE411C2046FFF725FE23B0F0BDC046DC
:1034E000F0B58BB0029314460D46019007AFBE1C99
:1034F0000E213046FCF785FE20207870722038704F
:103500008F493046029E019A14F016F83E20387119
:103510005E20F870781D8B49324614F00DF838465D
:10352000FCF787FE411C3846FFF7FCFD002818D148
:10353000F017000E30180612012007020196012E26
:1035400007DB284621463A46FFF72EFDE419761E92
:10355000F5E7019847430298C21B28462146FFF72A
:1035600023FD06AC00250126104B20462946324695
:10357000984703AF3D7204950395082238462946C3
:103580000A4B9847102238462946FDF783F80290E7
:10359000204629463246054FB8472046294632463E
:1035A000B84700F0D1F802980BB0F0BDA92F000881
:1035B000F0B585B00D46064601ACA71C0E21384675
:1035C000FCF71FFE20206070702020705C49384698
:1035D000324613F0B1FF3E20E070201D59492A46C3
:1035E00013F0AAFF2046FCF724FE411C2046FFF7FB
:1035F00099FD05B0F0BDC04664980108B0B586B02D
:103600006C46A01C0E21FCF7FCFD04A800252946F1
:1036100008F0EEF96570732020702046FCF709FE73
:10362000411C2046FFF77EFD002801D0E84306E05C
:1036300004A80021062200F0D7F800F085F806B0B3
:10364000B0BD00007FB505466C46A61C0E21304675
:10365000FCF7D7FD20206070662020703849304686
:103660002A4613F069FF2046FCF7E3FD411C204683
:10367000FFF758FD04B070BD7FB505466C46A61C2B
:103680000E213046FCF7BDFD2020607079202070AF
:103690002B4930462A4613F04FFF2046FCF7C9FD60
:1036A000411C2046FFF73EFD04B070BDF0B587B069
:1036B0001D4614460291019003AFBE1C0E213046F8
:1036C000FCF79FFD20207870772038701C49304629
:1036D000019A13F031FF3E20F870381D19492A462F
:1036E00013F02AFF3846FCF7A4FD411C3846FFF7CB
:1036F00019FD002801D000241CE0E817000E0195F8
:10370000281805120120070200260095012D08DB6C
:10371000029821463A4600F067F88619E4196D1EB2
:10372000F4E7009847430198C21B0298214600F035
:103730005BF8841900F008F8204607B0F0BDC046D9
:103740006498010869980108BFB5FFF721FC0028BB
:10375000FBD1FFF722FC0028FBD002A800258580C2
:103760000295042D0CD802A8401905214A1B0021FE
:10377000FFF71AFC04460A2003F02EF86519F0E75B
:1037800002A80078212802D102A8407803E002A90B
:1037900024280ED1487830280BD102A8817830290E
:1037A00007D1C1780D2904D100790A2801D1002060
:1037B0000BE001A80021817002AA537892781202CE
:1037C000D21802801022FCF765FF04B0B0BD80B5AE
:1037D000062002F0CBFA0028FAD1072002F0C6FA40
:1037E0000028FAD080BD0000F0B58BB016460F4619
:1037F00005463A480078002803D1FFF787FBFFF71A
:10380000E6FF072002F0B2FA0024002863D00895F2
:103810000625284602F0AAFA00285CD104970AAFD0
:103820007E70069501253D700596300AB87009AE88
:103830000024B470348009F085FE122007902146E0
:1038400002F002FB284602F0C7FF03220094019217
:1038500006980290039538462146334609F092FEB9
:1038600009F072FE284602F0B7FF07982F46294656
:1038700002F0EAFA707801282DD1B07801282AD117
:103880000625284602F072FA002824D104980899E7
:103890000818079009F056FE1220089000263146BD
:1038A00002F0D2FA0120069002F096FF00960196EF
:1038B0000295039707983146059D2A46334609F03D
:1038C00061FE09F041FE069802F086FF089839462D
:1038D00002F0BAFA2C4620460BB0F0BD440400209A
:1038E00006480168890301D4006802E00121090447
:1038F00041600348012101707047C046000002404A
:10390000B002002010B504460A48616C03229143BE
:1039100009188030A164E0642168FC200840083860
:103920001421FDF7CFF81C210140012088402065BB
:1039300010BDC0460008024010B507490279521E6A
:103940000323134001249C409200521840314265E9
:103950008165C46510BDC0460009024070B5C46CE5
:10396000056D6560446D002C02D0846DC56D656089
:10397000446C1C2525400124AC40084D2E6826438C
:103980002E600468636080681028134600D00B46E0
:10399000A360102800D01146E16070BD0400024011
:1039A00070B58EB00646BB488079022800D080E012
:1039B0000C46012528460BF075FDC43001680989C5
:1039C000002907D000BFF9E700200BF04FFD0120D0
:1039D00002F002FF0BF03EFD0028F5D102E00BF0F3
:1039E00055FD761C30780028F9D10D200BF04EFDE6
:1039F0000D9405A82021FCF704FC0024049403A8DE
:103A0000047002A8057001940D98012800DA9BE06B
:103A10000BF020FD002810D0002528460BF026FDD5
:103A200005A9049A88540498085C0A2835D004989B
:103A3000401C04900498202809D0012002F0CCFEFC
:103A40000D98401E0D90DFE700200BF00FFD0120C8
:103A500002F0C2FE0BF0FEFC0028F5D172E0002659
:103A600030460BF003FD03A9087008783E2822D0E9
:103A700003A8007824281ED003A8007821281AD093
:103A800003A800780D281DD1002630460BF0EEFC6F
:103A900003A9087008780A2814D10BF0DBFC002871
:103AA00002D1012002F098FE0BF0D4FC0028D6D100
:103AB0000AE0002455E0012002F08EFE0BF0CAFC63
:103AC000002801D002A8067002A80078C00723D100
:103AD00003A8057003A800780A281DD00D980128B6
:103AE0001ADB0198401C01900BF0B4FC002804D0B4
:103AF00000200BF0BBFC03A90870012002F06CFE53
:103B00000D98401E0D9003A800780A28E2D10BF012
:103B1000A1FC0028DCD1DDE70498012812DD02A811
:103B20000078C00710D005A804990818401E007836
:103B30000D2807D105A804990918491E0D7004998C
:103B4000455401E002A8057002A80078C00708D01B
:103B50000498012805DB05A814F002FBFCF767FFB9
:103B6000044620460EB070BD81B008490A68009234
:103B7000401C01D30020C043009A012804DB0A68DE
:103B8000D203D2171018F8E701B0704710E000E038
:103B90008CB007AB07C3B54C00276777384639466A
:103BA0000BF0A0FA00970920022539463A462B4629
:103BB00002F0A6F800970A26304639463A462B46C8
:103BC00002F09EF834493046884701210691880268
:103BD00000970197029103900490E1204102802513
:103BE00028463A463B460BF0D5FA284639463A462F
:103BF0003B460BF063FC304627498847274A079D20
:103C00002846394690476426304623498847089815
:103C10003946224A904709983946069F1F4A9047DD
:103C200030461D49884728463D4639461B4A90473D
:103C300030461949884700200BF040FA00280CD183
:103C400000BFF8E700200BF0F9FC0BA9087008781A
:103C50000BF0EEF9012002F0BFFD00200BF02EFA70
:103C60000128EFDA257700200BF028FA012807DB7E
:103C700000200BF0E3FC0AA9087008780BF0D8F9D3
:103C80000A2002F0A9FD607F6428ECD3002000F038
:103C900047FAE8E7C8040020D9670008595C000823
:103CA000F0B58DB003AC25A126222046FCF782FAA0
:103CB00061480168614A00259142029500D145683A
:103CC000E8B20A263146FCF7FDFE07463030207781
:103CD000280A0190C0B23146FCF7F4FE01463031AB
:103CE00061767743E91B302211436177464301989F
:103CF000801B1043A076029800F066F8FCF76FFE78
:103D0000020C0E2A15D8044603AE30461F30154D5E
:103D1000154F2946B84730462130210ACAB22946F4
:103D2000B84730462330E2B22946B8472520002163
:103D3000315403A806F0FEFA0DB0F0BD4748492003
:103D4000456C656374726F6E696373204455454CAE
:103D5000696E6B207630312E30333A787878787807
:103D6000780000000D9F010839750108BCB50028D6
:103D70001DD0114DA879022802D0A87F002814D1A7
:103D8000002001902A7901AC0DA1204613F0D4FB4C
:103D9000204606F0CFFA287A002806D109A006F0BE
:103DA000C9FA12F0D3FE06F0CFFA0448BCBD0248AF
:103DB0000079FCF7D0FDBCBDC8040020000080BF26
:103DC000256400000D0A000080B5032815D8800086
:103DD00001A108588746C046E93D0008FF3D00089C
:103DE0000D3E0008193E0008164801684A1C1DD007
:103DF000124A91421CD015481BE0002080BD0E489D
:103E000001680E4A91420AD0002009E00520FB49D2
:103E10000856FCF795FD80BDF848807909E04068B8
:103E2000FCF799FD0649FCF707FD80BD064880BDFB
:103E30004068FCF790FD80BDB8000008ADDEEFBE25
:103E40000000C8420070FF1F0100704B0200F0002C
:103E500080B5EA48012141720021817281717D2281
:103E6000D200C26081770AF0E9F980BDC804002061
:103E700080B5184908220BF075FC4142484180BDCD
:103E8000B0B504460EA104220BF06CFC01250028FD
:103E900014D00D49072220460BF064FC00280DD0F9
:103EA0000AA1062220460BF05DFC002806D0094935
:103EB000082220460BF056FC454245412846B0BD3D
:103EC00073656C2800000000F29E0108726573653E
:103ED00074280000FA9E010880B5034907220BF000
:103EE00041FC4142484180BDF29E010880B5034932
:103EF00009220BF037FC4142484180BD039F010875
:103F0000F8B500281FD0E54E7079022806D1424846
:103F100003F0B6FA7D20800002F05EFC642002F01F
:103F20005BFC04F0DDF8012087053C480760BFF327
:103F30004F8FBFF36F8F707902282BD070790128D3
:103F400015D10C2017E00D46D4480124847205F0E9
:103F5000BFFE642002F040FC002D57D0324F012DEF
:103F600048D0032D55D17F1C1026022543E07079DF
:103F7000032806D10A20002200922949134601F0A5
:103F8000BFFE072402210022204603F0A7F92046A5
:103F900003F098F900250121284603F0E1FA09F021
:103FA00013FD04F007F81F4807607079022806D156
:103FB000194803F050FA7D20800002F00DFC012426
:103FC000204602F009FC7079012805D100950C20EB
:103FD00012210622012307E07079032806D10094FC
:103FE0000A2002212246234601F08AFE204602F0E2
:103FF000F3FB0FE02E46284603F096FA03F08CFA06
:104000000020314603F052FA0848076003F09AFA9C
:1040100000E000242046F8BDA01E002080E100E062
:104020000000311000E100E00100010018700040C4
:10403000FEB59A4D6969AA790020032A6ED100293C
:104040006CD0002630460BF039F801907F20C10576
:1040500068694068FCF766FC002801D1022000E096
:10406000012002900198864220DA00242046214651
:104070000BF080FA074668690068FCF797FC029924
:1040800001F0C4FDFCF767FC014668694068FCF775
:1040900049FC002800D12C7C2C74287C002803D0FB
:1040A000012039460BF0D6FA761CDBE700260BF030
:1040B000CBF900900098864220DA012000242146A6
:1040C0000BF058FA074668690068FCF76FFC029924
:1040D00001F09CFDFCF73FFC014668694068FCF775
:1040E00021FC002800D12C7C2C74287C002803D0D3
:1040F000002039460BF0AEFA761CDBE7287C00285E
:1041000004D1042000210A4600F0D0F80198C0B282
:1041100000990906090C0818FCF712FCFEBDC04600
:1041200080B5012819D000282BD10BF0A5F9002863
:1041300002D000BFF9E700BF0BF068FA0028FAD1FF
:1041400000E000BF0BF086F90028FAD1022002F04F
:1041500043FB0C480C490160FEE70C48017A00293A
:104160000FD00178491C0170C8B2022809D108A0FB
:1041700006F00CF9642002F02FFB05F0A9FD01F018
:10418000B9FC80BD0CED00E00400FA05C804002075
:1041900045726173696E672E2E2E506C6561736572
:1041A000207761697420666F722035207365636FB4
:1041B0006E6473207468656E20706F77657220631B
:1041C00079636C652074686520626F617264210098
:1041D000F8B50C4605469C4F00263E72304605F069
:1041E00085FEA64209DAA8573979884203D0C0B2C1
:1041F000761C0028F5D101203872F8BDC8040020D3
:10420000F0B585B00446002806D02448017900297D
:1042100002D00079A0423FDC204FB879002801D1BC
:104220000120B871002C1ED038793C71B879012872
:1042300024D13879022802D30A2006F085F801AD8E
:104240000F2628463146FBF7DCFF3879431C14A2C1
:104250002846314613F054F9287800280BD00BF08B
:1042600015F96D1CF8E7002038713872B979012909
:104270000AD1B87108E0022002F0AEFA012C01D197
:10428000012000E00020387205F034FE01220020F9
:104290000146034606F036FF05B0F0BDC804002015
:1042A000736574616464282564290D00F0B589B0D4
:1042B00008920D46644CA179022905D10221CA4316
:1042C000411F914208D20AE0A3790321C943421F4A
:1042D0008A4201D8032B02D0A179052901D10020FF
:1042E000B0E00790002006902074089801282DDB8C
:1042F000606913F07BF90427089E30463946FBF7C6
:10430000E2FF6061002E03D004CD04C0761EF9E701
:10431000069E0898864219DA6069C519C0597F213E
:10432000C905FCF7FFFA0446281F0068FCF73EFBAE
:104330000125002C294600D1022101F067FC284606
:1043400002F04AFA0837B61C3F4CE2E7079FB81E56
:10435000062874D8784400794000874403037062CB
:10436000703D3D0001200BF09DF8C4304168098983
:10437000002903D100680089002802D00A2002F039
:104380002BFA012528460BF053F828460BF044F889
:10439000A7712F486421FFF703FB26462B4C2846C4
:1043A000A0472C480021FFF7FBFA2846A04705202C
:1043B000A047344628460BF03BF828460BF02CF873
:1043C000032F3CD1002420460BF032F8204634461F
:1043D0000BF022F8357432E001263046069C214667
:1043E0000AF080FE64251949284688474020009439
:1043F0000194029403900490E12041023046224649
:1044000023460AF0C7FE2846104988473046214611
:10441000224623460BF052F828460C4988470A4C9E
:104420000DE025460124002120460AF05BFE2846C7
:104430001F300221032223462C4608F00EFAA771F2
:104440007F20C00509B0F0BDC8040020D96700086E
:10445000039F0108F89B010880B509F027FD044877
:10446000406880BD80B509F021FD0148006880BD2D
:1044700060030020F8B50025012801D0044600E0C3
:10448000EC43D04F787806281ED801218140322293
:1044900011421AD10907890F22D0387B002810D089
:1044A000C848214608F0E4FDF8BD00263889864258
:1044B00006D2204631462A4600F008FD761CF5E774
:1044C0006D1C78898542F0D3F8BD002C00D0FF2404
:1044D00078893989414338692246FBF78BFEF8BD5C
:1044E0000628F1D120460DF009FCF8BDF0B587B0E3
:1044F0001746B44E00253576022806D1022F04D087
:10450000232012F013FC07B0F0BD06900D9C002C88
:1045100005D00698012808D1012F08D0F0E7042023
:10452000069A8243022AEBD103E0042801D1012C30
:10453000E6D1049302910C98039070690594A24C03
:10454000A0473069A047F069A047059C002C08D01F
:104550000698062821D003281FD0002813D1757093
:10456000D1E7049840000121FBF7ADFE306100283F
:1045700000D1D3E002200121FBF7A5FE70610028E5
:10458000069D31D1CAE00498039948430121FBF705
:104590009AFE3061002800D1C0E0002F12D0042123
:1045A0003846FBF790FE04468648C461002C00D1D3
:1045B000B4E0029EBD4205DA01CEFCF710FA01C458
:1045C0006D1CF7E7069D062D7E4E059C0CD801203C
:1045D000A840362108423CD07C480121FBF773FEFD
:1045E0007061002800D199E07570E8B2401E05287E
:1045F000039B88D8810001A25258974615460008AF
:104600002147000815460008154600081546000811
:104610007B46000801227273F380049AB280738192
:104620003281042800D96EE701A040588746C04671
:10463000474600084546000803470008B147000800
:10464000BF4700085FE702980068FCF7AFF93070D9
:1046500059E7032D3FD0062DC6D10498039948434E
:10466000C117490F4018C0100121FBF72CFE7061E3
:10467000002853D006207070039B029F38681D46A7
:10468000FCF794F93446064624202654F868FCF7D3
:104690008DF925210691605405996173658104980F
:1046A00020814D43E58048430D46A0807868FCF7A3
:1046B0007DF9A070B868FCF779F92746E070E9B297
:1046C00001295CD0012E5AD1786912F08FFFF86968
:1046D00012F08CFF14E7049F3846039D68430321C2
:1046E0000691484301242146FBF7EDFD7061002847
:1046F00014D07473F580B780069870707581378117
:104700002B46F069017B2422B154426832848068D0
:104710007084002900D0F6E67384F4E62120F0E6E8
:1047200073813546049A32810126002C304600D030
:10473000204668736142614129734343EB804243E1
:10474000AA80029F3868FCF731F90001214C205CF7
:10475000A8707868FCF72AF900012056E870002458
:10476000009431462246234601F0CAFA0220285618
:10477000009431462246234601F0C2FAC3E60024E3
:1047800000940126124D314622462346A8470220B6
:1047900038560094314622462346A8470698385694
:1047A0000094314622462346A8470DF05FFBAAE657
:1047B000F06900682421705406F0DEFAA3E606F0E2
:1047C00087FBA0E6C8160020ED7501080104000073
:1047D000015D0008B4000020F0B58BB00593029293
:1047E000089105214143A0390191119C1098049032
:1047F00001281BD1012C19D10024052C4CD0029882
:1048000027180198201825490E5C0025082D0BD08B
:104810003046E840C00705D0059842190898394647
:1048200000F054FB6D1CF1E7641CE6E7002105294C
:1048300032D001980E18049800914843029940180C
:10484000039000210498814223DA039840180990CC
:104850000020059B0A930691082818D0012707908D
:1048600087400025A5420BDA0C48805D074205D041
:104870000A9842190898099900F028FB6D1CF1E785
:104880000A9800190A900798401C0699E4E7491C09
:10489000D8E70099491CCAE70BB0F0BD079601089C
:1048A000F0B58BB0099207910190012B79DB1C4682
:1048B0001D4609982218019F3846079E31463A4BFB
:1048C00098470998021B38463146374B9847A1193B
:1048D0003846099A344B9847334B311B3846099A6E
:1048E000984701231E1BDA43501C0A9062431D4661
:1048F000581EA04255DA0595079FF9180391F01745
:10490000C0432418069609982618019D2846089346
:1049100004923246244B98470A9839180291284647
:104920003246214B9847099F3E1B28460399324641
:104930001D4B98472846029932461B4B98470898CA
:104940003E18079FE119039128463246164B9847B7
:1049500002943F1B284639463246134EB0470A9808
:1049600009990C18284603992246B047284639462B
:104970002246B047049A069B911C002B084600DA99
:104980001046059DAD1CEA18002B01DA164600E022
:104990005618029C089B5B1C0A9A521E0A920246F9
:1049A000A6E70BB0F0BDC046CD4E0008F0B587B00D
:1049B000039315460E4604900020C0430C99012332
:1049C000059191420293019300DC01900399B14259
:1049D00000DC02900598401BC1174840431A039819
:1049E000801BC1174840471AFC1A00935842069092
:1049F000049831462A4600F069FA0598854202D1AA
:104A00000398864212D060000699814201DC009929
:104A1000641A874200DBE419874201DB01996D18B3
:104A200006998142E4DC02983618E1E707B0F0BD50
:104A3000FEB5002B2CD406460898002828D414462E
:104A40005A18029200190190471E00910D460298D3
:104A500085420BDA30462946224600F037FA3046C6
:104A600029463A4600F032FA6D1CF0E70298471EDC
:104A7000009D019884420BDA30462946224600F018
:104A800025FA30463946224600F020FA641CF0E749
:104A9000FEBDF0B587B0059107460C98069000283A
:104AA0002DD00D980490002829D01C4616460621CA
:104AB0000698414303910921049841430291154608
:104AC000387800281BD020280BD306990091049930
:104AD000019105992A462346FFF77EFE03982D187B
:104AE0000BE00A28314600D029460D28354600D073
:104AF0000D460A2801D1029824187F1CE0E707B070
:104B0000F0BD0000F0B587B0049303920691052133
:104B100001914843A03802900021052919D004983A
:104B20000C180298059140180B490F5C039D019EDB
:104B3000002E0BD0761E3846F040C00704D00698F1
:104B40002946224600F0C2F96D1CF1E70599491C7F
:104B5000E3E707B0F0BDC0462C940108F8B51C4649
:104B600015460E4607463878002807D031462A46B3
:104B70002346FFF7C7FFAD1D7F1CF4E7F8BDFEB568
:104B80000290012B12DB089801280FDB14460D461A
:104B90008618C818471EB44208DA009402982946BD
:104BA00022463B46FFF702FF641CF4E7FEBD00000F
:104BB000E0B53E48017B002900D08CBD4178491EFC
:104BC0000529FAD87944097949008F4402060E1163
:104BD0001417364804F004FE8CBD03894189009106
:104BE00000210A4608F092FA8CBD06F0B5FA8CBD99
:104BF00006F0AEF88CBD06F05BF98CBD0DF09CF8AC
:104C00008CBDC046F0B58BB005910490F048007B98
:104C1000002848D0EE484078022844D112980890E5
:104C20001199109858430A914B43059FDB19400096
:104C30000390002602930398864234DA049B985D21
:104C4000E34C616908700125069630462843185CDC
:104C5000616948700021079214460898814211DA70
:104C6000099100260A98864208DAB9190095D848B1
:104C700022462B4608F04AFA761CF3E70999491CAC
:104C8000641CEAE70A983818029B984201D0079AF8
:104C900002E0079A08995218069E9842059F00D094
:104CA0000746B61CC7E70BB0F0BDC046C8160020CB
:104CB000F0B58FB002920D910C90149D16994D4352
:104CC000159A0B931F46574317980890002806958E
:104CD0000E970A91099200D19AE038466843042160
:104CE000FBF7F1FA0790002800D1E6E0781E0024D7
:104CF000A54200DCC1E0291B79430591E143049101
:104D0000691879430391611C0091002601900746C0
:104D10000E98B04276DD0898401E04286FD8C04631
:104D2000784400794000874402172A405100204609
:104D30000A99FBF7E7FE05460B984543304609996B
:104D4000FBF7E0FE281880000C990818711C069AE1
:104D50005143049A8D184AE020460A99FBF7D2FE87
:104D600005460B98454330460999FBF7CBFE2818BA
:104D700080000C990818F143059A551837E0204631
:104D80000A99FBF7BFFE05460B9845433046099943
:104D9000FBF7B8FE281880000C990818F1430E9A0A
:104DA0005118069A51430D1921E020460A99FBF744
:104DB000A9FE05460B98454330460999FBF7A2FE2C
:104DC000281880000C9908183D4610E020460A99E2
:104DD000FBF798FE05460B98454330460999FBF7CB
:104DE00091FE281880000C9908180399751800681E
:104DF000FBF7F5FDFBF7AFFDA900079A50507F1EAA
:104E0000761C85E70E9F0198C019009C069D6FE7F0
:104E10000120414050400843414241410891002156
:104E20000C46A94249DA029807910E180025BD42A6
:104E30001FDA0898002803D0611C20460C460CE0BD
:104E400007980A99FBF75EFE07460B9847432846EA
:104E50000999FBF757FE38180E9F80000C990858E7
:104E6000FBF7BDFD0D994919324600F02FF86D1C76
:104E7000DDE70799491C069DD3E700210E460698F9
:104E8000864217DA029834180C91880007990D1899
:104E900000270E98874209DA01CDFBF7A0FD0D9996
:104EA000C919224600F012F87F1CF2E70C99C919C3
:104EB000761CE4E7079812F099FB0FB0F0BD01787B
:104EC000401C0029FBD1704770470000F0B587B047
:104ED0000025012801D0064600E0EE43002975D4E4
:104EE0003B4C2089884271D9002A6FD46389934250
:104EF0006CDD237B002B18D06078022866D1300C43
:104F0000F82303403004400F1818636918707009C3
:104F1000E02303403006C00E18186369587001235F
:104F20000093204608F0F2F850E06378062B0BD08F
:104F300042435018032B0BD1F3B2310CC9B2320AE1
:104F4000D2B206F0C7F941E030460CF0B7FF3DE0C1
:104F50000690300AC0B20490FBF7FDFC1D49FBF738
:104F60002EFC7721CF053946FBF729FCFBF71EFD08
:104F70000290F0B20590FBF7EEFC1749FBF71FFC1F
:104F800003973946FBF71BFCFBF710FD0746300C77
:104F9000C0B200280BD0FBF7DEFC0E49FBF70FFC7C
:104FA0000399FBF70CFCFBF701FD45012035059942
:104FB000002900D0791C049A002A02D002988000AF
:104FC000021D0A432A4320690699425407B0F0BDE6
:104FD000C81600200000E040000040407047F0B5D7
:104FE00085B01E4604910B99C91800910A99CC1DF1
:104FF00007218C430192A118029100998E42019DD4
:1050000018DA02998D4213DA0390077800242919DF
:10501000082C09D078B2002803D504983246FFF74F
:1050200055FF641C7F00F2E70398401C0D46E8E73B
:10503000761CE2E705B0F0BD80B50948007800288D
:1050400006D007F0B5FE1E4801210160416080BD19
:10505000002000F019F8012000F016F880BDC046CD
:105060002404002080B5022000F00EF8032000F098
:105070000BF880BD10B50424102C04D0204600F09D
:1050800003F8641CF8E710BD10B504460120A040E9
:1050900080B20B490A68024202D14A6802420DD02E
:1050A0000860486000F08CFDA04201D105F078F95D
:1050B0002046FDF74DFA204611F0D6FF10BDC04640
:1050C0000C180240FEE780B5002200F001F880BD18
:1050D000B0B503461C4C607A002801D00120B0BD59
:1050E000657A00206055657AAD0065196B60637A5A
:1050F000E3181A72627A531C6372C8702F238B7084
:105100003A234B7030320A70B0BDC04680B50021E2
:1051100000F002F880BD000010B501460A4A537A3B
:105120000120002B0FD009783039C9B28B00D31879
:105130005C68002C07D01B1D0020186051180872F5
:10514000517A491E517210BD940B002070B504466F
:1051500001F0DCFD0619104D2868C00305D501F0EB
:10516000D5FDB042F8D3032070BD29680B48084034
:10517000286003D00A494860012070BD01F0C6FDD7
:1051800004192868400304D501F0C0FDA042F8D3FB
:10519000E9E7002070BDC04610200240FAC30000BD
:1051A0005019002070B501460025E843012916DB9F
:1051B000EA4E32788A4212D34C1E7078012806D10A
:1051C00034206043F16808180EF0C6FE05E07078E0
:1051D000022805D12046FEF71DF8002800D070BD3A
:1051E0000120A040716881437160284670BDC046AF
:1051F00080B5F2494A78012A02D10FF006F880BD45
:105200004978022902D1FEF71FF880BD0020C04373
:1052100080BDC046F8B50020C543E84F3978002965
:105220002AD07978012915D13C4608340026304629
:10523000214632460FF0D4FB054600281CD130250C
:10524000F86839788E420ED2405912F0CFF93435D1
:10525000761CF5E7797802290ED178603870FEF770
:10526000D9F8054608E012F0C1F900252046294684
:10527000FFF752FF7D603D702846F8BD80B5F049CC
:105280004A78012A02D10FF07CFE80BD49780229BC
:1052900002D1FDF7F3FF80BD0020C04380BDC046B2
:1052A00010B5C6B00021CC43F3494A78012A0AD18F
:1052B00069460FF0F7FD00280DD16846007AC00658
:1052C00008D5102407E04978022904D1FDF7F0FF42
:1052D000044600E02024204646B010BDF0B5C7B01B
:1052E0000C460546F34E707801281ED12320C100DC
:1052F00001AF3846FAF785FFFF212846FAF781FF0C
:105300001036304639460FF0A5FD002815D101A909
:10531000887D002811D01631012002022846FAF7B4
:1053200049FF03982070002009E07078022804D11A
:1053300028462146FDF7D6FF01E00020C04347B0D4
:10534000F0BDC046B0B5FFB083B0ED4C6070080151
:105350006549085C654908707D20C000824201DB18
:1053600063480260607801280ED1FCF79FFE054675
:10537000002811D108345F482146FFF7A4FE002819
:105380000ED00020C54307E06078022803D1FEF765
:1053900005F8054600E0002528467FB003B0B0BD03
:1053A000FCF76AFE05460028F6D101204202009271
:1053B0005148022102AB0EF0D5FF05464D48FFF7DC
:1053C000A5FEE9E7B0B50021CC43CD4D69780129B0
:1053D0000DD1012100F092F801280EDB3421414368
:1053E000EA68891828390C68FFF7DCFE05E069785F
:1053F000022902D1FDF7F4FF04462046B0BDC046A5
:10540000FEB51C460723DD43BD4F3B78002B01D082
:10541000681CFEBD002C1FD0787008013249085C62
:10542000324908707D20C000824201DB30480260B2
:105430007878012812D1FCF739FE002803D0FCF758
:1054400035FE00281AD1394608312A48FFF73BFEBD
:1054500000280FD0E81DFEBD2846FEBD7878022842
:105460000ED12046FDF7D6FF002807D13C70002062
:105470007860FEBDFCF700FE002801D0A81CFEBD30
:10548000394608311C48002632460FF0A9FA002898
:1054900001D0E81CFEBD0196342102912046FAF7A6
:1054A00012FFF860002819D006463C700095EC1DEC
:1054B00039463027641C0878844211D23D46343581
:1054C00001214802FAF7FFFE8D49F051CE68F059EC
:1054D00000282F46EED10098401DFEBD281DFEBDC0
:1054E00001984860FEBDC046B40000205C1A002050
:1054F000980200200C8B0108C006002070B50A46F7
:10550000014600207E4E044633789C4206D27368E2
:10551000E340DB0702D03430641CF5E70023DD43B1
:105520007378012B07D133789C4215D2F368181891
:105530000FF080FA08E0707802280DD130788442AC
:105540000AD22046FDF7A2FF002805D10120A04085
:10555000716801437160651C284670BDDC03002042
:1055600070B50446664E707801280CD1B0780028DA
:1055700010D0304610300EF004FD0021B17000282C
:1055800008D0C84370BD7078022810D12046FDF7BE
:1055900063FF0BE03546103538212846FAF731FE17
:1055A000284621460FF056FB002803D070BD00208E
:1055B000C04370BD0120B070002070BDDC0300202E
:1055C0007CB50024E44301281BDB4D4D2E78864238
:1055D00017D3401E6E78012E0DD189183422424314
:1055E000E868801801AD1A462B460FF077FB0028BB
:1055F00007D1019C05E06D78022D02D1FDF770FF07
:10560000044620467CBDC04610B502460020C0437B
:10561000012A14DB3A4B1C78944210D3521E58785E
:10562000012806D134205043DA6810180EF0BBFC74
:1056300010BD5878022802D11046FDF7B9FF10BD01
:10564000DC03002080B501460020C043012911DBA6
:105650002B4A13788B420DD35378012B04D10C3293
:1056600010460FF041FC80BD5278022A02D1481E3C
:10567000FDF7E8FF80BDC046DC03002080B5014691
:105680000020C043012913DB1D4A13788B420FD33E
:10569000491E5078012805D134204843D1680818A4
:1056A000806980BD5078022802D10846FDF7E4FFEA
:1056B00080BDC046DC0300207CB50024E443012803
:1056C0001BDB0F4D2E78864217D3401E6E78012EBD
:1056D0000DD1891834224243E868801801AD1A467A
:1056E0002B460FF09FFC002807D1019C05E06D7848
:1056F000022D02D1FDF7DAFF044620467CBDC046EC
:10570000DC030020E0B500F003F8019001988CBDA7
:10571000F0B5C9B00320C043854CA178012911D14F
:105720000290012009F0BEFE0546C43528680089B4
:10573000002803D168680089002805D00A2001F0FC
:105740004BF8F3E7C01CF0E00125284609F070FE95
:10575000284609F061FE0620002529462A46FEF764
:10576000A5FD45AE0F2730463946FAF74AFD2078A9
:10577000431C70A23046394611F0C2FE3078002832
:1057800003D009F083FE761CF8E7642001F024F8CA
:105790000126304609F04CFE304609F03DFE45AF8B
:1057A0000F2438462146FAF72CFD65A238462146DB
:1057B000334611F0A5FE022D0CD045AC2078002810
:1057C00003D009F063FE641CF8E7642001F004F8DC
:1057D0006D1CF0E77D24E700384600F0FDFF250151
:1057E00001F094FA461901F091FAB0420BD244ACA0
:1057F0000121204611F0D0FD20780A2803D0642032
:1058000000F0EAFFEFE701F081FAB04228D20197F9
:105810000127384609F00CFE384609F0FDFD072047
:10582000002631463246FEF741FD44A8067003A823
:105830007F210170394611F0D1FD01F067FA451959
:1058400001F064FAA8420ED244AC0121204611F0C6
:10585000A3FD2078792806D0642000F0BDFFEFE793
:105860000298801C61E001F051FAA84215D23D0275
:10587000FC062746300B1A2811D80020854204D098
:10588000395C04AA1154401CF8E704AA384629469A
:10589000FCF712FE76197F19ECE7029844E02046E7
:1058A000FCF7D6FD082000210A46FEF7FFFC642025
:1058B00000F092FF0124204609F0BAFD204609F0CD
:1058C000ABFD45AD0F2428462146FAF79AFC18484F
:1058D0000078431C1DA22846214611F011FE019CB0
:1058E0002878002803D009F0D1FD6D1CF8E70220CC
:1058F00000F072FF204600F06FFF44AD01262846FD
:10590000314611F049FD002130460A46FEF7CEFC33
:10591000304609F08DFD304609F07EFD28780A28D2
:10592000029802D102480078401C49B0F0BDC04640
:10593000CC04002073656C282564290D000000004C
:105940007265736574282564290D000073657461A0
:105950006464282564290D0010B53C4C207800288B
:1059600009D0231D0ECB012001F0C8F8002806D174
:1059700060680830606001F091F8002801D00020D4
:1059800010BD606810BDC046BFB50C4600F0BEF843
:10599000054600F05FF801F0EBF8002800D0BFBD2D
:1059A000029502200190002000906105E00A002984
:1059B00000D0401C03900120C44301A8694600F0B8
:1059C00017FF002803D0601C002C0446F5D101F01D
:1059D00065F8BFBD80B51D491D4A48608A60CA6030
:1059E0000020087000F036F801F0C2F8414248414A
:1059F00080BDC046B0B504462578002D05D0641C96
:105A0000284600F005F80028F6D168426841B0BD8C
:105A100010B50E4C217862181072481C2070C0B26C
:105A2000082810D1231D0ECB012001F067F8014694
:105A30000748E060A0600020207060680830606067
:105A40004842484110BD012010BDC046A0020020C0
:105A500003030303B0B52548074901600021074A45
:105A6000074B084C0A2906D205686D0301D513605F
:105A70000460491CF6E7B0BDFB83000040B001089C
:105A80004B530000FAC30000B0B58EB004466D461B
:105A9000281D3421FAF7B5FB04200090284600F0B9
:105AA00001FF1148069901421CD001F061F8012064
:105AB000C0030E4908608020086010200860202084
:105AC000086001F007F80A48069901400691684607
:105AD00000F03EFF002C05D000F0EAFF00F0F0FFE0
