:020000040800F2
:1000000090410020D50000088D1A0008F50B00086B
:1000100000000000000000000000000000000000E0
:10002000000000000000000000000000ED1B0008C0
:1000300000000000000000008F1A0008F11B0008FB
:10004000E7000008E7000008E7000008E7000008F4
:10005000E7000008E7000008E7000008E7000008E4
:10006000551E0008E7000008E7000008E700000848
:10007000E7000008E7000008E7000008E7000008C4
:10008000E70000080000000000000000E700000892
:1000900000000000E7000008E7000008E700000893
:1000A000F90B0008E7000008E7000008ED1C000855
:1000B000E700000800000000ADDEEFBE0700000012
:1000C0000348854600F014F800480047512900080D
:1000D000904100200448804704480047FEE7FEE7BF
:1000E000FEE7FEE7FEE7FEE72D1C0008C100000862
:1000F000064C0125064E05E0E36807CC2B430C3C7B
:1001000098471034B442F7D3FFF7DEFF6C2C000899
:100110008C2C000803460B439B0703D009E008C959
:10012000121F08C0042AFAD203E00B780370401CA7
:10013000491C521EF9D27047D2B201E00270401C35
:10014000491EFBD270470022F6E710B513460A4657
:1001500004461946FFF7F0FF204610BD70B504466F
:10016000002903D000202022012310E0002801D024
:100170000020C043C046C0460DE02546D5408D4214
:1001800005D30D469540641B1D4695404019154604
:10019000521E002DF1DC214670BD000070B5002517
:1001A00004462E46002911D0002C01DA01254442D4
:1001B000002901DA012649422046FFF7CFFFB54268
:1001C00000D04042002D00D0494270BD002C02DA20
:1001D0000121C90702E0002C00DD03490846C046A2
:1001E000C046214670BD0000FFFFFF7F80B50AA01A
:1001F00001F034FC01F01AFC0C48017820220A437B
:10020000792A02D14078002804D009A001F026FC08
:10021000002080BD012080BD41726520796F75206E
:10022000737572652028592F4E293F001C04002049
:1002300043616E63656C65642E000000B0B50446D2
:10024000FFF7D4FF00282DD0022C01D026A000E01B
:1002500015A001F003FC00F049FAFA4D022C07D07A
:10026000012C17D11D200103F34800F065FA11E0BD
:100270000124204600F092FA00F060FB28681D4936
:100280000143296000F05AFBDD4800214172200241
:10029000194908600120C007296801432960E44822
:1002A00001F0DCFBB0BDC04645726173696E672E1C
:1002B0002E2E506C65617365207761697420666FBE
:1002C000722035207365636F6E6473207468656E89
:1002D00020706F776572206379636C652074686540
:1002E00020626F617264210045726173696E672ECE
:1002F0002E2E0000040001002804005096B007A82C
:1003000023300190BE4F786A8047002802D0F869F8
:100310008047F8E7BBA001F0A1FBC54801F09EFBB8
:10032000CA4CD64D01F082FB6078002811D12078AC
:1003300001465239082910D901467239082935D8A1
:100340007944097949008F4413040404DE0442040B
:10035000C100BF4801F082FBE4E7C0467944097957
:1003600049008F4405040404D0043404B300F0E7CA
:10037000FFF73CFF0028D5D0AF480068401C00D1F3
:10038000ACE0AE480068B049884200D0A6E0B3A017
:1003900001F064FB7878012801D17869804700205A
:1003A0007870A548406838628047BBE7452800D18F
:1003B00090E04E2804D0652800D18BE06E28C8D18B
:1003C000A4A001F04BFB9A4801F048FBAAE7FFF715
:1003D0000DFF0028A6D0A5A001F040FB00F086F993
:1003E0000020079002901590786A8047002861D11C
:1003F0000798411C0791A049FFF7D0FE0029F3D1CF
:10040000B96943208847EFE7F8698047F869804772
:1004100002980790F869079C8047AC4205DC079971
:10042000984A50540798401CF3E7F869804715989C
:10043000C00707D1159880027F4940180499C90266
:1004400000F07AF904987872159880028C49411866
:10045000039179490818051D8A4F2C1F039884427F
:1004600019D2386805907868069000F067FA7549E7
:100470000868049E3043086005982060BFF36F8FC2
:100480000698286000F05AFA6E490868B043086080
:1004900008350837E1E75A4F02987872049800024D
:1004A000794908601598401C1590B969062088475D
:1004B000664C724DF8698047042813D001210491DD
:1004C000C943C01E88429FD2674E0FE00220FFF74B
:1004D000B5FE27E70120FFF7B1FE23E7624801F0F0
:1004E000BDFA1FE7B96906208847514E0120C007B1
:1004F000544A116801431160644801F0AFFA304674
:1005000001F0ACFA0EE707AD3722284660A1FFF7ED
:1005100001FE4A49086800264B4A904201D0344601
:1005200000E04C68E0B204940A210391FFF716FE44
:100530000690014630312977200A0590C0B2039910
:10054000FFF70CFE0146303169760921CA43069C4B
:100550005443049961183023194369770692504334
:100560000599401805931843A87635480068364920
:10057000884201D1324886882B21534B08460F21EF
:100580003140595C07AA1154411E3609F6D11F218A
:100590000246203A0B2A05DC07AA135C5354491C77
:1005A000401CF5E707A80024049044543A20019920
:1005B00008708C711F490868234A904200D14C682A
:1005C000E0B20A210291FFF7C9FD0546014630312C
:1005D000019E3171200A0390C0B20299FFF7BEFD5F
:1005E000014630317170069A55432919059B19430C
:1005F00071714243039810181843B07004988AE64A
:100600001000002047484920456C656374726F6E86
:100610006963732C204C4C430D0A4455454C696E5C
:100620006B20426F6F746C6F616465720000000034
:100630006E2B0008B800000800300008B830000831
:100640000070FF1F14200240ADDEEFBE1C0400202E
:10065000722B00084455454C696E6B0053746172EF
:1006600074696E672E2E2E00832B00085761697403
:10067000696E672E2E2E000032330000FF0300004B
:10068000003400089C04002028040050B32B00080C
:1006900047484920456C656374726F6E69637320C7
:1006A0004455454C696E6B207630312E30333A42DA
:1006B0004230313A30312E3030000000000000006E
:1006C0000000000000000000A32B000881B0E349F7
:1006D0000A680092009A401C012804DB0A68D203D1
:1006E000D2171018F8E701B07047C046B0B50C48F3
:1006F0000C49816000210E4A0E4B974C092906D8FF
:1007000085686D0301D513608460491CF6E7C168F4
:10071000002900D4B0BD0449016004490160B0BDA6
:1007200008200240FB83000023016745AB89EFCD21
:10073000403000084B530000F8B5124A8918C90A26
:100740001F22D2068018C40A0D19E70000F0F6F83F
:100750000D4E3068AC420AD20E49084038430E496B
:100760000843306000F0EAF80837641CF1E7022122
:10077000884330600548002141720120000204498D
:100780000860F8BDFF0700001420024010000020A0
:100790002804005005FEFEFF02000100F0B585B000
:1007A000344C636A616A049161696669A269E269AD
:1007B000A26AE26A626FC9B2AA2901D10A4600E0C0
:1007C000BB22CC2900D10A4601252F0631460397CA
:1007D00039400F0EB8423AD102923F210A040B4031
:1007E00001930499114004910743FFF77FFFE80349
:1007F0006060802060601020606020206060A068E1
:10080000400003D51C4820601C48206001980499D2
:1008100001436162002F029A01D1039900E0002197
:10082000174806400E4332436069164901401143A0
:10083000616100F083F82E466D04A0682843A06033
:1008400000F07CF8A068A843A060002F01D005B09C
:10085000F0BDB007F106A2680A43A260A168014397
:10086000A160A068F007A1680143A160A06802F040
:1008700061F8C0460C2002403B2A19087F6E5D4C8F
:1008800000FFEF3E000010C0FEB50592089A0492EA
:10089000039302910F2182010840012383400193B9
:1008A0008802104005210907401801A900F056F8F8
:1008B000FF2000900098012802DB0098401EF8E716
:1008C00006B080BD70B52421012444540146243172
:1008D0004A78022A2AD103681A680E24A2431A60B1
:1008E0001C68012294431C60446C2568114B1D4018
:1008F0002560046C1C2525401446AC400E4D2E6826
:1009000026432E60846CC56C6560046D002C05D098
:1009100025681D402560436D846D5C6000240C706B
:100920004A70816B002903D0884701E00421C1632C
:10093000204670BDFFFEFFFF04000240054801682D
:10094000C903FCD40168044A0A40026001684903F3
:10095000FCD4704710200240FAC30000F0B585B007
:100960000546002204920292144601910A68134639
:10097000E34051D001273E460394A640324242D084
:100980004B6810221A43122A15D11C2202980240E9
:100990000F24234693400398C108890068180090EB
:1009A000006A984301990B692340019993400343DE
:1009B000009803624B6803201C460440049A94404C
:1009C00090402A68824322432A60C243122B13D8E4
:1009D0009F40124C27420DD0AF681740CC68049856
:1009E00084403C43AC601809039CA0406C68B4434D
:1009F00004436C60032B06D0EB6813408A68049CA8
:100A0000A2401A43EA60029A121D0292049A921CB2
:100A10000492039C641CA9E705B0F0BD0600060023
:100A2000B0B504460C4D68687D21C900FFF796FB00
:100A3000401E0A494860FF200006094A13688343A4
:100A400003208007181810600020886007200860C5
:100A5000032C00D82C60B0BD0000002010E000E0A6
:100A600020ED00E0F8B50724044040B2002809D486
:100A700028206043554A10185322920087180020FE
:100A8000787006E028206043504A171801207873D8
:100A90000C37402038613C70F970022901D10020E8
:100AA0003871A3208000494B1A5C012A00D18CE0E8
:100AB000A2001D68AB180095AA58454E16400329A0
:100AC00005D0012906D0002907D1012200E0032228
:100AD000520201E00122920216433E4A16431E6072
:100AE0001D683D4E35402543AD181D603D7B002DF2
:100AF00068D17D78002D1FD0E400384D6659384DFF
:100B00003540364EA551FD880327BD43334F324E45
:100B1000E7592F43314D67511C68640605D51C68A1
:100B200034401546403525431D6030361C6834403E
:100B300001291FD1144344E0E100284A89184A687A
:100B4000F74D15404D60FA880325AA434D681543BB
:100B50004D604A683F25AD06AA434A60091D3A69BF
:100B6000002A09D03E2A0BD80125154052085219F7
:100B7000950603E0203223E00122D5070A6809E048
:100B8000D5065209002D00D1521E92060D6815435C
:100B90000122D2072A430A601968490404D519685A
:100BA0003140104A0A431A60002C04D019680E4ADA
:100BB0000A400E4C04E0009909680B4A0A400C4CAC
:100BC00054401C600021014A1154F8BD640000200B
:100BD0008F89FF07808000000F0FFF0700980040FB
:100BE0000000FFFF80C000000F3FFF0780A0000053
:100BF00080B00000FEE70000F8B55F49086884692E
:100C0000836902686405640F26D00124DD0506D5DA
:100C1000150604D525024E6C26434E64C5615D055C
:100C200007D5150605D5A5024E6C082737434F6436
:100C3000C5619B0507D5120605D562024B6C0224DF
:100C40001C434C64C261496C0B20014200D18BE013
:100C5000494800F0EFF8F8BDDC0601D5D40640D4D1
:100C600004241C4001D055073ED41D0701D51507AB
:100C700051D49D0701D5950754D49B0674D592068F
:100C800072D52022C2610822C26141228B5C895C3C
:100C90000168FE22914301600121CA0343681343A6
:100CA000436042683A4B13404360002C14D08A02E0
:100CB0003249CB6B93420FDA426A0B6C304CE254F0
:100CC0000A6C521CD3179B0DD3182E4C1C40121BC0
:100CD0000A64CA6B521CCA630168B8220A430260E4
:100CE00042E01021C161F8BD2449CC6B426A012366
:100CF0009D02AC422BDA086C214B1A54086C401C44
:100D0000C217920D82181F4B1340C01A0864C86B9B
:100D1000401CC863F8BD0821C1618169C9031BD5A6
:100D2000F2211AE015494A6C012A21DB8A6C164B24
:100D30009A5C8262886C401CC217520D8218134B59
:100D40001340C01A8864486C401E4864F8BDD9033B
:100D500042680A434260F8BDF42102680A43026017
:100D60000648817A002900D0F8BD01218172F8BDC2
:100D7000FF218162F8BDC0469C1C002010000020AD
:100D8000F024002000FCFFFFF028002000F8FFFF07
:100D900000E800FE80B5806A816B002901D0002246
:100DA0008A63C16B002901D000228A6300F096FAA1
:100DB00080BD10B5CA0701D1002308E04122825C42
:100DC00028231340282B01D0F22300E042238A0776
:100DD00001D41A4609E04122825C28241440282CC0
:100DE00001D0F42200E044221A430BB2002B01D5BB
:100DF000B8231A43102901D190231A43202901D185
:100E000020231A43402901D140210A430068016888
:100E10009143016010BD00688169890701D50021F7
:100E200081628169C90703D1816901220A43826114
:100E30007047000070B504460546403568780026C6
:100E4000AE704F4AE2626685626C0A43626428387B
:100E5000022807D803212046FFF7ABFF282068703F
:100E6000304E19E047492046FFF7A3FF2046FFF721
:100E7000D2FF687860280FD02020687021688A69C6
:100E8000920609D58A69D20605D51022CA61626C1C
:100E9000042313436364C8616663A06B216B00285D
:100EA0001AD0212901D0112916D121680A685204CB
:100EB00004D5012292030B6893430B602521415C0A
:100EC00001291DD00021297017498163FFF7FAFC21
:100ED000002818D0A06B20E0E06B002810D0222959
:100EE00001D012290CD121680A68120404D501220C
:100EF000D2030B6893430B602521415C012903D188
:100F0000204600F0EBF970BD00212970064981638D
:100F1000FFF7D8FC0028F6D0E06B816B884770BDE6
:100F20000000FFFFD90F0008950D000870B50446BA
:100F3000E948E0620025256326464036202070708F
:100F40006563B570480712D5606A2168496A017007
:100F5000606A401C6062208D002808D0618D491EA7
:100F60006185401E2085606C042101436164054950
:100F70002046FFF71EFF357020681021C16170BD4B
:100F80000000FFFF03800000B0B501680A68044656
:100F900040340025A570530403D4120405D50D4A2E
:100FA00000E00B4A0B6813400B606178292902D1DD
:100FB0000121212204E061782A2907D1022122227D
:100FC000282363700263FFF7F4FE2570B0BDC046AE
:100FD000FFBFFFFFFF7FFFFFF0B585B00D46044662
:100FE0004020215CE06A012901D1022047E1264628
:100FF000403601233370A90601D5910623D4E906B2
:1010000001D5D10658D4690701D5510769D42907FC
:1010100002D5110700D5BBE0A90700D42DE1910747
:1010200000D42AE1618D002900D1E2E02068616AE4
:101030000A788262481C6062208D401E2085608D87
:10104000401E608519E1206801680391E16A019101
:101050000496717820220292C2612139CFB2092F01
:1010600010D88C49F940C9070CD078008AA1095AD8
:1010700020461E46FFF79DFE3346B8008BA1085858
:1010800020632068DF034168394341604168914A29
:101090000A40426020461E46FFF7BDFE039B5804EF
:1010A00037D43B42324640D020680168B9430160E2
:1010B000E06B002836D138E0618D002900D180E056
:1010C00021681022CA61616C04220A436264190615
:1010D0000843884200D0D0E0616C2046FFF7AAFEAA
:1010E000CBE0618D00290CD0616A2268526A0A70D7
:1010F000616A491C6162218D491E2185618D491EED
:101100006185618D002900D0B7E07349884274D1B0
:10111000B3E0B00321680A6882430A60A06B00282C
:10112000324602D00068406860856807049E10D58A
:10113000606A2168496A0170606A401C606204202C
:101140008543208D002804D0401E2085608D401EE0
:101150006085608D002803D0606C042101436164C8
:10116000E8066AD5D80668D5608D002849D0206881
:101170001021C161606C0421014361641006019972
:101180000143814259D1616C2046FFF753FE54E080
:101190007078282101402068282925D11D468169C1
:1011A00081698268C368E368022B05D1090CD20902
:1011B0004A405107890F64D0E9032046FFF7F9FD43
:1011C0005BE07178282902D15906884242D07178B3
:1011D00022681023D36129294FD13F4988424CD03E
:1011E0002046FFF718FE08E0002131700821C16198
:1011F00043E01906084388423FD12046FFF7C4FE6A
:101200003BE07078282808D150060199814204D12A
:1012100020462946FFF78AFE0FE0707821681022E9
:10122000CA61292809D12C480199814205D020465C
:10123000FFF7F1FD2046FFF7A7FE0027B7706763B1
:10124000606C00280BD0616C2046FFF7F3FD7078CE
:10125000282812D120462946FFF768FE0DE0E06AF3
:101260001D4DA84201D1707803E02046FFF78CFEA7
:10127000E56202987070377027630020307005B007
:10128000F0BDA16C491CA164A16C0229F5D100211B
:10129000A164ABE78303000001800280018001802C
:1012A0000180018001800380018002802100000014
:1012B00022000000210000002100000021000000A9
:1012C00021000000210000000000000021000000BB
:1012D0002200000000E800FE0000FFFF0146403150
:1012E0004A78602A01D120224A7000220A700263E3
:1012F000704700000120800502490A6882430A60A5
:101300007047C0463C1002402148C06B002801DCF9
:10131000002070470120704710B51D49C86B012897
:10132000FCDBC86C0A4A105CCA6C521CD3179B0DBC
:10133000D318084C1C40121BCA64EFF3108272B61B
:10134000CB6B5B1ECB63D10700D162B610BDC0462C
:10135000F024002000FCFFFF0D494A6C0123DB0252
:101360009A4214D00A6D0B4B9854086D401CC2175A
:10137000520D8218084B1340C01A0865EFF3108015
:1013800072B64A6C521C4A64C00700D162B67047FC
:1013900010000020F028002000F8FFFFF0B58DB00D
:1013A000002500950B20022729462A463B46FFF7D9
:1013B0006BFA00950C20049029462A463B46FFF71D
:1013C00063FA012420020590052000070169090540
:1013D000AB4BAC4E0695079403D50169C90400D503
:1013E000BBE06103DA6B0A43DA63DA6B0A40089206
:1013F000089A9A6D32409A651A681202FCD5DA6B27
:101400000A43DA63DA6B0A40089208990B970A9547
:1014100009950324E102089108A9FFF79FFA9A4E63
:101420003772B771042030719848014640393160F5
:101430009749725C002A03D1A32292000023B3547F
:1014400074540268934B13400360934A81322B46D5
:10145000079D002A10D0B418C4270021E151C027ED
:10146000E151BC27E151AF27E155AC216354AD21D7
:10147000655428325B1CECE700221346042B14D081
:10148000B1185724A40000270F51FF2528465030DB
:101490000F54532080000B544E354F55079D0819AB
:1014A0004760876028325B1CE8E7402400273755F7
:1014B000764A15601068A8431060106877490840A4
:1014C000106057607772724835543776802070828A
:1014D000C02070873046843007735321890071180B
:1014E0000F73CC806721890071180F73059ACA8029
:1014F00011464031C1800420FFF7E8F88821684890
:10150000082242546321C900711884228150772136
:10151000039444546D21742902D04754491CFAE7BE
:101520003B463C46C1184F830F838F837F22224066
:1015300004D0012A06D0022A0AD1BDE06D228554CA
:10154000584A04E06E2200258554079D564A4A6198
:10155000641C0C33242BE5D1B2E0544EF4605448A3
:1015600054493160706000950B20122706220392C7
:1015700039462346FFF788F900950C203946039A2F
:101580002346FFF781F97561B561A420B060F94F7A
:10159000786DF64908407865A005F96B0143F96359
:1015A000F96B014008910899F54D2A6840210A43DA
:1015B000BF239A432A60EE4A521CF04B1A60FA6B22
:1015C0000243FA63FA6B0240089208984122B05C29
:1015D0000028254601D1069870542420B054306864
:1015E0000168A94301600F210B0674689C430461E4
:1015F0008468E64B1C408460F468012C03D1EC0342
:10160000B76827438760EC024768A7434760446890
:10161000DF4F27434760C4681C40C4603369746966
:101620001C43B3691B022343C360F369346A1C4340
:10163000046003682B430360069C74642023B35446
:1016400034634222B454EA430368134003600368DE
:10165000CD4E334003600368036003682B4303608F
:10166000036813400360090202688A43026001684C
:10167000294301600168B8220A4302603FE0C04686
:1016800000100240FFEFFFFF64000020405C0040BC
:101690008D0200007F40FFFFDFFEFFFFFFFFFF7FA7
:1016A000F03000209C1A00209C0A00209C1C002086
:1016B00050189000005800406F228554B54848618A
:1016C000AF4810380168039A1143BF22914301606B
:1016D0000598AA490860A3208000315C012909D03F
:1016E0000021315430684164AB490164E903826DE3
:1016F0000A43826505985E30FEF7E8FF069C009578
:101700000A2002212A462B46FFF7BEF8AB03994A6E
:10171000106C18431064A14FE1204102A04813C788
:101720003C607C600499B960FC60116C04931940C2
:1017300008910899924B19688D4A11408E4A521CA3
:101740000A431A60E9068D4A11600C3F3E68316811
:10175000202421433160690732680A4332608823BC
:10176000F958002902D18421069A7A54242103933E
:10177000F9503168A9433160B9683A690A43796917
:101780001143FA690A433168864B0B4013433360B7
:1017900071687C4A1140FA680A437260B9693A6A12
:1017A0000A43B168804B0B401343B360F26A0F21C8
:1017B0008A43796A0A43F2627C4A964205D086429D
:1017C00010D16C48406D80070CD1794A794850603F
:1017D000684A9268920A1C23134077A2D2581F23AA
:1017E0001340D84049007CA2515AFEF7B7FC7968F3
:1017F0004A081018FEF7B2FC014610397C4A9142A3
:101800002FD80294F0600924E0027168814371606E
:10181000B0682A218843B060306828433060902047
:10182000069939507967B9677248B8669548C168B2
:10183000306800071FD5019468050C4600F0FEF9DA
:10184000002815D0EFF3108085F3108839680A68F6
:1018500080239A430A6080F3108802980399785095
:1018600029E0069D7D67BD676248B866414A2FE062
:101870003E682146019C306840071ED5A80500F04F
:10188000DDF9002819D0EFF3108085F3108861018D
:101890003A6813688B43136080F31088EFF310806D
:1018A00085F3108839688A68AA438A6080F31088B3
:1018B0008C2002993950069D07E00299039839500F
:1018C0008C203950069DFD663D672A4A84203D5490
:1018D000D44CA07A0028FCD0A07A012804D0079824
:1018E0008005D16B8143D163A07A02280BD0424896
:1018F00005990160BFF34F8FBFF36F8F07984003C7
:10190000D16B8143D163A07A032803D0106C049972
:10191000884310646570A07A01280FD0022812D085
:10192000032818D1079A0092092002211346FEF7D6
:10193000ABFF3A483A493B4A3B4B08E0334834490D
:10194000344A354B03E02D482D492E4A2E4B626216
:101950006361A161E06107996170009518202A46D2
:101960002B46FEF791FF0DB0F0BDC046FFCFFFFF45
:10197000FFFFFF0000100240FFFFFF7F00E100E0DB
:1019800018E400E0FFCFFFFFFFEFFFFFFF7FFFFF47
:10199000008000029C08002080BF00008803002017
:1019A00000380140F369FFCFFFF4FF11004400400D
:1019B00000000020006CDC020000000000000000BD
:1019C0000000000000000000010000000200000014
:1019D00003000000040000000100020004000600F3
:1019E00008000A000C0010002000400080000001E8
:1019F000EFFF00000100010080E100E0DD270008AA
:101A00005528000881270008311E00081913000816
:101A10005913000809130008F5120008D12800081E
:101A20001D290008C1280008AD28000870B500264F
:101A3000FB4D094CE8698047A0550A2809D00D28BC
:101A400007D0701CC117490E41187F229143461AD6
:101A5000F0E70020A05570BD1C04002070B50446BE
:101A6000EF4D2078002803D0A9698847641CF8E767
:101A70000024054E022C04D0305DA9698847641CFF
:101A8000F8E770BD100000206B2B0008704770470E
:101A9000F0B585B00646EFF3108372B681004D486D
:101AA0000468615830220A40202A35D103940493F7
:101AB00028217143401801900C300290002E2FD045
:101AC000454DA8196C21405C002857D02C462C3479
:101AD000402120460091FEF736FB0C207043291868
:101AE0000A460E320B46083310310020402824D01D
:101AF0000F88002F23D017881D68ED5D364E3718EC
:101B00002C26BD5515886D1C344E354015800D882A
:101B10006D1E0D80401CE9E7D80758D162B656E02B
:101B20008C202D4E3158002928D030468847346FFC
:101B3000002C23D07420305C03E0009801E00028E2
:101B40001CD003220240511E13468B4181B2C91C96
:101B50008908CD1A01994B8A21495B18002D11D0B3
:101B6000267867783F02BE19A778E1780902C9197B
:101B70000904891902C36D1E241DEFE7029802783B
:101B8000184819E0002A0AD000252E462178A940DD
:101B90000E430835641C521E1104F7D11E600299D1
:101BA0000A78D1000E4C63589BB26350635800040E
:101BB000184360500B4810309100039C62580A4B48
:101BC0001340434063500498C00700D162B605B08B
:101BD000F0BDC04664000020F0300020FF0100008E
:101BE00000980040A08000003F0FFF0770470000F2
:101BF0008B48C168491CC160417A012910D1016933
:101C0000491C01610169C9070AD102780649002A05
:101C100000D11031012213020B6001785140017094
:101C20007047C04610000020180400500120C00674
:101C3000014908607047C04608ED00E0F0B5294A48
:101C400014680123DD02764EE769074087420FD012
:101C5000F7687F1A7F0E0DD127687F07F4D5E769F3
:101C60003F0709D4E7692F42EED00320202106E088
:101C70000020F0BD0320F0BD082529461846256246
:101C8000EFF3108483F3108809256D011668376817
:101C9000AF43376084F31088EFF3108483F3108828
:101CA00013689D68104E2E409E6084F31088D36E9A
:101CB000012B0BD1EFF31083012484F310881468F7
:101CC00025681026B543256083F310888C232024D3
:101CD000D45084230024D454D4669023D150546724
:101CE000F0BDC04688030020FEFFFFEFFEB50121D6
:101CF0004A484B4A4B4B4D4D061F366801AF3E805C
:101D0000B60666D501AE368836070E460ED401AE4D
:101D10003688B6070E4609D401AE3688F6070E4659
:101D200004D101AE368804273740BE086F463E70A6
:101D3000466802AC26703C78E407DDD1947A002C2A
:101D400034D102AC2478562C2BD002AC2478762CDB
:101D500027D002AC2478582C23D002AC2478782CDD
:101D60001FD002AC2478452C1BD002AC2478652C03
:101D700017D002AC2478522C13D002AC2478722CE9
:101D80000FD002AC24785A2C0BD002AC24787A2CD9
:101D900007D002AC24780D2C03D002AC24780A2C96
:101DA00017D1947A002C01D103249472146B9C42B5
:101DB000A2DC029C966B1C4FBC55946B641CE6170E
:101DC000760DA6192E40A41B9463146B641C146337
:101DD00092E769460978C9071FD001A90988090750
:101DE00003D5016808220A43026001A9098889070E
:101DF00003D5016802220A43026001A90988C907C4
:101E000003D0016801220A43026001A90988490739
:101E100003D5016804220A430260FEBD2038014058
:101E200010000020FF070000F01C002000F8FFFF5A
:101E300001200102054A1160BFF34F8FBFF36F8F7E
:101E4000400303490A6882430A60704780E100E06A
:101E50003C100240F0B591B0EFF31080029072B6E2
:101E6000EFF31080019072B60122D703E54C206891
:101E7000416C0904049736D4E349491C426C0A4278
:101E800000D1D2E3416CE14A0A4042642546002475
:101E9000DF4F20462146B84780200D902146B847A5
:101EA000812002263146B84730463146B847832064
:101EB00003263146B8477620F4490E5475200C5459
:101EC00028688268F24B1340F24A5A40826001202F
:101ED000C86700F0A3FCA3208000295C012900D082
:101EE0009CE328689FE3D10703910C92416C39422F
:101EF000C2D0456C0F212A4605910A4096008359AD
:101F00001121C9020B4200D1D5E03B400A210E91BC
:101F1000EE4F0E99002903D00E99491E0E91F8E755
:101F2000079308950696D100791849680B0C03258C
:101F30001D40691E274614462A468A411E46D2493C
:101F40000E400996F11C8908561A28210A9461430B
:101F50007918A9225200895ADC4A8A18D8492C31AA
:101F6000002E0AD010CA0C70270ECF70270C8F706D
:101F7000240A4C70761C091DF2E7002D0AD0126865
:101F8000002426461746E7408F550834761C6D1E00
:101F90002F04F7D10A99002943D00C204843C84F99
:101FA000391808460E300B900D46103508460C3097
:101FB00008310D912C370024099900292BD03A784B
:101FC0000FAE32700D9A12680F9E0388D6540288A5
:101FD000521CBF4B1A4002802A88521C2A805A1C6D
:101FE0002B8893420C9A00D02246D3070FD00023AF
:101FF0002B8003800B9C23800D9B1B680F9C068805
:102000009C552B885B1C2B8003885B1C0380491E1E
:102010007F1C1446D1E79B4C2068049F0C9B069EB6
:102020001CE00999A64A049F069E5B24E40000294F
:1020300007D01419551C2C3212782270491E2A46DA
:10204000F3E774219E4A535411191167A14A917AFA
:10205000002901D1022191728A4C0C9B089D815963
:102060009D4A114080220A438251079948424841C3
:102070000A9A002A194600D1014600291BD1954829
:10208000007A012817D1934A1179002900D007213D
:10209000906AD46A00190D1B09998D4200D30D4630
:1020A0008749096F2A46FEF735F860198949C862E1
:1020B000744C0A9A089DE80609D423689959104679
:1020C000854A114039439951FFF7E2FCA4E2EFF34E
:1020D000108572B6002A24D00C2050437849081885
:1020E000008A7B49491C884200D391E2D00077499D
:1020F000081841681346FB4A1140416028215943A2
:10210000604B5918572292008958001D00291ED093
:102110003E2964D801220A40490889188A060168C4
:1021200066E06A4A5068F1490840506057208000D4
:102130002058002809D03E280BD801210140400832
:1021400040188106614A50680DE050680AE0016855
:102150004DE0C1064009002900D1401E81065B4ABE
:102160005068084303990843506024682068554923
:1021700008405549484020605648007A002800D061
:1021800046E274204E49085C00286DD0086F027842
:10219000212A0D953ED0A12A6BD14578212D69D1F8
:1021A0008278C1780B0221259A1800D03FE182790C
:1021B000C3791B029A18072A00D038E102794379C3
:1021C0001B029A18CA49CB799A4200D02FE190207D
:1021D0003B49C74A0A509420C64A0A5025E1CA061C
:1021E0004909002A00D1491E8A0601681143039A51
:1021F0001143016018688159324A1140324A5140F6
:10220000815105E264000020FF030000FFFB000095
:10221000650A00084578222D00D1EAE0202D29D159
:102220008278C1780B0220259A1800D0FFE08279CD
:10223000C3791B029A18072A00D0F8E00279437983
:102240001B029A18AA49CB799A4200D0EFE0942059
:1022500000211B4B19521F4AA5489062D1621946B2
:102260000C98107210710D9D0A468C210020505060
:102270001DE14578092D00D9D9E0AB0006A6F35839
:102280009F46C04664000020FF030000F03000209D
:102290000F3FFF0780B00000DD2200082F24000858
:1022A0002F2400082F2400082F24000823230008CF
:1022B0002F2400082F24000867230008AF230008FC
:1022C000F03000200F3FFF0780B000000098004072
:1022D000FF0F0000100000200F0FFF078178C37868
:1022E0001B0259180D9D00D07DE18179C3791B0235
:1022F0005918022900D076E176217F4B5B5C032BD5
:1023000000D170E105990A4000D10FE1022A00D105
:102310000FE1012A00D066E110A8052B00D158E199
:1023200061E18178C278120251187F290D9D00D990
:1023300059E1027943791B029A1800D053E182795E
:10234000C0790002801800D04DE176206A4A125C04
:10235000042A00D947E17526674A9155002900D122
:10236000F1E00421F0E08178C278120251180D9D4D
:1023700000D038E1017942791202511800D032E1DF
:102380008179C07900024018012800D02BE1762025
:10239000EA49085C032800D125E19420FB4AE94979
:1023A0001150104678309021505011467BE0017951
:1023B0004279120251180D9D00D014E18179C27941
:1023C0001202511800D00EE17621F04A525C032A25
:1023D00000D108E18278C07800028018012800D975
:1023E00001E17822E94B9854002800D1C4E005208F
:1023F000C3E08279C1790B0222259A1817D182781D
:10240000C3781B029A18531E9A419823DF49CA5475
:10241000027943791B029A18C949CB799A4206D1AD
:1024200094200021FB4A115211460D9D3BE0827918
:10243000C3791B029A189627F649CA53002A2DD051
:102440008378C6787620085C03280BD8C86F0028EC
:1024500008D07720085C824200D30246FC49CA5368
:102460000020C867942000270F5290200F50062D9F
:10247000049F0D9D00D0B6E031020E0A0F2E19D038
:10248000022E1ED0032E23D0012E00D0ABE0F04947
:10249000B34B0B50122A04D3122202E00022049FF5
:1024A0000D9D94200A528C20CB4A0A500020FFF741
:1024B000EFFAADE0FB49A44B0B501D2AF1D31D22CE
:1024C000EFE7F849A54B0B50432AEAD34322E8E74C
:1024D000C918C9B2032900D985E003A3595C490092
:1024E0008F44C046FFFFFF030C131A21FFFFFF03B9
:1024F0000800002007000700F0300020E949964B53
:102500000B50042ACDD30422CBE7E6498F4B0B5066
:10251000202AC6D32022C4E7E2498D4B0B502E2A35
:10252000BFD32E22BDE7DF498A4BB2E7DD488030BA
:102530004FE00179427912025118042B3AD1002957
:1025400051D1002138E00321D64D295400F066F91D
:102550008C20A1492950942100206852FFF798FA55
:102560002068302101402029FAD1CE48805D8021A9
:102570000143E1640D9D4BE00420CA4D685400F016
:102580004DF98C2094492950942100206852FFF77E
:102590007FFA8824295D6D2630466C3888420D9D6F
:1025A00036D2C04DAA5D002A02D0FFF771FA295D2C
:1025B000761CF1E77F2211400022427101718820D0
:1025C000B84A105C81420ED28420B64A10584900A5
:1025D000401894210222B34B5A52902158508C201B
:1025E0007D49195062E7514B187B80002158504AB1
:1025F00030320A40394690315140215053208000FA
:10260000185C800021584B4A1140564A51402150D5
:10261000E807464C00D162B6206867E42C546C721F
:1026200028680D99C164049F2C46416C490403D568
:10263000416C4D4A0A404264416C890403D5416CA7
:102640004A4A0A404264416CC9041BD5016C042209
:1026500091430164016C082291430164B120800020
:10266000215C012901D100212154192040018D490B
:10267000085C7622885400F0D1F82068416C3C4A0E
:102680000A404264416C090517D57621854A535C9E
:10269000254606245454192149015354016C08223B
:1026A0000A430264416C334A0A404264016C0422CA
:1026B0000A43026400F0B2F82868416C890503D52A
:1026C000416C2D4A0A404264416CC90503D5416CF6
:1026D0002A4A0A4042648D490A7A012A1CD10A79A1
:1026E000002A00D00722CB6A934215D1026830231A
:1026F0001340202B0CD1104A13689BB2136013684F
:1027000013600B4A303203681340B0375F400760F4
:102710000020C862087208710198C00700D162B633
:102720000298C00700D162B611B0F0BD640000206D
:102730000F0FFF070F3FFF0700980040F030002009
:1027400008000020010001004A2B0008092C0008A5
:10275000292C0008572C0008672B0008B42B000810
:10276000F72B000880900000FFBF0000FFDF000093
:10277000FFEF0000FFF70000FFFD0000FFFE00007C
:102780004848008D411E88417047C046F030002007
:1027900070B5054606467436F478308C844200D312
:1027A0000446286FF1692246FDF7B4FC74202C54CE
:1027B000F0690019F061308C001B3084F07884429D
:1027C00005D1708C001B708403D0034802E0002008
:1027D00070840020B06170BD9127000810B5314AA7
:1027E000108D0028FCD0EFF3108172B6106A138DA3
:1027F000002B0AD0D38CC05CD38C5B1C064C1C40D5
:10280000D484138D5B1E138500E00020C90700D11E
:1028100062B610BDF0300020FF0F0000B0B576208A
:10282000204C255C2078A84210D0052801D1C04654
:10283000C0462570052D07D0002D07D18C20002122
:10284000215094202152B0BDC046C046B0BDC04604
:10285000F030002010B5EFF3108472B611490A8BE6
:102860004B699854088B401C0F4A02400A83888B9E
:10287000401C8883888B842008584088C00709D171
:10288000EFF31080C00701D0FFF7E4FA0120FFF753
:10289000FFF803E0088B488300208883E00700D11D
:1028A00062B610BDF0300020FF010000012080035F
:1028B00002490A6882430A607047C04640100240DD
:1028C0009048006B002801DC002070470120704711
:1028D00010B58C48016B0129FCDB0D490968426B7E
:1028E0000C4B9954426B521CD3175B0DD3180A4CF6
:1028F0001C40121B4263EFF3108272B6036B5B1E27
:102900000363D00700D162B6C8B210BD100000202A
:1029100024380140F01C002000F8FFFF04490A6839
:102920001206FCD5C86008684006FCD57047C04652
:102930001C380140BFF34F8F034804490160BFF3C7
:102940004F8F00BFFDE7C0460CED00E00400FA0524
:10295000FEB50020FEF764F8674D286C0124204383
:102960002864286C2040029002982007E96B0143FC
:10297000E963E96B014002910298686B2043686348
:10298000686B204002900298686B022108436863DC
:10299000686B084002900298A8688006400F15D125
:1029A0007F20000269688143A0030818686007203F
:1029B000C00229688143296028688004400F4F497C
:1029C000C1404F4841600068FEF72AF8A005296819
:1029D000014329604B4EF0682968090204D4F1686C
:1029E000091A0329F8D3FEE747480168490709D1C6
:1029F00001682143062291430160016807220A40D1
:102A0000012AFAD17B210902AA688A430B21090213
:102A10005118A9600F210902AA688A43AA6029688F
:102A20001C2291432960AA6807218A43AA60AA68E8
:102A30009206520FFBD102685207920F04D002682F
:102A4000224306239A4302600803A9688143A960D0
:102A50002B482A4941600068FDF7E2FF2004E96B3A
:102A60000143E963E96B014002910299E96A01437C
:102A7000E962E96A8143E9622448254941607F218E
:102A8000090202688A4361035118016001686022EB
:102A90000A43026000242046FDF780FE1D480168BD
:102AA0001D4DA94203D141681C4A91421DD000949A
:102AB0000E20022321462246FDF7E6FE1848006854
:102AC000400414D4174F3868401C10D016480068D2
:102AD000A8420CD17078012801D1706980477470C8
:102AE0007868306280472046FEBD04604460FEF78F
:102AF00055FCFDF703FCC04600100240006CDC02F0
:102B0000000000201000002000200240006C004067
:102B10007FBB2220F85F0020ADDEEFBE2520010242
:102B20001000005000300008B830000802E008C86B
:102B3000121F08C1002AFAD170477047002001E037
:102B400001C1121F002AFBD17047050F1D0001189B
:102B500010050038B60834A909A0478BFDA0768877
:102B600015B66500010100040309040D0A004F4B6E
:102B70002E00496E76616C696420636F6D6D616EC5
:102B8000642E004572726F723A205468652066693F
:102B9000726D7761726520697320636F72727570F0
:102BA000742E0030313233343536373839414243B0
:102BB0004445460009024300020100C032090400F6
:102BC000000102020100052400100105240100019A
:102BD00004240202052406000107058303400010B7
:102BE00009040100020A000000070502024000007B
:102BF0000705810240000012010002020200409F0E
:102C00001B00F400020102030120034700480049B1
:102C100000200045006C0065006300740072006FC6
:102C2000006E006900630073002E034700480049EE
:102C300000200045006C0065006300740072006FA6
:102C4000006E0069006300730020004C006F00619B
:102C50000064006500720012033000330031003759
:102C6000003200300032003100000000902C0008DB
:102C700000000020100000002C2B0008A02C0008F1
:102C800010000020804100003C2B000800000000E4
:102C900004000000006CDC02802500000000080039
:04000005080000C12E
:00000001FF
