:020000040800F2
:10000000006000208D1C0108DD1C0108DD1C0108BA
:1000100000000000000000000000000000000000E0
:10002000000000000000000000000000DD1C0108CE
:100030000000000000000000DD1C010881AE000887
:10004000DD1C0108DD1C0108DD1C0108DD1C0108A8
:10005000DD1C010891AE0008A1AE0008B1AE000899
:1000600021C70008DD1C0108DD1C0108DD1C01089A
:10007000DD1C0108F9A4000811A5000819A5000855
:1000800031A50008000000000000000049A500089C
:100090000000000061A5000879A5000809DF00083C
:1000A00071DF0008DD1C0108DD1C01086DC60008B9
:1000B0008DC60008000000000000000000000000E5
:1000C000030001221040134205D1042B02D9186805
:1000D000000980B270470020FCE7C30711D4042850
:1000E0000FD90F2302681340032B0AD119400133A3
:1000F0005B1AC0215B07C9050B4002490A40134344
:1001000003607047FFFFFF9F03000122022013429C
:1001100005D11000042B02D918680F23184070472E
:1001200010B50400FFF7CCFF002809D0421E830061
:1001300004349000225C002A02D001309842F9D1A8
:1001400010BD0378002B03D05AB2002A01DB013026
:1001500070473F229343C03B59424B41C01803783C
:100160009343802BF4D10130F9E710B500240378D4
:10017000002B01D1200010BDFFF7E3FF0134F6E7AB
:10018000020000787F2809DDDF2808DCF8238001E1
:10019000DB00184053783F22134018437047EF2884
:1001A0000BDCFC21537809019B010007000C0B407C
:1001B000034390783F221040EFE7F72812DCFC2140
:1001C000537889021B030B40E02180044903084057
:1001D00003433F20D17801409078FC220B438001FB
:1001E0001201E8E701204042D8E710B57F2902DC80
:1001F0000170013010BD80231B0199420CDA4023AD
:100200008A115B42134303703F2280230A405B4202
:10021000134343700230EDE780235B02994210DA0A
:1002200020230A135B4213433F24802203708B1167
:10023000234052420C4013432243437082700330E8
:10024000D8E788235B029942D4DAF0230370603B3D
:100250004370113B8A11FF3B1A4382703F221140C9
:100260000B43C3700430C5E7064B1B6818680009D0
:1002700080B20238C343DB17184043000120184303
:100280007047C046FC020020024A536801335360A5
:100290007047C046FC020020024A13690133136113
:1002A0007047C046FC020020024AD3690133D36183
:1002B0007047C046FC020020024A936A01339362F1
:1002C0007047C046FC020020002802DD0B68DA07F8
:1002D00004D41122074B1A70002070475B10013BB9
:1002E000032BF9D80C214B43034AD2180023536047
:1002F000F2E7C04630030020FC0200200A4B002831
:1003000003DD01200A68024204D1112200203433A7
:100310001A7070470C215210013A4A439B185B68CF
:100320005B001843F5E7C046FC02002010B50368E7
:10033000984710BD012A02D1016000207047022AAF
:1003400005D0032AF9D0002AF7D10260F5E70B683F
:100350000360F2E770B50E000400FFF7B1FE050080
:100360003000FFF7ADFE0023854206D1231DAD000E
:1003700004365D19AB4202D30123180070BD197811
:1003800032780C001443F7D0013301369142F1D09A
:100390000023F2E7020010B5102812DC0A4B0B4CC8
:1003A0001B680B494000234208D11B02085E1B0A50
:1003B000012B05D0042A03D1064801E02231085E52
:1003C00010BD01204042FBE70470FF1FF0FFFF005B
:1003D000D837010811020000002070470020704744
:1003E0000420704700207047002804DC1C22054BC5
:1003F0001A70002070470B68DB07FAD40D22014BFE
:10040000F6E7C046300300200123002803DC1C224D
:10041000024B1A70002318007047C04630030020BA
:10042000C3070BD4064B9A6B824207D8DB6B83421F
:1004300004D3031F1B68002B00D018007047C04670
:10044000FC020020F7B501272E4C2F4AA16BE06B70
:100450002E4E082513682B4225D113681B099BB229
:1004600002339B00D218B242F3D30025284E3068E5
:10047000FFF7D6FF013501C6802DF8D1254D28683C
:10048000FFF7CEFF2860206C002802D0FFF7C8FFDE
:100490002064636C002501931F4B1E000093019B99
:1004A0009D4218DBF7BD1B099BB29B00D3189A42F3
:1004B000D3D01D68AC463D420BD1A94209D2A84217
:1004C00007D304256D42AC4465462D68002D00D04D
:1004D0001D60043BEBE73378002B02D10135F03689
:1004E000DDE73C246C433369E4185F1E009BA400E5
:1004F000E418043C002FF1DBA069FFF791FF013FF6
:10050000A061F6E7FC0200200C28002038440020FF
:10051000FC0F002000000020FC1100200123F0B59A
:100520009C4685B0184248D1254B9A6B0092904268
:1005300043D3DB6B019398423FD8031F1B68002B0A
:100540003BD1020003681B099BB2002B1ED099000F
:10055000029102995618614634680C422AD1009DD6
:100560002100A54226D8019DA54223D3251F2F682F
:100570000395002F1ED127683D0717D5151F37603B
:100580002B60236822601B099BB20DE06146131F9C
:100590001960904211D011680B1F1B689C000C1948
:1005A0002568013B156022600A00CEE76146039C86
:1005B0002160CEE71100013BF6E705B0F0BDC04673
:1005C000FC0200203622024B00201A707047C04601
:1005D0003003002000207047002070470020704743
:1005E00000207047002070470020704701207047AE
:1005F00001207047012070470020014B986470472C
:10060000FC020020002802DD0B68DB0702D40D226B
:10061000014B1A700020704730030020002802DDD3
:100620000B68042B02D90C22014B1A700020704772
:100630003003002010B5837904003C2B18D81F4AE2
:1006400099008858421C00D018000DF0C7FEE379CD
:100650003C2B20D8194A99008858421C00D0180019
:100660000DF0BCFE01235B42E3800023236010BD3C
:100670003F2219009143C0290AD1CE2B08D8104936
:100680001A40920089184A6C0C4892001058D9E719
:1006900001204042D9E73F2219009143C0290AD1E5
:1006A000CE2B08D806491A40920089184A6C034894
:1006B00092001058D1E701204042D1E71C440108C4
:1006C000D837010810B5002802DD0B68DA0704D41A
:1006D0001122074B1A70002010BD5B10013B032B49
:1006E000F9D80C2253430348C018FFF7A3FFF2E7E1
:1006F000300300200003002070B5040080790EF064
:10070000CDF8431E9841C5B2E0790EF0C7F8431EFC
:100710009841227AC0B2002A1AD02279D1B2AA42D4
:1007200008D001212268854200D102395218226086
:10073000257170BD62798242FBD02268814204D16A
:100740000121521822606071F3E701214942F8E764
:1007500001212268854200D1023952182260E8E75F
:1007600010B50248FFF7C8FF10BDC04600030020C7
:1007700010B50248FFF7C0FF10BDC0460C030020B3
:1007800010B50248FFF7B8FF10BDC046180300209F
:1007900010B50248FFF7B0FF10BDC046240300208B
:1007A000F0B5B7B0040010F0ABFB01284CD92378AA
:1007B0005B2B49D1013823180193235C5D2B43D176
:1007C000671C3A21380012F0A8FD051E3CD0C61B5C
:1007D000002E39DD39000027320004A812F0ABFDED
:1007E00004AB9F55019B691C5D1ABD422CDD2A009C
:1007F0001DA812F0A0FD642204AB9B182D4E5F557E
:100800000197306800280CD004A910F06FFB071E78
:1008100007D1B568002D04D073680293029BBB42D8
:1008200006DC019B0C3601330193112BE9D10BE05F
:1008300028681DA9039510F059FB0835002824D11C
:10084000039B586800282CD1200010F059FB00228F
:1008500019490B79032B0ED10B681D005B68083515
:100860009B00013BEB189D4202D21E78002E0ED059
:100870001B1A9D420DD901320831FF2AE9D11B22F2
:1008800001200E4B40421A700BE00137C6E7013BD6
:10089000E9E71D780133002DEDD1A84203DC0848BB
:1008A000104337B0F0BD5F5D665DB742E3D10135FF
:1008B000F3E7C0465C1B0020281C0020300300200A
:1008C00000FFFFFFF8B5334C606800284DDBC3B272
:1008D000314D3C2B4DD8314BC2B29200D3585A1CEB
:1008E00039D0A268934236D1EA6C002A33D001266F
:1008F00002271369D968B143D960D968B943D9606F
:10090000D968FF19B943D960D9680437B943D960A8
:10091000D9680837B943D9601F6A21490F4206D107
:100920001F6A20490F4202D11968B14319601600AD
:1009300001214D3631701E688E431E601300573200
:100940004E33197059709970D97019715971997124
:10095000D9711972117050352B5C002B05D0002114
:100960000DF002FF00226368EA5401235B426360DA
:10097000F8BD3F261A00B243C02AECD1CE2BEAD8EC
:10098000094A33409B00D218536C04499B005B58C2
:10099000A5E7C04600000020FC0200201C4401081E
:1009A0001111000044040000D837010810B50348B5
:1009B00011F095F943000120184310BD18570108A4
:1009C000F0B50D0085B016000090002710F046FA33
:1009D000EC0F64196410009AFB00D018BC4218DCBC
:1009E000EB0712D50023013DAD000422711902A8C6
:1009F000039311F09CFB029A039BE143C9170C403F
:100A00000099E40008190EF0EFFE10F01DFA05B091
:100A1000F0BDF1184A78F35C12021A438B78013763
:100A20001B041343CA7812061A430B7901929C46A1
:100A300062464B791B0213438A7912041A43CB791D
:100A40001B061343019A0EF0CFFEC4E770B54E6843
:100A50000A00B51C29000400FFF7B2FF01231D4066
:100A6000AD190235AD00601970BDFA239B004343F8
:100A7000044AD360044B1A78002A01D1FF321A705D
:100A80007047C0467C030020300300200300012291
:100A90000220134205D11000042B02D918680F233D
:100AA00018407047094B0A491A6813021B0A0A4288
:100AB00004D10848012B00D1074870470748102B84
:100AC000FBD00748112BF8D00648F6E70470FF1F4B
:100AD000F0FFFF001C570108335701082457010895
:100AE0002C5701081A5E010870B5054E0400335CEE
:100AF0000D008B4202D00DF037FE355570BDC0465B
:100B00004C030020F0B5684B8BB0022803DC1C229C
:100B100034331A709CE001250E682E4205D04C68D3
:100B20002C4202D08F682F4202D111223433F0E7D9
:100B300073100593013B049300230393032805D00E
:100B4000CB68043B59424B41DBB20393049B032B1C
:100B500000D9A6E00C23049A5448534364107F1034
:100B6000E6B2C018FDB2FFF765FD3C2E00D972E079
:100B70004F4BE2B29200D3580193013301D0E3B25C
:100B800001933C2D00D979E0494BFAB29200D35839
:100B90000293013301D0FBB20293019B013300D1D8
:100BA0007FE0039B002B03D0029B013300D178E050
:100BB000FF2000212040FFF797FFFF200021384051
:100BC000FFF792FF059B3B4F023B022B02D83A4AAC
:100BD0009B009F5806AC0C220021200011F04CFA1B
:100BE000002309939F4204D0344B06970993344B5A
:100BF000089306AC0222210001980DF0FDFA2000B6
:100C000010F03CF9039B002B15D00C220021200092
:100C100011F032FA0023E3609F4204D0274B06977D
:100C2000E360274BA3600298022221000DF0E4FA52
:100C3000200010F023F90C2204991B4B4A439B1807
:100C400000225A601A725A72039A9E72DD721A73E7
:100C500000200BB0F0BD3F2332009A43C02A0AD1D6
:100C6000CE2E08D8174A33409B00D218536C104937
:100C70009B005B5880E701235B4281E73F232A000A
:100C80009A43C02A0AD1CE2D08D80E4A2B409B0089
:100C9000D218536C06499B005B5879E701235B42ED
:100CA0007AE73522084B34E7FC02002000030020DD
:100CB0001C44010861070008583801082D0300088A
:100CC00035030008D837010830030020F0B5514F34
:100CD00089B0012805DC1C2234373A70002009B0A5
:100CE000F0BD01230C681C4202D04D681D4202D1A8
:100CF00011223437F1E76410621E03920022019240
:100D0000022807D08A681100194001911A4201D0C7
:100D100053100193631E032B77D86D10EBB202932F
:100D20000C23621E5343381DC018FFF783FCEBB23F
:100D30003C2B38D8384BEAB29200D358013364D0F8
:100D4000EDB200212800023CFFF7CEFE334E022C0C
:100D500003D8334BA4001B19DE68019B04AC012BA4
:100D600033D10C220021200011F086F90023E3602A
:100D70009E4204D02B4B0496E3602B4BA3600322CE
:100D8000210028000DF038FA200010F077F80C232D
:100D9000039A02995343FB1800229972FF215A606B
:100DA000D9721A739AE73F23EAB29A43C02A2CD128
:100DB000EAB2CE2A29D8E8B21C4A03409B00D218D6
:100DC000536C15499B005B58B8E7019B0C2200212E
:100DD0002000022B0CD111F04FF90023E3609E425A
:100DE00004D0104B0496E3600F4BA3600222C7E7C8
:100DF00011F042F90023E3609E4204D0094B0496AF
:100E0000E360094BA3600422BAE73B003522343388
:100E10001A7063E7FC0200201C44010889020008E4
:100E2000583801082D03000835030008D837010899
:100E30000B4B0C4A1B6810B5134205D01B021B0A52
:100E4000102B01D0002010BD1C200321FFF74CFE09
:100E50001C200DF023FD0128F4D10330F3E7C04638
:100E60000470FF1FF0FFFF000C4B0D4A1B6810B50C
:100E7000134206D010241B021B0AA34202D00020FA
:100E800010BD1B2420000321FFF72EFE20000DF0D3
:100E900005FD0128F3D10330F2E7C0460470FF1FBF
:100EA000F0FFFF001A280DD80A4B0B491A680B4BAC
:100EB0000A420DD11202120A012A06D11B18187E0D
:100EC000FF2801D10120404270473333185CF7E717
:100ED0004E33FBE70470FF1FF0FFFF005838010896
:100EE000F7B501260368334203D0426801923242CB
:100EF00003D10D22174B1A70F7BD5D10772BFBD86D
:100F00002800FFF747FA041EF6DB2800FFF7CAFFA8
:100F1000114F3B5C012B06D031000DF025FC280061
:100F2000FFF7C0FF3E5420000AF0B5F9019B5910AD
:100F30008023DB00994208DB084920000FF08CFB7E
:100F40000122074B5B191A74D6E7CB43DB17194014
:100F5000F3E7C046300300204C030020FF030000ED
:100F60007C03002010B50800FFF7BAFF002010BD79
:100F700070B50D003B2815D8102814D8134B1B183A
:100F80001B7C002B0FD0FFF705FA6B425D4104007C
:100F90000AF081F90E4B694219400E4B2000C91826
:100FA0000FF05AFB70BDFFF77DFF0400431CF9D022
:100FB000094E335C012B04D001210DF0D5FB012338
:100FC0003355290020000DF02DFCEBE77C030020B9
:100FD00001FCFFFFFF0300004C030020036810B575
:100FE000DA0703D40D22054B1A7010BD4168581062
:100FF00004394A425141FFF7BBFFF6E730030020B6
:1010000010B50800FFF7EAFF002010BDF0B518C9C1
:101010000122180087B0104013422FD0200010404A
:1010200014422BD05D10352B0AD94D4B03251B687C
:101030001B021B0A102B03D01235112B00D10E3DC1
:10104000484E494F735D012B05D0012128000DF05A
:101050008BFB012373552800FFF724FF0500431C79
:101060000BD064102200414B103A9A4208D9FFF786
:1010700029FC002128000DF0D5FB042007B0F0BDAD
:101080003B4E7368984201D0FFF71CFC75602D2C15
:1010900002DCFFF717FCF0E7EBB23C2B3ED8354BF8
:1010A000AD00ED58FB6C002B08D1B42011F018FAFC
:1010B000314901900FF007FA019BFB646B1CDCD0F7
:1010C000B3685A1C01D09D42D7D180235B029C4259
:1010D000D3D2012328005B420121F360B56009F0FF
:1010E00006FFFD6C610028000DF04EFE0023280075
:1010F0000393224B02AC0293214B2100E360214B6E
:101100006430A360EB6E002B1BD00FF0BFFE2000FD
:101110000FF0B4FEF86C09F001F9AEE73F201A00B9
:101120008243C02A0AD1CE2B08D8174A03409B001D
:10113000D218536C0F499B005D58B3E701256D42EF
:10114000B0E70FF0A3FEA368002BE0D002222B69CA
:1011500052421A61D96803320A43DA60D7E7C046BF
:101160000470FF1F4C030020FC0200209086010049
:10117000000000201C44010800200040737C00088F
:101180002D03000835030008D83701080A6870B538
:101190001300012448682340224212D00300234058
:1011A00020420ED000235010352A0AD8FFF77AFECD
:1011B00000230500421C04D0054E335CA34202D13B
:1011C0000423180070BD21000DF0CEFA7455F7E726
:1011D0004C03002070B501250A682B00A84200DDF1
:1011E0004B682A4211D02B420FD0012A0DDD581036
:1011F000FFF758FE04003B2807D8054E335C012B4F
:1012000003D001210DF0B0FA3555002070BDC04665
:101210004C0300202C4B10B51B682C4C1B021B0AE6
:10122000112B2BD11320FFF73DFEE0641620FFF7B2
:1012300039FE20650B20FFF735FE60651520FFF7AE
:1012400031FEA0651720FFF72DFEE0650820FFF7AF
:1012500029FE20660920FFF725FE60660620FFF7BD
:1012600021FEA0660520FFF71DFEE0660420FFF7C3
:1012700019FE012320677434237010BD1620FFF778
:1012800011FEE0641720FFF70DFE20651820FFF720
:1012900009FE60651920FFF705FEA0651A20FFF71B
:1012A00001FEE0650420FFF7FDFD20660720FFF743
:1012B000F9FD60660320FFF7F5FDA0660620FFF745
:1012C000F1FDE0660A20D2E70470FF1F7C030020D6
:1012D0000F4B104A1B6870B51340012B16D10E4BF3
:1012E0000E4D1B78002B01D1FFF794FF00242B003B
:1012F0004C33E0580021FFF7F7FB2B006033E05838
:1013000001210434FFF7F0FB142CF0D170BDC0466E
:101310000470FF1FEFFFFF00F00300207C0300209C
:101320000F4B104A1B6870B51340012B16D10E4BA2
:101330000E4D1B78002B01D1FFF76CFF00242B0012
:101340006033E0580021FFF7CFFB2B004C33E0580F
:1013500000210434FFF7C8FB142CF0D170BDC04647
:101360000470FF1FEFFFFF00F00300207C0300204C
:1013700010B500280BDD0A68074C131F591E8B415E
:10138000A367042A05D0FFF7CBFF0023E367002003
:1013900010BDFFF79DFFFAE77C0300200020704797
:1013A0000023012210B50A48990001334250802BD6
:1013B000FAD1084C084B00211A602000074A10F0AF
:1013C0005BFE074B074A6360074B1A6010BDC046BF
:1013D000FC0F00200828002000000020301C000026
:1013E000A07000000C280020FC02002003000B4825
:1013F000DA0704D4042B03D8094800D10948704700
:101400000F211A68181D0A40042AF8D00648092A34
:10141000F5D00648032AF2D00548F0E73C5701080A
:1014200046570108685701084C57010853570108EF
:101430005F570108012310B504001C40184202D078
:101440004410200010BD042810D90F220368134057
:10145000042B07D1FFF7CAFF21000A2210F0E4FD98
:101460000400EEE7032B01D10430F5E70D22014B18
:101470001A70E6E730030020012310B504001C4079
:10148000184202D04410200010BD042810D90F22A9
:1014900003681340042B07D1FFF7A8FF21000A229D
:1014A00010F0C2FD0400EEE7032B01D10430F5E794
:1014B0000D22014B1A70E6E730030020F7B50C004F
:1014C000042804DC1C22144B00201A70FEBD08689E
:1014D000FFF7D2FF01906068FFF7CEFF0600A0681B
:1014E000FFF7CAFF0500E068FFF7C6FF07002069A5
:1014F000FFF7C2FFAE4202D11F22074BE4E7019B78
:10150000C01B9B1B5843A91B0FF0A0FDC319012052
:101510005B001843DAE7C0463003002070B5086866
:10152000FFF7AAFF1C490FF077FE0C1E01DA1A4BD9
:10153000CC181A4B01269C4204DD194B9C4220DC3E
:10154000184B1C1B642120000FF080FD6421050056
:1015500020000FF061FE0A0013496B005B5E002A59
:101560000AD001356D00685E642150438A1A5A43DF
:1015700080180FF06BFD0300012073435B001843DC
:1015800070BD0A4B9C4204DC094BE41801267642EC
:10159000D8E7014B1C1BF9E7A08C000027230000B3
:1015A0004F46000050460000664101087769000080
:1015B000B0B9FFFF70B50868FFF75EFFC317C41826
:1015C0005C40012C03DC01206400204370BD6610E8
:1015D000310020000FF03AFD85196D10AE420DDC90
:1015E000731C1A0031005A437143121B641AA24241
:1015F00000DB330001205B001843E7E729002000EF
:101600000FF024FD4019C30F1B182E005D10E5E7F5
:10161000F0B50E00A1B0022805DC1C2200202D4BE5
:101620001A7021B0F0BD0868FFF726FF040070684B
:10163000FFF722FF0500B068FFF71EFF06000F2D21
:1016400044DD0F2540222449684610F070FD4022F9
:10165000224910A810F06BFD052200233000F1177D
:1016600011F094FE6F4600231D4AAE0080185941C8
:10167000F259002311F08AFEE7170D04020C2A43E9
:101680000B14650CF9032943E0030125FF246D4287
:10169000240624184D414020694609188859002124
:1016A000A4185D4111F072FECE05420A3243600873
:1016B000EE074B1230436910801859412B0022006D
:1016C0000FF0F0FD430001201843AAE7EB43DB17BE
:1016D0001D40B7E730030020C43801080439010871
:1016E0003C050000002310B50C000B70C30705D5A6
:1016F0000D494210200011F0D7FD08E00B490028E9
:1017000002D0042804D10A49200011F0F9FD10BDCF
:101710000428FCD90F2203681340042BF7D1FFF7EC
:1017200065FE04490200E5E7E05801086D5701082D
:101730001A5701086F570108012310B5040008006B
:101740001840194210D104290DD90F220B681340FB
:10175000042B08D10800FFF749FE010020000FF01C
:10176000C5FB4342584110BD0020FCE7F7B50F0010
:10177000012804DC1C22384B1A700020FEBD4D6885
:10178000EB0706D4042D04D90F222B681A40092A2E
:1017900002D00B22304BEFE76C681B099BB2641040
:1017A000A34200D85C1E01233E683340019301230D
:1017B0001E4212D070109E4247DD844245DB8300FA
:1017C000EB180433844243DC0123621C013C9C403F
:1017D0009200535123436B60CFE731001F48FFF75E
:1017E000ABFF002809D0019B9C42C6DB0122019B74
:1017F000013301939B00EA50F5E731001848FFF7E9
:101800009BFF00280AD0002CB7D00122631C013CAA
:1018100094409B0014435A516C60AEE7042E0FD9DC
:101820000F2233681340042B0AD13000FFF724FE47
:10183000002808D10B483968FFF77EFF002804D143
:101840001122054B98E70028B7DC1222024B93E7E0
:101850005A6801301A60B4E7300300207857010855
:101860007C5701086D570108F0B51C2385B001288D
:1018700044DD4B68019301231C00022806D08A68CE
:101880001A4203D054109A4200DC1C000127019B2D
:101890003B4200D073E0042B00D870E00F221B689D
:1018A0000D681A40042A38D13D4226D1042D24D98E
:1018B0002B680B321340042B1FD10198FEF730FC2C
:1018C000A0425CDB2800FFF791FD03780500002BA8
:1018D00055D00198FFF78AFD013C29000600001948
:1018E00011F03DFD051E4AD03378002B01D0AE42E9
:1018F0000DD37C000120204303E00E2300204E4A3C
:10190000137005B0F0BD0F23F8E72823F6E7300089
:10191000FEF717FC01370600E6E7092A3FD1019BD5
:101920005E687610B4422ADC3D422DD1042D2BD9BD
:101930002B6806321340042B26D12800FFF756FDF2
:101940000390019A02940134A300D058854203D138
:10195000029B58003843D4E738420ED104280CD9F2
:101960000F2203681340042B07D1FFF73FFD01004E
:1019700003980FF0BBFA0028EAD0B442E1DD012061
:101980004042BEE7B442FADC230001990134A200D0
:101990008A58AA42F6D101205B001843B1E7032A16
:1019A000EDD11E09B6B25B0FB6001340F61AB44271
:1019B000E5DC3D4228D1042DA5D92B680C321A4014
:1019C000032A15D1180980B25B0F800013402F1D28
:1019D000C01A019B361A013C38180433B442CEDCDD
:1019E0003A00191982421ED301348242F6D118E01E
:1019F0000F23042A00D081E72800FFF7F7FC070037
:101A00002800FEF78DFBE4E76D10FF2D00D97CE781
:101A1000019B013C0433B442B1DC1A5D0134AA429B
:101A2000F9D1640066E70D78AC461578AC45DBD19A
:101A300001310132D6E7C046300300201C2370B5C7
:101A400001281BDD01230A681A4216D04868184293
:101A500018D1042816D901680E331940013B042916
:101A60000CD15410012A06DDFFF7C0FC0500FEF77B
:101A70007CFBA0420CDA122300E011230020084A6C
:101A8000137070BD0E23F9E7FEF75BFB0500013C08
:101A90002800012CF8D1FEF773FB40002043F0E74B
:101AA00030030020F0B585B0039301902F4B0291D5
:101AB000002A01D00221197000272D499F540A6085
:101AC000019B9F4201DB05B0F0BD029ABB00D558D7
:101AD000274B264E1C68FA239B00A6191C1B0123CA
:101AE0001D4206D0234A6B102100300011F0A8FBE4
:101AF00009E0214A002D02D0042D19D11F4A2100EE
:101B0000300011F09DFB194C20000FF0F9F9184A34
:101B1000039B1060002B09D0019B013BBB4205DDFC
:101B2000431C1360202222540022E2540137C7E7ED
:101B30002800FEF7E9FA0300042805D12800FFF782
:101B400055FC0F4A0300CFE7092803D16B680D4A03
:101B50005B10C9E70C4A0328C6D129680A0992B26A
:101B6000490F92000B40D31A084ABDE720240020F9
:101B7000FC030020E0580108465701086857010897
:101B800080590108815701089B57010890570108A7
:101B9000002310B51A00FFF785FF034B18680DF0FE
:101BA000E9FC002010BDC046FC030020F8B501236D
:101BB0000D000600140008001D40194227D1042919
:101BC00041D90A680F210A40042A3CD11C4215D190
:101BD000042C38D923680B40042B34D1FFF706FCC2
:101BE00005002000FFF702FC010028000FF07EF93D
:101BF000002830DA042370171840F8BDFFF7F6FB11
:101C000029000A2210F010FA0500601012E01700F7
:101C10001F401A4215D1042A15D913680F22134008
:101C2000042B10D120004D10FFF7E0FB0A223900F1
:101C300010F0FAF98542DDDB08DD002E09DC00201A
:101C4000DBE74D10E1E70F22044B1A700136022E3C
:101C5000F5D80420D1E70028EFD1F7E730030020C2
:101C6000012310B504001C40184202D0441020008B
:101C700010BD042810D90F2203681340042B07D18C
:101C8000FFF7B4FB21000A2210F0CEF90400EEE7C2
:101C9000032B01D10430F5E70D22014B1A70E6E762
:101CA0003003002010B50868FFF7DAFF0020014B71
:101CB000586010BDFC030020086810B5C30703D5A9
:101CC000FFF7CEFF014B9864002010BDFC020020FE
:101CD00070B508680D00FFF7C3FF04006868013C99
:101CE000FFF7BEFF042C0BD80138042808D80522C2
:101CF000012342431219934002498A6C13438B64B7
:101D0000002070BDFC02002070B508680D00FFF7D0
:101D1000A7FF04006868013CFFF7A2FF042C0BD862
:101D20000138042808D805224243131901229A4099
:101D300002498B6C93438B64002070BDFC02002031
:101D4000114B13B51B6804001B021B0A012B0BD09F
:101D500001210F200CF008FD21680F2004394B42AF
:101D600059410CF05FFD13BD07230093043B019321
:101D7000036869460220042B02D1FFF7A9FFF2E7AE
:101D8000FFF7C2FFEFE7C0460470FF1F10B5080061
:101D9000FFF7D6FF002010BD70B50C6801232500A9
:101DA0001D401C4217D1042C15D90F222368134063
:101DB000092B10D166687610B54204DB0120FEF7CE
:101DC00054FE002070BD2300AA0008339858FFF786
:101DD00047FF0135F0E72000FFF742FFEEE7086814
:101DE000F8B5C3071ED5FFF73BFF0300203B5E2B72
:101DF0001AD805220121534342430020104E9B3A3A
:101E000005241025F75C3D4200D04018013C4900F4
:101E10006D10002CF7D101339342F1D14300012022
:101E2000184302E0042801D80120F8BD0F230268FE
:101E30001340042BF8D1034B1A42F5D00079D4E7B4
:101E4000B03D0108F0FF0F00F0B5060087B008684C
:101E50000D00FFF705FF012303901C00022E07DD94
:101E60006868FFF7FDFE0400A868FFF7F9FE0300AD
:101E70005A1D0492214A1800916C012200270192F8
:101E8000461E059605264643B44605267642651E3F
:101E9000221DB444059E042E0DD8042D0BD8664691
:101EA00077190126BE40019F0296039E374221D03A
:101EB000029E31430127019E013576000196AA4218
:101EC000E8D1049D0130A842DAD1002F01D00B489F
:101ED0008164042A0BD8012B09D108481D34816C78
:101EE0001D0095400532A9439442F9D18164002038
:101EF00007B0F0BD029EB143DCE7C046FC02002003
:101F0000F0B50C0097B0022805DC1C22D84B1A70E3
:101F1000002017B0F0BD0868FFF7A2FE01906068CE
:101F2000FFF79EFE0500A068FFF79AFE0400280058
:101F3000FEF7B8FF06003B28EAD8CE4D2B5C012BFC
:101F400004D001210CF010FC0123AB55002130001E
:101F50000CF068FC2100C8480FF078F80138050043
:101F60006A1E9541C54C451BA368FA21149363680A
:101F700089000133180068431F000EF0DDFF0022C6
:101F8000149B1593A36814931599149B994200D33D
:101F900046E11599149BFB1A5B18D218149B1593F4
:101FA0009042EFD80121019B300019400CF03AFC1F
:101FB000A368FA211293636889000133180068430B
:101FC0001F000EF0B9FF0022129B1393A368129317
:101FD0001399129B994200D326E11399129BFB1A85
:101FE0005B18D218129B13939042EFD8019B3000DC
:101FF0009907C90F0CF016FCA368FA2110936368C7
:1020000089000133180068431F000EF095FF00227D
:10201000109B1193A36810931199109B994200D3C0
:1020200006E11199109BFB1A5B18D218109B1193B3
:102030009042EFD8019B30005907C90F0CF0F2FB1A
:10204000A368FA210E93636889000133180068437E
:102050001F000EF071FF00220E9B0F93A3680E93DA
:102060000F990E9B994200D3E6E00F990E9BFB1A45
:102070005B18D2180E9B0F939042EFD8019B300053
:102080001907C90F0CF0CEFBA368FA210C93636803
:1020900089000133180068431F000EF04DFF002235
:1020A0000C9B0D93A3680C930D990C9B994200D344
:1020B000C6E00D990C9BFB1A5B18D2180C9B0D9374
:1020C0009042EFD8019B3000D906C90F0CF0AAFB53
:1020D000A368FA210A9363688900013318006843F2
:1020E0001F000EF029FF00220A9B0B93A3680A939E
:1020F0000B990A9B994200D3A6E00B990A9BFB1A05
:102100005B18D2180A9B0B939042EFD8019B3000CA
:102110009906C90F0CF086FBA368FA21089363683F
:1021200089000133180068431F000EF005FF0022EC
:10213000089B0993A36808930999089B994200D3C7
:1021400086E00999089BFB1A5B18D218089B099333
:102150009042EFD8019B30005906C90F0CF062FB8A
:10216000A368FA2106936368890001331800684365
:102170001F000EF0E1FE0022069B0793A368069362
:102180000799069B994267D20799069BFB1A5B1831
:10219000D218069B07939042F0D8019B3000190695
:1021A000C90F0CF03FFBA368FA210493676889000C
:1021B0000137380068430EF0BFFE0022049B0593F0
:1021C000A36804930599049B994249D20599049BFD
:1021D000FB1A5B18D218049B05939042F0D830008C
:1021E00001210CF01FFB2800FA21A368890002934B
:1021F0006668013670430EF09FFE0022029B039337
:10220000A36802930399029B99422DD20399029BE2
:10221000F31A5B18D218029B03939042F0D877E62A
:10222000159B14995B1AB8E6139B12995B1AD8E6B2
:10223000119B10995B1AF8E60F9B0E995B1A18E731
:102240000D9B0C995B1A38E70B9B0A995B1A58E7B0
:10225000099B08995B1A78E7079B06995B1A97E731
:10226000059B04995B1AB5E7039B02995B1AD1E7BA
:10227000300300204C03002040420F0010E000E03B
:1022800070B50400FEF702FC012805D1043C63424E
:102290005C416500280070BD00250428FAD12000AB
:1022A000FFF7A4F80400084821000EF01FFEA84222
:1022B00007D0210005480EF019FEA842EAD10325F7
:1022C000E8E70225E6E7C046995D0108AD57010839
:1022D000F8B50C68E30704D40D221B4B1A700120DB
:1022E000F8BD00256410012803DD4868FFF7C8FF2A
:1022F0000500172CF3D8154B15491B6862000B42DB
:102300001DD114491B028E5E1B0A012B04D1E31E52
:10231000012BE4D90C2CE2D0002EE0DB0E4F3B5D0C
:10232000AB4204D0290020000CF01EFA3D550A21D2
:10233000300009F03BF8430001201843D0E7074B79
:102340009B181C269E5FE7E7300300200470FF1FE8
:10235000F0FFFF00443901084C0300205839010800
:1023600013B50020104B114A9860114B114C1B689B
:1023700013420ED11B0209221B0A012B00D00E3280
:1023800001205200024301A90192FFF7A1FF401072
:1023900003E0094A1340102B04D04300E0670120FA
:1023A000184316BD1122EBE7FC030020F0FFFF00ED
:1023B0000470FF1F7C030020FEFFFF00F8B506003D
:1023C00001200B680D00034203D10D22104B1A703F
:1023D000F8BD5810FEF766FD04003B2801D9002027
:1023E000F6E70027012E03DD6868FFF749FF0700C5
:1023F000084D2B5DBB4204D0390020000CF0B4F92D
:102400002F5520000CF04AFA0128E8D10330DFE70D
:10241000300300204C030020086870B5012405003B
:102420002540204206D1042804D90F220368134016
:10243000042B04D00E220E4B00201A7070BDFEF744
:10244000D5FF03782900233B5A4253411022C0187C
:102450000FF0EAFD80239B05C2188023DB059A421A
:1024600002D31422024BE7E740002043E6E7C046D0
:10247000300300201C2370B5012833DD01230868D8
:1024800018422ED104282CD90F2602683240042A83
:1024900027D14D682C001C401D4222D1042D20D98B
:1024A0002A680D333240042A1CD1FEF79FFF060034
:1024B0002800FEF79BFF0100300006F08BFF00288C
:1024C0001DD006F076FE03787B2B0FD10130002261
:1024D000110006F052FF002811D006F071FE013401
:1024E000F5E70E230020084A137070BD5B2B06D160
:1024F000013006F026FF002801D00134F9E7012061
:1025000064002043F1E7C04630030020F8B52E4BAD
:102510002E4A1B681340012B15D12D4DAE6F002E96
:1025200011D12B0074331B78002B01D1FEF772FE02
:10253000284B294C9B6C62681900114304D1A36895
:10254000002B00D0A160F8BD217B00290DD1A0682F
:10255000002800D0A1606360002A04D0002B02D1C3
:10256000FEF7DEFEEFE7FEF7B3FE227B0423002A30
:1025700000D0531E9B00EB180021D86CFEF7B4FA74
:102580000522277B63687A439219134101219943FD
:102590002B00B2006033D05801360CF043F9052E01
:1025A000EED1BF00EF19F86C0121FEF79DFA277BF1
:1025B0000121BB00ED18E86C0CF034F93100781CF7
:1025C0000EF02AFE2173BEE70470FF1FEFFFFF002D
:1025D0007C030020FC020020FC030020F7B507006C
:1025E0000E000EF03BFC1C4D2B7C012B2ED001234A
:1025F0002B7400236B610CF095FB002824D1F82389
:102600001B06FB18DC176405640DE418E412F61BC6
:102610002700F1174905490D8919CB120193019B38
:102620000E4EE3189F420BD273690D4A1340FA0015
:1026300013430C4A134373610CF074FB002808D059
:10264000022273699343736100232B740EF0FCFB29
:10265000F7BD0137E3E7C046FC030020002002403D
:1026600007FEFFFF0200010010B5002804D1044856
:102670000449FFF7B3FF10BD02480349F9E7C0461C
:102680000070010800B8010800000208431E9841CC
:1026900090234042DB011840044BC018036800201F
:1026A0001A0E532A01D11B02180A70470070010844
:1026B00013B5431E984190234442DB011C400A4B52
:1026C0000902E418A623090ADB050B430093002343
:1026D00001930EF0C3FB009A019B20000DF084F8DB
:1026E0000EF0B2FB13BDC04600700108154B01008F
:1026F0009B6A10B5002B0BD1134C144B00290AD147
:102700009A680800120E522A01D10833180010BD31
:102710000F4C0D4BF2E700208C42F8D90B681B0ED2
:10272000522BF4D14B689A1C92008818DB0700D515
:102730000430844203D903681B0E522BE7D00020DB
:10274000E5E7C046FC03002000B80108007001085E
:1027500000000208F8B50020FFF7C8FFFF26DA27BF
:10276000050036043F04002801D12800F8BD0468A4
:10277000FFF7BCFF3440BC42F5D10500F3E7FF2270
:1027800070B51A4C0021D20020000FF075FCFF2517
:10279000FFF7E0FF002600280CD1154B1A78002A1D
:1027A00003D05A78D200A2589A600130F0330A2838
:1027B000F4D170BD03681A142A400C2A0AD11A12E7
:1027C0002A40FF2A03D0D200A1180B71A050FFF7B6
:1027D0008DFFE0E7132AFAD11B122B40FF2BF6D016
:1027E000DB00E2181671E650F1E7C046281C002015
:1027F000FC11002070B5104DEC6A2E6BB4420CDD5C
:10280000802228000D49D200121B6118343005F0D7
:1028100021FF00198005840DEC62A6420ADD280024
:102820000649321B6118343005F014FF0019800589
:10283000800DE86270BDC046FC03002094080020B3
:10284000044A0549136BC85401339B059B0D136360
:102850007047C046FC03002094080020064A136B12
:10286000D26ADB439B189B0501229B0D834200DC4F
:10287000002210007047C046FC030020F8B5050098
:102880000C0016001F1E0ED10320FFF7E7FF0028E3
:1028900008D0FA20FFF7D4FFE8B2FFF7D1FFE0B28B
:1028A000FFF7CEFFF8BD501DFFF7D8FF0028F9D085
:1028B000FB20FFF7C5FFE8B2FFF7C2FFE0B2FFF76A
:1028C000BFFFF0B2FFF7BCFF3012C0B2FFF7B8FF96
:1028D0000024B442E6DA385DFFF7B2FF0134F8E7CE
:1028E000104B70B50500002418005A78AA4204D095
:1028F0000134F0330A2CF8D170BDF0221300634389
:102900000021C0180FF0B8FB074A536C013BA342EB
:1029100000D15464002329001A001120FFF7AEFFF4
:10292000EAE7C046FC110020FC020020F8B50F4D7C
:1029300000262F000E4C636CB3420ADC962238004E
:10294000002112010FF098FB00233434236123701F
:10295000F8BD2B78002B05D0002311201A006978D0
:10296000FFF78CFF0136F035E4E7C046FC1100208C
:10297000FC02002010B50400064A136BD26ADB4348
:102980009B189B059B0DA34200DB10BDFFF732FF98
:10299000F2E7C046FC030020F0B51500764C01229A
:1029A000A5442C00019002911440154211D005ABB2
:1029B0001A706A105A70120E1A71052269129970F3
:1029C0006D140299DD70FFF759FFCF239B009D44E2
:1029D000F0BD042D29D90F2029680840042831D1E1
:1029E000022305AE28003370FEF700FD05000EF04F
:1029F00087FAC82201009200904200DD11006B1E90
:102A0000651CA1420DD1904206D95C4804AB03225B
:102A10005B49C0180FF08BFB33002A000299019824
:102A2000D1E72C005D5D3555EAE7042D01D0002D7E
:102A3000CBD1032205AB043D1A706A4255410222F4
:102A40005D70EBE709287AD1042205AB1A706A6839
:102A50005110521259709A700391202901DD2022E1
:102A600003920027039A06ACDA70039BBB4202DC98
:102A700005ABE21AD2E72B00BA0008339E583000AB
:102A8000FDF742FB0138082855D80EF041FA34050D
:102A90004712545454543C00012323707310637044
:102AA00072121B0E7614A270E67023710534013782
:102AB000DBE7022330002370FEF798FC06000EF0DF
:102AC0001FFA0300A01C142B09D800226370934244
:102AD00001D1C418EBE7B15C81540132F7E714234C
:102AE0001122637031000FF022FB2E23E374237553
:102AF00063751634DBE70323043E237073425E41A3
:102B000066700234D3E70423237073685A1062702E
:102B10005B12A3700023E3700434C8E7052303218C
:102B20003268237013099BB2520F9B000A409B1A14
:102B300063701B12EDE7002323700134B7E703280D
:102B400000D042E7052205AB1A700A0992B2490F7C
:102B500001409200521A11125A709970642A00DDD5
:102B600064220421DA70081F904201DB043255E729
:102B7000685C58540131F6E7C4FCFFFF22030000F3
:102B800074570108012370B50200FF25074C411856
:102B90005B428A4201D3D84370BD10781E0A2B4095
:102BA00043409B001B5901327340F2E7A4390108EE
:102BB00013B50400FF2815D00B4BC200D0580028D5
:102BC00010D0416808308900FFF7DCFF0190092030
:102BD000FFF7D0FE04222100172001ABFFF74EFEC5
:102BE000FFF708FE13BDC046281C002070B5FFF794
:102BF000B1FDFF25E82604002D047603002801D14D
:102C0000200070BD03682B40B34200D10400FFF7E1
:102C10006DFDF3E7F7B50190FFF7E8FF012504002C
:102C2000FF276D42002C01D12800FEBD2668331419
:102C30003B40152B0DD12100019808310EF056F9BB
:102C4000002801D135123D402000FFF74FFD040060
:102C5000E8E71D2BF8D101256D42F5E770B5114D60
:102C6000114B6A6CC118824202DC0020686470BD9E
:102C70000C78461CFA3C012C07D8B24210DD4C7887
:102C8000002C02D0283C9F2C0AD830000131EAE702
:102C90001C5C01311C7001338A42F9DC101AE5E733
:102CA0000100F9E7FC0300209404002010B507F0B0
:102CB00077FC064A936C834201D900239364C01ABF
:102CC000034B83428041404210BDC046FC030020BC
:102CD000204E00000020084B10B59C6C844209D0A7
:102CE00007F05EFC0300844200D8031B0020034A67
:102CF0009A42404110BDC046FC0300203F4B4C00AF
:102D000010B5FFF7E7FF431E9841800010BD70B576
:102D1000B2B00400FFF7DEFF002821D06D46022389
:102D200020002B700EF0ECF8C72800D9C720002334
:102D3000013C5E1C834215D132331800FFF71AFEA6
:102D40002B003200FF211420FFF798FDFFF7C2FF90
:102D5000002805D0074A136BD26A9B1A9B0505D140
:102D600032B070BDA25D3300AA55E2E7FFF742FD25
:102D7000ECE7C046FC030020F0B5A1B005920A00C4
:102D8000574F049038680132036801911B099BB2C8
:102D900002929A4200DA89E006F0FCF8FFF7B6FBEF
:102DA00007F0FEFB002403904E4AA300D0580134E4
:102DB000FDF7B4FB802CF7D14B4B1868FDF7AEFB49
:102DC000386C002801D0FDF7A9FB0026474D7B6C2D
:102DD0009E4257DB4649474D0A001368141F1B09E2
:102DE00026689BB2981C002E5DD08B1A5E1EB341E4
:102DF0005B420B4023608300C91880001218AA426E
:102E0000EBD3FDF71FFB3A4C26000F2233681D0958
:102E1000ADB213420BD06F1CA64204D0310020008B
:102E2000BA000FF0E1FE0023BF00E41908C4023528
:102E3000AD0076192F4DAE42E7D32D1BAD10013DED
:102E4000274E2B012360346007F0AAFB039AABB234
:102E5000821A023B284907A810F026FA07A8FFF7B4
:102E600056FF06F097F8FFF751FB3068029A0368A7
:102E70001B099BB29A4219DB0A23002034363370B7
:102E800021B0F0BD2B78002B02D10136F0359EE742
:102E90002C69013C002CF8DB2B00A2001833985859
:102EA000FDF73CFBF5E71B011360A6E7019A0C4D0B
:102EB000941CA2001B1B81181B010B6029600021C0
:102EC000031F1960019B083A1901049B1943030071
:102ED00002C39A189A42D3D9059902C3FAE7C046A9
:102EE000FC020020FC0F002000000020FC1100204C
:102EF0000C28002038440020B257010870B5002289
:102F000004000D00411C0920FFF736FF002808D0FF
:102F10000123620013430100436000230831A342F0
:102F200000DB70BD9A00AE5801338E50F7E7F7B55D
:102F30000F000190012804DC1C221F4B1A70002096
:102F4000FEBD0868FEF798FA05007868FEF794FA67
:102F5000019B06000124022B07D0B868FEF78CFA0B
:102F6000041E02DC2922144BE8E7B5421CDC701B6E
:102F700021000EF06BF8461C00220920711CFFF79F
:102F8000FBFE0028DBD00122730013434360944012
:102F900095400300B60036181100294399600433A8
:102FA0002D19B342F8D1CBE72100A81B0EF04EF843
:102FB0006442461CE0E7C04630030020F7B54C6889
:102FC0000191E30706D4042C04D90F2223681A4088
:102FD000092A04D00B22304B1A700020FEBD1B09B9
:102FE00065689EB2731E6D10AB4244D803200B2D52
:102FF00008DD972361305B009D4203DC032128003C
:103000000EF024F8254FBB6B9C4234D3FB6B9C42E3
:1030100031D2831919000122092000933C64FFF783
:10302000ABFE00233C6C06003B64984223D0226830
:10303000009B120992B204309A4200DD1A009200FD
:10304000211D0FF074F8164A16490020131F18604E
:1030500013681B099BB202339B00D2188A42F4D337
:10306000271F3E60FDF7EEF900233B6023680E4A00
:1030700013402360340023681B099BB2013B9D422F
:10308000ABD2019B1A68AB1C9B001A51012301357E
:103090006D002B436360A0E730030020FC0200209A
:1030A0000C28002038440020F0FF0F0070B50028E5
:1030B00005DC1C22164B00241A70200070BD012272
:1030C0000D68154202D10D22114BF4E701281DD0E5
:1030D0004B681342F7D05B10FF2B02D913220C4B25
:1030E000E9E718020200C0181A43000402436D10F9
:1030F000EB43DB171D40E91C03208910FFF73CFE62
:10310000041EDAD02900FCF7E8FFD6E70022EEE73C
:1031100030030020F7B50F00002805DC1C22324BDD
:103120001A7000242000FEBD0C68012625003540E1
:10313000344211D06510FF2D02D913222A4BEFE73C
:10314000002231000320FFF717FE041EEAD03100F1
:10315000FCF7C3FF2571E5E7042CEED90F222368A5
:103160001340042B19D12000FCF7DAFFC11C2A0000
:10317000060089100320FFF7FFFD051E0BD031006C
:10318000FCF7ABFF2000FEF731F92B1D01003200E8
:1031900018000EF0CCFF2C00C4E7092B20D103202F
:1031A00063682A005B1001930333D9170140C918E3
:1031B0008910FFF7E1FD041EB3D03F680199FCF7C9
:1031C0008CFF0837221D019B9D42ABDAAB00FB58F8
:1031D000334203D05B10FF2BAFD853550135F2E7D4
:1031E000032BAAD19EE7C0463003002010B5094C3E
:1031F0000022206402210920FFF7BEFD236C002875
:1032000003D10A233434237010BD0322836042604B
:10321000FAE7C046FC02002070B50400C30708D5D9
:103220004410FF2C07D913220A4B00251A702800DE
:1032300070BD631E9C41002201210320FFF79CFD0D
:10324000051E02D10A22034BEFE70121FCF745FFDF
:103250002C71ECE7300300200323043010B5C117B4
:1032600019400918002204208910FFF785FD10BDC0
:10327000F7B50E000090012805DC1C225D4B1A708A
:1032800000242000FEBD4B6801221C0014401342A4
:1032900002D10D22574BF2E70099022902D0B16802
:1032A0001142F6D001223768174200D09EE0042F69
:1032B00000D89BE05D10934200DC15000F213B68B5
:1032C0001940092927D17B6800995B101A0002294F
:1032D00001D0B268521000929A4200DD0093009B28
:1032E00001225F1B0137FB43DB171F400920791CBC
:1032F000FFF742FD041EC3D001237F003B43326829
:103300004360030008330099A942BADB0135A900E4
:10331000515802C3F7E704293CD13800FEF766F89C
:103320000190FCF722FF009A0300022A01D0B36843
:103330005B100093834200DD0090009BAB4223DAD8
:103340000020FFF789FF04009BE7FCF7FAFE070067
:1033500001343800A542F8D1009BA34216DAC51B00
:103360002800FFF779FF041E00D18AE7FEF73EF838
:1033700000903068FEF73AF82A00019BFF1AC11945
:1033800000980EF0D4FE7CE7019FE2E7FCF7D9FE3F
:103390000134E1E7032929D11A0992B25B0F0B40EE
:1033A00092000099D21A1300022901D0B3685B1071
:1033B000934200DD1300AB4205DA00220320110026
:1033C000FFF7DAFCBFE75E1BB110002203200131DA
:1033D000FFF7D2FC041E00D153E70136310003355C
:1033E000FCF77BFE3200201D7919CAE72122014B30
:1033F00045E7C04630030020F0B593B005000191C9
:10340000012806DC1C22984B1A700025280013B0F6
:10341000F0BD019B01261B681C003440334200D0E4
:10342000ACE0042B00D8E7E00F271B6802943B4078
:10343000092B45D1029B019A9B00D3581A003240B8
:103440000392334205D1042B03D918683840092868
:1034500004D02222844BD7E70293EBE75B685B1032
:10346000E418029B01339D42F6D10122611CFFF753
:1034700083FC051EC9D06400344344600400039AF1
:10348000083401999300C95808684B68000980B254
:103490005B10984200D8431E0020083183420ADCAA
:1034A000D943C9170B4002999B00E418531C914261
:1034B000ACDD1A00E5E786008F590130A751EDE732
:1034C000032B5ED1029B019A9B00D0583042C0D1A1
:1034D0000428BED902681100394003293FD11309DD
:1034E0009BB2520F9B000A409B1A1C19029B01338E
:1034F0009D4232D10320E31CD9170140C918002294
:103500008910FFF739FC051E00D17EE72100FCF78A
:10351000E4FD00262F1D019AB300D45801231C425C
:1035200024D1042C22D90F2223681A40032A1DD14A
:10353000180980B25B0F80001340C01A00230434C6
:10354000834217DBC343029ADB1718403F18731CF2
:10355000B24200DC5AE71E00DDE70293B2E704291D
:1035600000D076E7FCF7DCFD2418BFE72000FCF76D
:10357000D7FDE3E7E25CFA540133E1E700231C00E6
:10358000029301260F27029B019A9B00D0583042DC
:1035900036D1042834D9026811003940042936D1C3
:1035A000FCF7BEFD2418029B01339D4226D120006A
:1035B000FFF752FE051E00D127E70023041D0393E9
:1035C000039B019A9B00D65801231E422AD1042E48
:1035D00028D90F2233681A40042A3AD13000FCF768
:1035E0009FFD07003000FDF701FF010020003A00B9
:1035F0000EF09DFDE41923E00294C2E70293C2E7B6
:1036000005A9FEF76FF805A80DF07AFCCAE70329B3
:1036100000D01EE713099BB2520F9B000A409B1A71
:103620001C19C0E7300005A9FEF75CF805A80DF0ED
:1036300067FC05A90600020020000EF078FDA41921
:10364000039B029A039901338A42B8D10023237065
:10365000DCE6032AF4D11F09BFB25B0FBF001340A1
:10366000FF1A311DC2E7C04630030020F0B50E003E
:1036700097B0002806DC1C22604B1A700025280039
:1036800017B0F0BD0C68012322001A4000921C42C2
:1036900006D1042C04D90F2221681140092902D037
:1036A0000B22564BE9E761684D100495012904DCB3
:1036B0000098FFF7D1FD0500E1E75149019101288C
:1036C0000BD07068184208D1042806D9036813404B
:1036D000042B02D1FDF78AFE019001980DF010FC39
:1036E00005000F27049B0290013B5D430593049B5B
:1036F0009B00E31803930123A06818426CD10428AF
:103700006AD9026811003940042903D1FCF708FD89
:10371000451908E0032966D113099BB2520F9B009B
:103720000A409B1A5D19039B0434A342E3D128008D
:10373000FFF792FD051EA1D033680793029B002B73
:1037400003D07068FDF752FE01902800FDF74EFE91
:103750000600009B9A00079B08339F5801233B40BB
:10376000069301231F4241D1042F3FD93800FDF7B2
:103770003DFE039003980DF0C3FB069B0400002B55
:103780000ED1042F0CD90F223B681A40032A07D10F
:103790001C09A4B25B0F391DA40013400391E41A65
:1037A0003000220003990EF0C2FC029B3619002B58
:1037B0000AD0059B009A934206DD3000029A0199D7
:1037C0000EF0B5FC029BF618009B01330093009AA3
:1037D000049B9342BDD152E709A9FDF783FF09A8D5
:1037E0000DF08EFB94E7FDF701FEF9E7380009A91B
:1037F000FDF778FF09AB0393BCE7C0463003002018
:10380000C458010870B5050008000C00FFF724FD3E
:10381000002809D00023021DA34206DBE343DB1787
:103820001C4000231219137070BDE95CD1540133A0
:10383000F2E7F0B58DB00C000190012805DC1C22E8
:10384000654B1A7000200DB0F0BD012308681842C6
:1038500006D1042804D90F2102680A40042A02D0A4
:103860000E225D4BEDE7666835001D401E42F7D124
:10387000042EF5D933680B40042BF1D1FDF7B6FDCA
:1038800007003000FDF7B2FD02900DF039FB019BFF
:1038900003900495022B04D0A368043B5A425A417A
:1038A0000492039B002B1FD13800FCF75EFC0190B3
:1038B000019B01220920591CFFF75EFA474E306434
:1038C0000028BFD00122019B5B0013434360039B90
:1038D000002B2ED13800FCF734FC019B0400AB42D6
:1038E00016D13E4B186CAEE7380002990FF037FD49
:1038F000C01B4342434138000193019B02990133AD
:103900000193039BC0180FF02AFD0028F5D1CFE7E3
:103910003800E11BFFF776FF002800D192E7336CF7
:10392000AA009B1898602000FCF70BFC27000135CB
:10393000D3E7019B012B02D123688360D1E73800D4
:1039400002990FF00CFD041ECBD038000DF0D8FA10
:1039500001263B180593019B9E42C2DC049BE11BA0
:10396000002B23D0A74221D23A783B002D2A02D146
:103970007B1C9C421AD99C4213D10D00132900DDF7
:1039800013252A00390007A80FF0D5FC002107AB4A
:1039900018000A2259550EF047FB01234000184336
:1039A0000AE01A780133303A092AE4D93800FFF7DF
:1039B00029FF002800D145E7084B01361B6CB200F7
:1039C000D050039B0299E71838000FF0C8FC041E82
:1039D000C1D1059CBFE7C04630030020FC02002097
:1039E000F0B50E0085B0002804DC1C22314B1A70A3
:1039F000002419E00D6801242F002740254206D13C
:103A0000042D20D90F222B681340042B0FD128003E
:103A1000FDF732FD02AC01002000FCF7E6FB011BC4
:103A20002000FFF7EFFE0400200005B0F0BD092BD9
:103A300009D16B685B100193019B9C4206DD1D4B15
:103A40001B78002B1DD02A221A4BD0E70134A3008B
:103A5000E858FDF711FD01237F2810DD8022DB18D7
:103A6000120190420BDB802201335202904206DBAE
:103A70008822023B5202904200DB00239B00FF1889
:103A8000DAE73800FFF7E8FB041EB1D0FDF7AEFC23
:103A9000376805000126019B9E42C5DC0136B30054
:103AA000F858FDF7E9FC01002800FCF79EFB050033
:103AB000F1E7C04630030020F0B50E008BB00128BE
:103AC00006DC1C22AA4B1A70002420000BB0F0BDAB
:103AD0000C682000FCF718FB05007068FDF786FCF9
:103AE000A44907000DF002FA0126002800D0023E8A
:103AF0003800A1490DF0FAF9002800D1022638005B
:103B00009E490DF0F3F9002800D1042638009C49A5
:103B10000DF0ECF9002800D10926380099490DF084
:103B2000E5F9002800D1B6E1731C02D13022904B98
:103B3000C9E7681E0828C8D80DF0F4F90900240068
:103B400056014200C7FFC7FFC7FFC7FFB000B01E46
:103B50000728BAD80DF084FB043009B9B9B9B911F6
:103B6000042C00D095E1013CAFE78748042C00D13C
:103B700086480121FFF746FE02E02000FFF736FBF2
:103B80000400A2E7701E08289FD80DF069FB059E6F
:103B9000150A9E9E9E9EF600641000D194E70424B0
:103BA00093E77B49621002A80FF07EFB02A80DF09C
:103BB000A7F9010002A8DDE72000FFF72DFBDFE7F2
:103BC000701E082800D980E70DF0ACF9090012003A
:103BD00047007FFF7FFF7FFF7FFF7FFF19002000EF
:103BE000FDF704FC68490DF081F90028D7D16BE797
:103BF0002000FDF741FC01244000044365E720005C
:103C0000FDF7F4FBFCF7B1FA624D411C06000022FF
:103C100009202C64FFF7B0F8041E02D10A22544B8D
:103C200051E7012273001343286C6360FDF7DEFB4C
:103C300000270500BE4200D147E72800FCF7A0FAA4
:103C4000012122004000BB0008430832D050280068
:103C5000FCF777FA01370500ECE72000FDF7C6FB1B
:103C60000DF04EF94B4EC11C0500002203208910B7
:103C70003464FFF781F8041ED0D0366C2900FCF7BD
:103C80002CFA3000FDF7B2FB0023221D9D4200DC20
:103C90001BE7C15CD1540133F8E703266568701E49
:103CA0006D10032800D910E70DF032F9020E763AB4
:103CB000012D06D1A4682000FCF726FA012800D1C6
:103CC00003E72D222A4BFEE6012D03D1A4682C42E6
:103CD00000D0FAE62C22264BF5E60136B300E05878
:103CE000FDF7CAFB01237F2810DD8022DB181201BB
:103CF00090420BDB802201335202904206DB882285
:103D0000023B5202904200DB00239B00FF18B542A9
:103D1000E3DA174B1F4E1A78002A04D02A22D2E683
:103D200001260027F3E738003464FFF795FA336C77
:103D3000041E019300D1C7E6FDF758FB0127BD42E1
:103D400000DAC2E6019A0137BB00D15801231942BB
:103D500002D12722064BB6E6882349105B0399421D
:103D600003D3312334363370AEE6FCF73EFAE6E790
:103D700030030020D2570108DA570108E157010843
:103D8000E8570108ED5701086D5701081A57010857
:103D9000E0580108FC0200200320EB1CD917014069
:103DA000444EC918002289103464FEF7E5FF041E52
:103DB00000D133E7376C2900FCF78FF93900002375
:103DC00001270831201D9D4200DC7EE69A008A58BA
:103DD0003A42BED05210FF2A02D913233436C2E72A
:103DE000C2540133EFE72E002368701E1D09ADB2E7
:103DF0005B00AD009B0FED1A082800D965E60DF0B9
:103E000091F80900120064FE190064FE64FE64FE6D
:103E100064FE2B00012D00D053E723790424002BEE
:103E200000D052E650E6012D00D053E7247964001B
:103E30002C434AE61F4E28003464FFF70DFA042392
:103E4000041E316C00D1E9E61A1F954200DC3CE605
:103E5000CA5CE2540133F7E7164E691C00220920C0
:103E60003464FEF789FF316C041E00D1D6E60120D0
:103E70006B000343260063600023083604319D4233
:103E800000DC22E6CA5C9F0052000243F25101337B
:103E9000F5E7012419E6681E082800D915E60DF09B
:103EA00041F88BFE8BFEA2FFDCFE14FE14FE14FE16
:103EB00014FEFCFEFC02002010B588B0002806DCD1
:103EC0001C220024194B1A70200008B010BD0C6889
:103ED0002000FCF719F90138082823D80DF0C0F9A3
:103EE000050E19F42222222219001148042C00D1B7
:103EF00010480121FFF786FC0400E5E70E49621037
:103F000068460FF0D1F968460CF0FAFF01006846E8
:103F1000F0E72000FDF76AFA04000CF0F1FF010061
:103F20002000E7E70020FFF797F9E5E730030020DE
:103F30006D5701081A570108E058010810B50C4CDC
:103F400086B020000CF0DCFF01002000032906D021
:103F50000849122201A80EF0EAF8112101A8FFF782
:103F600051FC002802D10A22034B1A7006B010BD82
:103F700048040020F857010830030020F0B59BB03A
:103F8000022844DD01230868184245D1042843D99A
:103F90000F2402682240042A3ED14D682F001F40A2
:103FA0001D4239D1042D37D92A682240042A33D141
:103FB0008C681C4232D0FDF719FA06002800FDF784
:103FC00015FA01AD010030002F7005F003FA6410FE
:103FD0000600002C08DC28000CF092FF01002800ED
:103FE000FFF710FC1BB0F0BD05F033F90228F2D149
:103FF00064222900701C05F0C0F9012CEBD005F0FB
:10400000A0F96422290005F0B8F9013CF5E71C236A
:10401000034A00201370E5E70E23F9E70D23F7E7C5
:104020003003002010B5204CA544041E02D1FFF738
:1040300013F90BE005F00DF90138062830D80CF023
:1040400067FF0909192004312C0004208023DB00BC
:104050009D4410BD200005F0B3F8844204D3011B39
:104060002000FFF7CFFBF1E70378013B1F2BF6D8C9
:104070000138F2E7200005F016F94300012018434B
:10408000E4E7802269462000D20005F023F9684663
:104090000CF036FF01006846E3E704210348E0E73F
:1040A0000020C4E70020D1E700FCFFFF0A58010808
:1040B000F7B51C2305000C00012833DD0127086833
:1040C00038422ED104282CD90F2103680B40042B31
:1040D00027D166683E4224D1042E22D932680A33A1
:1040E0000A40042A1ED1FDF781F901903000FDF746
:1040F0007DF90100022D19D0A5683D4216D03D4141
:10410000019805F067F9040005F0A3F8012816D11D
:10411000002D02DD0134012D0BD12000FFF782FFBD
:1041200003E00E2300200E4A1370FEBD01256D42F0
:10413000E6E7200005F005F9013D0400EBE7022861
:10414000EBD1002DE9DD0134012DE6D00022200065
:10415000110005F012F905F0F4F8013D0400F3E751
:1041600030030020F8B51C23022842DD0123086833
:1041700018423DD104283BD90F2502682A40042A61
:1041800036D14E6834001C401E4231D1042E2FD946
:1041900032682A40042A2BD18D681D422DD0FDF7AC
:1041A00025F907003000FDF721F90100380005F07E
:1041B00011F96D1006002000002D25DD300005F0FE
:1041C00048F80300701C012B1CD00020022B1BD1CF
:1041D000013602000100300005F0CFF8012D13D0A8
:1041E00005F0AFF80022110005F0C7F8013DF5E732
:1041F0000E230020064A1370F8BD0D23F9E705F0E1
:10420000A0F8013D012DFAD1FFF70CFFF4E7C046FD
:104210003003002070B50C68E30718D52000FDF7C7
:104220002BF90400203C5E2C13D80022022103202D
:10423000FEF7A2FD051E02D00521FBF74EFF052269
:1042400054430B49281D61180DF071FF02E0042C46
:1042500002D80125280070BD0F2223681340042BCB
:10426000F7D12000FBF72CFF0028F2D02479D9E702
:104270008B3F01088022F0B5584BA1B004931B6D11
:1042800000215200564805930DF0F6FE80220021D1
:10429000520054480DF0F0FE049B9B6A1A000393F1
:1042A0005342534118000293FEF7DEF9029B5D4230
:1042B0009023DB011D404C4BED18FEF74BFA061E18
:1042C0002CD10398FEF7E2F9411C0298FEF7F0F9B1
:1042D000029A424B9A625D65FEF751FA039B902168
:1042E0005A4253416420C901404A5B420B409B182B
:1042F000EC1A049B60431E6D059B0191F61A0CF0AD
:10430000A5FE3B4D230032002900009007A80EF0C7
:10431000CBFF07A8FEF7FBFC21B0F0BD04F03AFE8E
:10432000FF22346823142712134017401A000C3A56
:10433000072A25D82A4BDC5D002C1BD13000FF2139
:1043400003681A120A40974206D11B140B400C2B2B
:1043500014D0132B00D10024FEF7C8F90028EED1A9
:10436000002C04D028002100FCF770FB05001C4B3A
:104370000122DA553000FEF7B9F9A0E70400EBE7B7
:10438000153B082BF6D8174BDB5D002BF2D1FF2332
:104390001B041C40174B3000E41863425C4164422C
:1043A0003440FF2103681A140A40152A0FD01D2A31
:1043B00000D10024FEF79AF90028F2D1002C04D095
:1043C00028002100FCF742FB0500064BD0E7FF2246
:1043D0001B1213409F42EDD10400EBE7FC030020C9
:1043E000940D0020940C0020087001080070010852
:1043F0000F5801080000EBFFF0B587B003920322CD
:104400000333284EDC171440E418B36A90275A1E71
:104410009341FF01244A5B42A4103B40756D9B18F9
:10442000A21C029191006A1801900091934214D24B
:10443000FFF720FFB36A756D5A1E93411A4A5B421B
:104440003B409B18009AAA18934206D21748FEF7E1
:104450005EFC0025280007B0F0BD019B039A1B04F9
:104460001343029A2F0012021343A422D2051343CE
:10447000049305940CF0F2FC049A059B28000BF0C1
:10448000B3F908370CF0E0FC002C07D0210038000D
:104490000C9AFCF795FA012301349C43A4003F19C0
:1044A0007765D7E7FC03002000B8010851580108E0
:1044B000F0B5B9B00400029104920593102805D913
:1044C0001B220020164B1A7039B0F0BD0C220027B9
:1044D0004243144B9B185A689D680392039B9F426A
:1044E0000BDB029BC82100930F4A230006A80EF0A5
:1044F000A7FE06A8FEF70BFCE2E7286800280BD011
:1045000002990CF0F3FC061E06D16B68059904981D
:104510009847064B1E64D7E701370835DEE7C046EB
:10452000300300205C1B002077580108FC020020AB
:10453000F7B505000022214B5B6C0193204B0199DC
:10454000914211DC0024F0231A006243009200998A
:104550001B4A575C5618002F0FD001340A2CF3D198
:104560001848FEF7D4FB27E05978A94202D1197800
:10457000002921D10132F033E1E7F0223900300087
:104580000DF07AFD02230E4A0099757053540E4BBC
:10459000EA00D358B570B3600423F360019B376120
:1045A0007761A34202DC054B01345C6400232900DF
:1045B0001A001020FEF762F9F7BDC046FC02002089
:1045C000FC1100208F580108281C0020F7B50C00B2
:1045D0000190FFF717F90026194B1A4F18603B7925
:1045E000062B01D0032B19D17F2238684389134051
:1045F000052B13D1C3891340292B0FD10C22835EC5
:104600005B000C33C018FCF7F1FE03780500002BAB
:1046100011D00CF075FC0023A0420AD001360837F7
:10462000FF2EDCD1F7BD019AE95CD25C9142F5D155
:1046300001339C42F7DCF0B2FFF77AFFEEE7C046A9
:1046400000000020281C0020C368F0B587685B00CC
:10465000FF180300BBB0183301930269019B92005D
:104660009C18436901999B00CB180293CE4B009094
:104670001B78002B0CD100217B5E7F2192101D1234
:1046800002610B40C94A9B009B5802379F461400A9
:10469000C54BC74D1878FF283ED100221A70C54B74
:1046A000DD68954207DD0123009A137005F078FF5D
:1046B000009B2D185D60009B009A9B68FB1A5B10A5
:1046C000D360019BE41AA410029B1461019A9B1A07
:1046D000009A9B1053613BB0F0BD14000700D7E770
:1046E00014000700D4E71400D2E71400D0E7140048
:1046F000CEE73400CCE73400CAE71400C8E7340042
:10470000C6E73400C4E73400C2E714000700BFE77F
:10471000039FBDE7049FBBE7009B9A689B78BA1A8A
:10472000521012021A43009B597808AB18701012ED
:104730005A7098701014120ED8701A711320052236
:10474000FEF79CF80020F021009B9B4A18706B6CD0
:10475000013B59438A5C824200D16B64924B1870D2
:10476000A9E7009B1120597800231A00FEF786F86C
:104770000023F021009A8E481370436C8E4A013B4F
:1047800059438A5C002A96D1436494E7E9E7019B88
:10479000AD00641BE21A844B92101B78002B00D0F2
:1047A00076E700217B5E00991D120A617F217F4A16
:1047B0000B409B009B58023768E7019B221DD11AD2
:1047C0007B4BD82903DD1A2234331A7060E7343367
:1047D0001B7825608910002B00D058E700203B5E35
:1047E00000981D1201617F20704903409B00140056
:1047F0005B5802374AE7019B221DD11AD82903DDF5
:104800001A22694B1A7043E70026BB5FEDB21B0208
:104810001D43654BB81C1B7825608910002B00D008
:104820005BE702203B5E00981D1201617F205F491B
:1048300003409B0014005B58043727E7019B221DAF
:10484000D11AD82903DD1A22574B1A7020E7002508
:104850007B5FB81C5B00FB182360534B89101B78EF
:10486000002B00D03CE702203B5E00981D12016146
:104870007F204E4903409B0014005B58043705E736
:10488000019B221DD11AD82903DD1A22464B1A702A
:10489000FEE64A4BAD00EB5889102360424B1B7873
:1048A000002B00D01FE700203B5E00981D12016125
:1048B0007F203E4903409B0014005B580237E5E629
:1048C000043C22683D4BAD00EA50019BE21A364B96
:1048D00092101B78002B00D0DAE600217B5E009955
:1048E0001D120A617F21314A0B409B009B58023701
:1048F000CCE6324EAD00A859FCF79CFD2A4B049043
:1049000003931B78002B00D0C2E6043C2068FCF720
:1049100091FD049BC018012340000343AB51019B50
:10492000E21A039B92101B78002B00D0B0E6002106
:104930007B5E00991D120A617F211C4A0B409B007F
:104940009B580237A2E6019B221DD11A184BD82989
:1049500003DD1A2234331A709AE6019D029E01206B
:10496000B54202D230000C38006834331B78206026
:104970008910002B00D0B8E600203B5E00981D1285
:1049800001617F20094903409B0014005B580237F6
:104990007CE6019B221DD11A054BD82910DD1A2275
:1049A00034331A7074E6C046300300201C420108FC
:1049B000FC0200207C030020FC110020FC0F0020E2
:1049C0000198029E8910B04210D230000C38006865
:1049D000D74E4010AD192D1A0298AD003433285827
:1049E0001B782060002B08D0140051E618213433C6
:1049F00019700023236014004AE600203B5E0098F3
:104A00001D1201617F20CB4903409B0014005B58BD
:104A100002373BE6019A0299C74B8A421ED20C39F3
:104A20000968C348043C49102D1822686D1A029980
:104A3000AD006A503433019A1B78A21A9210002BF1
:104A400000D025E600217B5E00991D120A617F21BE
:104A5000B84A0B409B009B58023717E618223433A4
:104A60001A7015E6019B029A93422ED21600B04BA3
:104A70000C3EED183368043C5B10EB1A9B00985811
:104A8000FCF7D8FC03902068FCF7D4FC3368029A4A
:104A90005B10ED1A039BAD001E1801237600334313
:104AA000AB50019BE21AA54B92101B78002B00D053
:104AB000EEE500217B5E00991D120A617F219D4A6F
:104AC0000B409B009B580237E0E518229B4B1A7065
:104AD000DEE5019B221DD11A974BD82903DD1A224E
:104AE00034331A70D4E50298AD00343328581B785B
:104AF00020608910002B00D0F9E500203B5E009873
:104B00001D1201617F208B4903409B0014005B58FC
:104B10000237BBE5043C2368029AAD00AB50019B11
:104B2000E21A864B92101B78002B00D0B0E50021D2
:104B30007B5E00991D120A617F217E4A0B409B001B
:104B40009B580237A2E5029B043CAD005D1920682A
:104B50002E68FCF76FFC012376103618760033437D
:104B60002B60019BE21A754B92101B78002B00D032
:104B70008EE500217B5E00991D120A617F216D4A3E
:104B80000B409B009B58023780E5019BAD00641BE6
:104B9000A34212D8E21A694B92101B78002B00D066
:104BA00076E500217B5E00991D120A617F21614A32
:104BB0000B409B009B58023768E5614A614908A891
:104BC0000EF072FB08A8FEF7A2F805F007FDFCE75F
:104BD000002D02D10023FD5E02376B00FF18019B00
:104BE000E21A9210002D00DA65E5544B1B78002B79
:104BF00000D04DE500217B5E00991D120A617F21E6
:104C00004C4A0B409B009B5802373FE5E0E7002DE4
:104C100002D10023FD5E0237043C2368042B04D13B
:104C20006B00FF18002D00DA45E5019BE21A434BAB
:104C300092101B78002B00D02AE500217B5E0099A2
:104C40001D120A617F213B4A0B409B009B58023793
:104C50001CE5002D02D10023FD5E0237043C2368D1
:104C6000042B04D06B00FF18002D00DA23E5019B14
:104C7000E21A324B92101B78002B00D008E500217D
:104C80007B5E00991D120A617F212A4A0B409B001E
:104C90009B580237FAE4002D02D10023FD5E023753
:104CA000261F3068C3070AD540100138002809DBE9
:104CB000012340006D0003437F193360FBE4FCF7E0
:104CC000B9FBF2E7019B3400F21A1C4B92101B78DF
:104CD000002B00D0DCE400217B5E00991D120A61EC
:104CE0007F21144A0B409B009B580237CEE40022E0
:104CF000BB5E02371A12029901989446124DD2B245
:104D0000D200091A89100392AA18049111790A4A4B
:104D1000032903D0022334321370B9E42600019929
:104D20000C36701AD82811DD1A2334321370AFE410
:104D3000FDFFFF3F1C420108FC0200203003002061
:104D4000A4580108B4580108281C0020FF215B006A
:104D500049000B40FE39FF390B432360009B34327E
:104D60009B681278FB1A0B41009F1B02BF788010D2
:104D70003B438B400B436360049B8B401943A16012
:104D80006146009B9970039B00995B598B60002AD8
:104D900004D008331F003400029679E47F211F00FD
:104DA00008229B5E009A1D1210610B40E24A9B0094
:104DB00034009B580A37029668E4231F1D68029A44
:104DC000019B934233D10A20EB0713D4042D18D949
:104DD0000F222B68F7301340FF30042B0AD1280034
:104DE000FCF704FB0CF08CF8C8239B00984200D918
:104DF000180006306430FDF731FD00280DD1023F68
:104E000059E40720042DF5D068426841CB4B40425D
:104E1000184080239B00C018ECE7009B2A005978BB
:104E20001220FDF7B9FD0023009A137043E4029BA2
:104E3000C34C0C3B1B6800995B10E41A029BA40056
:104E40001C1920C4083B1B685A108A70BD49D2B295
:104E5000D2005B0057589B0A009A5B009760FF18CE
:104E6000029B019A043B1B685B109B00D3180293C2
:104E7000B54BA21A1B789210002B01D0FFF708FC4B
:104E800000217B5E00991D120A617F21AA4A0B4016
:104E90009B009B580237FFF7F9FB231F1868FCF7AC
:104EA000C9FAAD00019B641BE31A9B100600039333
:104EB0001E2831DCA44B1D78002811DC002D01D008
:104EC000FFF7E6FB0022BB5E0399009A1D121161F9
:104ED0007F21994A0B409B009B580237FFF7D6FB76
:104EE00005F05EFB033E361805F05AFB974B801B1E
:104EF0009842F9D8002D01D0FFF7CAFB0022BB5E13
:104F00000399009A1D1211617F218B4A0B409B006F
:104F10009B580237FFF7BAFB0123009A073E137034
:104F200005F03EFB009B36185E60FFF7C4FB231FB5
:104F30001868FCF77FFAAD00019B641BE21A0600BB
:104F40009210002812DC804B1B78002B01D0FFF759
:104F50009FFB00217B5E00991D120A617F21764A2A
:104F60000B409B009B580237FFF790FB784B984211
:104F700004DD1D22744B1A70FFF78AFB0123009A8F
:104F8000137005F00DFBFA239B007343009A073B57
:104F90001B185360FFF78FFBAB00E41A00232800B7
:104FA0001A002100FCF77EFD6A4D6B4E2968300027
:104FB000FEF728FC694B296818603000FFF706FBF4
:104FC00028680AF0D7FA019BE21A5F4B92101B780F
:104FD000002B01D0FFF75CFB00217B5E00991D12C6
:104FE0000A617F21544A0B409B009B580237FFF710
:104FF0004DFB019BAD00641BE21A534B92101B78D2
:10500000002B01D0FFF744FB00217B5E00991D12AD
:105010000A617F21484A0B409B009B580237FFF7EB
:1050200035FB00264E4D009B0136AB421AD14D4B4D
:105030005E64F0350A2EF6D1019BE21A424B9210C3
:105040001B78002B01D0FFF723FB00217B5E00992A
:105050001D120A617F21384A0B409B009B58023782
:10506000FFF714FB2B78002BE3D0002369781A009C
:105070001120FDF703FCF022002128000CF0FCFFBA
:10508000D7E7231F186800286ED1083B1868C307AC
:1050900033D54010220001234100083A0B4313602E
:1050A000002800DCABE0012342001A43211F0A6004
:1050B0002200083A1668043A1E41361A106818424F
:1050C00055D0F6189E401E43029BAD00EE50019B4A
:1050D000E21A1D4B92101B78002B01D0FFF7D8FA73
:1050E00000217B5E00991D120A617F21124A0B404C
:1050F0009B009B580237FFF7C9FA042816D90F22E4
:1051000003681A40092A01D14068C2E7042A04D181
:10511000FCF76CF9FBF729F8BCE7032A06D118095C
:1051200080B25B0F80001340C01AB3E71922064B10
:105130001A70FFF7ADFAC0461C42010807FEFFFFD8
:10514000FDFFFF3F281C0020300300207F969800C1
:1051500080EE3600FC030020202400200000002008
:10516000FC110020FC0200204010013898E70428C0
:1051700040D90F2102680A40092A06D10236B6003A
:105180003358AD00029AAB50A1E7042A2AD1029B02
:10519000AD005B190493FCF729F905000136012ED7
:1051A00010DC2800FAF7CDFF431B18000393FEF72D
:1051B00053F8061E0ED0FCF719F92900039A0CF0DB
:1051C000B6FF07E02A78013E002A06D11221160018
:1051D000DE4B1970049B1E6079E72800FAF7B1FFD7
:1051E0000500DCE7032A05D180190279AD005200E1
:1051F0001343C7E71922D54B1A70FFF749FA043752
:1052000065E7019AAB00E3189B1AD82B18DC012341
:10521000002D1ADC019BE21ACC4B92101B78002B5C
:1052200001D0FFF735FA00217B5E00991D120A615B
:105230007F21C74A0B409B009B580237FFF726FA95
:105240001A22C24B1A70FFF723FA08C4013DDFE7A8
:10525000019A231DBF4E9B1AD82B04DD1A23343626
:105260003370FFF715FA019B029A934232D2231F43
:105270001868FCF7DFF8002828DD029B0C3B1B6850
:105280005B10834222DBC01AB34BC018029B800024
:10529000C258AB00E31A1A6001235B1B9B00E418A1
:1052A000019BE21AA94B92101B78002B01D0FFF74B
:1052B000EFF900217B5E00991D120A617F21A44A4B
:1052C0000B409B009B580237FFF7E0F92023343650
:1052D0003370E1E718233436FAE7A04AAB001268CE
:1052E000E31A1A6001235B1B9B00E418019BE21A7E
:1052F000964B92101B78002B01D0FFF7C9F90021C3
:105300007B5E00991D120A617F21914A0B409B0030
:105310009B580237FFF7BAF9002D02D10023FD5E3A
:105320000237231F1A68042A17D16D007F19019BC9
:10533000E21A864B92101B78002B01D0FFF7A8F9D8
:1053400000217B5E00991D120A617F21804A0B407B
:105350009B009B580237FFF799F91C00E7E7002DE7
:1053600002D10023FD5E0237231F1A68042A19D0D8
:1053700000226D001A607F19019BE21A734B921094
:105380001B78002B01D0FFF783F900217B5E009989
:105390001D120A617F216E4A0B409B009B58023709
:1053A000FFF774F91C00E7E7AA00A21A002D25DD1B
:1053B0001000012613685B100168314220D10D23D3
:1053C00062490B700023136001235B1B9B00E418F0
:1053D000019BE21A5D4B92101B78002B01D0FFF766
:1053E00057F900217B5E00991D120A617F21584AFE
:1053F0000B409B009B580237FFF748F91C23DFE75F
:1054000049108B4200DD0B0004308442D4D10121CD
:105410005B000B43D7E7AA00A21A002D25DD100080
:10542000012613685B100168314220D10D234749E2
:105430000B700023136001235B1B9B00E418019B8E
:10544000E21A424B92101B78002B01D0FFF720F993
:1054500000217B5E00991D120A617F213C4A0B40AE
:105460009B009B580237FFF711F91C23DFE7491017
:105470008B4200DA0B0004308442D4D101215B005E
:105480000B43D7E72300083B1968231F1A68012341
:10549000AE00194223D01A4221D019411A410023EB
:1054A000914200DA0433A61B336001235B1B9B008F
:1054B000E418019BE21A254B92101B78002B01D0B7
:1054C000FFF7E6F800217B5E00991D120A617F213B
:1054D0001F4A0B409B009B580237FFF7D7F802206A
:1054E0004042FCF763FBA61B3060DEE7230001228D
:1054F000083B1968231F1B68AE00114230D01342CD
:105500002ED05A1094464810CA0F6146DB178142CC
:105510005A41A61B9200326001235B1B9B00E418DA
:10552000019BE21A094B92101B78002B01D0FFF768
:10553000AFF800217B5E00991D120A617F21044AA9
:105540000B409B009B580237FFF7A0F83003002068
:105550001C420108FC020020FCFFFF3F000000206D
:1055600001201A004042FCF721FBA61B3060D3E764
:105570002300083B1868231F1968AB00E31A039344
:1055800004239C46814219D000239C46042815D947
:105590000126304212D10F2203681340042B0DD193
:1055A00031420BD1042909D90B681340042B05D1D2
:1055B000FAF7D0FE431E984183009C466246039B47
:1055C0001A6001235B1B9B00E418019BE21AE84B65
:1055D00092101B78002B01D0FFF75AF800217B5E58
:1055E00000991D120A617F21E24A0B409B009B58E3
:1055F0000237FFF74BF82300083B1868231F196890
:10560000AB00E31A039300239C46814219D0043374
:105610009C46984215D90126304212D10F220368C8
:10562000134063450DD131420BD1614509D90B6857
:105630001340634505D1FAF78DFE4342584183007C
:105640009C466246039B1A6001235B1B9B00E41887
:10565000019BE21AC64B92101B78002B01D0FFF77A
:1056600017F800217B5E00991D120A617F21C14A53
:105670000B409B009B580237FFF708F823000122DC
:10568000083B1968231F1B68AE00114226D0134245
:1056900024D04A109446CA1761465810DB0F814245
:1056A0005A41A61B9200326001235B1B9B00E41849
:1056B000019BE21AAE4B92101B78002B01D0FEF733
:1056C000E7FF00217B5E00991D120A617F21A94A34
:1056D0000B409B009B580237FEF7D8FF1A000120B1
:1056E000FCF764FAA61B3060DEE72300083B19686C
:1056F000231F1A680123AE00194223D01A4221D079
:1057000019411A410023914200DD0433A61B336086
:1057100001235B1B9B00E418019BE21A944B92103F
:105720001B78002B01D0FEF7B3FF00217B5E0099B0
:105730001D120A617F218F4A0B409B009B58023744
:10574000FEF7A4FF0220FCF731FAA61B3060DFE76A
:10575000231F1B68043B5A1E9341AA00A21A9B00F8
:10576000136001235B1B9B00E418019BE21A804B32
:1057700092101B78002B01D0FEF78AFF00217B5E80
:1057800000991D120A617F217A4A0B409B009B58A9
:105790000237FEF77BFF2300083B1868FBF74AFE41
:1057A000231F06001868FBF745FE01233618760014
:1057B0001E435B1B9B00AA00A21AE418019B166003
:1057C000E21A6B4B92101B78002B01D0FEF760FFA2
:1057D00000217B5E00991D120A617F21654A0B4002
:1057E0009B009B580237FEF751FF2300083B1868C7
:1057F000FBF720FE231F06001868FBF71BFE0123A2
:10580000361A76001E435B1B9B00AA00A21AE418FE
:10581000019B1660E21A564B92101B78002B01D0A8
:10582000FEF736FF00217B5E00991D120A617F2181
:10583000504A0B409B009B580237FEF727FF23007E
:10584000083B1868FBF7F6FD231F06001868FBF7F6
:10585000F1FD01227043AB004000E31A1043521BDC
:1058600018609200019BA418E21A414B92101B7819
:10587000002B01D0FEF70CFF00217B5E00991D126A
:105880000A617F213B4A0B409B009B580237FEF781
:10589000FDFE231F1868FBF7CDFD374B061E039353
:1058A00020D11F2234331A70AB00E31A1E6001238B
:1058B0005B1B9B00E418019BE21A039B921034339C
:1058C0001B78002B01D0FEF7E3FE00217B5E0099E0
:1058D0001D120A617F21274A0B409B009B5802370B
:1058E000FEF7D4FE2300083B1868FBF7A3FD310048
:1058F0000BF0ACFB012640000643D5E7AE00A61B2B
:105900003068FBF797FD04907068FBF793FD002863
:105910001DD11F22164B1A7001235B1B9B00E4183C
:10592000019B3060E21A124B92101B78002B01D0C1
:10593000FEF7AEFE00217B5E00991D120A617F21F9
:105940000C4A0B409B009B580237FEF79FFEC31783
:10595000C2185A401100049803920BF05DFC002914
:1059600001DA039BC918012049000843D4E7C04667
:10597000300300201C420108FC020020231F18688D
:10598000FBF758FDC217801850400122AB004000C1
:10599000E31A1043521B18609200019BA418E21AEC
:1059A000E64B92101B78002B01D0FEF771FE002110
:1059B0007B5E00991D120A617F21E14A0B409B002A
:1059C0009B580237FEF762FEAB00E31A049503937F
:1059D000012D07D11868FBF72DFD061E0EDA0125F3
:1059E0006D420BE0022D35D1039B1868FBF722FDB9
:1059F000039B05005868FBF71DFD0600B54202DC5D
:105A000033002E001D000135AD1B0CF09DF929005F
:105A10000BF002FC01238919039A49001943116014
:105A2000049A9B1A9B00E418019BE21AC34B921044
:105A30001B78002B01D0FEF72BFE00217B5E009926
:105A40001D120A617F21BE4A0B409B009B58023702
:105A5000FEF71CFE64250126D5E7AE00A61B31002B
:105A60002800FCF7D9FC01235B1B9B00E418019B79
:105A70003060E21AB14B92101B78002B01D0FEF778
:105A800007FE00217B5E00991D120A617F21AC4A4E
:105A90000B409B009B580237FEF7F8FD2300083BA4
:105AA0001868FBF7C7FC231F06001868FBF7C2FC49
:105AB00001223040AB004000E31A1043521B186033
:105AC0009200019BA418E21A9C4B92101B78002BA9
:105AD00001D0FEF7DDFD00217B5E00991D120A61F9
