:020000040800F2
:10000000006000200D1901085D1901085D19010843
:1000100000000000000000000000000000000000E0
:100020000000000000000000000000005D19010851
:1000300000000000000000005D190108B1A00008E8
:100040005D1901085D1901085D1901085D190108B4
:100050005D19010801A1000811A1000821A10008F3
:10006000B9C000085D1901085D1901085D19010892
:100070005D190108DD9A0008F59A0008FD9A00084C
:10008000159B000800000000000000002D9B0008E8
:1000900000000000459B00085D9B0008C1D80008D7
:1000A00029D900085D1901085D1901080DBB000878
:1000B0002DBB000800000000000000000000000050
:1000C000030001221040134205D1042B02D9186805
:1000D000000980B270470020FCE7C30711D4042850
:1000E0000FD90F2302681340032B0AD119400133A3
:1000F0005B1AC0215B07C9050B4002490A40134344
:1001000003607047FFFFFF9F10B50400FFF7D8FFA3
:10011000002809D0421E830004349000225C002A8B
:1001200002D001309842F9D110BD0378002B03D0E2
:100130005AB2002A01DB013070473F229343C03B93
:1001400059424B41C01803789343802BF4D10130BE
:10015000F9E710B500240378002B01D1200010BD71
:10016000FFF7E3FF0134F6E7020000787F2809DD9E
:10017000DF2808DCF8238001DB00184053783F2299
:10018000134018437047EF280BDCFC21537809011A
:100190009B010007000C0B40034390783F22104066
:1001A000EFE7F72812DCFC21537889021B030B4090
:1001B000E02180044903084003433F20D1780140F7
:1001C0009078FC220B4380011201E8E701204042B5
:1001D000D8E710B57F2902DC0170013010BD802303
:1001E0001B0199420CDA40238A115B4213430370CE
:1001F0003F2280230A405B42134343700230EDE705
:1002000080235B02994210DA20230A135B421343D6
:100210003F24802203708B11234052420C40134331
:100220002243437082700330D8E788235B029942EF
:10023000D4DAF0230370603B4370113B8A11FF3B1B
:100240001A4382703F2211400B43C3700430C5E74C
:10025000064B1B681868000980B20238C343DB17DD
:1002600018404300012018437047C046FC0200209C
:10027000024A5368013353607047C046FC020020B5
:10028000024A1369013313617047C046FC02002023
:10029000024AD3690133D3617047C046FC02002093
:1002A000024A936A013393627047C046FC02002001
:1002B000002802DD0B68DA0704D41122074B1A70FC
:1002C000002070475B10013B032BF9D80C214B43F6
:1002D000034AD21800235360F2E7C04630030020DF
:1002E000FC0200200A4B002803DD01200A680242BC
:1002F00004D11122002034331A7070470C2152109F
:10030000013A4A439B185B685B001843F5E7C04617
:10031000FC02002010B50368984710BD012A02D1E5
:10032000016000207047022A05D0032AF9D0002A74
:10033000F7D10260F5E70B680360F2E770B50E00D5
:100340000400FFF7BDFE05003000FFF7B9FE0023F3
:10035000854206D1231DAD0004365D19AB4202D3A0
:100360000123180070BD197832780C001443F7D0BF
:10037000013301369142F1D00023F2E700207047AB
:10038000002070470420704700207047002804DCDC
:100390001C22054B1A70002070470B68DB07FAD44B
:1003A0000D22014BF6E7C046300300200123002850
:1003B00003DC1C22024B1A70002318007047C04651
:1003C00030030020C3070BD4064B9A6B824207D838
:1003D000DB6B834204D3031F1B68002B00D0180083
:1003E0007047C046FC020020F7B501272E4C2F4A6B
:1003F000A16BE06B2E4E082513682B4225D11368A4
:100400001B099BB202339B00D218B242F3D30025E2
:10041000284E3068FFF7D6FF013501C6802DF8D190
:10042000254D2868FFF7CEFF2860206C002802D0F9
:10043000FFF7C8FF2064636C002501931F4B1E006B
:100440000093019B9D4218DBF7BD1B099BB29B00EB
:10045000D3189A42D3D01D68AC463D420BD1A94275
:1004600009D2A84207D304256D42AC4465462D68E5
:10047000002D00D01D60043BEBE73378002B02D148
:100480000135F036DDE73C246C433369E4185F1E28
:10049000009BA400E418043C002FF1DBA069FFF7E7
:1004A00091FF013FA061F6E7FC020020A41F00209D
:1004B000D03B0020A007002000000020A009002061
:1004C0000123F0B59C4685B0184248D1254B9A6B64
:1004D0000092904243D3DB6B019398423FD8031FB5
:1004E0001B68002B3BD1020003681B099BB2002B49
:1004F0001ED09900029102995618614634680C4248
:100500002AD1009D2100A54226D8019DA54223D3D2
:10051000251F2F680395002F1ED127683D0717D58B
:10052000151F37602B60236822601B099BB20DE00A
:100530006146131F1960904211D011680B1F1B6890
:100540009C000C192568013B156022600A00CEE76B
:100550006146039C2160CEE71100013BF6E705B040
:10056000F0BDC046FC0200203622024B00201A706B
:100570007047C046300300200020704700207047BD
:10058000002070470020704700207047002070470F
:100590000120704701207047012070470020014B67
:1005A00098647047FC0200200120034BD8641B6D47
:1005B000834018437047C046FC020020002802DD3B
:1005C0000B68DB0702D40D22014B1A700020704724
:1005D00030030020002802DD0B68042B02D90C2216
:1005E000014B1A70002070473003002010B583794A
:1005F00004003C2B18D81D4A99005058421C00D0CA
:1006000018000EF0E5FCE3793C2B1ED8174A990040
:100610005058421C00D018000EF0DAFC01235B4257
:10062000E3800023236010BD3F2219009143C029BD
:1006300008D1CE2B06D80E481A40920012580B490A
:100640009200DAE701204042DBE73F2219009143A4
:10065000C02908D1CE2B06D805481A40920012585E
:1006600002499200D4E701204042D5E7BC3C010892
:100670005834010810B5002802DD0B68DA0704D4ED
:100680001122074B1A70002010BD5B10013B032B99
:10069000F9D80C2253430348C018FFF7A7FFF2E72D
:1006A000300300200003002070B5040080790DF0B5
:1006B000ADFD431E9841C5B2E0790DF0A7FD431E84
:1006C0009841227AC0B2002A1AD02279D1B2AA4225
:1006D00008D001212268854200D1023952182260D7
:1006E000257170BD62798242FBD02268814204D1BB
:1006F0000121521822606071F3E701214942F8E7B5
:1007000001212268854200D1023952182260E8E7AF
:1007100010B50248FFF7C8FF10BDC0460003002017
:1007200010B50248FFF7C0FF10BDC0460C03002003
:1007300010B50248FFF7B8FF10BDC04618030020EF
:1007400010B50248FFF7B0FF10BDC04624030020DB
:10075000F0B5624B89B0022803DC1C2234331A70D6
:1007600091E001220E68164205D04D68154202D074
:100770008C68144202D111223433F0E77610731ED4
:10078000029300230193032805D0CB68043B5A420F
:100790005341DBB20193731E032B00D99AE06D1015
:1007A000EBB203930C23721E53434D486410C018E0
:1007B000FFF71CFFEBB2E7B23C2B67D8EAB2494B1C
:1007C00092009B580093013301D0EBB200933C2F71
:1007D00000D96EE0E2B2434B92009B581D000133FA
:1007E00000D0E5B2009B013300D173E0019B002BE8
:1007F00002D06B1C00D16DE0B31E3B4E022B03D820
:100800003A4A9B00D218D66B04AC0C22002120007F
:1008100011F072FA002307939E4204D0344B0496E1
:100820000793344B069304AC02222100009810F089
:10083000E7F8200010F0ACF8019B002B15D00C223B
:100840000021200011F058FA0023E3609E4204D0FA
:10085000274B0496E360274BA36028000222210067
:1008600010F0CEF8200010F093F80C2202991B4BE8
:100870004A439B18002203995A601A725A72019ACD
:100880009972DF721A73002009B0F0BD3F23EAB2FB
:100890009A43C02A0AD1EAB2CE2A07D8E8B213494D
:1008A00003409B005B580F4A9B008AE701235B4291
:1008B0008CE73F233A009A43C02A08D1CE2F06D8AE
:1008C0000A493B409B005B58064A9B0085E701258F
:1008D0006D4287E73522084B41E7C046FC02002005
:1008E00000030020BC3C010811070008583401082F
:1008F000150300081D03000830030020F0B5B7B051
:10090000019010F081F9012847D9019B1B785B2BDE
:1009100043D1019B01381F181B5C5D2B3DD1019B0E
:100920003A215D1C280012F038FB041E35D0461B0E
:10093000002E32DD29000025320004A812F03BFB16
:1009400004AB611C9D557F1AAF4226DD3A001DA8FD
:1009500012F031FB64222E0004AB9B18DD552A4FA8
:10096000386804A910F046F9041E05D17B68BD68FB
:100970000293029BA34204DC01360C37102EEFD108
:100980000BE028681DA9039510F034F908350028FC
:1009900024D1039B586800282CD1019810F034F919
:1009A00000221A490B79032B0ED10B681C005B68DF
:1009B00008349B00013BE3189C4202D21D78002DB5
:1009C0000ED01B1A9C420DD901320831FF2AE9D101
:1009D0001B2201200E4B40421A700BE00134C8E785
:1009E000013BE9E71C780133002CEDD1A04203DC88
:1009F0000848104337B0F0BD019D1E5D2D5DAE422D
:100A0000E2D10134F2E7C04600130020C0130020F9
:100A10003003002000FFFFFF10B509F03FFA431E2E
:100A20009841800010BDF0B5BBB007931B4B00266A
:100A300004930C2343430692049A0290D3185A68F5
:100A40009C6803910592059B9E4213DB0C23029A3E
:100A50000399534300910499114ACB5808A8C8211F
:100A600012F02EFA08A809F02FFA1B220D4B0020D5
:100A70001A700EE02068039910F0BCF827000500FA
:100A80000834002807D17B68079906989847064BD9
:100A90001D643BB0F0BD0136D5E7C0460013002011
:100AA000AF53010830030020FC02002010B50348BA
:100AB00010F055FF43000120184310BDCA53010830
:100AC000F0B50D0085B01600009000270FF050FF24
:100AD000EC0F64196410009AFB00D018BC4218DCBB
:100AE000EB0712D50023013DAD000422711902A8C5
:100AF000039311F05CF9029A039BE143C9170C4080
:100B00000099E40008190EF083FB0FF027FF05B0F1
:100B1000F0BDF1184A78F35C12021A438B78013762
:100B20001B041343CA7812061A430B7901929C46A0
:100B300062464B791B0213438A7912041A43CB791C
:100B40001B061343019A0EF063FBC4E770B54E68B1
:100B50000A00B51C29000400FFF7B2FF01231D4065
:100B6000AD190235AD00601970BD030001220220ED
:100B7000134205D11000042B02D918680F23184026
:100B80007047FA2292004243044B5A6534331A7874
:100B9000002A01D1FF321A707047C046FC020020C3
:100BA000030001220220134205D11000042B02D9B8
:100BB00018680F2318407047020010B5102810DC89
:100BC000094B41001C88094B022C07D84833585E5A
:100BD000012C05D0042A03D1054801E06A33585E90
:100BE00010BD01204042FBE70470FF1F583401088C
:100BF0001102000070B5054E0400335C0D008B42FD
:100C000002D00DF069FA355570BDC046540300207E
:100C1000F0B5504F89B0012805DC1C2234373A70FA
:100C2000002009B0F0BD01230C681C4202D04D68C1
:100C30001D4202D111223437F1E76410621E039283
:100C400000220192022807D08A6811001940019100
:100C50001A4201D053100193631E032B75D86D10F7
:100C6000EBB202930C23621E5343381DC018FFF7EA
:100C7000BDFCEBB23C2B38D8EAB2374B92009B5804
:100C8000013362D0EDB200212800023CFFF7B2FF31
:100C9000324E022C03D8324BA4001B19DE68019B94
:100CA00004AC012B31D10C220021200011F024F8DA
:100CB0000023E3609E4204D02A4B0496E3602A4B53
:100CC000A3600322210028000FF09AFE20000FF0FD
:100CD0005FFE0C23039A02995343FB18002299727A
:100CE000FF215A60D9721A739AE73F23EAB29A43F6
:100CF000C02A2AD1EAB2CE2A27D8E8B21B4903403B
:100D00009B005B58144A9B00B9E7019B0C22002111
:100D10002000022B0CD110F0EFFF0023E3609E4275
:100D200004D0104B0496E3600F4BA3600222C9E786
:100D300010F0E2FF0023E3609E4204D0094B0496CA
:100D4000E360094BA3600422BCE73B003522343347
:100D50001A7065E7FC020020BC3C01087102000823
:100D6000D8340108150300081D0300085834010891
:100D700070B50024074B084DE05800212C35FFF7D3
:100D800039FF605900210434FFF734FF142CF1D1EE
:100D900070BDC046F0340108D834010870B5002495
:100DA000074B084DE05800211835FFF723FF605925
:100DB00001210434FFF71EFF142CF1D170BDC04691
:100DC00004350108D834010810B5002810DD0A6880
:100DD0000B49131F581E83414B610A4B1B88042A81
:100DE00008D0012B01D1FFF7C3FF0022064B1A6583
:100DF000002010BD012BFBD1FFF7D0FFF8E7C04664
:100E00007C0300200470FF1FFC0200201D280AD86C
:100E1000084B1A88084B022A0AD8012A06D1403307
:100E2000185CFF2801D10120404270475E33F7E78C
:100E30007C33F5E70470FF1FD8340108F7B50126AD
:100E40000368334202D04568354203D10D22164B68
:100E50001A70F7BD5C10772BFBD82000FFF7ACFEB3
:100E600001900028F5DB114F3B5D012B04D03100D0
:100E700020000DF031F93E552000FFF7C7FF00219B
:100E80000DF088F980236910DB00994208DB0849DE
:100E900001980FF00FF90122064B1B191A76D8E7BB
:100EA000CB43DB171940F3E7300300205403002045
:100EB000FF0300007C03002010B50800FFF7BEFF11
:100EC000002010BD70B50D003B2813D8102812D893
:100ED000124B1B181B7E002B0DD0FFF76DFE002858
:100EE00008DB6B425D410E4B694219400D4BC9183E
:100EF0000FF0E0F870BDFFF789FF0400431CF9D044
:100F0000094E335C012B04D001210DF0E5F80123DB
:100F10003355290020000DF03DF9EBE77C0300205C
:100F200001FCFFFFFF03000054030020036810B51D
:100F3000DA0703D40D22054B1A7010BD4168581012
:100F400004394A425141FFF7BDFFF6E73003002064
:100F500010B50800FFF7EAFF002010BD0A6870B561
:100F60001300012448682340224212D0030023408A
:100F700020420ED0002350103B2A0AD8FFF746FF2C
:100F800000230500421C04D0054E335CA34202D16D
:100F90000423180070BD21000DF09EF87455F7E78A
:100FA0005403002070B501250A682B00A84200DD1B
:100FB0004B682A4211D02B420FD0012A0DDD581068
:100FC000FFF724FF04003B2807D8054E335C012BB4
:100FD00003D001210DF080F83555002070BDC046CA
:100FE000540300200020704770B5324C6068002820
:100FF0004DDBC3B23C2B4ED8C2B22F4B92009B5854
:101000005A1C3AD0A268934237D12C4B5A6D002A11
:1010100033D0012502261369D968A943D960D9685C
:10102000B143D960D968B619B143D960D9680436DB
:10103000B143D960D9680836B143D9601E6A2049E6
:101040000E4206D11E6A1F490E4202D11968A943F9
:101050001960150001214D3529701D688D431D60F3
:10106000130057324E33197059709970D970197135
:1010700059719971D97119721170134D2B5C002B34
:1010800005D000210DF028F800226368EA540123FE
:101090005B42636070BD3F251A00AA43C02AECD1B1
:1010A000CE2BEAD809492B409B005B58024A9B0093
:1010B000A5E7C04600000020BC3C01087C030020DE
:1010C00011110000440400005403002058340108AA
:1010D000F0B518C90122180087B01040134224D07F
:1010E00020001040144220D05D103B2B00D9152564
:1010F000464E735D012B05D0012128000CF0ECFF5A
:10110000012373552800FFF781FE0500431C0BD017
:10111000641022003E4B103A9A4208D9FFF764FF50
:10112000002128000DF036F8042007B0F0BD394E3C
:101130007368984201D0FFF757FF75602D2C02DCD1
:10114000FFF752FFF0E7EBB23C2B3FD8324BAD003C
:10115000ED58324F7B6D002B08D1B42011F000F810
:101160002F4901900EF0DDFE019B7B656B1CDBD0EF
:10117000B3685A1C01D09D42D6D180235B029C42A9
:10118000D2D2012328005B420121F360B56008F050
:10119000E6FF7D6D610028000DF042FA0023280073
:1011A0000393204B02AC02931F4B2100E3601F4BC3
:1011B0006430A360EB6E002B1AD00FF0F1FB20001F
:1011C0000FF0E6FB786D08F09FFBADE73F201A00BB
:1011D0008243C02A09D1CE2B07D8154903409B0072
:1011E0005B580D4A9B009D58B3E701256D42B0E75F
:1011F0000FF0D6FBA368002BE1D002222B695242EC
:101200001A61D96803320A43DA60D8E75403002030
:101210009086010000000020BC3C01087C030020F7
:1012200000200040F1DA0008150300081D03000843
:10123000583401080023012210B50A4899000133EF
:101240004250802BFAD1084C084B00211A60200034
:10125000074A10F051FD074B074A6360074B1A60BD
:1012600010BDC046A0070020A01F002000000020E5
:10127000301C0000A0700000A41F0020FC02002011
:1012800003000B48DA0704D4042B03D8094800D123
:10129000094870470F211A68181D0A40042AF8D01F
:1012A0000648092AF5D00648032AF2D00548F0E797
:1012B000CE530108D8530108FA530108DE53010840
:1012C000E5530108F1530108012310B504001C4047
:1012D000184202D04410200010BD042810D90F225B
:1012E00003681340042B07D1FFF7CAFF21000A222D
:1012F00010F0DAFC0400EEE7032B01D10430F5E72F
:101300000D22014B1A70E6E730030020012310B5CF
:1013100004001C40184202D04410200010BD0428D4
:1013200010D90F2203681340042B07D1FFF7A8FF41
:1013300021000A2210F0B8FC0400EEE7032B01D1D3
:101340000430F5E70D22014B1A70E6E73003002068
:10135000F7B50C00042804DC1C22144B00201A7082
:10136000FEBD0868FFF7D2FF01906068FFF7CEFF6F
:101370000600A068FFF7CAFF0500E068FFF7C6FF98
:1013800007002069FFF7C2FFAE4202D11F22074BC0
:10139000E4E7019BC01B9B1B5843A91B0FF0DAFC21
:1013A000C31901205B001843DAE7C0463003002070
:1013B00070B50868FFF7AAFF1C490FF0B1FD0C1EBD
:1013C00001DA1A4BCC181A4B01269C4204DD194B4A
:1013D0009C4220DC184B1C1B642120000FF0BAFC3F
:1013E0006421050020000FF09BFD0A0013496B00EB
:1013F0005B5E002A0AD001356D00685E64215043AF
:101400008A1A5A4380180FF0A5FC03000120734389
:101410005B00184370BD0A4B9C4204DC094BE41886
:1014200001267642D8E7014B1C1BF9E7A08C00008F
:10143000272300004F46000050460000043A0108F0
:1014400077690000B0B9FFFF70B50868FFF75EFF6D
:10145000C317C4185C40012C03DC01206400204346
:1014600070BD6610310020000FF074FC85196D10FE
:10147000AE420DDC731C1A0031005A437143121B3B
:10148000641AA24200DB330001205B001843E7E747
:10149000290020000FF05EFC4019C30F1B182E001E
:1014A0005D10E5E7F0B50E00A1B0022805DC1C22B6
:1014B00000202E4B1A7021B0F0BD0868FFF726FF00
:1014C00004007068FFF722FF0500B068FFF71EFFF9
:1014D00006000F2D45DD0F2540222549684610F0F6
:1014E00066FC244940225C3110A810F060FC052203
:1014F00000233000F11711F089FD6F4600231E4ACA
:10150000AE0080185941F259002311F07FFDE71712
:101510000D04020C2A430B14650CF9032943E00364
:101520000125FF246D42240624184D4140206946C0
:10153000091888590021A4185D4111F067FDCE05F6
:10154000420A32436008EE074B123043691080189C
:1015500059412B0022000FF029FD430001201843C0
:10156000A9E7EB43DB171D40B6E7C0463003002078
:1015700074350108583501083C050000002310B5FA
:101580000C000B70C30705D50D494210200011F067
:10159000CBFC08E00B49002802D0042804D10A49FA
:1015A000200011F0EDFC10BD0428FCD90F220368C7
:1015B0001340042BF7D1FFF763FE04490200E5E76F
:1015C0006A560108CC530108FF5301080154010871
:1015D000012310B5040008001840194210D1042955
:1015E0000DD90F220B681340042B08D10800FFF718
:1015F00047FE010020000FF0FDFA4342584110BDA4
:101600000020FCE7F7B50F00012804DC1C22384B52
:101610001A700020FEBD4D68EB0706D4042D04D9D6
:101620000F222B681A40092A02D00B22304BEFE719
:101630006C681B099BB26410A34200D85C1E012396
:101640003E683340019301231E4212D070109E4227
:1016500047DD844245DB8300EB180433844243DCDE
:101660000123621C013C9C409200535123436B6058
:10167000CFE731001F48FFF7ABFF002809D0019BDF
:101680009C42C6DB0122019B013301939B00EA507F
:10169000F5E731001848FFF79BFF00280AD0002C1F
:1016A000B7D00122631C013C94409B0014435A5163
:1016B0006C60AEE7042E0FD90F2233681340042B61
:1016C0000AD13000FFF722FE002808D10B48396804
:1016D000FFF77EFF002804D11122054B98E7002870
:1016E000B7DC1222024B93E75A6801301A60B4E764
:1016F000300300200A5401080E540108CC5301089D
:10170000F0B51C2385B0012844DD4B68019301230B
:101710001C00022806D08A681A4203D054109A424C
:1017200000DC1C000127019B3B4200D073E0042B2E
:1017300000D870E00F221B680D681A40042A38D1C7
:101740003D4226D1042D24D92B680B321340042BA3
:101750001FD10198FEF7D8FCA0425CDB2800FFF700
:101760008FFD03780500002B55D00198FFF788FD09
:10177000013C29000600001911F031FC051E4AD079
:101780003378002B01D0AE420DD37C0001202043E2
:1017900003E00E2300204E4A137005B0F0BD0F2366
:1017A000F8E72823F6E73000FEF7BFFC0137060014
:1017B000E6E7092A3FD1019B5E687610B4422ADC35
:1017C0003D422DD1042D2BD92B6806321340042B1A
:1017D00026D12800FFF754FD0390019A02940134AA
:1017E000A300D058854203D1029B58003843D4E768
:1017F00038420ED104280CD90F2203681340042B61
:1018000007D1FFF73DFD010003980FF0F3F9002821
:10181000EAD0B442E1DD01204042BEE7B442FADC46
:10182000230001990134A2008A58AA42F6D101206E
:101830005B001843B1E7032AEDD11E09B6B25B0F76
:10184000B6001340F61AB442E5DC3D4228D1042D1F
:10185000A5D92B680C321A40032A15D1180980B279
:101860005B0F800013402F1DC01A019B361A013CEC
:1018700038180433B442CEDC3A00191982421ED320
:1018800001348242F6D118E00F23042A00D081E708
:101890002800FFF7F5FC07002800FEF735FCE4E719
:1018A0006D10FF2D00D97CE7019B013C0433B4424D
:1018B000B1DC1A5D0134AA42F9D1640066E70D7803
:1018C000AC461578AC45DBD101310132D6E7C046D4
:1018D000300300201C2370B501281BDD01230A689A
:1018E0001A4216D04868184218D1042816D901683F
:1018F0000E331940013B04290CD15410012A06DD96
:10190000FFF7BEFC0500FEF724FCA0420CDA122310
:1019100000E011230020084A137070BD0E23F9E780
:10192000FEF703FC0500013C2800012CF8D1FEF76E
:101930001BFC40002043F0E730030020F0B585B0E9
:10194000039301902F4B0291002A01D002211970BC
:1019500000272D499F548A65019B9F4201DB05B0FA
:10196000F0BD029ABB00D558274B264E9C6DFA233A
:101970009B00A6191C1B01231D4206D0234A6B1095
:101980002100300011F09CFA09E0214A002D02D01C
:10199000042D19D11F4A2100300011F091FA194C81
:1019A00020000FF031F9184A039B9065002B09D0F5
:1019B000019B013BBB4205DD431C93652022225461
:1019C0000022E2540137C7E72800FFF7CEF80300F2
:1019D000042805D12800FFF753FC0F4A0300CFE786
:1019E000092803D16B680D4A5B10C9E70C4A03282C
:1019F000C6D129680A0992B2490F92000B40D31A46
:101A0000084ABDE7B81B00207C0300206A56010885
:101A1000D8530108FA5301080A5601081354010863
:101A20002D54010822540108002310B51A00FFF7B5
:101A300085FF034B986D0DF04DFA002010BDC04698
:101A40007C030020F8B501230D00060014000800F7
:101A50001D40194227D1042941D90A680F210A40A3
:101A6000042A3CD11C4215D1042C38D923680B40E0
:101A7000042B34D1FFF704FC05002000FFF700FC25
:101A8000010028000FF0B6F8002830DA04237017A0
:101A90001840F8BDFFF7F4FB29000A2210F004F902
:101AA0000500601012E017001F401A4215D1042AE9
:101AB00015D913680F221340042B10D120004D10AC
:101AC000FFF7DEFB0A22390010F0EEF88542DDDB7D
:101AD00008DD002E09DC0020DBE74D10E1E70F22D6
:101AE000044B1A700136022EF5D80420D1E70028E5
:101AF000EFD1F7E730030020012310B504001C40AC
:101B0000184202D04410200010BD042810D90F2222
:101B100003681340042B07D1FFF7B2FB21000A2210
:101B200010F0C2F80400EEE7032B01D10430F5E712
:101B30000D22014B1A70E6E73003002010B508684B
:101B4000FFF7DAFF0020014BD86510BD7C030020B1
:101B5000086810B5C30703D5FFF7CEFF014B9864A3
:101B6000002010BDFC02002070B508680D00FFF7D2
:101B7000C3FF04006868013CFFF7BEFF042C0BD8CC
:101B80000138042808D80522012342431219934042
:101B900002498A6C13438B64002070BDFC02002054
:101BA00070B508680D00FFF7A7FF04006868013CE6
:101BB000FFF7A2FF042C0BD80138042808D805220F
:101BC0004243131901229A4002498B6C93438B6460
:101BD000002070BDFC020020104B13B51B880400D0
:101BE000012B0BD001210F200CF076FA21680F2079
:101BF00004394B4259410CF0CDFA13BD0723009331
:101C0000043B0193036869460220042B02D1FFF7CD
:101C1000ABFFF2E7FFF7C4FFEFE7C0460470FF1F1A
:101C200010B50800FFF7D8FF002010BD70B50C6894
:101C3000012325001D401C4217D1042C15D90F2269
:101C400023681340092B10D166687610B54204DB77
:101C50000120FEF796FF002070BD2300AA00083384
:101C60009858FFF749FF0135F0E72000FFF744FFE0
:101C7000EEE70868F8B5C3071ED5FFF73DFF030080
:101C8000203B5E2B1AD805220121534342430020FA
:101C9000104E9B3A05241025F75C3D4200D04018B9
:101CA000013C49006D10002CF7D101339342F1D172
:101CB00043000120184302E0042801D80120F8BDA8
:101CC0000F2302681340042BF8D1034B1A42F5D0BE
:101CD0000079D4E748360108F0FF0F00F0B50600A0
:101CE00087B008680D00FFF707FF012303901C0071
:101CF000022E07DD6868FFF7FFFE0400A868FFF703
:101D0000FBFE03005A1D0492214A1800916C012227
:101D100000270192461E059605264643B446052631
:101D20007642651E221DB444059E042E0DD8042D56
:101D30000BD8664677190126BE40019F0296039E86
:101D4000374221D0029E31430127019E01357600A2
:101D50000196AA42E8D1049D0130A842DAD1002FB1
:101D600001D00B488164042A0BD8012B09D1084803
:101D70001D34816C1D0095400532A9439442F9D170
:101D80008164002007B0F0BD029EB143DCE7C0468D
:101D9000FC020020F0B50C0097B0022805DC1C22E4
:101DA000D84B1A70002017B0F0BD0868FFF7A4FEEA
:101DB00001906068FFF7A0FE0500A068FFF79CFE99
:101DC00004002800FFF722F806003B28EAD8CE4D91
:101DD0002B5C012B04D001210CF07EF90123AB55C3
:101DE000002130000CF0D6F92100C8480EF0B2FFF7
:101DF000013805006A1E9541C54C451BA368FA21B0
:101E00001493636889000133180068431F000EF0C3
:101E100017FF0022149B1593A36814931599149B24
:101E2000994200D346E11599149BFB1A5B18D2180E
:101E3000149B15939042EFD80121019B300019406B
:101E40000CF0A8F9A368FA211293636889000133A2
:101E5000180068431F000EF0F3FE0022129B13933C
:101E6000A36812931399129B994200D326E1139908
:101E7000129BFB1A5B18D218129B13939042EFD857
:101E8000019B30009907C90F0CF084F9A368FA216F
:101E90001093636889000133180068431F000EF037
:101EA000CFFE0022109B1193A36810931199109BF1
:101EB000994200D306E11199109BFB1A5B18D218C6
:101EC000109B11939042EFD8019B30005907C90F26
:101ED0000CF060F9A368FA210E936368890001335E
:101EE000180068431F000EF0ABFE00220E9B0F93FC
:101EF000A3680E930F990E9B994200D3E6E00F99C9
:101F00000E9BFB1A5B18D2180E9B0F939042EFD8D2
:101F1000019B30001907C90F0CF03CF9A368FA21A6
:101F20000C93636889000133180068431F000EF0AA
:101F300087FE00220C9B0D93A3680C930D990C9BBC
:101F4000994200D3C6E00D990C9BFB1A5B18D2187E
:101F50000C9B0D939042EFD8019B3000D906C90F1E
:101F60000CF018F9A368FA210A9363688900013319
:101F7000180068431F000EF063FE00220A9B0B93BB
:101F8000A3680A930B990A9B994200D3A6E00B9988
:101F90000A9BFB1A5B18D2180A9B0B939042EFD84E
:101FA000019B30009906C90F0CF0F4F8A368FA21E0
:101FB0000893636889000133180068431F000EF01E
:101FC0003FFE0022089B0993A36808930999089B88
:101FD000994200D386E00999089BFB1A5B18D21836
:101FE000089B09939042EFD8019B30005906C90F16
:101FF0000CF0D0F8A368FA210693636889000133D6
:10200000180068431F000EF01BFE0022069B07937A
:10201000A36806930799069B994267D20799069B86
:10202000FB1A5B18D218069B07939042F0D8019BCD
:1020300030001906C90F0CF0ADF8A368FA2104931B
:10204000676889000137380068430EF0F9FD002207
:10205000049B0593A36804930599049B994249D274
:102060000599049BFB1A5B18D218049B05939042B8
:10207000F0D8300001210CF08DF82800FA21A36877
:10208000890002936668013670430EF0D9FD002284
:10209000029B0393A36802930399029B99422DD25A
:1020A0000399029BF31A5B18D218029B0393904288
:1020B000F0D877E6159B14995B1AB8E6139B129932
:1020C0005B1AD8E6119B10995B1AF8E60F9B0E99E4
:1020D0005B1A18E70D9B0C995B1A38E70B9B0A9962
:1020E0005B1A58E7099B08995B1A78E7079B0699E2
:1020F0005B1A97E7059B04995B1AB5E7039B029966
:102100005B1AD1E7300300205403002040420F0047
:1021100010E000E070B50400FEF742FD012805D193
:10212000043C63425C416500280070BD0025042822
:10213000FAD12000FFF7A4F80400084821000EF0AF
:1021400059FDA84207D0210005480EF053FDA842D2
:10215000EAD10325E8E70225E6E7C0463A5A010836
:102160003F540108F8B50C68E30704D40D221B4B5B
:102170001A700120F8BD00256410012803DD4868AD
:10218000FFF7C8FF0500112CF3D8154B6200198822
:10219000144B02291CD89B181C269E5F012904D1D0
:1021A000E31E012BE5D90C2CE3D0002EE1DB0E4F12
:1021B0003B5DAB4204D0290020000BF08DFF3D5564
:1021C0000A21300008F0F0FC430001201843D1E759
:1021D00002339B183E269E5FE7E7C046300300208F
:1021E0000470FF1FD835010854030020F8B506001D
:1021F00001200B680D00034203D10D22104B1A7011
:10220000F8BD5810FEF702FE04003B2801D900205B
:10221000F6E70027012E03DD6868FFF77BFF070064
:10222000084D2B5DBB4204D0390020000BF054FF59
:102230002F5520000BF0EAFF0128E8D10330DFE73B
:102240003003002054030020086870B50124050005
:102250002540204206D1042804D90F2203681340E8
:10226000042B04D00E220E4B00201A7070BDFFF715
:1022700007F803782900233B5A4253411022C01823
:102280000FF012FD80239B05C2188023DB059A42C4
:1022900002D31422024BE7E740002043E6E7C046A2
:1022A000300300201C2370B5012833DD01230868AA
:1022B00018422ED104282CD90F2602683240042A55
:1022C00027D14D682C001C401D4222D1042D20D95D
:1022D0002A680D333240042A1CD1FEF7D1FF0600D4
:1022E0002800FEF7CDFF0100300006F06FFB00284C
:1022F0001DD006F05AFA03787B2B0FD10130002253
:10230000110006F036FB002811D006F055FA013412
:10231000F5E70E230020084A137070BD5B2B06D131
:10232000013006F00AFB002801D00134F9E7012052
:1023300064002043F1E7C04630030020F8B52A4B83
:102340001B88012B0DD1294C6569002D09D1284B23
:10235000E16D9A6C1000084304D1DA6C002A00D0B9
:10236000D864F8BD206E00280DD1D86C002800D0AC
:10237000DD64E265002904D0002A02D1FEF7F8FCF2
:10238000EFE7FEF70BFD226E0423002A00DD531E4B
:10239000184E9B00F3180021D86AFEF72BFC05228B
:1023A000276EE36D7A43521913410121994333009B
:1023B000AA001833D05801350BF0ECFE052DEED1F4
:1023C000BF00F719F86A0121FEF714FC276E0121FE
:1023D000BB00F618F06A0BF0DDFE2900781C0EF049
:1023E0009FFD2166BDE7C0460470FF1F7C030020EF
:1023F000FC020020D8340108F0B5A1B005920A0013
:10240000574F049038680132036801911B099BB251
:1024100002929A4200DA89E006F0BEF8FFF78EFFDA
:1024200007F0F6FB002403904E4AA300D058013475
:10243000FEF746F8802CF7D14B4B1868FEF740F8B2
:10244000386C002801D0FEF73BF80026474D7B6C26
:102450009E4257DB4649474D0A001368141F1B096B
:1024600026689BB2981C002E5DD08B1A5E1EB3416D
:102470005B420B4023608300C91880001218AA42F7
:10248000EBD3FDF7B1FF3A4C26000F2233681D094C
:10249000ADB213420BD06F1CA64204D03100200015
:1024A000BA0010F0E1F90023BF00E41908C40235B6
:1024B000AD0076192F4DAE42E7D32D1BAD10013D77
:1024C000274E2B012360346007F0A2FB039AABB2C6
:1024D000821A023B284907A810F026FD07A807F03A
:1024E000F3FC06F059F8FFF729FF3068029A0368F9
:1024F0001B099BB29A4219DB0A2300203436337041
:1025000021B0F0BD2B78002B02D10136F0359EE7CB
:102510002C69013C002CF8DB2B00A20018339858E2
:10252000FDF7CEFFF5E71B011360A6E7019A0C4DFE
:10253000941CA2001B1B81181B010B602960002149
:10254000031F1960019B083A1901049B19430300FA
:1025500002C39A189A42D3D9059902C3FAE7C04632
:10256000FC020020A007002000000020A00900209D
:10257000A41F0020D03B00204454010870B5002265
:1025800004000D00411C0920FFF736FF002808D089
:102590000123620013430100436000230831A3427A
:1025A00000DB70BD9A00AE5801338E50F7E7F7B5E7
:1025B0000F000190012804DC1C221F4B1A70002020
:1025C000FEBD0868FEF7A2FE05007868FEF79EFED5
:1025D000019B06000124022B07D0B868FEF796FE87
:1025E000041E02DC2922144BE8E7B5421CDC701BF8
:1025F00021000EF0AFFB461C00220920711CFFF7E2
:10260000FBFE0028DBD0012273001343436094409B
:1026100095400300B6003618110029439960043331
:102620002D19B342F8D1CBE72100A81B0EF092FB85
:102630006442461CE0E7C04630030020F7B54C6812
:102640000191E30706D4042C04D90F2223681A4011
:10265000092A04D00B22304B1A700020FEBD1B0942
:1026600065689EB2731E6D10AB4244D803200B2DDB
:1026700008DD972361305B009D4203DC03212800C5
:102680000EF068FB254FBB6B9C4234D3FB6B9C4226
:1026900031D2831919000122092000933C64FFF70D
:1026A000ABFE00233C6C06003B64984223D02268BA
:1026B000009B120992B204309A4200DD1A00920087
:1026C000211D0FF074FB164A16490020131F1860D5
:1026D00013681B099BB202339B00D2188A42F4D3C1
:1026E000271F3E60FDF780FE00233B6023680E4AF3
:1026F00013402360340023681B099BB2013B9D42B9
:10270000ABD2019B1A68AB1C9B001A510123013507
:102710006D002B436360A0E730030020FC02002023
:10272000A41F0020D03B0020F0FF0F0070B5002850
:1027300005DC1C22164B00241A70200070BD0122FB
:102740000D68154202D10D22114BF4E701281DD06E
:102750004B681342F7D05B10FF2B02D913220C4BAE
:10276000E9E718020200C0181A43000402436D1082
:10277000EB43DB171D40E91C03208910FFF73CFEEB
:10278000041EDAD02900FDF7A8FCD6E70022EEE708
:1027900030030020F7B5002805DC1C22314B1A70ED
:1027A00000242000FEBD0D6801272E003E403D4262
:1027B00011D03D41FF2D02D913222A4BEFE7002211
:1027C00039000320FFF718FE041EEAD03900FDF798
:1027D00084FC2571E5E7042DEED90F222B68134008
:1027E000042B18D12800FDF78FFCC11C0700320014
:1027F00003208910FFF700FE041ED2D03900FDF738
:102800006CFC2800FEF73CFD231D01003A00180077
:102810000FF0CDFAC5E7092B1FD103206B683200FA
:102820005B1001930333D9170140C9188910FFF7D2
:10283000E3FD041EB4D00199FDF74FFC0835221DBD
:10284000019B9E42ADDAB300EB583B4203D05B10D4
:10285000FF2BB1D893550136F2E7032BACD12C00F6
:102860009FE7C0463003002010B5094C00222064C9
:1028700002210920FFF7C0FD236C002803D10A23A1
:102880003434237010BD032283604260FAE7C046EF
:10289000FC02002070B50400C30708D54410FF2CCB
:1028A00007D913220A4B00251A70280070BD631E39
:1028B0009C41002201210320FFF79EFD051E02D14D
:1028C0000A22034BEFE70121FDF707FC2C71ECE72F
:1028D000300300200323043010B5C1171940091834
:1028E000002204208910FFF787FD10BDF7B50E0008
:1028F0000090012805DC1C225D4B1A70002420008A
:10290000FEBD4B6801221C001440134202D10D226F
:10291000574BF2E70099022902D0B1681142F6D074
:1029200001223768174200D09EE0042F00D89BE0B8
:102930005D10934200DC15000F213B681940092906
:1029400027D17B6800995B101A00022901D0B26878
:10295000521000929A4200DD0093009B01225F1BFF
:102960000137FB43DB171F400920791CFFF744FDAB
:10297000041EC3D001237F003B4332684360030041
:1029800008330099A942BADB0135A900515802C3A6
:10299000F7E704293CD13800FEF772FC0190FDF7FF
:1029A000D8FB009A0300022A01D0B3685B100093A1
:1029B000834200DD0090009BAB4223DA0020FFF74A
:1029C00089FF04009BE7FDF7B0FB070001343800E6
:1029D000A542F8D1009BA34216DAC51B2800FFF7D9
:1029E00079FF041E00D18AE7FEF74AFC00903068A8
:1029F000FEF746FC2A00019BFF1AC11900980FF050
:102A0000D6F97CE7019FE2E7FDF78FFB0134E1E7B0
:102A1000032929D11A0992B25B0F0B409200009949
:102A2000D21A1300022901D0B3685B10934200DD73
:102A30001300AB4205DA002203201100FFF7DCFC93
:102A4000BFE75E1BB110002203200131FFF7D4FC69
:102A5000041E00D153E7013631000335FDF73DFB7D
:102A60003200201D7919CAE72122014B45E7C046F3
:102A700030030020F0B593B005000191012806DC79
:102A80001C22984B1A700025280013B0F0BD019B42
:102A900001261B681C003440334200D0ACE0042BFC
:102AA00000D8E7E00F271B6802943B40092B45D173
:102AB000029B019A9B00D3581A0032400392334282
:102AC00005D1042B03D918683840092804D02222E4
:102AD000844BD7E70293EBE75B685B10E418029B3B
:102AE00001339D42F6D10122611CFFF785FC051ED2
:102AF000C9D06400344344600400039A0834019947
:102B00009300C95808684B68000980B25B1098426E
:102B100000D8431E0020083183420ADCD943C9177C
:102B20000B4002999B00E418531C9142ACDD1A0043
:102B3000E5E786008F590130A751EDE7032B5ED101
:102B4000029B019A9B00D0583042C0D10428BED9C4
:102B500002681100394003293FD113099BB2520F7B
:102B60009B000A409B1A1C19029B01339D4232D1E3
:102B70000320E31CD9170140C91800228910FFF770
:102B80003BFC051E00D17EE72100FDF7A6FA0026DA
:102B90002F1D019AB300D45801231C4224D1042CC8
:102BA00022D90F2223681A40032A1DD1180980B2A6
:102BB0005B0F80001340C01A00230434834217DBEC
:102BC000C343029ADB1718403F18731CB24200DC63
:102BD0005AE71E00DDE70293B2E7042900D076E74A
:102BE000FDF792FA2418BFE72000FDF78DFAE3E71E
:102BF000E25CFA540133E1E700231C000293012652
:102C00000F27029B019A9B00D058304236D10428EE
:102C100034D9026811003940042936D1FDF774FA1D
:102C20002418029B01339D4226D12000FFF752FE5B
:102C3000051E00D127E70023041D0393039B019A7F
:102C40009B00D65801231E422AD1042E28D90F22D8
:102C500033681A40042A3AD13000FDF755FA0700CC
:102C60003000FEF70DFB010020003A000FF09FF846
:102C7000E41923E00294C2E70293C2E705A9FEF734
:102C80007DFC05A80DF0C0FFCAE7032900D01EE7B0
:102C900013099BB2520F9B000A409B1A1C19C0E7F4
:102CA000300005A9FEF76AFC05A80DF0ADFF05A9E7
:102CB0000600020020000FF07AF8A419039B029A84
:102CC000039901338A42B8D100232370DCE6032A3A
:102CD000F4D11F09BFB25B0FBF001340FF1A311DB3
:102CE000C2E7C04630030020F0B50E0097B00028C0
:102CF00006DC1C22604B1A700025280017B0F0BDBE
:102D00000C68012322001A4000921C4206D1042CB8
:102D100004D90F2221681140092902D00B22564BF9
:102D2000E9E761684D100495012904DC0098FFF77C
:102D3000D1FD0500E1E75149019101280BD07068F0
:102D4000184208D1042806D903681340042B02D185
:102D5000FEF796FA019001980DF056FF05000F2737
:102D6000049B0290013B5D430593049B9B00E31889
:102D700003930123A06818426CD104286AD9026821
:102D800011003940042903D1FDF7BEF9451908E0C7
:102D9000032966D113099BB2520F9B000A409B1A6C
:102DA0005D19039B0434A342E3D12800FFF792FD91
:102DB000051EA1D033680793029B002B03D07068D7
:102DC000FEF75EFA01902800FEF75AFA0600009B13
:102DD0009A00079B08339F5801233B400693012329
:102DE0001F4241D1042F3FD93800FEF749FA039022
:102DF00003980DF009FF069B0400002B0ED1042F51
:102E00000CD90F223B681A40032A07D11C09A4B22F
:102E10005B0F391DA40013400391E41A3000220017
:102E200003990EF0C4FF029B3619002B0AD0059BB4
:102E3000009A934206DD3000029A01990EF0B7FF26
:102E4000029BF618009B01330093009A049B934267
:102E5000BDD152E709A9FEF791FB09A80DF0D4FEF8
:102E600094E7FEF70DFAF9E7380009A9FEF786FBAB
:102E700009AB0393BCE7C046300300205755010857
:102E800070B5050008000C00FFF724FD002809D0EC
:102E90000023021DA34206DBE343DB171C40002393
:102EA0001219137070BDE95CD1540133F2E7F0B52B
:102EB0000D0085B0012805DC1C22514B1A70002042
:102EC00005B0F0BD01230868184206D1042804D9D2
:102ED0000F2102680A40042A02D00E22484BEDE777
:102EE0006F683E001E401F42F7D1042FF5D93B68A2
:102EF0000B40042BF1D1FEF7C3F904003800FEF7B4
:102F0000BFF902900DF080FE039000281ED1200032
:102F1000FDF71FF90190019B01220920591CFFF7C1
:102F20006BFA384F38640028C9D00122019B5B003E
:102F300013434360039B002B2CD12000FDF7F5F8D1
:102F4000019B0500B34215D1386CB9E72000029906
:102F500010F045F8001B4342434120000193019BC0
:102F6000029901330193039BC01810F038F8002830
:102F7000F5D1D0E72000291BFFF782FF00289ED063
:102F80003B6CB2009B1898602800FDF7CEF82C002F
:102F90000136D5E7019B012B02D12B6883608FE7B7
:102FA0002000029910F01BF801250600019B002E5D
:102FB00010D1AB42C8DB20000DF026FE010020003E
:102FC000FFF75EFF002800D179E73B6C0135AD00CB
:102FD000E850B9E7AB42B7DB2000311BFFF750FFE9
:102FE000002800D16BE73B6C0135AA00D050039B51
:102FF0000299F41820000FF0F2FF0600D6E7C04651
:1030000030030020FC020020F0B50E0085B000283F
:1030100004DC1C22314B1A70002419E00D680124D5
:103020002F002740254206D1042D20D90F222B68DE
:103030001340042B0FD12800FEF768F902AC010001
:103040002000FDF7C6F8011B2000FFF719FF040060
:10305000200005B0F0BD092B09D16B685B1001930E
:10306000019B9C4206DD1D4B1B78002B1DD02A22A4
:103070001A4BD0E70134A300E858FEF747F90123C3
:103080007F2810DD8022DB18120190420BDB8022AA
:1030900001335202904206DB8822023B52029042E8
:1030A00000DB00239B00FF18DAE73800FFF712FC73
:1030B000041EB1D0FEF7E4F8376805000126019B35
:1030C0009E42C5DC0136B300F858FEF71FF9010037
:1030D0002800FDF77EF80500F1E7C0463003002028
:1030E000F0B50E008BB0012806DC1C22AA4B1A702A
:1030F000002420000BB0F0BD0C682000FDF735FD6A
:1031000005007068FEF7BCF8A44907000DF072FDD9
:103110000126002800D0023E3800A1490DF06AFDCA
:10312000002800D1022638009E490DF063FD0028DA
:1031300000D1042638009C490DF05CFD002800D128
:103140000926380099490DF055FD002800D1B6E157
:10315000731C02D13022904BC9E7681E0828C8D8DA
:103160000DF064FD0900240056014200C7FFC7FFAF
:10317000C7FFC7FFB000B01E0728BAD80DF0F4FE95
:10318000043009B9B9B9B911042C00D095E1013C5A
:10319000AFE78748042C00D186480121FFF770FE75
:1031A00002E02000FFF760FB0400A2E7701E082881
:1031B0009FD80DF0D9FE059E150A9E9E9E9EF60094
:1031C000641000D194E7042493E77B49621002A8BD
:1031D0000FF0AAFE02A80DF017FD010002A8DDE71E
:1031E0002000FFF757FBDFE7701E082800D980E7B3
:1031F0000DF01CFD0900120047007FFF7FFF7FFFDD
:103200007FFF7FFF19002000FEF73AF868490DF0B4
:10321000F1FC0028D7D16BE72000FEF777F80124F6
:103220004000044365E72000FEF72AF8FCF791FF11
:10323000624D411C0600002209202C64FFF7DCF8D7
:10324000041E02D10A22544B51E70122730013439A
:10325000286C6360FEF714F800270500BE4200D119
:1032600047E72800FCF780FF012122004000BB0057
:1032700008430832D0502800FCF757FF01370500FB
:10328000ECE72000FDF7FCFF0DF0BEFC4B4EC11C2F
:1032900005000022032089103464FFF7ADF8041EF6
:1032A000D0D0366C2900FCF718FF3000FDF7E8FF9E
:1032B0000023221D9D4200DC1BE7C15CD154013379
:1032C000F8E703266568701E6D10032800D910E723
:1032D0000DF0A2FC020E763A012D06D1A468200062
:1032E000FDF743FC012800D103E72D222A4BFEE61F
:1032F000012D03D1A4682C4200D0FAE62C22264BE3
:10330000F5E60136B300E058FEF700F801237F2808
:1033100010DD8022DB18120190420BDB802201338A
:103320005202904206DB8822023B5202904200DBAE
:1033300000239B00FF18B542E3DA174B1F4E1A78A3
:10334000002A04D02A22D2E601260027F3E738001B
:103350003464FFF7BFFA336C041E019300D1C7E653
:10336000FDF78EFF0127BD4200DAC2E6019A013760
:10337000BB00D1580123194202D12722064BB6E6E1
:10338000882349105B03994203D3312334363370C9
:10339000AEE6FCF71EFFE6E73003002064540108A8
:1033A0006C540108735401087A5401087F540108D1
:1033B000CC530108FF5301086A560108FC020020A3
:1033C0000320EB1CD9170140444EC9180022891074
:1033D0003464FFF711F8041E00D133E7376C29007D
:1033E000FCF77BFE3900002301270831201D9D4298
:1033F00000DC7EE69A008A583A42BED05210FF2A7C
:1034000002D913233436C2E7C2540133EFE72E004A
:103410002368701E1D09ADB25B00AD009B0FED1A55
:10342000082800D965E60DF001FC0900120064FED1
:10343000190064FE64FE64FE64FE2B00012D00D0C2
:1034400053E723790424002B00D052E650E6012DE7
:1034500000D053E7247964002C434AE61F4E28002D
:103460003464FFF737FA0423041E316C00D1E9E617
:103470001A1F954200DC3CE6CA5CE2540133F7E7D0
:10348000164E691C002209203464FEF7B5FF316C2A
:10349000041E00D1D6E601206B00034326006360C2
:1034A0000023083604319D4200DC22E6CA5C9F00FE
:1034B00052000243F2510133F5E7012419E6681E78
:1034C000082800D915E60DF0B1FB8BFE8BFEA2FF9C
:1034D000DCFE14FE14FE14FE14FEFCFEFC020020B2
:1034E00010B588B0002806DC1C220024194B1A7085
:1034F000200008B010BD0C682000FDF736FB013835
:10350000082823D80DF030FD050E19F422222222BE
:1035100019001148042C00D110480121FFF7B0FC1C
:103520000400E5E70E49621068460FF0FDFC6846AE
:103530000DF06AFB01006846F0E72000FDF7A0FEF1
:1035400004000DF061FB01002000E7E70020FFF719
:10355000C1F9E5E730030020CC530108FF5301080F
:103560006A56010810B50C4C86B020000DF04CFBDB
:1035700001002000032906D00849122201A80EF0FC
:1035800016FC112101A8FFF77BFC002802D10A22BA
:10359000034B1A7006B010BDE00300208A540108E6
:1035A00030030020F0B59BB0022844DD01230868F9
:1035B000184245D1042843D90F2402682240042A26
:1035C0003ED14D682F001F401D4239D1042D37D9FF
:1035D0002A682240042A33D18C681C4232D0FDF77D
:1035E0004FFE06002800FDF74BFE01AD0100300044
:1035F0002F7005F0EBF964100600002C08DC2800A1
:103600000DF002FB01002800FFF73AFC1BB0F0BDF3
:1036100005F01BF90228F2D164222900701C05F084
:10362000A8F9012CEBD005F088F96422290005F0F7
:10363000A0F9013CF5E71C23034A00201370E5E7DD
:103640000E23F9E70D23F7E73003002010B5204CD7
:10365000A544041E02D1FFF73DF90BE005F0F5F893
:103660000138062830D80DF0D7FA0909192004319D
:103670002C0004208023DB009D4410BD200005F0B9
:103680009BF8844204D3011B2000FFF7F9FBF1E70C
:103690000378013B1F2BF6D80138F2E7200005F034
:1036A000FEF8430001201843E4E780226946200029
:1036B000D20005F00BF968460DF0A6FA0100684645
:1036C000E3E704210348E0E70020C4E70020D1E756
:1036D00000FCFFFF9C540108F7B51C2305000C00FB
:1036E000012833DD0127086838422ED104282CD95F
:1036F0000F2103680B40042B27D166683E4224D17A
:10370000042E22D932680A330A40042A1ED1FDF75A
:10371000B7FD01903000FDF7B3FD0100022D19D077
:10372000A5683D4216D03D41019805F04FF90400CF
:1037300005F08BF8012816D1002D02DD0134012D92
:103740000BD12000FFF782FF03E00E2300200E4A7A
:103750001370FEBD01256D42E6E7200005F0EDF88F
:10376000013D0400EBE70228EBD1002DE9DD013437
:10377000012DE6D000222000110005F0FAF805F036
:10378000DCF8013D0400F3E730030020F8B51C230A
:10379000022842DD0123086818423DD104283BD9A4
:1037A0000F2502682A40042A36D14E6834001C4096
:1037B0001E4231D1042E2FD932682A40042A2BD13F
:1037C0008D681D422DD0FDF75BFD07003000FDF731
:1037D00057FD0100380005F0F9F86D1006002000D3
:1037E000002D25DD300005F030F80300701C012BA2
:1037F0001CD00020022B1BD101360200010030003A
:1038000005F0B7F8012D13D005F097F8002211004C
:1038100005F0AFF8013DF5E70E230020064A1370CE
:10382000F8BD0D23F9E705F088F8013D012DFAD127
:10383000FFF70CFFF4E7C0463003002070B50C68BA
:10384000E30718D52000FDF761FD0400203C5E2C45
:1038500013D8002202210320FEF7CEFD051E02D060
:103860000521FCF73AFC052254430B49281D611839
:103870000EF09DFA02E0042C02D80125280070BD4C
:103880000F2223681340042BF7D12000FCF718FC0B
:103890000028F2D02479D9E728380108F7B50700C5
:1038A0000E000DF065F81D4B1D4D1A78012A2FD022
:1038B00001221A700023EB660AF080FE002824D152
:1038C000F8231B06FB18DC176405640DE418E412EA
:1038D000F61B2700F1174905490D8919CB120193F1
:1038E000019B104EE3189F420BD273690E4A13409E
:1038F000FA0013430D4A134373610AF05FFE002878
:1039000009D00222736993437361002368352B70D9
:103910000DF024F8F7BD0137E2E7C046E4030020CC
:103920007C0300200020024007FEFFFF0200010090
:1039300010B5002804D104480449FFF7AFFF10BDBB
:1039400002480349F9E7C0460070010800B80108C1
:1039500000000208431E984190234042DB011840BA
:10396000044BC018036800201A0E532A01D11B0211
:10397000180A70470070010813B5431E9841902340
:103980004442DB011C400A4B0902E418A623090A41
:10399000DB050B430093002301930CF0E9FF009A31
:1039A000019B20000BF034FC0CF0D8FF13BDC04687
:1039B00000700108154B01001B6810B5002B0BD1DE
:1039C000134C144B00290AD19A680800120E522A8F
:1039D00001D10833180010BD0F4C0D4BF2E7002049
:1039E0008C42F8D90B681B0E522BF4D14B689A1CF1
:1039F00092008818DB0700D50430844203D903689D
:103A00001B0E522BE7D00020E5E7C046FC03002048
:103A100000B801080070010800000208F8B5002095
:103A2000FFF7C8FFFF26DA27050036043F04002809
:103A300001D12800F8BD0468FFF7BCFF3440BC4248
:103A4000F5D10500F3E7FF2270B51A4C0021D20032
:103A500020000EF051F9FF25FFF7E0FF00260028B7
:103A60000CD1154B1A78002A03D05A78D200A258EC
:103A70009A600130F0330A28F4D170BD03681A143B
:103A80002A400C2A0AD11A122A40FF2A03D0D20057
:103A9000A1180B71A050FFF78DFFE0E7132AFAD1B0
:103AA0001B122B40FF2BF6D0DB00E2181671E650FC
:103AB000F1E7C046C0130020A00900208022F0B525
:103AC000584BA1B004935B680021520056480593FF
:103AD0000EF012F980220021520054480EF00CF929
:103AE000049B1B681A00039353425341180002932E
:103AF000FFF71EFF029B5D429023DB011D404C4BF4
:103B0000ED18FFF78BFF061E2CD10398FFF722FF5D
:103B1000411C0298FFF730FF029A424B1A609D60E9
:103B2000FFF791FF039B90215A4253416420C90142
:103B3000404A5B420B409B18EC1A049B60435E6852
:103B4000059B0191F61A0DF005F93B4D230032005B
:103B50002900009007A80FF0E7F907A806F0B4F9CC
:103B600021B0F0BD04F018FDFF22346823142712A1
:103B7000134017401A000C3A072A25D82A4BDC5D5F
:103B8000002C1BD13000FF2103681A120A40974213
:103B900006D11B140B400C2B14D0132B00D1002486
:103BA000FFF708FF0028EED1002C04D028002100E8
:103BB000FCF7CCFF05001C4B0122DA553000FFF763
:103BC000F9FEA0E70400EBE7153B082BF6D8174BEE
:103BD000DB5D002BF2D1FF231B041C40174B300090
:103BE000E41863425C4164423440FF2103681A14C4
:103BF0000A40152A0FD01D2A00D10024FFF7DAFE53
:103C00000028F2D1002C04D028002100FCF79EFFF0
:103C10000500064BD0E7FF221B1213409F42EDD157
:103C20000400EBE7FC0300203805002038040020E6
:103C30000870010800700108A15401080000EBFFA2
:103C4000F0B587B0039203220333284EDC171440EB
:103C5000E418336890275A1E9341FF01244A5B42BF
:103C6000A4103B40B5689B18A21C029191006A18F1
:103C700001900091934214D2FFF720FF3368B5689A
:103C80005A1E93411A4A5B423B409B18009AAA185D
:103C9000934206D2174806F017F90025280007B00E
:103CA000F0BD019B039A1B041343029A2F001202DA
:103CB0001343A422D2051343049305940CF058FE39
:103CC000049A059B28000BF0A3FA08370CF046FE77
:103CD000002C07D0210038000C9AFCF7F1FE0123DC
:103CE00001349C43A4003F19B760D7E7FC030020D0
:103CF00000B80108E3540108F7B505000022214B84
:103D00005B6C0193204B0199914211DC0024F0235C
:103D10001A006243009200991B4A575C5618002F04
:103D20000FD001340A2CF3D1184806F0CDF827E063
:103D30005978A94202D11978002921D10132F033F2
:103D4000E1E7F022390030000DF0D6FF02230E4AE1
:103D50000099757053540E4BEA00D358B570B36098
:103D60000423F360019B37617761A34202DC054BBA
:103D700001345C64002329001A00102004F0AAFA20
:103D8000F7BDC046FC020020A0090020095501082B
:103D9000C0130020104B70B50500002418005A789D
:103DA000AA4204D00134F0330A2CF8D170BDF022BD
:103DB000130063430021C0180DF09EFF074A536CA7
:103DC000013BA34200D15464002329001A001120B2
:103DD00004F080FAEAE7C046A0090020FC020020B7
:103DE000F8B50F4D00262F000E4C636CB3420ADC71
:103DF00096223800002112010DF07EFF002334349A
:103E000023612370F8BD2B78002B05D000231120EF
:103E10001A00697804F05EFA0136F035E4E7C0462E
:103E2000A0090020FC02002070B50024FFF7D8FF95
:103E3000012006F0BBFA084B084D5A68DA602B796E
:103E4000043B012B02D8E0B2FFF756FF01340835DE
:103E5000FF2CF4D170BDC046FC030020C01300202D
:103E6000F7B50C000190FFF70BF80026194B1A4F1D
:103E700018603B79062B01D0032B19D17F223868BB
:103E800043891340052B13D1C3891340292B0FD12C
:103E90000C22835E5B000C33C018FDF7F1F9037848
:103EA0000500002B11D00CF0AFFE0023A0420AD079
:103EB00001360837FF2EDCD1F7BD019AE95CD25CF0
:103EC0009142F5D101339C42F7DCF0B2FFF714FFC9
:103ED000EEE7C04600000020C0130020C368F0B524
:103EE00087685B00FF180300BBB0183301930269B9
:103EF000019B92009C18436901999B00CB18029387
:103F0000CD4B00901B78002B0CD100217B5E7F21D4
:103F100092101D1202610B40C84A9B009B58023749
:103F20009F461400C44BC64D1878FF283DD100228F
:103F30006D6D1A70954207DD0123009A137005F02C
:103F400067FE009B2D185D60009B009A9B68FB1A22
:103F50005B10D360019BE41AA410029B1461019AC8
:103F60009B1A009A9B1053613BB0F0BD14000700F0
:103F7000D8E714000700D5E71400D3E71400D1E711
:103F80001400CFE73400CDE73400CBE71400C9E7D5
:103F90003400C7E73400C5E73400C3E71400070066
:103FA000C0E7039FBEE7049FBCE7009B9A689B782D
:103FB000BA1A521012021A43009B597808AB1870B3
:103FC00010125A7098701014120ED8701A711320B3
:103FD000052204F07FF90020F021009B994A187017
:103FE0006B6C013B59438A5C824200D16B64924BFB
:103FF0001870A9E7009B1120597800231A0004F0DB
:1040000069F90023F021009A8D481370436C8D4AA2
:10401000013B59438A5C002A96D1436494E7E9E75F
:10402000019BAD00641BE21A834B92101B78002B9E
:1040300000D077E700217B5E00991D120A617F2185
:104040007E4A0B409B009B58023769E7019B221D6B
:10405000D11A7B4BD82903DD1A2234331A7061E759
:1040600034331B7825608910002B00D059E70020DD
:104070003B5E00981D1201617F20704903409B0048
:1040800014005B5802374BE7019B221DD11AD82937
:1040900003DD1A22684B1A7044E70026BB5FEDB2BD
:1040A0001B021D43644BB81C1B7825608910002B34
:1040B00000D05BE702203B5E00981D1201617F206B
:1040C0005E4903409B0014005B58043728E7019BBE
:1040D000221DD11AD82903DD1A22574B1A7021E765
:1040E00000257B5FB81C5B00FB182360524B8910D6
:1040F0001B78002B00D03CE702203B5E00981D128D
:1041000001617F204D4903409B0014005B58043738
:1041100006E7019B221DD11AD82903DD1A22464B3E
:104120001A70FFE6484BAD00EB5889102360424BF4
:104130001B78002B00D01FE700203B5E00981D126B
:1041400001617F203D4903409B0014005B5802370A
:10415000E6E6043C22683C4BAD00EA50019BE21AC3
:10416000354B92101B78002B00D0DBE600217B5EE4
:1041700000991D120A617F21304A0B409B009B5819
:104180000237CDE6304EAD00A859FDF79DF82A4B19
:10419000049003931B78002B00D0C3E6043C2068F6
:1041A000FDF792F8049BC018012340000343AB5174
:1041B000019BE21A039B92101B78002B00D0B1E602
:1041C00000217B5E00991D120A617F211B4A0B4072
:1041D0009B009B580237A3E6019B221DD11A184B66
:1041E000D82903DD1A2234331A709BE6019D029E02
:1041F0000120B54202D230000C38006834331B78FD
:1042000020608910002B00D0B8E600203B5E0098AB
:104210001D1201617F20094903409B0014005B5877
:1042200002377DE6019B221DD11A054BD8290DDDF1
:104230001A2234331A7075E630030020BC3A0108A4
:10424000FC020020A0090020A00700200198029E87
:104250008910B04210D230000C380068D74E4010A0
:10426000AD192D1A0298AD00343328581B78206000
:10427000002B08D0140055E61821343319700023A0
:10428000236014004EE600203B5E00981D12016181
:104290007F20CB4903409B0014005B5802373FE668
:1042A000019A0299C74B8A421ED20C390968C34849
:1042B000043C49102D1822686D1A0299AD006A500D
:1042C0003433019A1B78A21A9210002B00D029E6F1
:1042D00000217B5E00991D120A617F21B84A0B40C4
:1042E0009B009B5802371BE6182234331A7019E6DC
:1042F000019B029A93422ED21600B04B0C3EED1851
:104300003368043C5B10EB1A9B009858FCF7DCFF09
:1043100003902068FCF7D8FF3368029A5B10ED1A0F
:10432000039BAD001E18012376003343AB50019B65
:10433000E21AA54B92101B78002B00D0F2E5002169
:104340007B5E00991D120A617F219D4A0B409B00F4
:104350009B580237E4E518229B4B1A70E2E5019B5B
:10436000221DD11A974BD82903DD1A2234331A7033
:10437000D8E50298AD00343328581B7820608910A6
:10438000002B00D0FCE500203B5E00981D1201616F
:104390007F208B4903409B0014005B580237BFE528
:1043A000043C2368029AAD00AB50019BE21A864B95
:1043B00092101B78002B00D0B4E500217B5E0099A1
:1043C0001D120A617F217E4A0B409B009B580237D9
:1043D000A6E5029B043CAD005D1920682E68FCF741
:1043E00073FF012376103618760033432B60019B50
:1043F000E21A754B92101B78002B00D092E5002139
:104400007B5E00991D120A617F216D4A0B409B0063
:104410009B58023784E5019BAD00641BA34212D870
:10442000E21A694B92101B78002B00D07AE500212C
:104430007B5E00991D120A617F21614A0B409B003F
:104440009B5802376CE5614A614908A80EF06CFD83
:1044500008A805F039FD06F00FF8FCE7002D02D1A1
:104460000023FD5E02376B00FF18019BE21A9210D9
:10447000002D00DA68E5544B1B78002B00D051E585
:1044800000217B5E00991D120A617F214C4A0B407E
:104490009B009B58023743E5E0E7002D02D1002343
:1044A000FD5E0237043C2368042B04D16B00FF1827
:1044B000002D00DA48E5019BE21A434B92101B786D
:1044C000002B00D02EE500217B5E00991D120A61B1
:1044D0007F213B4A0B409B009B58023720E5002D73
:1044E00002D10023FD5E0237043C2368042B04D074
:1044F0006B00FF18002D00DA26E5019BE21A324B13
:1045000092101B78002B00D00CE500217B5E0099F7
:104510001D120A617F212A4A0B409B009B580237DB
:10452000FEE4002D02D10023FD5E0237261F306815
:10453000C3070AD540100138002809DB01234000D9
:104540006D0003437F193360FEE4FCF7BDFEF2E724
:10455000019B3400F21A1C4B92101B78002B00D0E8
:10456000E0E400217B5E00991D120A617F21144A5C
:104570000B409B009B580237D2E40022BB5E0237FF
:104580001A12029901989446124DD2B2D200091A19
:1045900089100392AA18049111790A4A032903D0B9
:1045A000022334321370BDE4260001990C36701AD0
:1045B000D82811DD1A2334321370B3E4FDFFFF3F16
:1045C000BC3A0108FC0200203003002037550108E6
:1045D00047550108C0130020FF215B0049000B4034
:1045E000FE39FF390B432360009B34329B681278FD
:1045F000FB1A0B41009F1B02BF7880103B438B408E
:104600000B436360049B8B401943A1606146009B90
:104610009970039B00995B598B60002A04D0083382
:104620001F00340002967DE47F211F0008229B5E5C
:10463000009A1D1210610B40E24A9B0034009B5807
:104640000A3702966CE4231F1D68029A019B93426D
:1046500033D10A20EB0713D4042D18D90F222B686D
:10466000F7301340FF30042B0AD12800FCF708FE76
:104670000CF0CAFAC8239B00984200D918000630F3
:10468000643003F017FE00280DD1023F5CE40720E0
:10469000042DF5D068426841CB4B4042184080233E
:1046A0009B00C018ECE7009B2A005978122003F009
:1046B0007DFE0023009A137046E4029BC34C0C3B22
:1046C0001B6800995B10E41A029BA4001C1920C40B
:1046D000083B1B685A108A70BD49D2B2D2005B00F9
:1046E00057589B0A009A5B009760FF18029B019A3B
:1046F000043B1B685B109B00D3180293B54BA21AB6
:104700001B789210002B01D0FFF70CFC00217B5E80
:1047100000991D120A617F21AA4A0B409B009B58F9
:104720000237FFF7FDFB231F1868FCF7CDFDAD0036
:10473000019B641BE31A9B10060003931E2831DCC7
:10474000A44B1D78002811DC002D01D0FFF7EAFBF7
:104750000022BB5E0399009A1D1211617F21994AC4
:104760000B409B009B580237FFF7DAFB05F050FA2D
:10477000033E361805F04CFA974B801B9842F9D847
:10478000002D01D0FFF7CEFB0022BB5E0399009AFB
:104790001D1211617F218B4A0B409B009B580237F1
:1047A000FFF7BEFB0123009A073E137005F030FAB5
:1047B000009B36185E60FFF7C7FB231F1868FCF7E5
:1047C00083FDAD00019B641BE21A060092100028D5
:1047D00012DC804B1B78002B01D0FFF7A3FB0021DC
:1047E0007B5E00991D120A617F21764A0B409B0077
:1047F0009B580237FFF794FB784B984204DD1D224B
:10480000744B1A70FFF78EFB0123009A137005F0AA
:10481000FFF9FA239B007343009A073B1B18536070
:10482000FFF792FBAB00E41A002328001A002100D6
:10483000FDF784F86A4D6B4EA96D3000FEF720FB42
:10484000694BA96D18603000FFF70AFBA86D0AF0EC
:1048500041FB019BE21A5F4B92101B78002B01D0A9
:10486000FFF760FB00217B5E00991D120A617F212A
:10487000544A0B409B009B580237FFF751FB019BAA
:10488000AD00641BE21A534B92101B78002B01D031
:10489000FFF748FB00217B5E00991D120A617F2112
:1048A000484A0B409B009B580237FFF739FB002614
:1048B0004E4D009B0136AB421AD14D4B5E64F03534
:1048C0000A2EF6D1019BE21A424B92101B78002B64
:1048D00001D0FFF727FB00217B5E00991D120A61C2
:1048E0007F21384A0B409B009B580237FFF718FB8B
:1048F0002B78002BE3D0002369781A00112003F0F5
:10490000E9FCF022002128000DF0F6F9D7E7231F7B
:10491000186800286ED1083B1868C30733D54010CB
:10492000220001234100083A0B431360002800DCF9
:10493000ABE0012342001A43211F0A602200083A1B
:104940001668043A1E41361A1068184255D0F618F7
:104950009E401E43029BAD00EE50019BE21A1D4B90
:1049600092101B78002B01D0FFF7DCFA00217B5E50
:1049700000991D120A617F21124A0B409B009B582F
:104980000237FFF7CDFA042816D90F2203681A4020
:10499000092A01D14068C2E7042A04D1FCF770FC5F
:1049A000FBF7D7FBBCE7032A06D1180980B25B0FDF
:1049B00080001340C01AB3E71922064B1A70FFF7A4
:1049C000B1FAC046BC3A010807FEFFFFFDFFFF3FFA
:1049D000C0130020300300207F96980080EE360040
:1049E0007C030020B81B002000000020A00900204C
:1049F000FC0200204010013898E7042840D90F211C
:104A000002680A40092A06D10236B6003358AD00C2
:104A1000029AAB50A1E7042A2AD1029BAD005B1990
:104A20000493FCF72DFC05000136012E10DC280054
:104A3000FBF77BFB431B18000393FDF74BFF061EA0
:104A40000ED0FCF71DFC2900039A0DF0B0F907E029
:104A50002A78013E002A06D112211600DE4B197079
:104A6000049B1E6079E72800FBF75FFB0500DCE78D
:104A7000032A05D180190279AD0052001343C7E71C
:104A80001922D54B1A70FFF74DFA043765E7019AE2
:104A9000AB00E3189B1AD82B18DC0123002D1ADC7D
:104AA000019BE21ACC4B92101B78002B01D0FFF730
:104AB00039FA00217B5E00991D120A617F21C74AE5
:104AC0000B409B009B580237FFF72AFA1A22C24B71
:104AD0001A70FFF727FA08C4013DDFE7019A231D8A
:104AE000BF4E9B1AD82B04DD1A2334363370FFF7E0
:104AF00019FA019B029A934232D2231F1868FCF7DD
:104B0000E3FB002828DD029B0C3B1B685B10834203
:104B100022DBC01AB34BC018029B8000C258AB0006
:104B2000E31A1A6001235B1B9B00E418019BE21A45
:104B3000A94B92101B78002B01D0FFF7F3F900214D
:104B40007B5E00991D120A617F21A44A0B409B00E5
:104B50009B580237FFF7E4F9202334363370E1E73E
:104B600018233436FAE7A04AAB001268E31A1A6039
:104B700001235B1B9B00E418019BE21A964B9210E9
:104B80001B78002B01D0FFF7CDF900217B5E009947
:104B90001D120A617F21914A0B409B009B580237EE
:104BA000FFF7BEF9002D02D10023FD5E0237231F5F
:104BB0001A68042A17D16D007F19019BE21A864BEF
:104BC00092101B78002B01D0FFF7ACF900217B5E1F
:104BD00000991D120A617F21804A0B409B009B585F
:104BE0000237FFF79DF91C00E7E7002D02D10023F3
:104BF000FD5E0237231F1A68042A19D000226D00B7
:104C00001A607F19019BE21A734B92101B78002BDC
:104C100001D0FFF787F900217B5E00991D120A6120
:104C20007F216E4A0B409B009B580237FFF778F9B3
:104C30001C00E7E7AA00A21A002D25DD10000126BE
:104C400013685B100168314220D10D2362490B705B
:104C50000023136001235B1B9B00E418019BE21AF5
:104C60005D4B92101B78002B01D0FFF75BF9002100
:104C70007B5E00991D120A617F21584A0B409B0000
:104C80009B580237FFF74CF91C23DFE749108B4292
:104C900000DD0B0004308442D4D101215B000B43C2
:104CA000D7E7AA00A21A002D25DD100001261368FF
:104CB0005B100168314220D10D2347490B7000235E
:104CC000136001235B1B9B00E418019BE21A424B1B
:104CD00092101B78002B01D0FFF724F900217B5E96
:104CE00000991D120A617F213C4A0B409B009B5892
:104CF0000237FFF715F91C23DFE749108B4200DA72
:104D00000B0004308442D4D101215B000B43D7E770
:104D10002300083B1968231F1A680123AE001942BB
:104D200023D01A4221D019411A410023914200DABE
:104D30000433A61B336001235B1B9B00E418019B1B
:104D4000E21A254B92101B78002B01D0FFF7EAF8EE
:104D500000217B5E00991D120A617F211F4A0B40D2
:104D60009B009B580237FFF7DBF802204042FCF71C
:104D700069FEA61B3060DEE723000122083B1968AC
:104D8000231F1B68AE00114230D013422ED05A10A0
:104D900094464810CA0F6146DB1781425A41A61B50
:104DA0009200326001235B1B9B00E418019BE21A16
:104DB000094B92101B78002B01D0FFF7B3F80021AC
:104DC0007B5E00991D120A617F21044A0B409B0003
:104DD0009B580237FFF7A4F830030020BC3A0108C3
:104DE000FC020020FCFFFF3F0000002001201A0011
:104DF0004042FCF727FEA61B3060D3E72300083BA8
:104E00001868231F1968AB00E31A039304239C4618
:104E1000814219D000239C46042815D9012630422E
:104E200012D10F2203681340042B0DD131420BD154
:104E3000042909D90B681340042B05D1FBF77EFA2E
:104E4000431E984183009C466246039B1A600123DF
:104E50005B1B9B00E418019BE21AE84B92101B7845
:104E6000002B01D0FFF75EF800217B5E00991D1238
:104E70000A617F21E24A0B409B009B580237FFF7F3
:104E80004FF82300083B1868231F1968AB00E31A8A
:104E9000039300239C46814219D004339C469842D8
:104EA00015D90126304212D10F2203681340634501
:104EB0000DD131420BD1614509D90B6813406345CF
:104EC00005D1FBF73BFA4342584183009C466246BA
:104ED000039B1A6001235B1B9B00E418019BE21AF1
:104EE000C64B92101B78002B01D0FFF71BF8002156
:104EF0007B5E00991D120A617F21C14A0B409B0015
:104F00009B580237FFF70CF823000122083B196871
:104F1000231F1B68AE00114226D0134224D04A1032
:104F20009446CA1761465810DB0F81425A41A61BAE
:104F30009200326001235B1B9B00E418019BE21A84
:104F4000AE4B92101B78002B01D0FEF7EBFF002137
:104F50007B5E00991D120A617F21A94A0B409B00CC
:104F60009B580237FEF7DCFF1A000120FCF76AFDB0
:104F7000A61B3060DEE72300083B1968231F1A6870
:104F80000123AE00194223D01A4221D019411A41FF
:104F90000023914200DD0433A61B336001235B1B19
:104FA0009B00E418019BE21A944B92101B78002B93
:104FB00001D0FEF7B7FF00217B5E00991D120A6148
:104FC0007F218F4A0B409B009B580237FEF7A8FFBA
:104FD0000220FCF737FDA61B3060DFE7231F1B68AC
:104FE000043B5A1E9341AA00A21A9B00136001239E
:104FF0005B1B9B00E418019BE21A804B92101B780C
:10500000002B01D0FEF78EFF00217B5E00991D1260
:105010000A617F217A4A0B409B009B580237FEF7BA
:105020007FFF2300083B1868FCF74EF9231F06009A
:105030001868FCF749F90123361876001E435B1BFC
:105040009B00AA00A21AE418019B1660E21A6B4B9F
:1050500092101B78002B01D0FEF764FF00217B5ECD
:1050600000991D120A617F21654A0B409B009B58E5
:105070000237FEF755FF2300083B1868FCF724F9B8
:10508000231F06001868FCF71FF90123361A760063
:105090001E435B1B9B00AA00A21AE418019B16602A
:1050A000E21A564B92101B78002B01D0FEF73AFF04
:1050B00000217B5E00991D120A617F21504A0B403E
:1050C0009B009B580237FEF72BFF2300083B186814
:1050D000FCF7FAF8231F06001868FCF7F5F8012220
:1050E0007043AB004000E31A1043521B186092005B
:1050F000019BA418E21A414B92101B78002B01D09F
:10510000FEF710FF00217B5E00991D120A617F21CE
:105110003B4A0B409B009B580237FEF701FF231FC1
:105120001868FCF7D1F8374B061E039320D11F22D5
:1051300034331A70AB00E31A1E6001235B1B9B0023
:10514000E418019BE21A039B921034331B78002B66
:1051500001D0FEF7E7FE00217B5E00991D120A6177
:105160007F21274A0B409B009B580237FEF7D8FE51
:105170002300083B1868FCF7A7F831000BF0EAFDA4
:10518000012640000643D5E7AE00A61B3068FCF7B9
:105190009BF804907068FCF797F800281DD11F2237
:1051A000164B1A7001235B1B9B00E418019B3060B7
:1051B000E21A124B92101B78002B01D0FEF7B2FEC0
:1051C00000217B5E00991D120A617F210C4A0B4071
:1051D0009B009B580237FEF7A3FEC317C2185A4024
:1051E0001100049803920BF09BFE002901DA039B47
:1051F000C918012049000843D4E7C0463003002005
:10520000BC3A0108FC020020231F1868FCF75CF878
:10521000C217801850400122AB004000E31A10432F
:10522000521B18609200019BA418E21AE64B9210E0
:105230001B78002B01D0FEF775FE00217B5E0099E4
:105240001D120A617F21E14A0B409B009B580237E7
:10525000FEF766FEAB00E31A04950393012D07D118
:105260001868FCF731F8061E0EDA01256D420BE0D6
:10527000022D35D1039B1868FCF726F8039B050027
:105280005868FCF721F80600B54202DC33002E0016
:105290001D000135AD1B0CF097FB29000BF040FE03
:1052A00001238919039A490019431160049A9B1A32
:1052B0009B00E418019BE21AC34B92101B78002B51
:1052C00001D0FEF72FFE00217B5E00991D120A61BE
:1052D0007F21BE4A0B409B009B580237FEF720FE01
:1052E00064250126D5E7AE00A61B31002800FCF797
:1052F000ABFF01235B1B9B00E418019B3060E21AAB
:10530000B14B92101B78002B01D0FEF70BFE002151
:105310007B5E00991D120A617F21AC4A0B409B0005
:105320009B580237FEF7FCFD2300083B1868FBF78B
:10533000CBFF231F06001868FBF7C6FF0122304091
:10534000AB004000E31A1043521B18609200019B0F
:10535000A418E21A9C4B92101B78002B01D0FEF788
:10536000E1FD00217B5E00991D120A617F21974AB1
:105370000B409B009B580237FEF7D2FD2300083BF1
:105380001868FBF7A1FF231F06001868FBF79CFFB6
:105390000123064376001E435B1B9B00AA00A21A52
:1053A000E418019B1660E21A874B92101B78002BC1
:1053B00001D0FEF7B7FD00217B5E00991D120A6146
:1053C0007F21824A0B409B009B580237FEF7A8FDC5
:1053D0002300083B1868FBF777FF231F06001868B7
:1053E000FBF772FF0123464076001E435B1B9B00C8
:1053F000AA00A21AE418019B1660E21A724B9210DE
:105400001B78002B01D0FEF78DFD00217B5E0099FB
:105410001D120A617F216D4A0B409B009B58023789
:10542000FEF77EFD231F1868FBF74EFFC0430122E5
:10543000AB004000E31A1043521B18609200019B1E
:10544000A418E21A604B92101B78002B01D0FEF7D3
:1054500069FD00217B5E00991D120A617F215B4A74
:105460000B409B009B580237FEF75AFD2300083B78
:105470001868FBF729FF231F06001868FBF724FFB5
:105480008640012376001E435B1B9B00AA00A21AE4
:10549000E418019B1660E21A4B4B92101B78002B0C
:1054A00001D0FEF73FFD00217B5E00991D120A61CD
:1054B0007F21464A0B409B009B580237FEF730FD88
:1054C0002300083B1868FBF7FFFE231F060018683F
:1054D000FBF7FAFE0641012376001E435B1B9B008F
:1054E000AA00A21AE418019B1660E21A364B921029
:1054F0001B78002B01D0FEF715FD00217B5E009983
:105500001D120A617F21314A0B409B009B580237D4
:10551000FEF706FDAB00E31A9C4600231900012D9F
:105520004FD163461A6813002B402A4248D1042AFF
:1055300047D90F2610683040092842D1110056681B
:105540001A00083103917610964203DC01225B00B9
:10555000134319E00398910041580120014203D000
:10556000014112185B18EFE727230AE052109B183D
:1055700001318D42EADD66468A00B2580242F5D119
:105580000D23114A137000236246136001235B1B35
:105590009B00E418019BE21A0B4B92101B78002B26
:1055A00001D0FEF7BFFC00217B5E00991D120A614D
:1055B0007F21064A0B409B009B580237FEF7B0FC48
:1055C0000B000120D5E7C04630030020BC3A01089B
:1055D00023000C3B1868FBF777FE2300083B06000E
:1055E0001868FBF771FEF1170200C31730000DF0C9
:1055F0000DFD231F039018680491FBF765FE0499C5
:10560000020003980BF0C4FC0123400018435B1B0D
:105610009B00AE00A61BE418019B3060E21ACD4B44
:1056200092101B78002B01D0FEF77CFC00217B5EE2
:1056300000991D120A617F21C74A0B409B009B58AD
:105640000237FEF76DFC01210026AB00E31A0A00C9
:105650000393B5420DDD0E001B681E40194203D0B6
:105660005E10F343DB171E402A00012D01D0039B7F
:105670005A680920711CFCF7BFFE002803D00123E3
:10568000760033434360039B186001235B1B9B0040
:10569000E418019BE21AAF4B92101B78002B01D04B
:1056A000FEF740FC00217B5E00991D120A617F21FC
:1056B000A94A0B409B009B580237FEF731FCAB0018
:1056C000E31A5E680693320001231A400792002213
:1056D00003921E4216D1042E14D933680F321A4099
:1056E000092A09D172681B0952109BB20392934296
:1056F00008D8013B039305E0042A32D13000FAF7C1
:1057000003FD0390069B1B680593DB0734D5059BBF
:105710005B100493059B012B03DD049B039A9342CA
:105720005EDD122200268B4B1A70069B1E60012341
:105730005B1B9B00E418019BE21A864B92101B78BE
:10574000002B01D0FEF7EEFB00217B5E00991D12BD
:105750000A617F21804A0B409B009B580237FEF76D
:10576000DFFB032ACED1190989B25B0F89001340F0
:10577000CB1ABFE70B22D5E778480599FBF728FF3E
:1057800000280AD0039B002BCBD00CF01DF9039905
:105790000BF0C6FB4B1C049322E071480599FBF704
:1057A00017FF00282BD1059B042B10D90F221B6853
:1057B0001340042B0BD10598FBF7A8FD049000289B
:1057C00007D168480599FBF703FF0028A9D11122EA
:1057D000A8E7049B002BA4DD039B049A9342A0DB63
:1057E000079B002BC6D1042EC4D90F223368134067
:1057F000092B06D1049B01339B009E5995E7039B1F
:10580000C9E7042B24D13000FBF73AFD049E039036
:10581000012E12DC0398FAF788FC039BC31A1800C8
:105820000493FDF757F8061E00D17EE7FBF728FD2D
:10583000049A03990CF0BBFA77E7039B013E1B78AF
:10584000002B00D16DE70398FAF76FFC0390DFE7B8
:105850000B22032B00D065E7049BF618F378012692
:105860005B001E4361E7AD00641B666801223100E6
:10587000A36811400493164201D000F00DFF042EDE
:1058800001D800F009FF0F2033681840059009285F
:105890002CD172681B0952109BB20392069193425D
:1058A00001D8013B039325682F482900FBF790FEA0
:1058B000002844D0059B092B35D1039B98422DDD50
:1058C000019BE21A234B92101B78002B01D0FEF7AC
:1058D00029FB00217B5E00991D120A617F211E4A6F
:1058E0000B409B009B580237FEF71AFB05990329D2
:1058F00001D000F0D1FE0499114201D100F0CFFE99
:105900004A100692FF2A01D900F0C9FE1A0905992A
:1059100092B25B0F92000B40D31AC3E7049A013096
:105920008300F250C9E703225242331D921B0398B1
:10593000D1188142C4DC069919700133F7E7EB07EF
:1059400014D56810012D2DDC1223024A1370FEF7C6
:10595000E9FAC04630030020BC3A01085855010856
:105960000E540108CC5301080A5401082900D748F5
:10597000FBF72EFE002822D1042D0FD90F222B6811
:105980001340042B0AD12800FBF7C0FC002807D1E4
:105990002900CF48FBF71CFE0028D5D11123D4E7FE
:1059A0000028D1DD039B8342CEDB0F2233681340F6
:1059B000092B06D1049B01308000835180E70398B6
:1059C000F3E7032B00D07BE7069B3618F37077E7ED
:1059D0000126AB00E31A18680393304207D104286C
:1059E00005D90F210268114009291CD14668039B83
:1059F0001E6001235B1B9B00E418019BE21AB54B60
:105A000092101B78002B01D0FEF78CFA00217B5EF0
:105A100000991D120A617F21AF4A0B409B009B58E1
:105A20000237FEF77DFA032908D113099BB2520F02
:105A30009B000A409B1A5B001E43D8E70429D6D17D
:105A4000FBF71EFCFAF785FB40000643CFE7231F58
:105A50001868FBF715FC2300083B06001868FBF7E5
:105A600084F80138082810D80BF0D6F805292F2B18
:105A70000F0F0F0F2D00994930000BF0BBF8434278
:105A80005841AB008000E31A186001235B1B9B00A8
:105A9000E418019BE21A8F4B92101B78002B01D067
:105AA000FEF740FA00217B5E00991D120A617F21FA
:105AB000894A0B409B009B580237FEF731FA884910
:105AC000DAE78849D8E78849D6E78849D4E7019BCF
:105AD000261DF51AD82D04DD1A227E4B1A70FEF70A
