:020000040800F2
:1000000000600020FD2701084D2801084D28010847
:1000100000000000000000000000000000000000E0
:100020000000000000000000000000004D28010852
:1000300000000000000000004D28010899B50008EC
:100040004D2801084D2801084D2801084D280108B8
:100050004D280108E9B50008F9B5000809B60008FF
:1000600009CE00084D2801084D2801084D28010837
:100070004D280108EDA9000805AA00080DAA0008EE
:1000800025AA000800000000000000003DAA0008AA
:100090000000000055AA00086DAA0008F5E5000858
:1000A0005DE600084D2801084D28010801CB000835
:1000B00021CB00080000000000000000000000004C
:1000C000030001221040134205D1042B02D9186805
:1000D000000980B270470020FCE7C30711D4042850
:1000E0000FD90F2302681340032B0AD119400133A3
:1000F0005B1AC0215B07C9050B4002490A40134344
:1001000003607047FFFFFF9F03000122022013429C
:1001100005D11000042B02D918680F23184070472E
:1001200010B50400FFF7CCFF002809D0421E830061
:1001300004349000225C002A02D001309842F9D1A8
:1001400010BD0378002B03D05AB2002A01DB013026
:1001500070473F229343C03B59424B41C01803783C
:100160009343802BF4D10130F9E710B500240378D4
:10017000002B01D1200010BDFFF7E3FF0134F6E7AB
:10018000020000787F2809DDDF2808DCF8238001E1
:10019000DB00184053783F22134018437047EF2884
:1001A0000BDCFC21537809019B010007000C0B407C
:1001B000034390783F221040EFE7F72812DCFC2140
:1001C000537889021B030B40E02180044903084057
:1001D00003433F20D17801409078FC220B438001FB
:1001E0001201E8E701204042D8E710B57F2902DC80
:1001F0000170013010BD80231B0199420CDA4023AD
:100200008A115B42134303703F2280230A405B4202
:10021000134343700230EDE780235B02994210DA0A
:1002200020230A135B4213433F24802203708B1167
:10023000234052420C4013432243437082700330E8
:10024000D8E788235B029942D4DAF0230370603B3D
:100250004370113B8A11FF3B1A4382703F221140C9
:100260000B43C3700430C5E7064B1B6818680009D0
:1002700080B20238C343DB17184043000120184303
:100280007047C04670040020024A5368013353602F
:100290007047C04670040020024A1369013313619D
:1002A0007047C04670040020024AD3690133D3610D
:1002B0007047C04670040020024A936A013393627B
:1002C0007047C04670040020002802DD0B68DA0782
:1002D00004D41122074B1A70002070475B10013BB9
:1002E000032BF9D80C214B43034AD2180023536047
:1002F000F2E7C046A4040020700400200A4B002846
:1003000003DD01200A68024204D1112200203433A7
:100310001A7070470C215210013A4A439B185B68CF
:100320005B001843F5E7C0467004002010B5036871
:10033000984710BD012A02D1016000207047022AAF
:1003400005D0032AF9D0002AF7D10260F5E70B683F
:100350000360F2E770B50E000400FFF7B1FE050080
:100360003000FFF7ADFE0023854206D1231DAD000E
:1003700004365D19AB4202D30123180070BD197811
:1003800032780C001443F7D0013301369142F1D09A
:100390000023F2E7020010B5152813DC0B4B0C4CC0
:1003A0001B680C494000234208D11B02085E1B0A4F
:1003B000012B06D0042A04D1074802E009182C2397
:1003C000C85E10BD01204042FBE7C0460470FF1F1D
:1003D000F0FFFF00204101081102000000207047DB
:1003E000002070470420704704207047002804DC78
:1003F0001C22054B1A70002070470B68DB07FAD4EB
:100400000D22014BF6E7C046A4040020012300287A
:1004100003DC1C22024B1A70002318007047C046F0
:10042000A4040020C3070BD4064B9A6B824207D862
:10043000DB6B834204D3031F1B68002B00D0180022
:100440007047C04670040020F7B501272E4C2F4A94
:10045000A16BE06B2E4E082513682B4225D1136843
:100460001B099BB202339B00D218B242F3D3002582
:10047000284E3068FFF7D6FF013501C6802DF8D130
:10048000254D2868FFF7CEFF2860206C002802D099
:10049000FFF7C8FF2064636C002501931F4B1E000B
:1004A0000093019B9D4218DBF7BD1B099BB29B008B
:1004B000D3189A42D3D01D68AC463D420BD1A94215
:1004C00009D2A84207D304256D42AC4465462D6885
:1004D000002D00D01D60043BEBE73378002B02D1E8
:1004E0000135F036DDE73C246C433369E4185F1EC8
:1004F000009BA400E418043C002FF1DBA069FFF787
:1005000091FF013FA061F6E770040020BC290020A4
:10051000E8450020AC11002000000020AC130020B2
:100520000123F0B59C4685B0184248D1254B9A6B03
:100530000092904243D3DB6B019398423FD8031F54
:100540001B68002B3BD1020003681B099BB2002BE8
:100550001ED09900029102995618614634680C42E7
:100560002AD1009D2100A54226D8019DA54223D372
:10057000251F2F680395002F1ED127683D0717D52B
:10058000151F37602B60236822601B099BB20DE0AA
:100590006146131F1960904211D011680B1F1B6830
:1005A0009C000C192568013B156022600A00CEE70B
:1005B0006146039C2160CEE71100013BF6E705B0E0
:1005C000F0BDC046700400203622024B00201A7095
:1005D0007047C046A40400200120034B034A1B6857
:1005E0005B001340184370470470FF1FFEFFFF01BC
:1005F0000020014B9864704770040020002802DD41
:100600000B68DB0702D40D22014B1A7000207047E3
:10061000A4040020002802DD0B68042B02D90C2260
:10062000014B1A7000207047A4040020F8B50400A4
:1006300011F02CFA01000020144A1379032B0ED17B
:1006400013681D005B6808359B00013BEB189D4259
:1006500002D21E78002E09D05B1A9D4208D90130C3
:100660000832FF28E9D10138FF3807E0013BEEE707
:100670001D780133002DF2D1A94200DCF8BD5F5D89
:10068000665DB742EBD10135F6E7C046D81D0020C4
:1006900010B5837904003C2B18D81F4A990088585C
:1006A000421C00D018000FF00BFCE3793C2B20D843
:1006B000194A99008858421C00D018000FF000FC1D
:1006C00001235B42E3800023236010BD3F22190019
:1006D0009143C0290AD1CE2B08D810491A40920064
:1006E00089188A6D0C4892001058D9E701204042C1
:1006F000D9E73F2219009143C0290AD1CE2B08D84F
:1007000006491A40920089188A6D034892001058D1
:10071000D1E701204042D1E7FC480108204101080F
:1007200010B5002802DD0B68DA0704D41122074B4C
:100730001A70002010BD5B10013B032BF9D80C226E
:1007400053430348C018FFF7A3FFF2E7A4040020B7
:100750007404002070B5040080790EF0BBFC431EC9
:100760009841C5B2E0790EF0B5FC431E9841227A5B
:10077000C0B2002A1AD02279D1B2AA4208D00121EF
:100780002268854200D1023952182260257170BD5D
:1007900062798242FBD02268814204D10121521841
:1007A00022606071F3E701214942F8E701212268E4
:1007B000854200D1023952182260E8E710B502489C
:1007C000FFF7C8FF10BDC0467404002010B50248F2
:1007D000FFF7C0FF10BDC0468004002010B50248DE
:1007E000FFF7B8FF10BDC0468C04002010B50248CA
:1007F000FFF7B0FF10BDC04698040020F0B5B7B0B9
:10080000040011F043F901284CD923785B2B49D11E
:10081000013823180193235C5D2B43D1671C3A21D7
:10082000380013F032FB051E3CD0C61B002E39DD0C
:1008300039000027320004A813F035FB04AB9F55A4
:10084000019B691C5D1ABD422CDD2A001DA813F016
:100850002AFB642204AB9B181A4E5F55019730683F
:1008600000280CD004A911F007F9071E07D1B568BC
:10087000002D04D073680293029BBB4206DC019BEF
:100880000C3601330193112BE9D10BE028681DA927
:10089000039511F0F1F8083500280CD1039B586836
:1008A000002806D12000FFF7C1FE431C05D0064BEF
:1008B000184337B0F0BD0137DEE71B22034B1A7037
:1008C000F7E7C0460C1D002000FFFFFFA404002036
:1008D00010B50AF091F9431E9841800010BD204BDD
:1008E00010B5DC6C0AF01CF9002C02D11D4B9842AB
:1008F00033D901211C4BDA688A43DA609A680A43CB
:100900009A6080229868D20010439860586A084321
:100910005862186A88431549186299610221D8689B
:100920008843D86098680143996099680A43102108
:100930009A605A6A0A435A621A6A8A431A620C4ACD
:1009400009399A611A688A4303390A431A60094BC4
:100950001A691143196130BF30BF002010BDC04675
:10096000700400203F4B4C0000700040010001006B
:100970000200010000ED00E010B5064C9AB0020044
:100980000B0001A8210013F047FA01A80AF04AF968
:100990001AB010BDE75F0108F0B5B9B004000291CC
:1009A00004920593102805D91B220020164B1A70BB
:1009B00039B0F0BD0C2200274243144B9B185A68F3
:1009C0009D680392039B9F420BDB029BC82100930F
:1009D0000F4A230006A813F0EBF906A80AF022F943
:1009E000E2E7286800280BD0029911F045F8061EAE
:1009F00006D16B68059904989847064B1E64D7E7A3
:100A000001370835DEE7C046A40400200C1D002095
:100A1000EE5F010870040020F7B5454E7268002AA9
:100A200071DBD3B2434F3C2B00D970E0424BD2B2C2
:100A30009200D3585A1C5BD0B2680192934257D1AE
:100A40003C6D002C54D00122200025693B49EB6805
:100A500010309343EB602B6A0B4208D12B6A9C4603
:100A60006146374B194202D12B6893432B60230018
:100A700001224D331A700093022300990B702B6AE8
:100A80002E490B4206D1296A2D4B194202D12B68FF
:100A900093432B600BF04EFA28000BF091FA08F00C
:100AA000C9FE20690BF0BCFA08F0C4FE2300002543
:100AB00058331D700A3B1D705D709D70DD701D7197
:100AC0005D719D71DD711D725D72009B29001D704D
:100AD00023004C3301981D700AF0B5FD012320005E
:100AE0005B42B36010F0ACFF200012F0BBFA3D6532
:100AF000706854373B5C002B05D000210EF050FA93
:100B000000227368FA5401235B427360F7BD3F20F3
:100B10001A008243C02AEBD1CE2BE9D8094A034000
:100B20009B00D218936D04499B005B5882E7C04636
:100B30000000002070040020FC4801081111000092
:100B4000440400002041010810B5034811F07FFE65
:100B500043000120184310BD07600108F0B5614C47
:100B600085B0237C002B3CD101225F4B196E0A43D8
:100B70001A660222196E1142FCD001201A6C02433F
:100B80001A641A6C02400092009A8022D96B5205B6
:100B90001143D963D96B114001910199DD6B00219B
:100BA000154207D1D96B1143D963D96B0A400100B3
:100BB0000392039ADA6D4D4DD20514D48022D86D7C
:100BC000920028400243DA65012929D10020DA6B1E
:100BD00047490A40DA63002822D003214548FFF73D
:100BE000CBFE05B0F0BD8020DA6DDF6D160040024F
:100BF0003843D865D86D404F2E403840D865DE6503
:100C0000D207DBD5022066693C4FDA6D0242D5D1AE
:100C10006269921BBA42F8D903200129D7D0DCE7D8
:100C20008022D96D12020A438021DA65DA6BC9008D
:100C30000A43DA63DB6B22000B400293029B002322
:100C40003C3213707F222262803262628022E36132
:100C5000A362E3622363A3632300294DD2053D33DE
:100C60006263A5611A7802221A70EB68DB0634D43D
:100C7000CA236B62773B6B620EF052FC00280CD0EB
:100C80000320FF22A3695A62002826D003211D48B1
:100C9000FFF772FE01232374A3E7AB691A4A1340DE
:100CA000AB61E269AB691343A26A1343226B13433E
:100CB000AB61236A626A1B0413432B610EF05CFC78
:100CC0000028DDD1616BA36BAA690B43E16AD200F6
:100CD0000B43D2081343AB61D3E7230001223D331A
:100CE0001A70D7E7F004002000100240FFFCFFFF5D
:100CF000FFFFFFEF0B600108FFFFFEFF88130000FE
:100D0000002800402B600108BFFF8FFFF7B50E00E1
:100D100002284ADD264C237C002B01D1FFF71EFF61
:100D200023003C331A78012A3FD0B268356801921B
:100D3000012277681A70230092183D331A70A36954
:100D4000C8325A62773A5A620EF0EAFB032300284F
:100D50001FD1A6696810C0B2B36909F07DFC050017
:100D60007810C0B209F078FC019B00022D04054305
:100D70005810C0B209F070FC0E4B28431840306088
:100D8000B3690D4A1340B361B369B3610EF0F4FB6C
:100D90000300FF21A2695162002B03D1230001222D
:100DA0003D331A7000233C3423700020FEBDC04642
:100DB000F00400207F7F7F00FFFFFBFF0023F0B5E2
:100DC00085B00F000290019302285BDD2F4D2B7C34
:100DD000002B01D1FFF7C2FEFA233E68DB0076103C
:100DE0009E4201DD2A4BF618BB687C680393029B88
:100DF0006410E4B2032B03D0FB685B10DBB20193F9
:100E00002B003C331A78012A3CD001221A702B00A7
:100E100092183D331A7010231C4202D09C430A34AE
:100E2000E4B2CA22AB695A62773A5A620EF078FB92
:100E3000032300281AD1039BAF695810C0B209F0F0
:100E40000BFC019B5B030343F0B2019309F004FC2C
:100E5000019B060420001E4309F0FEFB0D4B00021F
:100E60003043184078600EF087FB0300FF21AA6929
:100E70005162002B03D12B0001223D331A70002355
:100E80003C352B70002005B0F0BDC046F0040020BA
:100E900030F8FFFF3FFFFF00F0B50D0085B01600F2
:100EA0000090002710F08EFCEC0F64196410009A7B
:100EB000FB00D018BC4218DCEB0712D50023013D23
:100EC000AD000422711902A8039311F0E8FE029A02
:100ED000039BE143C9170C400099E40008190FF087
:100EE0000FF910F065FC05B0F0BDF1184A78F35C1D
:100EF00012021A438B7801371B041343CA78120677
:100F00001A430B7901929C4662464B791B021343AC
:100F10008A7912041A43CB791B061343019A0FF006
:100F2000EFF8C4E770B54E680A00B51C290004004C
:100F3000FFF7B2FF01231D40AD190235AD00601966
:100F400070BDFA239B004343044A1364044B1A7890
:100F5000002A01D1FF321A707047C046F004002009
:100F6000A4040020030001220220134205D1100036
:100F7000042B02D918680F2318407047214B224ACE
:100F80001B6800B51802000A134205D11F4B012847
:100F900000D11F4B180000BD11280FD80B2803D813
:100FA0001C4BF7E71C4BF5E70C380528F8D810F078
:100FB0001DFF151719F72703184BEBE7184A154BB8
:100FC0008218072AE6D8174BC018174B0628E1D815
:100FD00010F00CFFE80A0C0E10121400134BD9E7A6
:100FE000134BD7E7134BD5E7134BD3E7134BD1E79D
:100FF000134BCFE7134BCDE7134BCBE7134BC9E7AD
:10100000134BC7E70470FF1FF0FFFF003E600108AD
:101010004660010899670108726001084F60010885
:10102000FFFFF3FFFEFFF3FF6B600108566001084E
:101030005F600108656001087C6001088960010843
:1010400090600108966001089C600108A460010896
:10105000AF60010870B5054E0400335C0D008B4293
:1010600002D00DF09DFF355570BDC046C404002070
:10107000F0B5694B8BB0022803DC1C2234331A70A4
:101080009DE001250E682E4205D04C682C4202D00E
:101090008F682F4202D111223433F0E77310059389
:1010A000013B049300230393032805D0CB68043B42
:1010B00059424B41DBB20393049B032B00D9A7E0B9
:1010C0000C23049A5548534364107F10E6B2C018AD
:1010D000FDB2FFF7DDFA3C2E00D973E0504BE2B2CF
:1010E0009200D3580193013301D0E3B201933C2D18
:1010F00000D97AE04A4BFAB29200D35802930133F6
:1011000001D0FBB20293019B013300D180E0039B2D
:10111000002B03D0029B013300D179E0FF20002196
:101120002040FFF797FFFF2000213840FFF792FF94
:10113000059B3C4F023B022B03D83B4A9B00D21835
:10114000576906AC0C220021200011F04DFD002350
:1011500009939F4204D0354B06970993344B08936B
:1011600006AC02222100019810F074FB200010F060
:1011700039FB039B002B15D00C220021200011F01D
:1011800033FD0023E3609F4204D0284B0697E360C1
:10119000274BA36002980222210010F05BFB200085
:1011A00010F020FB0C2204991B4B4A439B18002291
:1011B0005A601A725A72039A9E72DD721A73002074
:1011C0000BB0F0BD3F2332009A43C02A0AD1CE2E85
:1011D00008D8184A33409B00D218936D10499B00E1
:1011E0005B587FE701235B4280E73F232A009A4355
:1011F000C02A0AD1CE2D08D80E4A2B409B00D21807
:10120000936D07499B005B5878E701235B4279E7C0
:101210003522094B33E7C0467004002074040020D7
:10122000FC480108BD070008A04101082D03000883
:101230003503000820410108A4040020F0B5514FF7
:1012400089B0012805DC1C2234373A70002009B02F
:10125000F0BD01230C681C4202D04D681D4202D132
:1012600011223437F1E76410621E039200220192CA
:10127000022807D08A681100194001911A4201D052
:1012800053100193631E032B77D86D10EBB20293BA
:101290000C23621E5343381DC018FFF7F9F9EBB257
:1012A0003C2B38D8384BEAB29200D358013364D083
:1012B000EDB200212800023CFFF7CCFE334E022C99
:1012C00003D8334BA4001B191E6A019B04AC012BED
:1012D00033D10C220021200011F086FC0023E360B2
:1012E0009E4204D02B4B0496E3602B4BA360032259
:1012F0002100280010F0AEFA200010F073FA0C2341
:10130000039A02995343FB1800229972FF215A60F5
:10131000D9721A739AE73F23EAB29A43C02A2CD1B2
:10132000EAB2CE2A29D8E8B21C4A03409B00D21860
:10133000936D15499B005B58B8E7019B0C22002177
:101340002000022B0CD111F04FFC0023E3609E42E1
:1013500004D0104B0496E3600F4BA3600222C7E752
:1013600011F042FC0023E3609E4204D0094B049636
:10137000E360094BA3600422BAE73B003522343313
:101380001A7063E770040020FC4801088902000815
:10139000A04101082D030008350300082041010881
:1013A0000B4B0C4A1B6810B5134205D01B021B0ADD
:1013B000102B01D0002010BD1C200321FFF74AFE96
:1013C0001C200DF087FE0128F4D10330F3E7C0465E
:1013D0000470FF1FF0FFFF000C4B0D4A1B6810B597
:1013E000134206D010241B021B0AA34202D0002085
:1013F00010BD1B2420000321FFF72CFE20000DF060
:1014000069FE0128F3D10330F2E7C0460470FF1FE4
:10141000F0FFFF0002001C281ED8114B11481B686A
:10142000114903420AD11B021B0A012B04D12C31A2
:10143000885CFF2810D070474931F9E76631885C35
:10144000153A012AF5D8094A1A40102AF1D01B0290
:101450001B0A123B012BECD901204042EBE7C046AE
:101460000470FF1FF0FFFF00A0410108FEFFFF0016
:101470000122F8B50368134202D04468144203D134
:101480000D221B4B1A70F8BD5D10772BFBD828007E
:10149000FEF780FF061EF6DB2800FFF7BBFF154BAB
:1014A000154F1B5C012B02D030000AF074F92800A4
:1014B000FFF7B0FF54373B5C012B07D001210DF043
:1014C0006FFD2800FFF7A6FF01233B548023621025
:1014D000DB009A4208DB094A300009490FF06EFD33
:1014E0000122084B5A55CEE7D343DB171A40F3E7E6
:1014F000A4040020C404002070040020FF030000A6
:10150000EEB600003405002010B50800FFF7B0FF6C
:10151000002010BD70B50D003B2816D8152815D831
:10152000144B1B5C002B11D0FEF734FF6B425D4166
:1015300004000AF030F9FA210F4B6A421A400F4BAF
:101540002000D21889000FF039FD70BDFFF762FF4F
:101550000400431CF9D00A4E335C012B04D0012156
:101560000DF01EFD01233355290020000DF076FDFE
:10157000EBE7C0463405002001FCFFFFFF0300003D
:10158000C4040020036810B5DA0703D40D22054B0C
:101590001A7010BD4168581004394A425141FFF792
:1015A000B9FFF6E7A404002010B50800FFF7EAFF32
:1015B000002010BDF0B50C001021774B89B00193CD
:1015C0001B1805005956002C5DDC002959DB03234C
:1015D0004B43724AD318603319780023C90051185D
:1015E0004B70D1184978012947D00833602BF8D1C6
:1015F000012002246A4A1369D9688143D960D968F5
:10160000A143D960D9682419A143D960D9680434A9
:10161000A143D960D9680834A143D9601C6A6149E3
:101620000C4206D11C6A60490C4202D11968814300
:101630001960100001214D3001701868884318604E
:1016400013004E33197013004F33197013005033C9
:1016500019701300513319701300523319701300AD
:101660005333197013005433197013005533197024
:1016700013005732563319701170019B5D19FF2307
:101680002B7409B0F0BD002907DB03234B43474807
:101690002100C01808F0A7F8F3E7FFF7BBFE03002E
:1016A00000900133EDD000263C4B404F02933A7836
:1016B0000299D300CB185B780393002B67D1019B71
:1016C0005D192E740B2ADCD8012100980DF068FCFE
:1016D00003227243029B02986033D15C9B18039AE9
:1016E000009D5A709A708823C90045549B009C4203
:1016F0000BDAB42C00DDB424E820C0006043B42130
:1017000010F06AFA88239B00C4183800210008F002
:101710006AF80023214FFA185278012A2DD0083395
:10172000602BF8D11E4C200009F0C0F8204910F0C1
:10173000C9F9256901382900A862200009F074F868
:10174000002220001B4909F0C5F8002305931A4B1D
:1017500004AD0493194B29000793194B20000693FD
:1017600009F04AF8280010F03DF880212269200095
:1017700013688B43136008F0ADFF03233A007343F3
:1017800060329B5C0122DB00FB185A7079E701365E
:1017900003370C2E8BD174E7000000207005002069
:1017A000940F00201111000044040000D005002017
:1017B00040420F00204E00000DA900082D03000834
:1017C00035030008012270B518C9180010401342F3
:1017D0001BD020001040144217D000205D10392B80
:1017E00013D80A4B14419C4200DD1C00084E735D67
:1017F000012B05D0012128000DF0D2FB01237355E8
:1018000028002100FFF7D6FE042070BD88130000D9
:10181000C4040020F0B518C90122180087B0104098
:10182000134218D0210011400800144213D0581060
:10183000392B1DD94D4B1A684D4B1A4217D04D48C4
:1018400013021B0A83422FD007D8102B0DD007207C
:10185000112B0DD0042007B0F0BD4748834225D09E
:10186000464B1A40464B9A42F4D1032000E0152023
:10187000FFF7D0FD0500431CECD0424E424F335CD5
:10188000012B04D001210DF08BFB01237355641053
:1018900022003E4B103A9A420AD9FFF7BDF80021C8
:1018A00028000DF0DBFBD5E70720E1E70800DFE7C4
:1018B000374E73689D4201D0FFF7AEF875602D2C4E
:1018C00002DCFFF7A9F8C5E7EBB23C2B3BD8314B64
:1018D000AD00ED583B6D002B08D1B42011F0B8FBE2
:1018E0002D4901900FF0A1FA019B3B656B1CB1D013
:1018F000B3685A1C01D09D42ACD180235B029C424C
:10190000A8D2012328005B420121F360B56009F0F1
:101910009AFE3D6D02222800610008F0DBFF0023E3
:1019200003931E4B02AC02931D4B210005931D4BEC
:101930002800049308F060FF20000FF053FF386D7B
:1019400008F0C8FE86E73F201A008243C02A0AD169
:10195000CE2B08D8144A03409B00D218936D0D4932
:101960009B005D58B6E701256D42B3E70470FF1F89
:10197000F0FFFF000100070003000C00FBFFFF0069
:1019800001000C00C40400207004002090860100B7
:1019900000000020FC48010800200040F9E9000890
:1019A0002D030008350300082041010870B501250A
:1019B0000A682B00A84200DD4B682A4211D02B4256
:1019C0000FD0012A0DDD5810FFF724FD04003B283D
:1019D00007D8054E335C012B03D001210DF0E0FA4E
:1019E0003555002070BDC046C4040020414B10B5E1
:1019F0001B68414C1B021B0A112B2BD11320FFF734
:101A000009FD60601620FFF705FDA0600B20FFF7C1
:101A100001FDE0601520FFF7FDFC20611720FFF7B6
:101A2000F9FC60610820FFF7F5FCA0610920FFF7D1
:101A3000F1FCE0610620FFF7EDFC20620520FFF7D6
:101A4000E9FC60620420FFF7E5FC0123A0622C346E
:101A5000237010BD294A934225D10720FFF7DAFCF5
:101A600060600520FFF7D6FCA0600020FFF7D2FCE5
:101A7000E0600820FFF7CEFC20610620FFF7CAFCDB
:101A800060610920FFF7C6FCA0611320FFF7C2FCCC
:101A9000E0611220FFF7BEFC20620420FFF7BAFCD1
:101AA00060620320CFE71620FFF7B4FC60601720C8
:101AB000FFF7B0FCA0601820FFF7ACFCE0601B2033
:101AC000FFF7A8FC20611C20FFF7A4FC6061042044
:101AD000FFF7A0FCA0610720FFF79CFCE06103205A
:101AE000FFF798FC20620620FFF794FC60620A2052
:101AF000A9E7C0460470FF1FF005002004000C0099
:101B0000114B124A1B6870B51A40012A04D0104AC2
:101B10001B021B0A934215D10E4B0F4D1B78002B55
:101B200001D1FFF763FF00242B1DE0580021FFF7D0
:101B300091FA2B001833E05801210434FFF78AFA98
:101B4000142CF1D170BDC0460470FF1FEFFFFF00E1
:101B500004000C001C060020F0050020114B124A66
:101B60001B6870B51A40012A04D0104A1B021B0AD8
:101B7000934215D10E4B0F4D1B78002B01D1FFF76F
:101B800035FF00242B001833E0580021FFF762FADC
:101B90002B1DE05800210434FFF75CFA142CF1D11E
:101BA00070BDC0460470FF1FEFFFFF0004000C0073
:101BB0001C060020F005002010B500280BDD0A6887
:101BC000074C131F591E8B412363042A05D0FFF7CE
:101BD000C5FF00236363002010BDFFF791FFFAE704
:101BE000F0050020002070470023012210B50A48AC
:101BF000990001334250802BFAD1084C084B002148
:101C00001A602000074A10F0EFFF074B074A636095
:101C1000074B1A6010BDC046AC110020B829002047
:101C200000000020301C0000A0700000BC29002033
:101C30007004002003000B48DA0704D4042B03D8F7
:101C4000094800D1094870470F211A68181D0A4039
:101C5000042AF8D00648092AF5D00648032AF2D00B
:101C60000548F0E7B7600108C1600108E3600108BA
:101C7000C7600108CE600108DA600108012310B5D1
:101C800004001C40184202D04410200010BD04285B
:101C900010D90F2203681340042B07D1FFF7CAFFA6
:101CA00021000A2210F078FF0400EEE7032B01D197
:101CB0000430F5E70D22014B1A70E6E7A40400207A
:101CC000012310B504001C40184202D0441020002B
:101CD00010BD042810D90F2203681340042B07D12C
:101CE000FFF7A8FF21000A2210F056FF0400EEE7DC
:101CF000032B01D10430F5E70D22014B1A70E6E702
:101D0000A4040020F7B50C00042804DC1C22144BAA
:101D100000201A70FEBD0868FFF7D2FF01906068CE
:101D2000FFF7CEFF0600A068FFF7CAFF0500E068D6
:101D3000FFF7C6FF07002069FFF7C2FFAE4202D1DE
:101D40001F22074BE4E7019BC01B9B1B5843A91BA9
:101D50000FF042FFC31901205B001843DAE7C046C9
:101D6000A404002070B50868FFF7AAFF1C4910F012
:101D700019F80C1E01DA1A4BCC181A4B01269C429A
:101D800004DD194B9C4220DC184B1C1B64212000F5
:101D90000FF022FF64210500200010F003F80A0074
:101DA00013496B005B5E002A0AD001356D00685E46
:101DB000642150438A1A5A4380180FF00DFF030024
:101DC000012073435B00184370BD0A4B9C4204DC46
:101DD000094BE41801267642D8E7014B1C1BF9E7B2
:101DE000A08C0000272300004F4600005046000052
:101DF0004646010877690000B0B9FFFF70B5086872
:101E0000FFF75EFFC317C4185C40012C03DC012000
:101E10006400204370BD6610310020000FF0DCFE2E
:101E200085196D10AE420DDC731C1A0031005A4347
:101E30007143121B641AA24200DB330001205B00D5
:101E40001843E7E7290020000FF0C6FE4019C30F32
:101E50001B182E005D10E5E7002310B50C000B7079
:101E6000C30705D50D494210200011F0D5FF08E049
:101E70000B49002802D0042804D10A49200011F09F
:101E8000F7FF10BD0428FCD90F2203681340042B70
:101E9000F7D1FFF7CFFE04490200E5E7EB5F010849
:101EA000E8600108EA600108EC600108012310B550
:101EB000040008001840194210D104290DD90F223E
:101EC0000B681340042B08D10800FFF7B3FE010094
:101ED00020000FF0D1FD4342584110BD0020FCE727
:101EE000F7B50F00012804DC1C22384B1A700020C3
:101EF000FEBD4D68EB0706D4042D04D90F222B68D4
:101F00001A40092A02D00B22304BEFE76C681B09FC
:101F10009BB26410A34200D85C1E01233E6833408C
:101F2000019301231E4212D070109E4247DD84426D
:101F300045DB8300EB180433844243DC0123621C3D
:101F4000013C9C409200535123436B60CFE731002A
:101F50001F48FFF7ABFF002809D0019B9C42C6DB5E
:101F60000122019B013301939B00EA50F5E7310008
:101F70001848FFF79BFF00280AD0002CB7D0012299
:101F8000631C013C94409B0014435A516C60AEE7C3
:101F9000042E0FD90F2233681340042B0AD13000CE
:101FA000FFF78EFE002808D10B483968FFF77EFF47
:101FB000002804D11122054B98E70028B7DC122233
:101FC000024B93E75A6801301A60B4E7A40400207A
:101FD000F5600108F9600108E8600108F0B51C230C
:101FE00085B0012844DD4B68019301231C000228C1
:101FF00006D08A681A4203D054109A4200DC1C00B2
:102000000127019B3B4200D073E0042B00D870E015
:102010000F221B680D681A40042A38D13D4226D190
:10202000042D24D92B680B321340042B1FD10198A7
:10203000FEF776F8A0425CDB2800FFF7FBFD037893
:102040000500002B55D00198FFF7F4FD013C290055
:102050000600001911F03BFF051E4AD03378002B13
:1020600001D0AE420DD37C000120204303E00E23BB
:1020700000204E4A137005B0F0BD0F23F8E7282367
:10208000F6E73000FEF75DF801370600E6E7092ABB
:102090003FD1019B5E687610B4422ADC3D422DD1CF
:1020A000042D2BD92B6806321340042B26D128008F
:1020B000FFF7C0FD0390019A02940134A300D058A9
:1020C000854203D1029B58003843D4E738420ED1F1
:1020D00004280CD90F2203681340042B07D1FFF703
:1020E000A9FD010003980FF0C7FC0028EAD0B44214
:1020F000E1DD01204042BEE7B442FADC2300019951
:102100000134A2008A58AA42F6D101205B0018438C
:10211000B1E7032AEDD11E09B6B25B0FB60013403A
:10212000F61AB442E5DC3D4228D1042DA5D92B682E
:102130000C321A40032A15D1180980B25B0F8000B7
:1021400013402F1DC01A019B361A013C3818043366
:10215000B442CEDC3A00191982421ED301348242C5
:10216000F6D118E00F23042A00D081E72800FFF7FA
:1021700061FD07002800FDF7D3FFE4E76D10FF2D98
:1021800000D97CE7019B013C0433B442B1DC1A5D09
:102190000134AA42F9D1640066E70D78AC4615789F
:1021A000AC45DBD101310132D6E7C046A4040020A2
:1021B0001C2370B501281BDD01230A681A4216D0C2
:1021C0004868184218D1042816D901680E331940FE
:1021D000013B04290CD15410012A06DDFFF72AFD2A
:1021E0000500FDF7C2FFA0420CDA122300E0112324
:1021F0000020084A137070BD0E23F9E7FDF7A1FF18
:102200000500013C2800012CF8D1FDF7B9FF400082
:102210002043F0E7A4040020F0B585B003930190BB
:102220002F4B0291002A01D00221197000272D495D
:102230009F548A63019B9F4201DB05B0F0BD029A67
:10224000BB00D558274B264E9C6BFA239B00A61942
:102250001C1B01231D4206D0234A6B1021003000B5
:1022600011F0A6FD09E0214A002D02D0042D19D15C
:102270001F4A2100300011F09BFD194C20000FF087
:1022800005FC184A039B9063002B09D0019B013B7E
:10229000BB4205DD431C9363202222540022E254FA
:1022A0000137C7E72800FDF72FFF0300042805D1F9
:1022B0002800FFF7BFFC0F4A0300CFE7092803D12E
:1022C0006B680D4A5B10C9E70C4A0328C6D1296820
:1022D0000A0992B2490F92000B40D31A084ABDE78F
:1022E000D0250020F0050020EB5F0108C160010847
:1022F000E3600108C1620108FE600108186101087D
:102300000D610108002310B51A00FFF785FF034B8C
:10231000986B0DF057FD002010BDC046F005002061
:10232000F8B501230D000600140008001D401942F5
:1023300027D1042941D90A680F210A40042A3CD137
:102340001C4215D1042C38D923680B40042B34D1FE
:10235000FFF770FC05002000FFF76CFC010028006F
:102360000FF08AFB002830DA042370171840F8BDFC
:10237000FFF760FC29000A2210F00EFC0500601037
:1023800012E017001F401A4215D1042A15D913680C
:102390000F221340042B10D120004D10FFF74AFCF0
:1023A0000A22390010F0F8FB8542DDDB08DD002E43
:1023B00009DC0020DBE74D10E1E70F22044B1A7027
:1023C0000136022EF5D80420D1E70028EFD1F7E737
:1023D000A4040020012310B504001C40184202D0C0
:1023E0004410200010BD042810D90F2203681340A8
:1023F000042B07D1FFF71EFC21000A2210F0CCFBB2
:102400000400EEE7032B01D10430F5E70D22014B68
:102410001A70E6E7A404002010B50868FFF7DAFF99
:10242000002010BD086810B5C30703D5FFF7D2FF21
:10243000014B9864002010BD7004002070B508683E
:102440000D00FFF7C7FF04006868013CFFF7C2FFFB
:10245000042C0BD80138042808D805220123424354
:102460001219934002498A6C13438B64002070BD9B
:102470007004002070B508680D00FFF7ABFF040082
:102480006868013CFFF7A6FF042C0BD8013804282C
:1024900008D805224243131901229A4002498B6C45
:1024A00093438B64002070BD70040020114B13B562
:1024B0001B6804001B021B0A012B0BD001210F20FB
:1024C0000CF06EFD21680F2004394B4259410CF08D
:1024D000C5FD13BD07230093043B019303686946C0
:1024E0000220042B02D1FFF7A9FFF2E7FFF7C2FF9A
:1024F000EFE7C0460470FF1F10B50800FFF7D6FFD6
:10250000002010BD70B50C68012325001D401C4241
:1025100017D1042C15D90F2223681340092B10D191
:1025200066687610B54204DB0120FEF70AFD002044
:1025300070BD2300AA0008339858FFF74BFF013500
:10254000F0E72000FFF746FFEEE70868F8B5C3079D
:102550001ED5FFF73FFF0300203B5E2B1AD8052254
:102560000121534342430020104E9B3A052410257D
:10257000F75C3D4200D04018013C49006D10002C32
:10258000F7D101339342F1D143000120184302E017
:10259000042801D80120F8BD0F2302681340042B42
:1025A000F8D1034B1A42F5D00079D4E790420108E4
:1025B000F0FF0F00F0B5060087B008680D00FFF7C8
:1025C00009FF012303901C00022E07DD6868FFF756
:1025D00001FF0400A868FFF7FDFE03005A1D0492E6
:1025E000214A1800916C012200270192461E05968F
:1025F00005264643B44605267642651E221DB44490
:10260000059E042E0DD8042D0BD866467719012699
:10261000BE40019F0296039E374221D0029E314365
:102620000127019E013576000196AA42E8D1049D5A
:102630000130A842DAD1002F01D00B488164042A6E
:102640000BD8012B09D108481D34816C1D00954021
:102650000532A9439442F9D18164002007B0F0BD4E
:10266000029EB143DCE7C04670040020F0B50C00C8
:1026700097B0022805DC1C22D84B1A70002017B036
:10268000F0BD0868FFF7A6FE01906068FFF7A2FEA4
:102690000500A068FFF79EFE04002800FEF7BAFEC2
:1026A00006003B28EAD8CE4D2B5C012B04D001213B
:1026B0000CF076FC0123AB55002130000CF0CEFC71
:1026C0002100C8480FF088FA013805006A1E9541BC
:1026D000C54C451BA368FA21149363688900013334
:1026E000180068431F000FF0EDF90022149B1593AA
:1026F000A36814931599149B994200D346E1159948
:10270000149BFB1A5B18D218149B15939042EFD8B8
:102710000121019B300019400CF0A0FCA368FA21B4
:102720001293636889000133180068431F000FF09B
:10273000C9F90022129B1393A36812931399129B59
:10274000994200D326E11399129BFB1A5B18D21809
:10275000129B13939042EFD8019B30009907C90F49
:102760000CF07CFCA368FA211093636889000133A4
:10277000180068431F000FF0A5F90022109B119369
:10278000A36810931199109B994200D306E1119907
:10279000109BFB1A5B18D218109B11939042EFD834
:1027A000019B30005907C90F0CF058FCA368FA21AF
:1027B0000E93636889000133180068431F000FF00F
:1027C00081F900220E9B0F93A3680E930F990E9B25
:1027D000994200D3E6E00F990E9BFB1A5B18D218C2
:1027E0000E9B0F939042EFD8019B30001907C90F41
:1027F0000CF034FCA368FA210C9363688900013360
:10280000180068431F000FF05DF900220C9B0D9328
:10281000A3680C930D990C9B994200D3C6E00D99C7
:102820000C9BFB1A5B18D2180C9B0D939042EFD8AF
:10283000019B3000D906C90F0CF010FCA368FA21E7
:102840000A93636889000133180068431F000FF082
:1028500039F900220A9B0B93A3680A930B990A9BF0
:10286000994200D3A6E00B990A9BFB1A5B18D21879
:102870000A9B0B939042EFD8019B30009906C90F39
:102880000CF0ECFBA368FA2108936368890001331C
:10289000180068431F000FF015F90022089B0993E8
:1028A000A36808930999089B994200D386E0099987
:1028B000089BFB1A5B18D218089B09939042EFD82B
:1028C000019B30005906C90F0CF0C8FBA368FA2120
:1028D0000693636889000133180068431F000FF0F6
:1028E000F1F80022069B0793A36806930799069BBD
:1028F000994267D20799069BFB1A5B18D218069B70
:1029000007939042F0D8019B30001906C90F0CF0D4
:10291000A5FBA368FA210493676889000137380092
:1029200068430FF0CFF80022049B0593A36804933B
:102930000599049B994249D20599049BFB1A5B189F
:10294000D218049B05939042F0D8300001210CF07E
:1029500085FB2800FA21A368890002936668013686
:1029600070430FF0AFF80022029B0393A368029319
:102970000399029B99422DD20399029BF31A5B188B
:10298000D218029B03939042F0D877E6159B1499D6
:102990005B1AB8E6139B12995B1AD8E6119B109943
:1029A0005B1AF8E60F9B0E995B1A18E70D9B0C99C2
:1029B0005B1A38E70B9B0A995B1A58E7099B089941
:1029C0005B1A78E7079B06995B1A97E7059B0499C2
:1029D0005B1AB5E7039B02995B1AD1E7A4040020B8
:1029E000C404002040420F0010E000E070B5040075
:1029F000FEF7B8FA012805D1043C63425C4165004A
:102A0000280070BD00250428FAD12000FFF712F934
:102A10000400084821000FF02FF8A84207D0210039
:102A200005480FF029F8A842EAD10325E8E7022576
:102A3000E6E7C046186701082A610108F8B50C6886
:102A4000E30704D40D221E4B1A700120F8BD0025A7
:102A50006410012803DD4868FFF7C8FF0500172C44
:102A6000F3D8184B18481A68184B61005B180242DB
:102A700022D1120204269E5F120A012A04D1E31E0B
:102A8000012BE2D90C2CE0D0002EDEDB2000FEF77B
:102A9000C1FC0F4F3B5CAB4206D029000CF080FA22
:102AA0002000FEF7B7FC3D540A21300008F0AAFED2
:102AB000430001201843C9E734269E5FE4E7C0467F
:102AC000A40400200470FF1FF0FFFF002042010853
:102AD000C404002013B50020104C114BE0631B68A8
:102AE000104A13420ED11B0209221B0A012B00D0EF
:102AF0000E3201205200024301A90192FFF79EFF0E
:102B0000401003E0084A1340102B04D043006063D8
:102B10000120184316BD1122EBE7C046F005002046
:102B20000470FF1FF0FFFF00FEFFFF00F8B5060076
:102B300001200B680D00034203D10D22104B1A70C7
:102B4000F8BD5810FEF766FC04003B2801D90020B0
:102B5000F6E70027012E03DD6868FFF747FF07004F
:102B6000084D2B5DBB4204D0390020000CF018FA50
:102B70002F5520000CF0AEFA0128E8D10330DFE732
:102B8000A4040020C4040020086810B5C30706D4BC
:102B9000042804D90F2203681340042B04D00E220A
:102BA00000200D4B1A7010BDFFF744F80378233B4B
:102BB0005A425341C0180378302B05D12022437864
:102BC0009343582B00D10230102200210FF0E4FF74
:102BD000430001201843E6E7A4040020086870B50C
:102BE000012405002540204206D1042804D90F22E3
:102BF00003681340042B04D00E220020054B1A70EA
:102C000070BDFFF717F8022229000FF0C5FF400042
:102C10002043F5E7A40400201C2370B5012833DD10
:102C20000123086818422ED104282CD90F260268E7
:102C30003240042A27D14D682C001C401D4222D16D
:102C4000042D20D92A680D333240042A1CD1FEF706
:102C5000F1FF06002800FEF7EDFF0100300006F04E
:102C600074FD00281DD006F05FFC03787B2B0FD18C
:102C700001300022110006F03BFD002811D006F0C3
:102C80005AFC0134F5E70E230020084A137070BD8A
:102C90005B2B06D1013006F00FFD002801D0013476
:102CA000F9E7012064002043F1E7C046A4040020B6
:102CB00010B5002809DD0868C30706D4042804D924
:102CC0000F2304681C40042C04D00E22054B1A70FC
:102CD000002010BDFEF7AEFFFDF7A8FC0130F7D0D5
:102CE0002000F6E7A4040020F8B5334B334A1B68F4
:102CF0001A40012A04D0324A1B021B0A934214D103
:102D0000304C256B002D10D123002C331B78002B69
:102D100001D1FEF76BFE2C4B226C9B6C190011430A
:102D200004D1E36B002B00D0E163F8BD21004431F6
:102D3000097800290DD1E06B002800D0E1632364FD
:102D4000002A04D0002B02D1FEF708FFEDE7FEF7C2
:102D5000D7FE230044331A780423002A00D0531EE0
:102D60009B00E31800215868FEF774F9270005223C
:102D700044373E78236C7243521913410121994321
:102D80002300AA001833D05801350CF067F9052D3F
:102D9000ECD1B600A61970680121FEF75BF93E7808
:102DA0000121B300E41860680CF058F92900701C88
:102DB0000EF0F8FF3970B8E70470FF1FEFFFFF0057
:102DC00004000C00F005002070040020F0B5A1B054
:102DD00005920A00574F0490386801320368019148
:102DE0001B099BB202929A4200DA89E006F021FBAD
:102DF000FFF77AFF07F094FE002403904E4AA300E9
:102E0000D0580134FDF78CFB802CF7D14B4B186860
:102E1000FDF786FB386C002801D0FDF781FB00260A
:102E2000474D7B6C9E4257DB4649474D0A0013686D
:102E3000141F1B0926689BB2981C002E5DD08B1AAC
:102E40005E1EB3415B420B4023608300C9188000C3
:102E50001218AA42EBD3FDF7F7FA3A4C26000F22DC
:102E600033681D09ADB213420BD06F1CA64204D0CB
:102E700031002000BA0010F06FFC0023BF00E419FD
:102E800008C40235AD0076192F4DAE42E7D32D1B95
:102E9000AD10013D274E2B012360346007F040FE4A
:102EA000039AABB2821A023B284907A810F0B4FF7C
:102EB00007A807F0B7FE06F0BCFAFFF715FF306869
:102EC000029A03681B099BB29A4219DB0A2300206D
:102ED0003436337021B0F0BD2B78002B02D101368F
:102EE000F0359EE72C69013C002CF8DB2B00A2009A
:102EF00018339858FDF714FBF5E71B011360A6E79C
:102F0000019A0C4D941CA2001B1B81181B010B6025
:102F100029600021031F1960019B083A1901049BD5
:102F20001943030002C39A189A42D3D9059902C3E0
:102F3000FAE7C04670040020AC1100200000002019
:102F4000AC130020BC290020E84500202F610108B7
:102F500070B5002204000D00411C0920FFF736FF68
:102F6000002808D0012362001343010043600023BE
:102F70000831A34200DB70BD9A00AE5801338E5079
:102F8000F7E7F7B50F000190012804DC1C221F4B66
:102F90001A700020FEBD0868FEF792FE05007868F2
:102FA000FEF78EFE019B06000124022B07D0B868B5
:102FB000FEF786FE041E02DC2922144BE8E7B54228
:102FC0001CDC701B21000EF007FE461C00220920AD
:102FD000711CFFF7FBFE0028DBD0012273001343B6
:102FE0004360944095400300B60036181100294311
:102FF000996004332D19B342F8D1CBE72100A81B07
:103000000EF0EAFD6442461CE0E7C046A40400203E
:10301000F7B54C680191E30706D4042C04D90F22BC
:1030200023681A40092A04D00B22304B1A70002062
:10303000FEBD1B0965689EB2731E6D10AB4244D87D
:1030400003200B2D08DD972361305B009D4203DCDC
:10305000032128000EF0C0FD254FBB6B9C4234D3EA
:10306000FB6B9C4231D28319190001220920009385
:103070003C64FFF7ABFE00233C6C06003B649842C7
:1030800023D02268009B120992B204309A4200DDDC
:103090001A009200211D0FF002FE164A1649002068
:1030A000131F186013681B099BB202339B00D218D0
:1030B0008A42F4D3271F3E60FDF7C6F900233B6028
:1030C00023680E4A13402360340023681B099BB217
:1030D000013B9D42ABD2019B1A68AB1C9B001A516D
:1030E000012301356D002B436360A0E7A404002099
:1030F00070040020BC290020E8450020F0FF0F00EC
:1031000070B5002805DC1C22164B00241A70200024
:1031100070BD01220D68154202D10D22114BF4E75A
:1031200001281DD04B681342F7D05B10FF2B02D94A
:1031300013220C4BE9E718020200C0181A430004DE
:1031400002436D10EB43DB171D40E91C032089107F
:10315000FFF73CFE041EDAD02900FCF7BEFFD6E7DD
:103160000022EEE7A4040020F7B50F00002805DCDC
:103170001C22324B1A7000242000FEBD0C68012670
:1031800025003540344211D06510FF2D02D913229D
:103190002A4BEFE7002231000320FFF717FE041E41
:1031A000EAD03100FCF799FF2571E5E7042CEED950
:1031B0000F2223681340042B19D12000FCF7B0FF25
:1031C000C11C2A00060089100320FFF7FFFD051E21
:1031D0000BD03100FCF781FF2000FEF72BFD2B1DEB
:1031E0000100320018000FF05AFD2C00C4E7092B33
:1031F00020D1032063682A005B1001930333D917A1
:103200000140C9188910FFF7E1FD041EB3D03F68E3
:103210000199FCF762FF0837221D019B9D42ABDA42
:10322000AB00FB58334203D05B10FF2BAFD8535594
:103230000135F2E7032BAAD19EE7C046A404002083
:1032400010B5094C0022206402210920FFF7BEFDC1
:10325000236C002803D10A233434237010BD0322C9
:1032600083604260FAE7C0467004002070B5040035
:10327000C30708D54410FF2C07D913220A4B002599
:103280001A70280070BD631E9C410022012103209A
:10329000FFF79CFD051E02D10A22034BEFE7012137
:1032A000FCF71BFF2C71ECE7A4040020032304307F
:1032B00010B5C11719400918002204208910FFF722
:1032C00085FD10BDF7B50E000090012805DC1C221D
:1032D0005D4B1A7000242000FEBD4B6801221C00CB
:1032E0001440134202D10D22574BF2E700990229F4
:1032F00002D0B1681142F6D001223768174200D0DF
:103300009EE0042F00D89BE05D10934200DC150086
:103310000F213B681940092927D17B6800995B1070
:103320001A00022901D0B268521000929A4200DDC0
:103330000093009B01225F1B0137FB43DB171F40FB
:103340000920791CFFF742FD041EC3D001237F0032
:103350003B4332684360030008330099A942BADB5B
:103360000135A900515802C3F7E704293CD13800C0
:10337000FEF760FC0190FCF7F8FE009A0300022AB9
:1033800001D0B3685B100093834200DD0090009B86
:10339000AB4223DA0020FFF789FF04009BE7FCF72C
:1033A000D0FE070001343800A542F8D1009BA342AB
:1033B00016DAC51B2800FFF779FF041E00D18AE743
:1033C000FEF738FC00903068FEF734FC2A00019BC1
:1033D000FF1AC11900980FF062FC7CE7019FE2E739
:1033E000FCF7AFFE0134E1E7032929D11A0992B2B3
:1033F0005B0F0B4092000099D21A1300022901D0F2
:10340000B3685B10934200DD1300AB4205DA002283
:1034100003201100FFF7DAFCBFE75E1BB1100022AA
:1034200003200131FFF7D2FC041E00D153E701361F
:1034300031000335FCF751FE3200201D7919CAE72F
:103440002122014B45E7C046A4040020F0B593B00B
:1034500005000191012806DC1C22984B1A700025FA
:10346000280013B0F0BD019B01261B681C003440EE
:10347000334200D0ACE0042B00D8E7E00F271B68F4
:1034800002943B40092B45D1029B019A9B00D358E3
:103490001A0032400392334205D1042B03D9186835
:1034A0003840092804D02222844BD7E70293EBE767
:1034B0005B685B10E418029B01339D42F6D1012248
:1034C000611CFFF783FC051EC9D0640034434460CF
:1034D0000400039A083401999300C95808684B689E
:1034E000000980B25B10984200D8431E00200831CA
:1034F00083420ADCD943C9170B4002999B00E418A8
:10350000531C9142ACDD1A00E5E786008F5901306B
:10351000A751EDE7032B5ED1029B019A9B00D05887
:103520003042C0D10428BED90268110039400329B5
:103530003FD113099BB2520F9B000A409B1A1C19E2
:10354000029B01339D4232D10320E31CD917014075
:10355000C91800228910FFF739FC051E00D17EE74B
:103560002100FCF7BAFD00262F1D019AB300D458A4
:1035700001231C4224D1042C22D90F2223681A4093
:10358000032A1DD1180980B25B0F80001340C01AB6
:1035900000230434834217DBC343029ADB1718402D
:1035A0003F18731CB24200DC5AE71E00DDE70293AD
:1035B000B2E7042900D076E7FCF7B2FD2418BFE794
:1035C0002000FCF7ADFDE3E7E25CFA540133E1E7EC
:1035D00000231C00029301260F27029B019A9B00E7
:1035E000D058304236D1042834D90268110039400D
:1035F000042936D1FCF794FD2418029B01339D4227
:1036000026D12000FFF752FE051E00D127E7002338
:10361000041D0393039B019A9B00D65801231E426D
:103620002AD1042E28D90F2233681A40042A3AD10D
:103630003000FCF775FD07003000FEF7FBFA0100D3
:1036400020003A000FF02BFBE41923E00294C2E7BC
:103650000293C2E705A9FEF7FFFB05A80EF016FAD4
:10366000CAE7032900D01EE713099BB2520F9B0043
:103670000A409B1A1C19C0E7300005A9FEF7ECFBB5
:1036800005A80EF003FA05A90600020020000FF0BD
:1036900006FBA419039B029A039901338A42B8D10D
:1036A00000232370DCE6032AF4D11F09BFB25B0FAD
:1036B000BF001340FF1A311DC2E7C046A40400201A
:1036C000F0B50E0097B0002806DC1C22604B1A7083
:1036D0000025280017B0F0BD0C68012322001A4015
:1036E00000921C4206D1042C04D90F2221681140FB
:1036F000092902D00B22564BE9E761684D10049569
:10370000012904DC0098FFF7D1FD0500E1E75149EC
:10371000019101280BD07068184208D1042806D9FD
:1037200003681340042B02D1FEF784FA019001983C
:103730000EF0ACF905000F27049B0290013B5D439E
:103740000593049B9B00E31803930123A068184290
:103750006CD104286AD9026811003940042903D1C8
:10376000FCF7DEFC451908E0032966D113099BB27A
:10377000520F9B000A409B1A5D19039B0434A3421D
:10378000E3D12800FFF792FD051EA1D0336807930F
:10379000029B002B03D07068FEF74CFA01902800C2
:1037A000FEF748FA0600009B9A00079B08339F58D3
:1037B00001233B40069301231F4241D1042F3FD9EF
:1037C0003800FEF737FA039003980EF05FF9069B76
:1037D0000400002B0ED1042F0CD90F223B681A4095
:1037E000032A07D11C09A4B25B0F391DA4001340A2
:1037F0000391E41A3000220003990FF050FA029B63
:103800003619002B0AD0059B009A934206DD300042
:10381000029A01990FF043FA029BF618009B0133BC
:103820000093009A049B9342BDD152E709A9FEF789
:1038300013FB09A80EF02AF994E7FEF7FBF9F9E764
:10384000380009A9FEF708FB09AB0393BCE7C046A3
:10385000A40400201262010870B5050008000C00E5
:10386000FFF724FD002809D00023021DA34206DB38
:10387000E343DB171C4000231219137070BDE95C91
:10388000D1540133F2E7F0B58DB00C00019001285E
:1038900005DC1C22654B1A7000200DB0F0BD012321
:1038A0000868184206D1042804D90F2102680A408A
:1038B000042A02D00E225D4BEDE7666835001D40FC
:1038C0001E42F7D1042EF5D933680B40042BF1D1F9
:1038D000FEF7B0F907003000FEF7ACF902900EF0E9
:1038E000D5F8019B03900495022B04D0A368043BF8
:1038F0005A425A410492039B002B1FD13800FCF717
:1039000034FC0190019B01220920591CFFF75EFA4B
:10391000474E30640028BFD00122019B5B00134357
:103920004360039B002B2ED13800FCF70AFC019B5F
:103930000400AB4216D13E4B186CAEE7380002993A
:1039400010F0C5FAC01B4342434138000193019B6C
:10395000029901330193039BC01810F0B8FA0028B4
:10396000F5D1CFE73800E11BFFF776FF002800D143
:1039700092E7336CAA009B1898602000FCF7E1FBEB
:1039800027000135D3E7019B012B02D12368836017
:10399000D1E73800029910F09AFA041ECBD0380013
:1039A0000EF074F801263B180593019B9E42C2DC81
:1039B000049BE11B002B23D0A74221D23A783B0085
:1039C0002D2A02D17B1C9C421AD99C4213D10D0096
:1039D000132900DD13252A00390007A810F063FA27
:1039E000002107AB18000A2259550FF0D5F8012322
:1039F000400018430AE01A780133303A092AE4D922
:103A00003800FFF729FF002800D145E7084B0136B1
:103A10001B6CB200D050039B0299E718380010F0DD
:103A200056FA041EC1D1059CBFE7C046A40400207D
:103A300070040020F0B50E0085B0002804DC1C22C4
:103A4000314B1A70002419E00D6801242F00274023
:103A5000254206D1042D20D90F222B681340042BB8
:103A60000FD12800FEF72CF902AC01002000FCF772
:103A7000BCFB011B2000FFF7EFFE0400200005B097
:103A8000F0BD092B09D16B685B100193019B9C422F
:103A900006DD1D4B1B78002B1DD02A221A4BD0E7C8
:103AA0000134A300E858FEF70BF901237F2810DD4D
:103AB0008022DB18120190420BDB8022013352027C
:103AC000904206DB8822023B5202904200DB002338
:103AD0009B00FF18DAE73800FFF7E8FB041EB1D0BF
:103AE000FEF7A8F8376805000126019B9E42C5DC59
:103AF0000136B300F858FEF7E3F801002800FCF7A0
:103B000074FB0500F1E7C046A4040020F0B50E00E8
:103B10008BB0012806DC1C22AA4B1A70002420005E
:103B20000BB0F0BD0C682000FCF7EEFA05007068E1
:103B3000FEF780F8A44907000DF09EFF012600283B
:103B400000D0023E3800A1490DF096FF002800D1B8
:103B5000022638009E490DF08FFF002800D1042670
:103B600038009C490DF088FF002800D10926380054
:103B700099490DF081FF002800D1B6E1731C02D1F4
:103B80003022904BC9E7681E0828C8D80DF090FF76
:103B90000900240056014200C7FFC7FFC7FFC7FF47
:103BA000B000B01E0728BAD80EF020F9043009B9C9
:103BB000B9B9B911042C00D095E1013CAFE78748B1
:103BC000042C00D186480121FFF746FE02E02000C8
:103BD000FFF736FB0400A2E7701E08289FD80EF0FE
:103BE00005F9059E150A9E9E9E9EF600641000D162
:103BF00094E7042493E77B49621002A810F00CF9C3
:103C000002A80DF043FF010002A8DDE72000FFF746
:103C10002DFBDFE7701E082800D980E70DF048FF74
:103C20000900120047007FFF7FFF7FFF7FFF7FFFBC
:103C300019002000FDF7FEFF68490DF01DFF002868
:103C4000D7D16BE72000FEF73BF801244000044386
:103C500065E72000FDF7EEFFFCF787FA624D411C97
:103C60000600002209202C64FFF7B0F8041E02D1E0
:103C70000A22544B51E7012273001343286C6360FE
:103C8000FDF7D8FF00270500BE4200D147E7280016
:103C9000FCF776FA012122004000BB0008430832FD
:103CA000D0502800FCF74DFA01370500ECE7200062
:103CB000FDF7C0FF0DF0EAFE4B4EC11C05000022CF
:103CC000032089103464FFF781F8041ED0D0366CCD
:103CD0002900FCF702FA3000FDF7ACFF0023221D9B
:103CE0009D4200DC1BE7C15CD1540133F8E7032699
:103CF0006568701E6D10032800D910E70DF0CEFE28
:103D0000020E763A012D06D1A4682000FCF7FCF9DA
:103D1000012800D103E72D222A4BFEE6012D03D115
:103D2000A4682C4200D0FAE62C22264BF5E6013698
:103D3000B300E058FDF7C4FF01237F2810DD802287
:103D4000DB18120190420BDB8022013352029042B9
:103D500006DB8822023B5202904200DB00239B00DC
:103D6000FF18B542E3DA174B1F4E1A78002A04D029
:103D70002A22D2E601260027F3E738003464FFF751
:103D800095FA336C041E019300D1C7E6FDF752FF8C
:103D90000127BD4200DAC2E6019A0137BB00D158C3
:103DA0000123194202D12722064BB6E68823491087
:103DB0005B03994203D3312334363370AEE6FCF70C
:103DC00014FAE6E7A40400204F61010857610108D6
:103DD0005E610108656101086A610108E860010827
:103DE000EA600108EB5F0108700400200320EB1C6F
:103DF000D9170140444EC918002289103464FEF7D7
:103E0000E5FF041E00D133E7376C2900FCF765F9A4
:103E10003900002301270831201D9D4200DC7EE689
:103E20009A008A583A42BED05210FF2A02D9132370
:103E30003436C2E7C2540133EFE72E002368701E08
:103E40001D09ADB25B00AD009B0FED1A082800D92B
:103E500065E60DF02DFE0900120064FE190064FEF7
:103E600064FE64FE64FE2B00012D00D053E723792D
:103E70000424002B00D052E650E6012D00D053E779
:103E8000247964002C434AE61F4E28003464FFF76F
:103E90000DFA0423041E316C00D1E9E61A1F954285
:103EA00000DC3CE6CA5CE2540133F7E7164E691CBD
:103EB000002209203464FEF789FF316C041E00D112
:103EC000D6E601206B00034326006360002308361A
:103ED00004319D4200DC22E6CA5C9F00520002438E
:103EE000F2510133F5E7012419E6681E082800D9CC
:103EF00015E60DF0DDFD8BFE8BFEA2FFDCFE14FE51
:103F000014FE14FE14FEFCFE7004002010B588B0F0
:103F1000002806DC1C220024194B1A70200008B06F
:103F200010BD0C682000FCF7EFF80138082823D8F2
:103F30000DF05CFF050E19F422222222190011480F
:103F4000042C00D110480121FFF786FC0400E5E7AE
:103F50000E49621068460FF05FFF68460DF096FD4F
:103F600001006846F0E72000FDF764FE04000DF054
:103F70008DFD01002000E7E70020FFF797F9E5E756
:103F8000A4040020E8600108EA600108EB5F010872
:103F900010B50C4C86B020000DF078FD010020001B
:103FA000032906D00849122201A80EF078FE11213B
:103FB00001A8FFF751FC002802D10A22034B1A7016
:103FC00006B010BD3506002075610108A40400206C
:103FD000F0B59BB0022844DD01230868184245D1A2
:103FE000042843D90F2402682240042A3ED14D6898
:103FF0002F001F401D4239D1042D37D92A68224095
:10400000042A33D18C681C4232D0FDF713FE06001F
:104010002800FDF70FFE01AD010030002F7005F004
:1040200094FB64100600002C08DC28000DF02EFD27
:1040300001002800FFF710FC1BB0F0BD05F0C4FA2A
:104040000228F2D164222900701C05F051FB012CDA
:10405000EBD005F031FB6422290005F049FB013C5F
:10406000F5E71C23034A00201370E5E70E23F9E768
:104070000D23F7E7A404002010B5204CA544041E2E
:1040800002D1FFF713F90BE005F09EFA013806287C
:1040900030D80DF003FD0909192004312C0004204B
:1040A0008023DB009D4410BD200005F044FA8442CB
:1040B00004D3011B2000FFF7CFFBF1E70378013B9E
:1040C0001F2BF6D80138F2E7200005F0A7FA4300CD
:1040D00001201843E4E7802269462000D20005F061
:1040E000B4FA68460DF0D2FC01006846E3E704210B
:1040F0000348E0E70020C4E70020D1E700FCFFFF11
:1041000087610108F7B51C2305000C00012833DD89
:104110000127086838422ED104282CD90F210368C2
:104120000B40042B27D166683E4224D1042E22D9AD
:1041300032680A330A40042A1ED1FDF77BFD019044
:104140003000FDF777FD0100022D19D0A5683D4232
:1041500016D03D41019805F0F8FA040005F034FA54
:10416000012816D1002D02DD0134012D0BD12000D4
:10417000FFF782FF03E00E2300200E4A1370FEBDFE
:1041800001256D42E6E7200005F096FA013D0400A6
:10419000EBE70228EBD1002DE9DD0134012DE6D05B
:1041A00000222000110005F0A3FA05F085FA013D78
:1041B0000400F3E7A4040020F8B51C23022842DD24
:1041C0000123086818423DD104283BD90F25026815
:1041D0002A40042A36D14E6834001C401E4231D198
:1041E000042E2FD932682A40042A2BD18D681D4213
:1041F0002DD0FDF71FFD07003000FDF71BFD01006E
:10420000380005F0A2FA6D1006002000002D25DD13
:10421000300005F0D9F90300701C012B1CD00020E0
:10422000022B1BD1013602000100300005F060FABC
:10423000012D13D005F040FA0022110005F058FAC4
:10424000013DF5E70E230020064A1370F8BD0D234B
:10425000F9E705F031FA013D012DFAD1FFF70CFF26
:10426000F4E7C046A404002070B50C68E30718D535
:104270002000FDF725FD0400203C5E2C13D8002211
:1042800002210320FEF7A2FD051E02D00521FBF747
:1042900024FF052254430B49281D61180EF0FFFC32
:1042A00002E0042C02D80125280070BD0F222368EB
:1042B0001340042BF7D12000FBF702FF0028F2D0B7
:1042C0002479D9E76B440108F0B5364C87B0237CDC
:1042D000002B01D1FCF742FC0A270F26A2693249C4
:1042E0009368136913680B40D9B21C0C180A9B021F
:1042F0009B0F7B4334401B19C0B2039303097B43DC
:1043000030401818C3B202930B097B4331405B184D
:1043100001935368254A13401C04640F0094012440
:10432000D9B2180C1A0A1B0D7B4330401B18D2B2AD
:10433000DBB20D097D430593130923405B423240F4
:1043400031403B409B186D1800220821092004933E
:10435000FEF73CFD002803D1154B1F7007B0F0BDE0
:10436000FA22D2009446059B6D0063445B00234310
:104370008360049B25435B002343C360009B46602E
:104380005B0023434361039B05615B00234383611F
:10439000029B5B002343C361019B5B001C430462DF
:1043A000DCE7C046F00400207F7F7F003FFFFF0076
:1043B000A4040020F7B507000E000DF003FA1D4B12
:1043C0001D4D1A78012A2FD001221A7000232B6567
:1043D0000BF0F8F8002824D1F8231B06FB18DC1793
:1043E0006405640DE418E412F61B2700F117490573
:1043F000490D8919CB120193019B104EE3189F427E
:104400000BD273690E4A1340FA0013430D4A13434B
:1044100073610BF0D7F8002809D002227369934327
:10442000736100234C352B700DF0C2F9F7BD0137D5
:10443000E2E7C0463C060020F005002000200240D4
:1044400007FEFFFF0200010010B5002804D1044858
:104450000449FFF7AFFF10BD02480349F9E7C04622
:104460000080010800C0010800000208431E9841B6
:10447000054B8003C018036800201A0E532A01D18F
:104480001B02180A7047C0460080010813B5431E7E
:1044900098410A4B8403E418A6230902090ADB05A4
:1044A0000B430093002301930DF08CF9009A019BBC
:1044B00020000BF025FE0DF07BF913BD00800108F4
:1044C000154B01005B6E10B5002B0BD1134C144B38
:1044D00000290AD19A680800120E522A01D1083325
:1044E000180010BD0F4C0D4BF2E700208C42F8D99C
:1044F0000B681B0E522BF4D14B689A1C9200881843
:10450000DB0700D50430844203D903681B0E522B0D
:10451000E7D00020E5E7C046F005002000C0010814
:104520000080010800000208F8B50020FFF7C8FF6E
:10453000FF26DA27050036043F04002801D12800B1
:10454000F8BD0468FFF7BCFF3440BC42F5D105005C
:10455000F3E7FF2270B51A4C0021D20020000EF0C4
:1045600043FBFF25FFF7E0FF002600280CD1154B89
:104570001A78002A03D05A78D200A2589A600130E3
:10458000F0330A28F4D170BD03681A142A400C2AAB
:104590000AD11A122A40FF2A03D0D200A1180B71A7
:1045A000A050FFF78DFFE0E7132AFAD11B122B4032
:1045B000FF2BF6D0DB00E2181671E650F1E7C0469B
:1045C000D81D0020AC1300208022F0B5564BA1B0BE
:1045D00004935B6900215200544805930EF004FBDC
:1045E00080220021520052480EF0FEFA514B5B6EC1
:1045F0001A0003935342534118000293FFF724FF1C
:10460000029B9D034C4BED18FFF78EFF061E2BD12E
:104610000398FFF72BFF411C0298FFF737FF029A20
:10462000444B64245A669D66FFF793FF039B8020EA
:104630005A425341414A9B039B18EB1A5C43049A2C
:10464000C00152690190E0178004800C059900199F
:104650008013521A00903A4907A80FF0DDFB07A813
:1046600006F0E0FA21B0F0BD04F0E3FEFF2234686A
:1046700023142712134017401A000C3A072A25D892
:104680002A4BDC5D002C1BD13000FF2103681A127D
:104690000A40974206D11B140B400C2B14D0132B4D
:1046A00000D10024FFF70CFF0028EED1002C04D02D
:1046B00028002100FCF736FC05001C4B0122DA55CE
:1046C0003000FFF7FDFEA1E70400EBE7153B082BE8
:1046D000F6D8174BDB5D002BF2D1FF231B041C40E7
:1046E000184B3000E41863425C4164423440FF21BF
:1046F00003681A140A40152A0FD01D2A00D100247D
:10470000FFF7DEFE0028F2D1002C04D028002100A3
:10471000FCF708FC0500064BD0E7FF221B121340F4
:104720009F42EDD10400EBE7F0040020900E002042
:10473000900D0020F005002008800108008001088D
:104740008C6101080000EBFF70B5104D2C6F6E6F8F
:10475000B4420CDD802228000D49D200121B6118E2
:10476000783004F0C1FA00198005840D2C67A64248
:104770000ADD28000649321B6118783004F0B4FACB
:1047800000198005800D286770BDC046F005002027
:10479000B4060020044A0549536FC85401339B05F1
:1047A0009B0D53677047C046F0050020B4060020FB
:1047B000064A536F126FDB439B189B0501229B0D2A
:1047C000834200DC002210007047C046F005002044
:1047D000F8B505000C0016001F1E0ED10320FFF7D0
:1047E000E7FF002808D0FA20FFF7D4FFE8B2FFF770
:1047F000D1FFE0B2FFF7CEFFF8BD501DFFF7D8FFA5
:104800000028F9D0FB20FFF7C5FFE8B2FFF7C2FF91
:10481000E0B2FFF7BFFFF0B2FFF7BCFF3012C0B24B
:10482000FFF7B8FF0024B442E6DA385DFFF7B2FFC5
:104830000134F8E7F0B587B0039203220333284F21
:10484000DC171440E4187B6EA4105A1E9341BD6E11
:10485000244AA61D9B03B6009B18AA190190029139
:10486000934218D2FFF7B0FE7B6EBD6E5A1E934185
:1048700080225B42D20113401A4AAE199B18B34200
:1048800009D2002319201A001900FFF7A1FF002503
:10489000280007B0F0BD019B039A1B041343029A42
:1048A0002E0012021343A422D2051343049305944D
:1048B0000CF088FF049A059B28000BF021FC0836B9
:1048C0000CF076FF002C07D0210030000C9AFCF78A
:1048D000E3FA012301349C43A4003619BE66D7E7EE
:1048E000F005002000C0010807B500210B000A00F8
:1048F0001D200091FFF79EFF07BDF7B505000022C0
:10490000204B5B6C0193204B0199914211DC0024F8
:10491000F0231A006243009200991B4A575C561814
:10492000002F0FD001340A2CF3D1184806F07AF981
:1049300027E05978A94202D11978002921D1013202
:10494000F033E1E7F022390030000EF04DF9022398
:104950000D4A0099757053540D4BEA00D358B57049
:10496000B3600423F360019B37617761A34202DCEB
:10497000044B01345C64002329001A001020FFF767
:1049800027FFF7BD70040020AC130020CE610108A2
:10499000D81D0020F7B50C000190FEF75DFF002642
:1049A000194B1A4F18603B79062B01D0032B19D1F4
:1049B0007F22386843891340052B13D1C3891340E4
:1049C000292B0FD10C22835E5B000C33C018FDF73E
:1049D00031F903780500002B11D00DF057F80023B2
:1049E000A0420AD001360837FF2EDCD1F7BD019A6C
:1049F000E95CD25C9142F5D101339C42F7DCF0B224
:104A0000FFF77BFFEEE7C04600000020D81D002026
:104A100070B506000024064D2B79B34202D1E0B2F6
:104A2000FFF76BFF01340835FF2CF5D170BDC04690
:104A3000D81D0020F7B506F073F84B4CA3688342ED
:104A400001D90023A360494AC31A93420AD900231B
:104A5000474AA06011790739022963D90133083226
:104A6000FF2BF7D1F7BDE268002A6CD1E560002B7F
:104A700054D0237C0126002B05D10920FFF7C8FF65
:104A80006674267403E00720FFF7C2FF6674E668C9
:104A9000002E06D0637C002B03D1B54209D22E0034
:104AA000E5606769002F0DD1002E2AD1002FD9D0E3
:104AB00010E0AB1B312BF4D90720FFF7A9FF01232E
:104AC0006374EEE7237C002BEED1BD420FD265610B
:104AD000002E15D1009B002BC4D1237C002B02D1CA
:104AE0000820FFF795FF002363612374BAE7ED1BED
:104AF000312DD9D90820FFF78BFF01232374D3E789
:104B00002F00019B002BD1D1637C002B02D1072009
:104B1000FFF77EFF0023E3606374C7E7009B002B71
:104B200016D1B4E7134B5D69002D00D1013500208B
:104B3000FCF736FC01900020FCF74EFC019A6369FB
:104B40000090002A8FD1009A002AA0D0002B9ED17D
:104B5000E3686561002B9AD0637C0126002B8CD022
:104B60000820FFF755FF8CE7700600200F27000094
:104B7000D81D0020F0040020104B70B50500002463
:104B800018005A78AA4204D00134F0330A2CF8D124
:104B900070BDF022130063430021C0180EF024F80A
:104BA000074A536C013BA34200D1546400232900FF
:104BB0001A001120FFF70CFEEAE7C046AC130020F4
:104BC00070040020F8B50F4D00262F000E4C636CCA
:104BD000B3420ADC96223800002112010EF004F8DC
:104BE0000023343423612370F8BD2B78002B05D0CB
:104BF000002311201A006978FFF7EAFD0136F0352D
:104C0000E4E7C046AC13002070040020F0B5002497
:104C100085B00190FFF7D6FF03A80394FDF746FC8B
:104C2000274E3378002B17D02000FBF7B3FB00286A
:104C300001DB06F0B0FD2000FCF7ECFB0500431C97
:104C400008D0204F3B5C002B04D000210AF0A8F9CB
:104C500000237B550023337001340136162CE0D13C
:104C60000024200000210134FCF7A4FC1D2CF8D105
:104C70000024FBF7D1FE134D2B78032B0CD05A1ECA
:104C8000012A0FD8012B07D12000FCF7C3FB431CDE
:104C900002D000210AF0E2F9002120000AF080F998
:104CA00000232B70013401353C2CE5D1019B002BF6
:104CB00004D0FCF799FF044805F0B4FF05B0F0BD3F
:104CC00034050020C4040020E361010870B500240D
:104CD000FFF778FF0120FFF799FF084B084D5A694D
:104CE000084B9A612B79043B012B02D8E0B2FFF705
:104CF00004FE01340835FF2CF4D170BDF00400200F
:104D0000D81D00207006002010B50400064A536F1D
:104D1000126FDB439B189B059B0DA34200DB10BD6C
:104D2000FFF712FDF2E7C046F005002010B505F0D0
:104D300063FF002808D00520FFF7E6FF00231820B6
:104D40001A001900FFF744FD002010BDF0B5150052
:104D5000764C0122A5442C0001900291144015428A
:104D600011D005AB1A706A105A70120E1A71052212
:104D7000691299706D140299DD70FFF729FDCF2338
:104D80009B009D44F0BD042D29D90F2029680840BF
:104D9000042831D1022305AE28003370FCF74AFF06
:104DA00005000CF073FEC82201009200904200DD65
:104DB00011006B1E651CA1420DD1904206D95C48C2
:104DC00004AB03225B49C0180DF069FF33002A00D1
:104DD00002990198D1E72C005D5D3555EAE7042D75
:104DE00001D0002DCBD1032205AB043D1A706A42DD
:104DF000554102225D70EBE709287AD1042205AB08
:104E00001A706A685110521259709A7003912029D1
:104E100001DD202203920027039A06ACDA70039B7F
:104E2000BB4202DC05ABE21AD2E72B00BA00083322
:104E30009E583000FBF768F90138082855D80CF067
:104E40002DFE34054712545454543C000123237062
:104E50007310637072121B0E7614A270E6702371C9
:104E600005340137DBE7022330002370FCF7E2FE54
:104E700006000CF00BFE0300A01C142B09D8002226
:104E80006370934201D1C418EBE7B15C81540132E5
:104E9000F7E714231122637031000DF000FF2E2379
:104EA000E374237563751634DBE70323043E237034
:104EB00073425E4166700234D3E704232370736843
:104EC0005A1062705B12A3700023E3700434C8E7C9
:104ED000052303213268237013099BB2520F9B00F4
:104EE0000A409B1A63701B12EDE700232370013404
:104EF000B7E7032800D042E7052205AB1A700A097C
:104F000092B2490F01409200521A11125A709970D0
:104F1000642A00DD64220421DA70081F904201DB5C
:104F2000043255E7685C58540131F6E7C4FCFFFFD2
:104F300022030000F1600108C368F0B587685B00D8
:104F4000FF180300BBB0183301930269019B920064
:104F50009C18436901999B00CB180293CE4B00909B
:104F60001B78002B0CD100217B5E7F2192101D123B
:104F700002610B40C94A9B009B5802379F461400B0
:104F8000C54BC74D1878FF283ED100221A70C54B7B
:104F90001D6C954207DD0123009A137005F0C0FDDA
:104FA000009B2D185D60009B009A9B68FB1A5B10AC
:104FB000D360019BE41AA410029B1461019A9B1A0E
:104FC000009A9B1053613BB0F0BD14000700D7E777
:104FD00014000700D4E71400D2E71400D0E714004F
:104FE000CEE73400CCE73400CAE71400C8E7340049
:104FF000C6E73400C4E73400C2E714000700BFE787
:10500000039FBDE7049FBBE7009B9A689B78BA1A91
:10501000521012021A43009B597808AB18701012F4
:105020005A7098701014120ED8701A71132005223D
:10503000FFF7CEFB0020F021009B9B4A18706B6CA1
:10504000013B59438A5C824200D16B64924B1870D9
:10505000A9E7009B1120597800231A00FFF7B8FB3D
:105060000023F021009A8E481370436C8E4A013B56
:1050700059438A5C002A96D1436494E7E9E7019B8F
:10508000AD00641BE21A844B92101B78002B00D0F9
:1050900076E700217B5E00991D120A617F217F4A1D
:1050A0000B409B009B58023768E7019B221DD11AD9
:1050B0007B4BD82903DD1A2234331A7060E734336E
:1050C0001B7825608910002B00D058E700203B5E3C
:1050D00000981D1201617F20704903409B0014005D
:1050E0005B5802374AE7019B221DD11AD82903DDFC
:1050F0001A22694B1A7043E70026BB5FEDB21B0210
:105100001D43654BB81C1B7825608910002B00D00F
:105110005BE702203B5E00981D1201617F205F4922
:1051200003409B0014005B58043727E7019B221DB6
:10513000D11AD82903DD1A22574B1A7020E700250F
:105140007B5FB81C5B00FB182360534B89101B78F6
:10515000002B00D03CE702203B5E00981D1201614D
:105160007F204E4903409B0014005B58043705E73D
:10517000019B221DD11AD82903DD1A22464B1A7031
:10518000FEE64A4BAD00EB5889102360424B1B787A
:10519000002B00D01FE700203B5E00981D1201612C
:1051A0007F203E4903409B0014005B580237E5E630
:1051B000043C22683D4BAD00EA50019BE21A364B9D
:1051C00092101B78002B00D0DAE600217B5E00995C
:1051D0001D120A617F21314A0B409B009B58023708
:1051E000CCE6324EAD00A859FCF748FD2A4B04909E
:1051F00003931B78002B00D0C2E6043C2068FCF728
:105200003DFD049BC018012340000343AB51019BAB
:10521000E21A039B92101B78002B00D0B0E600210D
:105220007B5E00991D120A617F211C4A0B409B0086
:105230009B580237A2E6019B221DD11A184BD82990
:1052400003DD1A2234331A709AE6019D029E012072
:10525000B54202D230000C38006834331B7820602D
:105260008910002B00D0B8E600203B5E00981D128C
:1052700001617F20094903409B0014005B580237FD
:105280007CE6019B221DD11A054BD82910DD1A227C
:1052900034331A7074E6C046A4040020FC460108AA
:1052A00070040020F0040020AC130020AC1100209A
:1052B0000198029E8910B04210D230000C3800686C
:1052C000D94E4010AD192D1A0298AD00343328582C
:1052D0001B782060002B08D0140051E618213433CD
:1052E00019700023236014004AE600203B5E0098FA
:1052F0001D1201617F20CD4903409B0014005B58C3
:1053000002373BE6019A0299C94B8A421ED20C39F8
:105310000968C548043C49102D1822686D1A029985
:10532000AD006A503433019A1B78A21A9210002BF8
:1053300000D025E600217B5E00991D120A617F21C5
:10534000BA4A0B409B009B58023717E618223433A9
:105350001A7015E6019B029A93422ED21600B24BA8
:105360000C3EED183368043C5B10EB1A9B00985818
:10537000FCF784FC03902068FCF780FC3368029AF9
:105380005B10ED1A039BAD001E180123760033431A
:10539000AB50019BE21AA74B92101B78002B00D058
:1053A000EEE500217B5E00991D120A617F219F4A74
:1053B0000B409B009B580237E0E518229D4B1A706A
:1053C000DEE5019B221DD11A994BD82903DD1A2253
:1053D00034331A70D4E50298AD00343328581B7862
:1053E00020608910002B00D0F9E500203B5E00987A
:1053F0001D1201617F208D4903409B0014005B5802
:105400000237BBE5043C2368029AAD00AB50019B18
:10541000E21A884B92101B78002B00D0B0E50021D7
:105420007B5E00991D120A617F21804A0B409B0020
:105430009B580237A2E5029B043CAD005D19206831
:105440002E68FCF71BFC01237610361876003343D8
:105450002B60019BE21A774B92101B78002B00D037
:105460008EE500217B5E00991D120A617F216F4A43
:105470000B409B009B58023780E5019BAD00641BED
:10548000A34212D8E21A6B4B92101B78002B00D06B
:1054900076E500217B5E00991D120A617F21634A37
:1054A0000B409B009B58023768E5634A634908A894
:1054B0000EF0B2FC08A805F0B5FB05F0EBFBFCE72D
:1054C000002D02D10023FD5E02376B00FF18019B07
:1054D000E21A9210002D00DA65E5564B1B78002B7E
:1054E00000D04DE500217B5E00991D120A617F21ED
:1054F0004E4A0B409B009B5802373FE5002D02D1DE
:105500000023FD5E02377F226D007F19BB1E1B88C2
:105510001340132B14D10C3C019BE21A454B921003
:105520001B78002B00D02BE500217B5E00991D121B
:105530000A617F213D4A0B409B009B5802371DE5C5
:105540001A2BE9D1043CE7E7002D02D10023FD5ED0
:105550000237043C2368042B04D16B00FF18002D94
:1055600000DA20E5019BE21A324B92101B78002BE7
:1055700000D005E500217B5E00991D120A617F21A4
:105580002A4A0B409B009B580237F7E4002D02D1BA
:105590000023FD5E0237043C2368042B04D06B001B
:1055A000FF18002D00DAFEE4019BE21A214B921055
:1055B0001B78002B00D0E3E400217B5E00991D12D4
:1055C0000A617F21194A0B409B009B580237D5E4A2
:1055D000002D02D10023FD5E0237261F3068C3076D
:1055E0000AD540100138002809DB012340006D0076
:1055F00003437F193360D6E4FCF740FBF2E7019BDD
:105600003400F21A0B4B92101B78002B00D0B7E439
:1056100000217B5E00991D120A617F21034A0B4025
:105620009B009B580237A9E4FDFFFF3FFC460108A1
:1056300070040020A4040020F26101080262010845
:105640000022BB5E02371A12029901989446DA4D85
:10565000D2B2D200091A89100392AA1804911179C2
:10566000D64A032903D002233432137088E426007B
:1056700001990C36701AD82803DD1A2334321370BE
:105680007EE4FF215B0049000B40FE39FF390B43EC
:105690002360009B34329B681278FB1A0B41009FF9
:1056A0001B02BF7880103B438B400B436360049B1D
:1056B0008B401943A1606146009B9970039B009940
:1056C0005B598B60002A04D008331F003400029617
:1056D00056E47F211F0008229B5E009A1D12106174
:1056E0000B40B74A9B0034009B580A37029645E4AA
:1056F000231F1D68029A019B934233D10A20EB07B6
:1057000013D4042D18D90F222B68F7301340FF3023
:10571000042B0AD12800FCF78DFA0CF0B7F9C82346
:105720009B00984200D9180006306430FFF740F81B
:1057300000280DD1023F36E40720042DF5D0684241
:105740006841A04B4042184080239B00C018ECE702
:10575000009B2A0059781220FFF7F8FA0023009ADC
:10576000137020E4029B984C0C3B1B6800995B1063
:10577000E41A029BA4001C1920C4083B1B685A10A1
:105780008A708D49D2B2D2005B0057589B0A009AAA
:105790005B009760FF18029B019A043B1B685B103B
:1057A0009B00D3180293894BA21A1B789210002BEE
:1057B00001D0FFF7E5FB00217B5E00991D120A6115
:1057C0007F217F4A0B409B009B580237FFF7D6FB97
:1057D000231F1868FCF752FAAD00019B641BE31A03
:1057E0009B10060003931E2831DC784B1D7800289F
:1057F00011DC002D01D0FFF7C3FB0022BB5E039933
:10580000009A1D1211617F216D4A0B409B009B582D
:105810000237FFF7B3FB05F083F9033E361805F0B6
:105820007FF96B4B801B9842F9D8002D01D0FFF710
:10583000A7FB0022BB5E0399009A1D1211617F2114
:105840005F4A0B409B009B580237FFF797FB0123F1
:10585000009A073E137005F063F9009B36185E60EE
:10586000FFF7A1FB231F1868FCF708FAAD00019BA6
:10587000641BE21A06009210002812DC534B1B78BE
:10588000002B01D0FFF77CFB00217B5E00991D12ED
:105890000A617F214A4A0B409B009B580237FFF761
:1058A0006DFB4C4B984204DD1D22484B1A70FFF7EC
:1058B00067FB0123009A137005F032F9FA239B006D
:1058C0007343009A073B1B185360FFF76CFBAB0058
:1058D000E41A002328001A002100FCF79DFC3E4D2D
:1058E0003E4EA96B3000FDF7B7FF3D4BA96B18602A
:1058F0003000FFF74FF8A86B0AF064FA019BE21A38
:10590000324B92101B78002B01D0FFF739FB00219E
:105910007B5E00991D120A617F21294A0B409B0082
:105920009B580237FFF72AFB019BAD00641BE21A6C
:10593000264B92101B78002B01D0FFF721FB002192
:105940007B5E00991D120A617F211D4A0B409B005E
:105950009B580237FFF712FB0026224D009B0136B1
:10596000AB421AD1154B5E64F0350A2EF6D1019B7D
:10597000E21A164B92101B78002B01D0FFF700FBA8
:1059800000217B5E00991D120A617F210C4A0B40A9
:105990009B009B580237FFF7F1FA2B78002BE3D0DE
:1059A000002369781A001120FEF712FFF02200216F
:1059B00028000DF019F9D7E7D81D00207004002049
:1059C000FC46010807FEFFFFFDFFFF3FA404002087
:1059D0007F96980080EE3600F0050020D02500204C
:1059E00000000020AC130020231F1868002855D1A8
:1059F000083B1868C30733D540102200012341003B
:105A0000083A0B431360002800DC92E001234200B7
:105A10001A43211F0A602200083A1668043A1E4100
:105A2000361A106818423CD0F6189E401E43029B5E
:105A3000AD00EE50019BE21AD94B92101B78002B5F
:105A400001D0FFF79DFA00217B5E00991D120A61CB
:105A50007F21D44A0B409B009B580237FFF78EFAF8
:105A6000042816D90F2203681A40092A01D1406878
:105A7000C2E7042A04D1FCF7DDF8FAF776FBBCE7AD
:105A8000032A06D1180980B25B0F80001340C01AA8
:105A9000B3E71922C24B1A70FFF772FA40100138AF
:105AA000B1E7042840D90F2102680A40092A06D12B
:105AB0000236B6003358AD00029AAB50BAE7042A5A
:105AC0002AD1029BAD005B190493FCF7B3F80500E3
:105AD0000136012E10DC2800FAF733FB431B1800B7
